:020000040800F2
:1000000000300020D9180008211900082119000823
:10001000211900082119000821190008000000001A
:10002000000000000000000000000000211900088E
:1000300021190008000000002119000821190008FA
:1000400000000000000000000000000000000000B0
:1000500000000000000000000000000000000000A0
:100060000000000000000000000000000000000090
:100070000000000000000000000000000000000080
:100080000000000000000000000000000000000070
:100090000000000000000000000000000000000060
:1000A0000000000000000000000000000000000050
:1000B0000000000000000000000000000000000040
:1000C0000000000000000000000000000000000030
:1000D0000000000000000000000000000000000020
:1000E0000000000000000000000000000000000010
:1000F0000000000000000000000000000000000000
:1001000000000000000000000000000000000000EF
:1001100000000000000000000000000000000000DF
:1001200000000000000000000000000000000000CF
:1001300000000000000000000000000000000000BF
:1001400000000000000000000000000000000000AF
:10015000000000000000000000000000000000009F
:10016000000000000000000000000000000000008F
:10017000000000000000000000000000000000007F
:08018000000000000000000077
:1001880010B5054C237833B9044B13B10448AFF3C9
:1001980000800123237010BD280400200000000007
:1001A800FC1A0008084B10B51BB108490848AFF302
:1001B80000800848036803B910BD074B002BFBD02B
:1001C800BDE81040184700BF000000002C040020C4
:1001D800FC1A0008280400200000000000207047D6
:1001E80008B500F0F9FD002008BD10B5044600F080
:1001F80093F9204600F0F8FD00F096F92246102108
:10020800722000F0A7F8002010BD00007FB56A46F4
:100218006D461E4B03F110061446186859680833DA
:1002280003C4B3422246F7D100F0FAF800F012F9FD
:1002380000F04CF900F0CAFD284600F0CDFD68201A
:1002480000F08AF9652000F087F96C2000F084F945
:100258006C2000F081F96F2000F07EF90A2000F090
:100268007BF900F06FF80A4A10216B2000F054F86F
:10027800084A1021702000F04FF8074A0021782022
:1002880000F04AF800F088F8FCE700BF141B0008EB
:10029800E9010008F3010008E501000800207047A3
:1002A800134670B501319C1AA04232DD0D7811F861
:1002B800014CA5F13006F6B2092E01D81E700DE0EA
:1002C800A5F14106052E01D8373D06E0A5F16106E6
:1002D800052E01D9012070BD573D1D70A4F13005D0
:1002E800EEB2092E03D81C7844EA05140DE0A4F1F7
:1002F8004105052D01D8373C04E0A4F16105052D21
:10030800E8D8573C1D7845EA04141C7002310133C3
:10031800C9E7002070BD000030B5094D2B680A2BD5
:100328000BDC402909D80C2404FB03540133207149
:10033800A160E2602B60002030BD012030BD00BF0D
:1003480044040020024A00217620FFF7E5BF00BFE1
:10035800A50200082DE9F04115460F462C4600F08D
:10036800FBF80C4E631B9F420EDDA04614F8013BC0
:100378001B09F05C00F0F0F898F8003003F00F0368
:10038800F05C00F0E9F8EDE70A20BDE8F04100F084
:10039800E3B800BF241B0008F0B5204DB3B000F04F
:1003A800CBF82B6800242A1D0C219C420BDA01FB98
:1003B80004F6B65C864204D10C27002607FB0457D6
:1003C8000CE00134F1E726D0F6E700F0B5F80A288A
:1003D80021D00D281FD012ABF0540136BB68B6EB04
:1003E800430FF2D300F0A8F80A2801D00D2812D143
:1003F8000C2303FB045402AA12A9A068FFF750FFBC
:1004080048B9E36802A8984732AA02F8C40D012146
:100418007A20FFF79FFF33B0F0BD00BF44040020EF
:1004280030B593B000240323052506A80693079545
:1004380009940D9400F0D0F80F2301932946012365
:1004480001A8029303940494059400F029FA13B0C8
:1004580030BD000030B54FF4C06389B00393022368
:100468000025164C04930693012207230195059253
:100478000793236B03A913432363236B104813408B
:100488000193019B00F094FA0E480F4A4FF416436B
:1004980080E80C000C2302958560C56005618561C4
:1004A8004361636C43F010036364636C03F01003EF
:1004B8000293029B00F066FB09B030BD0038024091
:1004C80000000240C40400200010014070B5104B29
:1004D80086B0002400941A6B0E4D42F001021A6394
:1004E8001B6B4FF4805603F001030093009B01231C
:1004F800029301A90223284604930196039400F06D
:1005080057FA22463146284600F038FB06B070BD3F
:10051800003802400000024001224FF48051014897
:1005280000F02CBB0000024000224FF4805101482B
:1005380000F024BB0000024007B541F288330122D5
:100548000DF10701034800F0E9FB9DF8070003B02F
:100558005DF804FBC404002007B502A901F8010DE9
:1005680041F288330122034800F082FB03B05DF8B2
:1005780004FB00BFC4040020024B1868421C1A6028
:10058800704700BFC004002070B5044616461D46DB
:100598002068036831EA03031BD06B1CF9D095B9B6
:1005A80023680320DA6822F4D072DA605A6922F0EC
:1005B80001025A61202384F8393084F83A30002344
:1005C80084F8383070BDFFF7D7FF801B8542DFD233
:1005D800E6E7002070BD00000368F7B5DC070146B8
:1005E80003D40B68980737D487E0A64B9A6802F0C3
:1005F8000C02042A07D09A6802F00C02082A0BD1D0
:100608005B685A0208D59F4B1B689B03E9D54B686A
:10061800002BE6D1012033E19B4B0A791A704B6815
:100628006BB1FFF7A9FF0546964C23689F03D8D402
:10063800FFF7A2FF401B6428F7D9032020E1FFF74A
:100648009BFF05468F4C23689E03CAD5FFF794FF8E
:10065800401B6428F7D9F0E78A4B9A6812F00C0F10
:1006680007D09A6802F00C02082A17D15B685D026D
:1006780014D4844B1A68940702D5CA68012AC9D1D0
:100688001A68F82090FAA0F0B0FA80F00C6922F00D
:10069800F80204FA00F002431A602EE0CA687B4BA5
:1006A800EAB101221A60FFF767FF0646754D2B680D
:1006B800744C980705D4FFF75FFF801B0228F6D912
:1006C800BBE72368F82292FAA2F2B2FA82F208692A
:1006D80023F0F80300FA02F2134323600DE01A60D6
:1006E800FFF74AFF0546674C23689A0705D5FFF7C9
:1006F80043FF401B0228F7D99FE70B681B0703D469
:100708000B685F0745D51FE04A69614B72B101224A
:100718001A60FFF731FF05465A4C636F9E07EFD406
:10072800FFF72AFF401B0228F7D986E71A60FFF770
:1007380023FF0546534C636F9807E1D5FFF71CFF6D
:10074800401B0228F7D978E7002301934D4B514C01
:100758001A6C42F080521A641B6C03F080530193A8
:10076800019B236843F480732360FFF705FF054668
:100778002368DA0510D5484B0A7A1A708B68BBB122
:10078800FFF7FAFE41F2883605463E4C236F9B0779
:1007980008D58A69DAB959E0FFF7EEFE401B02284E
:1007A800E6D94AE7FFF7E8FE401BB042EED944E736
:1007B800FFF7E2FE41F288360546324C236F9F0769
:1007C800E7D5FFF7D9FE401BB042F7D935E72D4CE6
:1007D800A36803F00C03082B3FF41CAF2F4D002334
:1007E800022A2B6040D1FFF7C7FE07462368254E33
:1007F80098012DD447F6C07292FAA2F24FF4403312
:10080800B2FA82FE93FAA3F34FF07062B3FA83F759
:1008180092FAA2F2B2FA82F0CC690B6A4A6A2343CE
:1008280002FA0EF243EA02048B6A5A08013A02FA03
:1008380007F3CA6A234382401343736001232B6082
:10084800FFF79AFE014633689A0107D5002017E0A2
:10085800FFF792FEC01B6428C8D9EEE6FFF78CFEAE
:10086800401A6428EFD9E8E6FFF786FE01462368B8
:100878009B01EBD5FFF780FE401A6428F7D9DCE628
:1008880003B0F0BD00380240023802400000474281
:10089800800E4742007000407038024060004742B6
:1008A800F8B5414B04461A6802F00F028A420AD38F
:1008B8002068850710D53D4DAB6823F0F002A3688A
:1008C8001343AB6008E0CAB21A701B6803F00F0349
:1008D8009942EDD00120F8BDC20706D4324B1A6800
:1008E80002F00F02914241D347E062682F4B012A80
:1008F800186802D110F4003F06E0022A02D110F075
:10090800007F01E010F0020FE4D09868274E20F035
:10091800030002439A60FFF72FFE63680546012B28
:1009280041F288370BD1B36803F00C03042BD5D000
:10093800FFF722FE401BB842F5D90320F8BD022B71
:100948000FD1B36803F00C03082BC7D0FFF714FED0
:10095800401BB842F5D9F0E7FFF70EFE401BB8423E
:10096800EBD8B36813F00C0FF6D1B7E7CAB21A7018
:100978001B6803F00F039942ACD12068430706D5E2
:100988000A498B6823F4E052E36813438B6010F044
:10099800080008D0054A21699368002023F46043C1
:1009A80043EAC1039360F8BD003C024000380240AE
:1009B8002DE9F04F6D4F0B68BE4685B0DFF8B4C126
:1009C800DFF8B481019300220124019B944034EAAA
:1009D800030340F0C3804D6825F0100ABAF1020FF6
:1009E80014D14FEAD20900EB890902F0070BD9F8B4
:1009F80020604FEA8B0B0F2303FA0BF326EA03065A
:100A08000B6903FA0BF33343C9F820304FEA420B62
:100A18004FF0030909FA0BF96FEA0909036805F0B1
:100A2800030603EA090306FA0BF60AF1FF3A334311
:100A3800BAF1010F03600FD88368CE6809EA03038F
:100A480006FA0BF61E4386604368C5F3001623EAD0
:100A58000403964033434360C36809EA03098B687B
:100A680003FA0BF343EA0903C360EB0076D50023CE
:100A78000393DCF8446022F0030946F48046CCF87E
:100A88004460DCF8446009F1804906F48046039626
:100A980009F59C3902F0030A354B039E4FEA8A0A8E
:100AA800D9F808B00F2606FA0AF698422BEA060685
:100AB80020D003F5806398421ED003F580639842E6
:100AC8001CD003F5806398421AD003F580639842DE
:100AD80018D0404518D003F50063984216D003F5A6
:100AE8008063984214D003F58063984214BF0923A9
:100AF80008230EE000230CE001230AE0022308E0AB
:100B0800032306E0042304E0052302E0062300E0B3
:100B1800072303FA0AF33343E643C9F808303B686E
:100B280015F4803F0CBF33402343CEF80030DEF885
:100B3800043015F4003F0CBF334023437B60BB688F
:100B480015F4801F0CBF33402343CEF80830DEF87D
:100B58000C30AD0254BF33402343FB600132102AEE
:100B68007FF432AF05B0BDE8F08F00BF003C014014
:100B780000000240003802400014024002B9090493
:100B88008161704730B500286ED090F8393003F095
:100B9800FF020BB980F838200168242380F8393027
:100BA800CB68846823F40053CB600B69C56923F4D0
:100BB8004052C368B5F5004F43EA020302690B616E
:100BC800CB6844EA0204426923F4164342EA040269
:100BD80042EA050223F00C0343EA0203CB604B69A7
:100BE80023F44072836943EA02034B61426815D1DA
:100BF8001E4B5200B3FBF2F26424B2FBF4F504FB83
:100C08001522D2003232B2FBF4F303F007025B0084
:100C180002EB051203F4F87313440FE0134C92002F
:100C2800B4FBF2F26423B2FBF3F403FB14221201C7
:100C38003232B2FBF3F3DBB203EB04138B600B69C4
:100C4800202223F490430B614B6923F02A034B6164
:100C5800CB6843F40053CB600023C36380F839208A
:100C680080F83A20184630BD012030BD0080FC0ACB
:100C7800F8B51F4690F839300D46202B044611462A
:100C88004AD1002D46D0002A44D090F83830012BA4
:100C980042D0012380F838300023C363212380F831
:100CA8003930FFF769FC0646A184E184E38C9BB2E6
:100CB80013B3E38C3246013B9BB2E384A3688021E3
:100CC800B3F5805F20463B460DD1FFF75DFC08B1C8
:100CD8000320F8BD2B882268C3F3080353602369F7
:100CE80043B90235E2E7FFF74FFC0028F0D123684B
:100CF8002A785A600135D9E73B46324640212046DA
:100D0800FFF742FC0028E3D1202384F8393084F827
:100D18003800F8BD0120F8BD0220F8BDF8B51F461F
:100D280090F83A300D46202B044611464BD1002D41
:100D380047D0002A45D090F83830012B43D0012302
:100D480080F838300023C363222380F83A30FFF755
:100D580013FC0646A185E185E08D80B258B3E38D8A
:100D68003246013B9BB2E385A3682021B3F5805F3F
:100D780020463B4611D1FFF707FC08B10320F8BD18
:100D8800236822695B6822B9C3F3080325F8023B8C
:100D9800E2E7DBB225F8013BDEE7FFF7F5FB0028C9
:100DA800ECD1236821696A1C5B6809B103F07F03F1
:100DB8002B701546D0E7202384F83A3084F83800A1
:100DC800F8BD0120F8BD0220F8BD0000014800F080
:100DD80013B800BF0405002001468022014800F036
:100DE80011B800BF0405002003460246012101484E
:100DF80000F062BD040500204FF48C72002100F061
:100E0800B5BD0000C02AF0B507D0B2F5807F06D086
:100E1800802A40F0F8800A2302E00C2300E00E2329
:100E2800036000F10803436052090024944210D083
:100E380001EB8407BD787E782D0445EA062511F874
:100E480024603543FE7845EA066543F824500134AA
:100E5800ECE702680C2A38D00E2A75D00A2A40F02E
:100E6800D5806B4D0026DC681A6855F826100136C7
:100E78005140C4F307222A4492F8280005EB146273
:100E880092F82820414081EA0241E2B22A4492F8CD
:100E980028200A2E81EA0261C4F307422A4492F804
:100EA800282003F1100381EA022253F80C1C1A606F
:100EB80082EA010253F8081C5A6082EA01029A6029
:100EC80082EA0402DA60CED1A0E0514C00255869CC
:100ED80054F825101A6801354A40C0F30721214407
:100EE80091F82810082D82EA010204EB106191F8AC
:100EF800281003F1180382EA0142C1B2214491F893
:100F0800281082EA0162C0F30741214491F82810B1
:100F180082EA012253F8141C1A6082EA010253F88B
:100F2800101C5A6082EA010253F80C1C9A6082EA8B
:100F3800010253F8081CDA6082EA01021A6182EAA7
:100F480000025A61C3D161E031480025DC691A68A2
:100F580050F825109E685140C4F30722024492F8C5
:100F680028200135514000EB146292F82820072D03
:100F780081EA0241E2B2024492F8282003F12003F8
:100F880081EA0261C4F30742024492F8282081EA08
:100F9800022153F81C2C196081EA020153F8142C21
:100FA800596081EA060182EA01029960D1B20144DE
:100FB80091F8286053F8101CDA6081EA060100EB0A
:100FC800126696F8286081EA0661C2F3072606448D
:100FD800C2F3074296F82860024492F8282081EA72
:100FE800062181EA024253F80C1C1A6182EA0102C6
:100FF80053F8081C5A6182EA01029A6182EA0402E3
:10100800DA61A3D102E06FF01F00F0BD0020F0BD4F
:10101800341B00082DE9F04747680D683B684E68A7
:101028005D407B688C685E40BB68C9685C40FB6853
:101038005940036838464FEA630850F810AF844BAC
:1010480008F1FF38B8F1000F8646814F00F1200003
:101058005FFA85F940F3FE804FEA116C03EB8909CA
:1010680003EB8C0CDCF83074D9F830E04FEA1569E2
:101078008EEA070E50F8207C03EB89098EEA070EEA
:10108800C6F3072703EB8707D7F830784FEA166AC5
:101098008EEA0707C4F3074E03EB8E0EDEF830EC3A
:1010A80003EB8A0A87EA0E0EF7B203EB8707D7F835
:1010B80030C0D9F83074C6F307468CEA070C50F8EC
:1010C8001C7C03EB86068CEA070CC4F3072703EBAA
:1010D8008707D7F8307808F1FF388CEA0707C1F39B
:1010E800074C03EB8C0CDCF830CC87EA0C0CE7B22D
:1010F80003EB8707D7F83090DAF83074240E89EAC2
:10110800070950F8187C03EB840489EA0709C1F33E
:10111800072703EB8707D7F83078C9B289EA0707AA
:10112800C5F3074903EB8909D9F8309C03EB810122
:1011380087EA0907D1F83090D4F83014C5F30725A9
:1011480089EA010903EB850550F8141CD5F83048E5
:1011580089EA01016140D6F8304C4FEA1C6A81EAFD
:1011680004094FEA19615FFA8EF403EB840403EB78
:101178008101246BD1F8301403EB8A0A84EA010553
:10118800CCF3072150F8104C03EB8101D1F830184B
:101198006C404C40C7F3074103EB8101D1F8305C48
:1011A8004FEA1E6165405FFA8CF403EB840403EB9D
:1011B8008101246BD1F83014CCF3074C84EA010682
:1011C800C7F3072150F80C4C03EB8101D1F8301814
:1011D80074404C40C9F3074103EB8101D1F8306CEE
:1011E800F9B203EB810166400C6BDAF830143F0E5C
:1011F8004C4050F8081C03EB87076140C9F30724EB
:1012080003EB8404D4F8304803EB8C0C6140CEF334
:10121800074403EB8404D4F8304CCEF3072E4C403B
:101228005FFA89F103EB8101D1F83090D7F83014D7
:1012380003EB8E0E89EA010750F8041CD0F800A0D1
:101248007940DEF830787940DCF8307C7940F9E68E
:101258002C2C00080B0E07EB890907EB8303D9F840
:101268003000D3F830344FEA156880EA030CC6F32F
:10127800072307EB8303D3F830388CEA0A0A8AEA93
:10128800030AC4F3074307EB8303D3F8303C07EBA7
:1012980088088AEA030CF3B207EB8303186BD8F8C3
:1012A80030344FEA16695840DEF8043007EB8909F4
:1012B8004340C4F3072007EB8000D0F830084340D0
:1012C800C1F3074007EB8000D0F8300C5840E3B278
:1012D80007EB8303D3F83080D9F83034240E88EA3A
:1012E8000308DEF8083007EB840488EA0308C1F332
:1012F800072307EB8303D3F83038C9B288EA03031E
:10130800C5F3074807EB8808D8F8308C07EB81014C
:1013180083EA0808096BD4F83034C5F307254B4035
:10132800DEF80C1007EB85055940D5F830384B4CE2
:101338005940C6F3074307EB8303D3F8303C5940C1
:101348005FFA8CF3234493F82870DEF8103004EB2E
:1013580011657B4095F82870C0F30725254483EA7A
:10136800076395F82870C8F30745254483EA0723DF
:1013780095F82870DEF8145083EA0747C3B223446F
:1013880093F8286004EB1C63754093F82860C8F351
:101398000723234485EA066593F82860C1F30743C9
:1013A800234485EA062593F828605FFA88F32344E6
:1013B80085EA064693F82850DEF8183004EB1868DA
:1013C8006B4004EB106595F82850C0F3074083EA9A
:1013D8000563C1F30725254495F8285083EA0523BA
:1013E800CCF30745254495F82850CCF3072C83EA1D
:1013F8000545CBB2234493F82810DEF81C30A444EA
:10140800594098F82830044481EA03639CF828106E
:10141800177083EA012394F82810167183EA0143B0
:10142800390A5170390C9170310A5171310C91712E
:10143800290A5172290C9172190A3F0E360E15723B
:1014480013732D0E5173190C1B0ED770D671D572EC
:101458009173D3730020BDE8F08700BF341B0008E8
:101468002DE9F04F43680D684E688F68D1F80C80FD
:10147800D9681C6888EA0108016865404FEA610C70
:1014880019465C6851F8109F66409C68874B7C4001
:101498000CF1FF3CBCF1000F0F46844801F120011C
:1014A8005FFA85FE40F30481370E03EB870703EBF1
:1014B8008E0ED7F82805DEF828E1C8F307278EEA4C
:1014C800000E03EB870751F8200CD7F828798EEA2D
:1014D80000007840C4F3074703EB8707D7F8287D57
:1014E8004FEA146980EA070EF0B203EB800003EBC1
:1014F8008909D0F82871D9F828054FEA186A4740B1
:1015080051F81C0C03EB8A0A7840C5F3072703EB54
:101518008707D7F828790CF1FF3C7840C8F30747CC
:1015280003EB8707D7F8287D5FFA88F880EA070B6E
:10153800E7B203EB8707D7F82891DAF8287503EBA9
:10154800880889EA070951F8187CD8F8288189EAB7
:101558000709C6F3072703EB8707D7F82879C4F3E9
:10156800072489EA0707C5F3074903EB8909D9F86E
:10157800289D2D0E87EA090703EB8509D9F8285518
:1015880003EB840488EA050851F8145CD4F8284968
:10159800C6F3074688EA050503EB86066540D6F8D4
:1015A800284D4FEA1B6685EA04085FFA8EF403EBC0
:1015B800840403EB8606D4F82851D6F828454FEA68
:1015C8001769654051F8104C03EB89096C40C8F362
:1015D800072503EB8505D5F82869C7F3074503EB0D
:1015E8008505D5F8285D744065405FFA8BF403EBF8
:1015F8008404D4F82861D9F828454FEA186A664067
:1016080051F80C4C03EB8A0A7440CEF3072603EB1F
:101618008606D6F828697440C8F3074603EB8606A1
:10162800D6F8286D5FFA88F86640FCB203EB8404AC
:10163800D4F82891DAF8284503EB880889EA0409E0
:1016480051F8084CD8F8288189EA0409CBF3072413
:1016580003EB8404D4F8284951F8040C89EA0404FB
:10166800CEF307494FEA1E6E03EB8E0EDEF828E52F
:10167800C7F3072788EA0E0888EA000803EB8707FC
:10168800CBF3074003EB8909D7F8287903EB8000EF
:10169800D9F8289DD0F8280D88EA070784EA0904B4
:1016A80087EA0008D1F80090F4E600BF341B000870
:1016B800330E00EB8E0E00EB8303DEF82811D3F80F
:1016C800283581EA030CC8F3072300EB8303D3F81A
:1016D80028398CEA090989EA0309C4F3074300EBAE
:1016E8008303D3F8283D210E89EA030CF3B200EBFB
:1016F800830300EB8101D3F828E1D1F82835C5F33D
:1017080007218EEA030E00EB81017B68D1F82819C6
:101718008EEA03034B40C8F3074100EB8101D1F87F
:10172800281D83EA010EE1B24FEA186300EB81013C
:1017380000EB8303D1F82811D3F828355FFA88F82D
:1017480081EA0309C6F30723B96800EB8303D3F8DA
:10175800283989EA01015940C5F3074300EB83039F
:10176800D3F8283D2D0E00EB880800EB850581EAAB
:101778000309D8F82811D5F82835C4F3072481EAD5
:10178800030500EB8404FB68C6F30746D4F8281960
:1017980000EB86006B40D0F8285D4B405D40454B20
:1017A8005FFA8CF1194411F8C84C396903EB1E60D3
:1017B800614010F8C84CC5F30720184481EA046159
:1017C80010F8C84CC9F30740184481EA042110F8FE
:1017D800C84C81EA04445FFA8EF1194411F8C80C28
:1017E8007969414003EB196010F8C80C81EA00617F
:1017F800CCF30720184410F8C80C81EA0021C5F37F
:101808000740184410F8C80C81EA00405FFA89F1D3
:10181800194411F8C86CB969C9F30729714003EB79
:10182800156616F8C86CEDB281EA0661CEF3072694
:101838001E4416F8C86C1D4481EA0621CCF30746FD
:101848001E4416F8C86C03EB1C6C81EA064115F8B7
:10185800C86CFD69994475401CF8C86CCEF3074EF6
:1018680085EA06659E4419F8C86C1EF8C83C85EAE6
:10187800062585EA0343250A14705570250C240EA5
:10188800D470040A10715471040C000ED071080A47
:1018980011725072080C090ED172190A1373517320
:1018A800190C1B0E9072957094719173D37300206C
:1018B800BDE8F08F243D000810B4144601291A46EB
:1018C800214602D110BCFFF7A5BB10BCFFF7C8BD6D
:1018D800002103E00B4B5B58435004310A480B4B83
:1018E80042189A42F6D30A4A02E0002313600432EF
:1018F800084B9A42F9D3AFF3008000F00FF8FEF7D7
:1019080085FCFEE72841000800000020280400208C
:10191800280400201C060020FEE7000070B50F4ECA
:101928000F4D761BB61018BF002405D0013455F8AA
:10193800043B9847A642F9D10A4E0B4D00F0DAF85D
:10194800761BB61018BF002406D0013455F8043BA6
:101958009847A642F9D170BD70BD00BF1C41000870
:101968001C410008244100081C41000870B4840789
:1019780046D0541E002A41D0CDB2034602E0621E72
:10198800E4B3144603F8015B9A07F8D1032C2ED967
:10199800CDB245EA05250F2C45EA054519D9264655
:1019A80003F11002103E0F2E42F8105C42F80C5C56
:1019B80042F8085C42F8045C02F11002F2D8A4F183
:1019C800100222F00F0204F00F041032032C13440B
:1019D8000DD91E462246043A032A46F8045BFAD873
:1019E800221F22F003020432134404F003042CB132
:1019F800C9B21C4403F8011BA342FBD170BC704759
:101A080014460346C2E700BF024B13B1024800F078
:101A180005B8704700000000311A0008002301468D
:101A28001A46184600F014B838B5074D074C2C1B59
:101A3800A41005D0013C55F8043D9847002CF9D175
:101A4800BDE8384000F05CB828410008244100088F
:101A58002DE9F047254C064625688846D5F84841C3
:101A680092469946C4B360681F2817DC411C76B1BA
:101A780004EB8003C3F888A0D4F88851012282407F
:101A88001543022EC4F88851C3F808911ED0831C50
:101A98006160002044F82380BDE8F087144B03B34D
:101AA8004FF4C870AFF300800446D0B1D5F8483180
:101AB800002784E888003846C5F848410121C4F861
:101AC8008871C4F88C71002EE1D0D1E7D4F88C313C
:101AD8001A43C4F88C21DAE705F5A674C5F848411D
:101AE800C1E74FF0FF30BDE8F08700BF184100089C
:101AF80000000000F8B500BFF8BC08BC9E4670475F
:0C1B0800F8B500BFF8BC08BC9E46704752
:101B14002B7E151628AED2A6ABF7158809CF4F3CFD
:101B2400303132333435363738394142434445460F
:101B34000100000002000000040000000800000092
:101B440010000000200000004000000080000000A1
:101B54001B00000036000000637C777BF26B6FC5CE
:101B64003001672BFED7AB76CA82C97DFA5947F09C
:101B7400ADD4A2AF9CA472C0B7FD9326363FF7CC78
:101B840034A5E5F171D8311504C723C31896059A15
:101B9400071280E2EB27B27509832C1A1B6E5AA038
:101BA400523BD6B329E32F8453D100ED20FCB15B23
:101BB4006ACBBE394A4C58CFD0EFAAFB434D33858C
:101BC40045F9027F503C9FA851A3408F929D38F560
:101BD400BCB6DA2110FFF3D2CD0C13EC5F97441797
:101BE400C4A77E3D645D197360814FDC222A90880E
:101BF40046EEB814DE5E0BDBE0323A0A4906245C9A
:101C0400C2D3AC629195E479E7C8376D8DD54EA9FE
:101C14006C56F4EA657AAE08BA78252E1CA6B4C6CA
:101C2400E8DD741F4BBD8B8A703EB5664803F60E23
:101C3400613557B986C11D9EE1F8981169D98E9412
:101C44009B1E87E9CE5528DF8CA1890DBFE642682B
:101C540041992D0FB054BB1651F4A7507E416553E2
:101C64001A17A4C33A275E963BAB6BCB1F9D45F175
:101C7400ACFA58AB4BE303932030FA55AD766DF6CE
:101C840088CC7691F5024C254FE5D7FCC52ACBD7F5
:101C940026354480B562A38FDEB15A4925BA1B6745
:101CA40045EA0E985DFEC0E1C32F7502814CF01227
:101CB4008D4697A36BD3F9C6038F5FE715929C9566
:101CC400BF6D7AEB955259DAD4BE832D587421D363
:101CD40049E069298EC9C84475C2896AF48E797845
:101CE40099583E6B27B971DDBEE14FB6F088AD1748
:101CF400C920AC667DCE3AB463DF4A18E51A318256
:101D04009751336062537F45B16477E0BB6BAE8417
:101D1400FE81A01CF9082B94704868588F45FD1962
:101D240094DE6C87527BF8B7AB73D323724B02E219
:101D3400E31F8F576655AB2AB2EB28072FB5C203B2
:101D440086C57B9AD33708A5302887F223BFA5B26E
:101D540002036ABAED16825C8ACF1C2BA779B4926F
:101D6400F307F2F04E69E2A165DAF4CD0605BED5BB
:101D7400D134621FC4A6FE8A342E539DA2F355A00B
:101D8400058AE132A4F6EB750B83EC394060EFAAC7
:101D94005E719F06BD6E10513E218AF996DD063DA7
:101DA400DD3E05AE4DE6BD4691548DB571C45D056D
:101DB4000406D46F605015FF1998FB24D6BDE9972B
:101DC400894043CC67D99E77B0E842BD07898B88A8
:101DD400E7195B3879C8EEDBA17C0A477C420FE93E
:101DE400F8841EC90000000009808683322BED4868
:101DF4001E1170AC6C5A724EFD0EFFFB0F853856E7
:101E04003DAED51E362D39270A0FD964685CA6214C
:101E14009B5B54D124362E3A0C0A67B19357E70FD3
:101E2400B4EE96D21B9B919E80C0C54F61DC20A26C
:101E34005A774B691C121A16E293BA0AC0A02AE513
:101E44003C22E043121B171D0E090D0BF28BC7AD8C
:101E54002DB6A8B9141EA9C857F11985AF75074C3A
:101E6400EE99DDBBA37F60FDF701269F5C72F5BC94
:101E740044663BC55BFB7E348B432976CB23C6DCAF
:101E8400B6EDFC68B8E4F163D731DCCA426385106F
:101E94001397224084C61120854A247DD2BB3DF885
:101EA400AEF93211C729A16D1D9E2F4BDCB230F360
:101EB4000D8652EC77C1E3D02BB3166CA970B99997
:101EC400119448FA47E96422A8FC8CC4A0F03F1A94
:101ED400567D2CD8223390EF87494EC7D938D1C1CB
:101EE4008CCAA2FE98D40B36A6F581CFA57ADE283B
:101EF400DAB78E263FADBFA42C3A9DE45078920DFC
:101F04006A5FCC9B547E4662F68D13C290D8B8E8C3
:101F14002E39F75E82C3AFF59F5D80BE69D0937C96
:101F24006FD52DA9CF2512B3C8AC993B10187DA746
:101F3400E89C636EDB3BBB7BCD2678096E5918F4B5
:101F4400EC9AB701834F9AA8E6956E65AAFFE67EE0
:101F540021BCCF08EF15E8E6BAE79BD94A6F36CE25
:101F6400EA9F09D429B07CD631A4B2AF2A3F2331E9
:101F7400C6A5943035A266C0744EBC37FC82CAA68E
:101F8400E090D0B033A7D815F104984A41ECDAF7C1
:101F94007FCD500E1791F62F764DD68D43EFB04D71
:101FA400CCAA4D54E49604DF9ED1B5E34C6A881B59
:101FB400C12C1FB84665517F9D5EEA04018C355DD6
:101FC400FA877473FB0B412EB3671D5A92DBD2520E
:101FD400E91056336DD647139AD7618C37A10C7A22
:101FE40059F8148EEB133C89CEA927EEB761C93595
:101FF400E11CE5ED7A47B13C9CD2DF5955F2733FC1
:102004001814CE7973C737BF53F7CDEA5FFDAA5BC7
:10201400DF3D6F147844DB86CAAFF381B968C43EF0
:102024003824342CC2A3405F161DC372BCE2250CB5
:10203400283C498BFF0D954139A80171080CB3DE8A
:10204400D8B4E49C6456C1907BCB8461D532B6701D
:10205400486C5C74D0B85742F4A750514165537E24
:1020640017A4C31A275E963AAB6BCB3B9D45F11F71
:10207400FA58ABACE303934B30FA5520766DF6ADCA
:10208400CC769188024C25F5E5D7FC4F2ACBD7C5F1
:102094003544802662A38FB5B15A49DEBA1B672541
:1020A400EA0E9845FEC0E15D2F7502C34CF0128123
:1020B4004697A38DD3F9C66B8F5FE703929C951562
:1020C4006D7AEBBF5259DA95BE832DD47421D3585F
:1020D400E0692949C9C8448EC2896A758E7978F441
:1020E400583E6B99B971DD27E14FB6BE88AD17F044
:1020F40020AC66C9CE3AB47DDF4A18631A3182E552
:1021040051336097537F45626477E0B16BAE84BB13
:1021140081A01CFE082B94F94868587045FD198F5E
:10212400DE6C87947BF8B75273D323AB4B02E27215
:102134001F8F57E355AB2A66EB2807B2B5C2032FAE
:10214400C57B9A863708A5D32887F230BFA5B2236A
:10215400036ABA0216825CEDCF1C2B8A79B492A76B
:1021640007F2F0F369E2A14EDAF4CD6505BED506B7
:1021740034621FD1A6FE8AC42E539D34F355A0A207
:102184008AE13205F6EB75A483EC390B60EFAA40C3
:10219400719F065E6E1051BD218AF93EDD063D96A3
:1021A4003E05AEDDE6BD464D548DB591C45D057169
:1021B40006D46F045015FF6098FB2419BDE997D627
:1021C4004043CC89D99E7767E842BDB0898B8807A4
:1021D400195B38E7C8EEDB797C0A47A1420FE97C3A
:1021E400841EC9F800000000808683092BED483264
:1021F4001170AC1E5A724E6C0EFFFBFD8538560FE3
:10220400AED51E3D2D3927360FD9640A5CA6216848
:102214005B54D19B362E3A240A67B10C57E70F93CF
:10222400EE96D2B49B919E1BC0C54F80DC20A26168
:10223400774B695A121A161C93BA0AE2A02AE5C00F
:1022440022E0433C1B171D12090D0B0E8BC7ADF288
:10225400B6A8B92D1EA9C814F119855775074CAF36
:1022640099DDBBEE7F60FDA301269FF772F5BC5C90
:10227400663BC544FB7E345B4329768B23C6DCCBAB
:10228400EDFC68B6E4F163B831DCCAD7638510426B
:1022940097224013C61120844A247D85BB3DF8D281
:1022A400F93211AE29A16DC79E2F4B1DB230F3DC5C
:1022B4008652EC0DC1E3D077B3166C2B70B999A993
:1022C4009448FA11E9642247FC8CC4A8F03F1AA090
:1022D4007D2CD8563390EF22494EC78738D1C1D9C7
:1022E400CAA2FE8CD40B3698F581CFA67ADE28A537
:1022F400B78E26DAADBFA43F3A9DE42C78920D50F8
:102304005FCC9B6A7E4662548D13C2F6D8B8E890BF
:1023140039F75E2EC3AFF5825D80BE9FD0937C6992
:10232400D52DA96F2512B3CFAC993BC8187DA71042
:102334009C636EE83BBB7BDB267809CD5918F46EB1
:102344009AB701EC4F9AA883956E65E6FFE67EAADC
:10235400BCCF082115E8E6EFE79BD9BA6F36CE4A21
:102364009F09D4EAB07CD629A4B2AF313F23312AE5
:10237400A59430C6A266C0354EBC377482CAA6FC8A
:1023840090D0B0E0A7D8153304984AF1ECDAF741BD
:10239400CD500E7F91F62F174DD68D76EFB04D436D
:1023A400AA4D54CC9604DFE4D1B5E39E6A881B4C55
:1023B4002C1FB8C165517F465EEA049D8C355D01D2
:1023C400877473FA0B412EFB671D5AB3DBD252920A
:1023D400105633E9D647136DD7618C9AA10C7A371E
:1023E400F8148E59133C89EBA927EECE61C935B791
:1023F4001CE5EDE147B13C7AD2DF599CF2733F55BD
:1024040014CE7918C737BF73F7CDEA53FDAA5B5FC3
:102414003D6F14DF44DB8678AFF381CA68C43EB9EC
:1024240024342C38A3405FC21DC37216E2250CBCB1
:102434003C498B280D9541FFA80171390CB3DE0886
:10244400B4E49CD856C19064CB84617B32B670D519
:102454006C5C7448B85742D05051F4A7537E416520
:10246400C31A17A4963A275ECB3BAB6BF11F9D456D
:10247400ABACFA58934BE303552030FAF6AD766DC6
:102484009188CC7625F5024CFC4FE5D7D7C52ACBED
:10249400802635448FB562A349DEB15A6725BA1B3D
:1024A4009845EA0EE15DFEC002C32F7512814CF01F
:1024B400A38D4697C66BD3F9E7038F5F9515929C5E
:1024C400EBBF6D7ADA9552592DD4BE83D35874215B
:1024D4002949E069448EC9C86A75C28978F48E793D
:1024E4006B99583EDD27B971B6BEE14F17F088AD40
:1024F40066C920ACB47DCE3A1863DF4A82E51A314E
:10250400609751334562537FE0B1647784BB6BAE0F
:102514001CFE81A094F9082B58704868198F45FD5A
:102524008794DE6CB7527BF823AB73D3E2724B0211
:1025340057E31F8F2A6655AB07B2EB28032FB5C2AA
:102544009A86C57BA5D33708F2302887B223BFA566
:10255400BA02036A5CED16822B8ACF1C92A779B467
:10256400F0F307F2A14E69E2CD65DAF4D50605BEB3
:102574001FD134628AC4A6FE9D342E53A0A2F35503
:1025840032058AE175A4F6EB390B83ECAA4060EFBF
:10259400065E719F51BD6E10F93E218A3D96DD069F
:1025A400AEDD3E05464DE6BDB591548D0571C45D65
:1025B4006F0406D4FF605015241998FB97D6BDE923
:1025C400CC8940437767D99EBDB0E8428807898BA0
:1025D40038E7195BDB79C8EE47A17C0AE97C420F36
:1025E400C9F8841E000000008309808648322BED60
:1025F400AC1E11704E6C5A72FBFD0EFF560F8538DF
:102604001E3DAED527362D39640A0FD921685CA644
:10261400D19B5B543A24362EB10C0A670F9357E7CB
:10262400D2B4EE969E1B9B914F80C0C5A261DC2064
:10263400695A774B161C121A0AE293BAE5C0A02A0B
:10264400433C22E01D121B170B0E090DADF28BC784
:10265400B92DB6A8C8141EA98557F1194CAF750732
:10266400BBEE99DDFDA37F609FF70126BC5C72F58C
:10267400C544663B345BFB7E768B4329DCCB23C6A7
:1026840068B6EDFC63B8E4F1CAD731DC1042638567
:10269400401397222084C6117D854A24F8D2BB3D7D
:1026A40011AEF9326DC729A14B1D9E2FF3DCB23058
:1026B400EC0D8652D077C1E36C2BB31699A970B98F
:1026C400FA1194482247E964C4A8FC8C1AA0F03F8C
:1026D400D8567D2CEF223390C787494EC1D938D1C3
:1026E400FE8CCAA23698D40BCFA6F58128A57ADE33
:1026F40026DAB78EA43FADBFE42C3A9D0D507892F4
:102704009B6A5FCC62547E46C2F68D13E890D8B8BB
:102714005E2E39F7F582C3AFBE9F5D807C69D0938E
:10272400A96FD52DB3CF25123BC8AC99A710187D3E
:102734006EE89C637BDB3BBB09CD2678F46E5918AD
:1027440001EC9AB7A8834F9A65E6956E7EAAFFE6D8
:102754000821BCCFE6EF15E8D9BAE79BCE4A6F361D
:10276400D4EA9F09D629B07CAF31A4B2312A3F23E1
:1027740030C6A594C035A26637744EBCA6FC82CA86
:10278400B0E090D01533A7D84AF10498F741ECDAB9
:102794000E7FCD502F1791F68D764DD64D43EFB069
:1027A40054CCAA4DDFE49604E39ED1B51B4C6A8851
:1027B400B8C12C1F7F466551049D5EEA5D018C35CE
:1027C40073FA87742EFB0B415AB3671D5292DBD206
:1027D40033E91056136DD6478C9AD7617A37A10C1A
:1027E4008E59F81489EB133CEECEA92735B761C98D
:1027F400EDE11CE53C7A47B1599CD2DF3F55F273B9
:10280400791814CEBF73C737EA53F7CD5B5FFDAABF
:1028140014DF3D6F867844DB81CAAFF33EB968C4E8
:102824002C3824345FC2A34072161DC30CBCE225AD
:102834008B283C4941FF0D957139A801DE080CB382
:102844009CD8B4E4906456C1617BCB8470D532B615
:1028540074486C5C42D0B857A75051F465537E411C
:10286400A4C31A175E963A276BCB3BAB45F11F9D69
:1028740058ABACFA03934BE3FA5520306DF6AD76C2
:10288400769188CC4C25F502D7FC4FE5CBD7C52AE9
:1028940044802635A38FB5625A49DEB11B6725BA39
:1028A4000E9845EAC0E15DFE7502C32FF012814C1B
:1028B40097A38D46F9C66BD35FE7038F9C9515925A
:1028C4007AEBBF6D59DA9552832DD4BE21D3587457
:1028D400692949E0C8448EC9896A75C27978F48E39
:1028E4003E6B995871DD27B94FB6BEE1AD17F0883C
:1028F400AC66C9203AB47DCE4A1863DF3182E51A4A
:10290400336097517F45625377E0B164AE84BB6B0B
:10291400A01CFE812B94F90868587048FD198F4556
:102924006C8794DEF8B7527BD323AB7302E2724B0D
:102934008F57E31FAB2A66552807B2EBC2032FB5A6
:102944007B9A86C508A5D33787F23028A5B223BF62
:102954006ABA0203825CED161C2B8ACFB492A77963
:10296400F2F0F307E2A14E69F4CD65DABED50605AF
:10297400621FD134FE8AC4A6539D342E55A0A2F3FF
:10298400E132058AEB75A4F6EC390B83EFAA4060BB
:102994009F065E711051BD6E8AF93E21063D96DD9B
:1029A40005AEDD3EBD464DE68DB591545D0571C461
:1029B400D46F040615FF6050FB241998E997D6BD1F
:1029C40043CC89409E7767D942BDB0E88B8807899C
:1029D4005B38E719EEDB79C80A47A17C0FE97C4232
:1029E4001EC9F8840000000086830980ED48322B5C
:1029F40070AC1E11724E6C5AFFFBFD0E38560F85DB
:102A0400D51E3DAE3927362DD9640A0FA621685C40
:102A140054D19B5B2E3A243667B10C0AE70F9357C7
:102A240096D2B4EE919E1B9BC54F80C020A261DC60
:102A34004B695A771A161C12BA0AE2932AE5C0A007
:102A4400E0433C22171D121B0D0B0E09C7ADF28B80
:102A5400A8B92DB6A9C8141E198557F1074CAF752E
:102A6400DDBBEE9960FDA37F269FF701F5BC5C7288
:102A74003BC544667E345BFB29768B43C6DCCB23A3
:102A8400FC68B6EDF163B8E4DCCAD7318510426363
:102A940022401397112084C6247D854A3DF8D2BB79
:102AA4003211AEF9A16DC7292F4B1D9E30F3DCB254
:102AB40052EC0D86E3D077C1166C2BB3B999A9708B
:102AC40048FA1194642247E98CC4A8FC3F1AA0F088
:102AD4002CD8567D90EF22334EC78749D1C1D938BF
:102AE400A2FE8CCA0B3698D481CFA6F5DE28A57A2F
:102AF4008E26DAB7BFA43FAD9DE42C3A920D5078F0
:102B0400CC9B6A5F4662547E13C2F68DB8E890D8B7
:102B1400F75E2E39AFF582C380BE9F5D937C69D08A
:102B24002DA96FD512B3CF25993BC8AC7DA710183A
:102B3400636EE89CBB7BDB3B7809CD2618F46E59A9
:102B4400B701EC9A9AA8834F6E65E695E67EAAFFD4
:102B5400CF0821BCE8E6EF159BD9BAE736CE4A6F19
:102B640009D4EA9F7CD629B0B2AF31A423312A3FDD
:102B74009430C6A566C035A2BC37744ECAA6FC8282
:102B8400D0B0E090D81533A7984AF104DAF741ECB5
:102B9400500E7FCDF62F1791D68D764DB04D43EF65
:102BA4004D54CCAA04DFE496B5E39ED1881B4C6A4D
:102BB4001FB8C12C517F4665EA049D5E355D018CCA
:102BC4007473FA87412EFB0B1D5AB367D25292DB02
:102BD4005633E91047136DD6618C9AD70C7A37A116
:102BE400148E59F83C89EB1327EECEA9C935B76189
:102BF400E5EDE11CB13C7A47DF599CD2733F55F2B5
:102C0400CE79181437BF73C7CDEA53F7AA5B5FFDBB
:102C14006F14DF3DDB867844F381CAAFC43EB968E4
:102C2400342C3824405FC2A3C372161D250CBCE2A9
:102C3400498B283C9541FF0D017139A8B3DE080C7E
:102C4400E49CD8B4C190645684617BCBB670D53211
:102C54005C74486C5742D0B8C66363A5F87C7C8426
:102C6400EE777799F67B7B8DFFF2F20DD66B6BBD19
:102C7400DE6F6FB191C5C55460303050020101035D
:102C8400CE6767A9562B2B7DE7FEFE19B5D7D76211
:102C94004DABABE6EC76769A8FCACA451F82829D0D
:102CA40089C9C940FA7D7D87EFFAFA15B25959EB03
:102CB4008E4747C9FBF0F00B41ADADECB3D4D467FC
:102CC4005FA2A2FD45AFAFEA239C9CBF53A4A4F727
:102CD400E47272969BC0C05B75B7B7C2E1FDFD1C80
:102CE4003D9393AE4C26266A6C36365A7E3F3F415E
:102CF400F5F7F70283CCCC4F6834345C51A5A5F4C6
:102D0400D1E5E534F9F1F108E2717193ABD8D873E8
:102D1400623131532A15153F0804040C95C7C75274
:102D2400462323659DC3C35E30181828379696A1A1
:102D34000A05050F2F9A9AB50E07070924121236B1
:102D44001B80809BDFE2E23DCDEBEB264E2727691B
:102D54007FB2B2CDEA75759F1209091B1D83839E4C
:102D6400582C2C74341A1A2E361B1B2DDC6E6EB2A2
:102D7400B45A5AEE5BA0A0FBA45252F6763B3B4DEC
:102D8400B7D6D6617DB3B3CE5229297BDDE3E33ECA
:102D94005E2F2F7113848497A65353F5B9D1D1684C
:102DA40000000000C1EDED2C40202060E3FCFC1F7E
:102DB40079B1B1C8B65B5BEDD46A6ABE8DCBCB4644
:102DC40067BEBED97239394B944A4ADE984C4CD40A
:102DD400B05858E885CFCF4ABBD0D06BC5EFEF2AA7
:102DE4004FAAAAE5EDFBFB16864343C59A4D4DD782
:102DF40066333355118585948A4545CFE9F9F91031
:102E040004020206FE7F7F81A05050F0783C3C44CF
:102E1400259F9FBA4BA8A8E3A25151F35DA3A3FE3B
:102E2400804040C0058F8F8A3F9292AD219D9DBC0A
:102E340070383848F1F5F50463BCBCDF77B6B6C129
:102E4400AFDADA754221216320101030E5FFFF1A52
:102E5400FDF3F30EBFD2D26D81CDCD4C180C0C1402
:102E640026131335C3ECEC2FBE5F5FE1359797A2B1
:102E7400884444CC2E17173993C4C45755A7A7F2D6
:102E8400FC7E7E827A3D3D47C86464ACBA5D5DE7F2
:102E94003219192BE6737395C06060A0198181986B
:102EA4009E4F4FD1A3DCDC7F44222266542A2A7E23
:102EB4003B9090AB0B8888838C4646CAC7EEEE29BC
:102EC4006BB8B8D32814143CA7DEDE79BC5E5EE28E
:102ED400160B0B1DADDBDB76DBE0E03B64323256D8
:102EE400743A3A4E140A0A1E924949DB0C06060A41
:102EF4004824246CB85C5CE49FC2C25DBDD3D36E2D
:102F040043ACACEFC46262A6399191A8319595A403
:102F1400D3E4E437F279798BD5E7E7328BC8C84339
:102F24006E373759DA6D6DB7018D8D8CB1D5D56497
:102F34009C4E4ED249A9A9E0D86C6CB4AC5656FA52
:102F4400F3F4F407CFEAEA25CA6565AFF47A7A8E1A
:102F540047AEAEE9100808186FBABAD5F078788889
:102F64004A25256F5C2E2E72381C1C2457A6A6F108
:102F740073B4B4C797C6C651CBE8E823A1DDDD7CA2
:102F8400E874749C3E1F1F21964B4BDD61BDBDDC74
:102F94000D8B8B860F8A8A85E07070907C3E3E4252
:102FA40071B5B5C4CC6666AA904848D80603030533
:102FB400F7F6F6011C0E0E12C26161A36A35355F85
:102FC400AE5757F969B9B9D01786869199C1C158D6
:102FD4003A1D1D27279E9EB9D9E1E138EBF8F81375
:102FE4002B9898B322111133D26969BBA9D9D9702E
:102FF400078E8E89339494A72D9B9BB63C1E1E226C
:1030040015878792C9E9E92087CECE49AA5555FF8D
:1030140050282878A5DFDF7A038C8C8F59A1A1F87A
:10302400098989801A0D0D1765BFBFDAD7E6E63125
:10303400844242C6D06868B8824141C3299999B094
:103044005A2D2D771E0F0F117BB0B0CBA85454FC12
:103054006DBBBBD62C16163A6363A5C67C7C84F87C
:10306400777799EE7B7B8DF6F2F20DFF6B6BBDD615
:103074006F6FB1DEC5C55491303050600101030259
:103084006767A9CE2B2B7D56FEFE19E7D7D762B50D
:10309400ABABE64D76769AECCACA458F82829D1F09
:1030A400C9C940897D7D87FAFAFA15EF5959EBB2FF
:1030B4004747C98EF0F00BFBADADEC41D4D467B3F8
:1030C400A2A2FD5FAFAFEA459C9CBF23A4A4F75323
:1030D400727296E4C0C05B9BB7B7C275FDFD1CE17C
:1030E4009393AE3D26266A4C36365A6C3F3F417E5A
:1030F400F7F702F5CCCC4F8334345C68A5A5F451C2
:10310400E5E534D1F1F108F9717193E2D8D873ABE4
:103114003131536215153F2A04040C08C7C7529570
:1031240023236546C3C35E9D181828309696A1379D
:1031340005050F0A9A9AB52F0707090E12123624AD
:1031440080809B1BE2E23DDFEBEB26CD2727694E17
:10315400B2B2CD7F75759FEA09091B1283839E1D48
:103164002C2C74581A1A2E341B1B2D366E6EB2DC9E
:103174005A5AEEB4A0A0FB5B5252F6A43B3B4D76E8
:10318400D6D661B7B3B3CE7D29297B52E3E33EDDC6
:103194002F2F715E848497135353F5A6D1D168B948
:1031A40000000000EDED2CC120206040FCFC1FE37A
:1031B400B1B1C8795B5BEDB66A6ABED4CBCB468D40
:1031C400BEBED96739394B724A4ADE944C4CD49806
:1031D4005858E8B0CFCF4A85D0D06BBBEFEF2AC5A3
:1031E400AAAAE54FFBFB16ED4343C5864D4DD79A7E
:1031F40033335566858594114545CF8AF9F910E92D
:10320400020206047F7F81FE5050F0A03C3C4478CB
:103214009F9FBA25A8A8E34B5151F3A2A3A3FE5D37
:103224004040C0808F8F8A059292AD3F9D9DBC2106
:1032340038384870F5F504F1BCBCDF63B6B6C17725
:10324400DADA75AF2121634210103020FFFF1AE54E
:10325400F3F30EFDD2D26DBFCDCD4C810C0C1418FE
:1032640013133526ECEC2FC35F5FE1BE9797A235AD
:103274004444CC881717392EC4C45793A7A7F255D2
:103284007E7E82FC3D3D477A6464ACC85D5DE7BAEE
:1032940019192B32737395E66060A0C08181981967
:1032A4004F4FD19EDCDC7FA3222266442A2A7E541F
:1032B4009090AB3B8888830B4646CA8CEEEE29C7B8
:1032C400B8B8D36B14143C28DEDE79A75E5EE2BC8A
:1032D4000B0B1D16DBDB76ADE0E03BDB32325664D4
:1032E4003A3A4E740A0A1E144949DB9206060A0C3D
:1032F40024246C485C5CE4B8C2C25D9FD3D36EBD29
:10330400ACACEF436262A6C49191A8399595A431FF
:10331400E4E437D379798BF2E7E732D5C8C8438B35
:103324003737596E6D6DB7DA8D8D8C01D5D564B193
:103334004E4ED29CA9A9E0496C6CB4D85656FAAC4E
:10334400F4F407F3EAEA25CF6565AFCA7A7A8EF416
:10335400AEAEE94708081810BABAD56F787888F085
:1033640025256F4A2E2E725C1C1C2438A6A6F15704
:10337400B4B4C773C6C65197E8E823CBDDDD7CA19E
:1033840074749CE81F1F213E4B4BDD96BDBDDC6170
:103394008B8B860D8A8A850F707090E03E3E427C4E
:1033A400B5B5C4716666AACC4848D890030305062F
:1033B400F6F601F70E0E121C6161A3C235355F6A81
:1033C4005757F9AEB9B9D06986869117C1C15899D2
:1033D4001D1D273A9E9EB927E1E138D9F8F813EB71
:1033E4009898B32B111133226969BBD2D9D970A92A
:1033F4008E8E89079494A7339B9BB62D1E1E223C68
:1034040087879215E9E920C9CECE49875555FFAA89
:1034140028287850DFDF7AA58C8C8F03A1A1F85976
:10342400898980090D0D171ABFBFDA65E6E631D721
:103434004242C6846868B8D04141C3829999B02990
:103444002D2D775A0F0F111EB0B0CB7B5454FCA80E
:10345400BBBBD66D16163A2CA5C6636384F87C7C78
:1034640099EE77778DF67B7B0DFFF2F2BDD66B6B11
:10347400B1DE6F6F5491C5C5506030300302010155
:10348400A9CE67677D562B2B19E7FEFE62B5D7D709
:10349400E64DABAB9AEC7676458FCACA9D1F828205
:1034A4004089C9C987FA7D7D15EFFAFAEBB25959FB
:1034B400C98E47470BFBF0F0EC41ADAD67B3D4D4F4
:1034C400FD5FA2A2EA45AFAFBF239C9CF753A4A41F
:1034D40096E472725B9BC0C0C275B7B71CE1FDFD78
:1034E400AE3D93936A4C26265A6C3636417E3F3F56
:1034F40002F5F7F74F83CCCC5C683434F451A5A5BE
:1035040034D1E5E508F9F1F193E2717173ABD8D8E0
:10351400536231313F2A15150C0804045295C7C76C
:10352400654623235E9DC3C328301818A137969699
:103534000F0A0505B52F9A9A090E070736241212A9
:103544009B1B80803DDFE2E226CDEBEB694E272713
:10355400CD7FB2B29FEA75751B1209099E1D838344
:1035640074582C2C2E341A1A2D361B1BB2DC6E6E9A
:10357400EEB45A5AFB5BA0A0F6A452524D763B3BE4
:1035840061B7D6D6CE7DB3B37B5229293EDDE3E3C2
:10359400715E2F2F97138484F5A6535368B9D1D144
:1035A400000000002CC1EDED604020201FE3FCFC76
:1035B400C879B1B1EDB65B5BBED46A6A468DCBCB3C
:1035C400D967BEBE4B723939DE944A4AD4984C4C02
:1035D400E8B058584A85CFCF6BBBD0D02AC5EFEF9F
:1035E400E54FAAAA16EDFBFBC5864343D79A4D4D7A
:1035F4005566333394118585CF8A454510E9F9F929
:103604000604020281FE7F7FF0A0505044783C3CC7
:10361400BA259F9FE34BA8A8F3A25151FE5DA3A333
:10362400C08040408A058F8FAD3F9292BC219D9D02
:103634004870383804F1F5F5DF63BCBCC177B6B621
:1036440075AFDADA63422121302010101AE5FFFF4A
:103654000EFDF3F36DBFD2D24C81CDCD14180C0CFA
:10366400352613132FC3ECECE1BE5F5FA2359797A9
:10367400CC884444392E17175793C4C4F255A7A7CE
:1036840082FC7E7E477A3D3DACC86464E7BA5D5DEA
:103694002B32191995E67373A0C060609819818163
:1036A400D19E4F4F7FA3DCDC664422227E542A2A1B
:1036B400AB3B9090830B8888CA8C464629C7EEEEB4
:1036C400D36BB8B83C28141479A7DEDEE2BC5E5E86
:1036D4001D160B0B76ADDBDB3BDBE0E056643232D0
:1036E4004E743A3A1E140A0ADB9249490A0C060639
:1036F4006C482424E4B85C5C5D9FC2C26EBDD3D325
:10370400EF43ACACA6C46262A8399191A4319595FB
:1037140037D3E4E48BF2797932D5E7E7438BC8C831
:10372400596E3737B7DA6D6D8C018D8D64B1D5D58F
:10373400D29C4E4EE049A9A9B4D86C6CFAAC56564A
:1037440007F3F4F425CFEAEAAFCA65658EF47A7A12
:10375400E947AEAE18100808D56FBABA88F0787881
:103764006F4A2525725C2E2E24381C1CF157A6A600
:10377400C773B4B45197C6C623CBE8E87CA1DDDD9A
:103784009CE87474213E1F1FDD964B4BDC61BDBD6C
:10379400860D8B8B850F8A8A90E07070427C3E3E4A
:1037A400C471B5B5AACC6666D8904848050603032B
:1037B40001F7F6F6121C0E0EA3C261615F6A35357D
:1037C400F9AE5757D069B9B9911786865899C1C1CE
:1037D400273A1D1DB9279E9E38D9E1E113EBF8F86D
:1037E400B32B989833221111BBD2696970A9D9D926
:1037F40089078E8EA7339494B62D9B9B223C1E1E64
:103804009215878720C9E9E94987CECEFFAA555585
:10381400785028287AA5DFDF8F038C8CF859A1A172
:1038240080098989171A0D0DDA65BFBF31D7E6E61D
:10383400C6844242B8D06868C3824141B02999998C
:10384400775A2D2D111E0F0FCB7BB0B0FCA854540A
:10385400D66DBBBB3A2C161663A5C6637C84F87C74
:103864007799EE777B8DF67BF20DFFF26BBDD66B0D
:103874006FB1DE6FC55491C5305060300103020151
:1038840067A9CE672B7D562BFE19E7FED762B5D705
:10389400ABE64DAB769AEC76CA458FCA829D1F8201
:1038A400C94089C97D87FA7DFA15EFFA59EBB259F7
:1038B40047C98E47F00BFBF0ADEC41ADD467B3D4F0
:1038C400A2FD5FA2AFEA45AF9CBF239CA4F753A41B
:1038D4007296E472C05B9BC0B7C275B7FD1CE1FD74
:1038E40093AE3D93266A4C26365A6C363F417E3F52
:1038F400F702F5F7CC4F83CC345C6834A5F451A5BA
:10390400E534D1E5F108F9F17193E271D873ABD8DC
:1039140031536231153F2A15040C0804C75295C768
:1039240023654623C35E9DC31828301896A1379695
:10393400050F0A059AB52F9A07090E0712362412A5
:10394400809B1B80E23DDFE2EB26CDEB27694E270F
:10395400B2CD7FB2759FEA75091B1209839E1D8340
:103964002C74582C1A2E341A1B2D361B6EB2DC6E96
:103974005AEEB45AA0FB5BA052F6A4523B4D763BE0
:10398400D661B7D6B3CE7DB3297B5229E33EDDE3BE
:103994002F715E2F8497138453F5A653D168B9D140
:1039A40000000000ED2CC1ED20604020FC1FE3FC72
:1039B400B1C879B15BEDB65B6ABED46ACB468DCB38
:1039C400BED967BE394B72394ADE944A4CD4984CFE
:1039D40058E8B058CF4A85CFD06BBBD0EF2AC5EF9B
:1039E400AAE54FAAFB16EDFB43C586434DD79A4D76
:1039F400335566338594118545CF8A45F910E9F925
:103A0400020604027F81FE7F50F0A0503C44783CC3
:103A14009FBA259FA8E34BA851F3A251A3FE5DA32F
:103A240040C080408F8A058F92AD3F929DBC219DFE
:103A340038487038F504F1F5BCDF63BCB6C177B61D
:103A4400DA75AFDA2163422110302010FF1AE5FF46
:103A5400F30EFDF3D26DBFD2CD4C81CD0C14180CF6
:103A640013352613EC2FC3EC5FE1BE5F97A23597A5
:103A740044CC884417392E17C45793C4A7F255A7CA
:103A84007E82FC7E3D477A3D64ACC8645DE7BA5DE6
:103A9400192B32197395E67360A0C060819819815F
:103AA4004FD19E4FDC7FA3DC226644222A7E542A17
:103AB40090AB3B9088830B8846CA8C46EE29C7EEB0
:103AC400B8D36BB8143C2814DE79A7DE5EE2BC5E82
:103AD4000B1D160BDB76ADDBE03BDBE032566432CC
:103AE4003A4E743A0A1E140A49DB9249060A0C0635
:103AF400246C48245CE4B85CC25D9FC2D36EBDD321
:103B0400ACEF43AC62A6C46291A8399195A43195F7
:103B1400E437D3E4798BF279E732D5E7C8438BC82D
:103B240037596E376DB7DA6D8D8C018DD564B1D58B
:103B34004ED29C4EA9E049A96CB4D86C56FAAC5646
:103B4400F407F3F4EA25CFEA65AFCA657A8EF47A0E
:103B5400AEE947AE08181008BAD56FBA7888F0787D
:103B6400256F4A252E725C2E1C24381CA6F157A6FC
:103B7400B4C773B4C65197C6E823CBE8DD7CA1DD96
:103B8400749CE8741F213E1F4BDD964BBDDC61BD68
:103B94008B860D8B8A850F8A7090E0703E427C3E46
:103BA400B5C471B566AACC6648D890480305060327
:103BB400F601F7F60E121C0E61A3C261355F6A3579
:103BC40057F9AE57B9D069B986911786C15899C1CA
:103BD4001D273A1D9EB9279EE138D9E1F813EBF869
:103BE40098B32B981133221169BBD269D970A9D922
:103BF4008E89078E94A733949BB62D9B1E223C1E60
:103C040087921587E920C9E9CE4987CE55FFAA5581
:103C140028785028DF7AA5DF8C8F038CA1F859A16E
:103C2400898009890D171A0DBFDA65BFE631D7E619
:103C340042C6844268B8D06841C3824199B0299988
:103C44002D775A2D0F111E0FB0CB7BB054FCA85406
:103C5400BBD66DBB163A2C1652096AD53036A53838
:103C6400BF40A39E81F3D7FB7CE339829B2FFF8760
:103C7400348E4344C4DEE9CB547B9432A6C2233D44
:103C8400EE4C950B42FAC34E082EA16628D924B2F5
:103C9400765BA2496D8BD12572F8F6648668981616
:103CA400D4A45CCC5D65B6926C704850FDEDB9DA75
:103CB4005E154657A78D9D8490D8AB008CBCD30A63
:103CC400F7E45805B8B34506D02C1E8FCA3F0F023F
:103CD400C1AFBD0301138A6B3A9111414F67DCEA0E
:103CE40097F2CFCEF0B4E67396AC7422E7AD358587
:103CF400E2F937E81C75DF6E47F11A711D29C58991
:103D04006FB7620EAA18BE1BFC563E4BC6D2792072
:103D14009ADBC0FE78CD5AF41FDDA8338807C7317B
:103D2400B11210592780EC5F60517FA919B54A0D73
:103D34002DE57A9F93C99CEFA0E03B4DAE2AF5B0E8
:103D4400C8EBBB3C83539961172B047EBA77D62604
:103D5400E169146355210C7D44416AC2D1F53C5894
:103D64003303917E6BE9EBE048E31E9E256718F26E
:103D74009229319C19F15BA4058CCFFDBBCB382D66
:103D84001F6F56585D8A4ADEC34C052CC0DA8D730A
:103D9400451AFE5F03BE297FF3F6752AE8D783111F
:103DA40038F041560631B1148B79EECC93A0EE5D18
:103DB400FF30B4EA21636DA4FACA37E0B0C8537384
:103DC400DF706E73F7C9AF865DF678DD17BA4E758E
:103DD400B61768C6ADEF7C7B4804E1818FE6297590
:103DE40019A3E88C573104138A05FC5E095AF4843C
:103DF4008A08D328D3688E3D7BD966D53AD8C1BB0F
:103E040085D2ADFAE87BB104FE3C53653E2F45B53F
:103E14006FCD88B2CC898FF0000102030405060738
:103E240008090A0B0C0D0E0F2B7E151628AED2A610
:103E3400ABF7158809CF4F3C0000000000000000DC
:103E440000000000000000008E73B0F7DA0E645228
:103E5400C810F32B809079E562F8EAD2522C6B7B80
:103E64000000000000000000603DEB1015CA71BEA8
:103E74002B73AEF0857D77811F352C073B6108D706
:103E84002D9810A30914DFF43B3FD92EB72DAD2094
:103E9400333449F8E83CFB4AC8A64537A0B3A93FE8
:103EA400CDE3CDAD9F1CE58B26751F67A3CBB14039
:103EB400B1808CF187A4F4DFC04B05357C5D1C0E0A
:103EC400EAC4C66F9FF7F2E6CDC80D6FDDF18CAB87
:103ED40034C25909C99A417467CE7F7F811736214C
:103EE400961A2B70171D3D7A2E1E8A1DD59B88B1FC
:103EF400C8E60FED1EFAC4C9C05F9F9CA9834FA0FA
:103F040042AE8FBA584B09FFDC7E84BFDA79164B78
:103F14007ECD8486985D386039FFED143B28B1C8A6
:103F240032113C6331E5407BDF10132415E54B92DD
:103F3400A13ED0A8267AE2F975A385741AB9CEF801
:103F44002031623D55B1E4716BC1BEE22E409F96B3
:103F5400E93D7E117393172AAE2D8A571E03AC9C3C
:103F64009EB76FAC45AF8E5130C81C46A35CE411BC
:103F7400E5FBC1191A0A52EFF69F2445DF4F9B1740
:103F8400AD2B417BE66C37100000003000000000D0
:103F94000000000000000001006CB6DBC0543B5977
:103FA400DA48D90B0000000100E0017B27777F3F4E
:103FB4004A1786F000000001AE6852F8121067CC70
:103FC4004BF7A5765577F39E7E24067817FAE0D74B
:103FD40043D6CE1F325391637691BE035E5020A820
:103FE400AC6E618529F9A0DC1000000020000000FF
:103FF40024000000E4095D4FB7A7B3792D6175A3D0
:10400400261311B8000000000000000000000000AA
:10401400000000000000000000000000000000009C
:10402400000000005104A106168A72D9790D41EEF0
:104034008EDAD388EB2E1EFC46DA57C8FCE630DF56
:104044009141BE28000000000000000000000000B4
:1040540000000000C1CF48A89F2FFDD9CF4652E9E8
:10406400EFDB72D74540A42BDE6D7836D59A5CEA37
:10407400AEF3105325B2072F00000000000000002B
:104084000000000053696E676C6520626C6F636B9F
:10409400206D7367000000000000000000000000B5
:1040A400000000000000000000000000000000000C
:1040B40000000000000102030405060708090A0BBA
:1040C4000C0D0E0F101112131415161718191A1BB4
:1040D4001C1D1E1F00000000000000000000000066
:1040E40000000000000102030405060708090A0B8A
:1040F4000C0D0E0F101112131415161718191A1B84
:104104001C1D1E1F202122230000000000000000AF
:08411400000000000000002083
:08411C00111A0008AD010008B2
:044124008901000805
:1041280000000000EC02002054030020BC03002023
:104138000000000000000000000000000000000077
:104148000000000000000000000000000000000067
:104158000000000000000000000000000000000057
:104168000000000000000000000000000000000047
:104178000000000000000000000000000000000037
:104188000000000000000000000000000000000027
:104198000000000000000000000000000000000017
:1041A8000000000000000000000000000000000007
:1041B80000000000000000000000000000000000F7
:1041C80000000000000000000100000000000000E6
:1041D8000E33CDAB34126DE6ECDE05000B000000AB
:1041E80000000000000000000000000000000000C7
:1041F80000000000000000000000000000000000B7
:1042080000000000000000000000000000000000A6
:104218000000000000000000000000000000000096
:04000005080018D9FE
:00000001FF
