:020000040800F2
:1000000000400020F11F00083920000839200008B6
:1000100039200008392000083920000800000000BD
:10002000000000000000000000000000392000086F
:10003000392000080000000039200008392000089D
:1000400000000000000000000000000000000000B0
:1000500000000000000000000000000000000000A0
:100060000000000000000000000000000000000090
:100070000000000000000000000000000000000080
:100080000000000000000000000000000000000070
:100090000000000000000000000000000000000060
:1000A0000000000000000000000000000000000050
:1000B0000000000000000000000000000000000040
:1000C0000000000000000000000000000000000030
:1000D0000000000000000000000000000000000020
:1000E0000000000000000000000000000000000010
:1000F0000000000000000000000000000000000000
:1001000000000000000000000000000000000000EF
:1001100000000000000000000000000000000000DF
:1001200000000000000000000000000000000000CF
:1001300000000000000000000000000000000000BF
:1001400000000000000000000000000000000000AF
:10015000000000000000000000000000000000009F
:10016000000000000000000000000000000000008F
:10017000000000000000000000000000000000007F
:08018000000000000000000077
:1001880010B5064C2378002B07D1054B002B02D065
:10019800044800E000BF0123237010BD3004002094
:1001A80000000000BC220008084B10B5002B03D04B
:1001B8000749084800E000BF07480368002B00D142
:1001C80010BD064B002BFBD09847F9E70000000054
:1001D80034040020BC220008300400200000000085
:1001E80002B4714649084900095C49008E4402BCC2
:1001F8007047C046002243088B4274D303098B42E0
:100208005FD3030A8B4244D3030B8B4228D3030CDE
:100218008B420DD3FF22090212BA030C8B4202D380
:100228001212090265D0030B8B4219D300E0090AA8
:10023800C30B8B4201D3CB03C01A5241830B8B42B1
:1002480001D38B03C01A5241430B8B4201D34B039A
:10025800C01A5241030B8B4201D30B03C01A5241FF
:10026800C30A8B4201D3CB02C01A5241830A8B4284
:1002780001D38B02C01A5241430A8B4201D34B026D
:10028800C01A5241030A8B4201D30B02C01A5241D1
:10029800CDD2C3098B4201D3CB01C01A5241830985
:1002A8008B4201D38B01C01A524143098B4201D3BF
:1002B8004B01C01A524103098B4201D30B01C01AEA
:1002C8005241C3088B4201D3CB00C01A5241830864
:1002D8008B4201D38B00C01A524143088B4201D391
:1002E8004B00C01A5241411A00D2014652411046F1
:1002F8007047FFE701B5002000F0F0F802BDC046E6
:100308000029F7D076E7704703460B437FD40022D5
:1003180043088B4274D303098B425FD3030A8B4291
:1003280044D3030B8B4228D3030C8B420DD3FF22FB
:10033800090212BA030C8B4202D31212090265D0C9
:10034800030B8B4219D300E0090AC30B8B4201D37C
:10035800CB03C01A5241830B8B4201D38B03C01AC3
:100368005241430B8B4201D34B03C01A5241030B3A
:100378008B4201D30B03C01A5241C30A8B4201D3EB
:10038800CB02C01A5241830A8B4201D38B02C01A96
:100398005241430A8B4201D34B02C01A5241030A0D
:1003A8008B4201D30B02C01A5241CDD2C3098B42F2
:1003B80001D3CB01C01A524183098B4201D38B016F
:1003C800C01A524143098B4201D34B01C01A524112
:1003D80003098B4201D30B01C01A5241C3088B4257
:1003E80001D3CB00C01A524183088B4201D38B0042
:1003F800C01A524143088B4201D34B00C01A5241E4
:10040800411A00D201465241104670475DE0CA0FBA
:1004180000D04942031000D34042534000229C467A
:1004280003098B422DD3030A8B4212D3FC22890184
:1004380012BA030A8B420CD3890192118B4208D35A
:10044800890192118B4204D389013AD0921100E0BC
:100458008909C3098B4201D3CB01C01A52418309D0
:100468008B4201D38B01C01A524143098B4201D3FD
:100478004B01C01A524103098B4201D30B01C01A28
:100488005241C3088B4201D3CB00C01A52418308A2
:100498008B4201D38B00C01A5241D9D243088B42F8
:1004A80001D34B00C01A5241411A00D2014663469B
:1004B80052415B10104601D34042002B00D54942FF
:1004C800704763465B1000D3404201B5002000F03E
:1004D80005F802BD0029F8D016E770477047C046F6
:1004E8000020704710B500F003FF002010BD10B5C4
:1004F800040000F087F9200000F004FF00F08BF9F9
:1005080022001021722000F09FF8002010BD00008A
:100518001FB510221A49684601F0B0FD00F0F6F840
:1005280000F00CF900F04AF900F0DAFE684600F035
:10053800DFFE682000F08AF9652000F087F96C205A
:1005480000F084F96C2000F081F96F2000F07EF94A
:100558000A2000F07BF900F06DF80A4A10216B20A0
:1005680000F052F8084A1021702000F04DF8074AB0
:100578000021782000F048F800F084F8FCE7C04635
:10058800D4220008ED040008F7040008E904000874
:100598000020704770B51400A31A984232DD4D78D8
:1005A8000B782E00303EF6B2092E01D826700DE0E9
:1005B8002E00413E052E01D8373D06E02E00613E53
:1005C800052E01D901201EE0573D25701D00303D44
:1005D800EEB2092E04D823782D011D4325700EE0B4
:1005E8001D00413D052D01D8373B04E01D00613D4C
:1005F800052DE7D8573B25781B012B432370013481
:100608000231C9E7002070BD30B5094D01232C68BF
:100618000A2C0ADC402908D80B336343EB181871FD
:100628009960DA60002301342C60180030BDC046A0
:100638004C04002010B5034A00217620FFF7E4FFA0
:1006480010BDC04699050008F7B5150001912C00AA
:1006580000F0FCF80F27019A631B9A420CDD2378FF
:10066800074E1B09F05C00F0F1F8237801343B4099
:10067800F05C00F0EBF8EEE70A2000F0E7F8F7BDD1
:10068800E4220008F0B5B3B000F0CEF800240C2244
:100698001D4D2B689C420BDA16006643291D715CC0
:1006A800814203D10C27002667430DE00134F1E7AE
:1006B8009C4227D0F6E700F0B7F80A2822D00D2888
:1006C80020D012ABF0540136EB199B685B00B342A3
:1006D800F1D800F0A9F80A2801D00D2812D10C236E
:1006E8005C432C1902AA12A9A068FFF753FF00283F
:1006F80008D1E36802A8984701AA107001217A205E
:10070800FFF7A2FF33B0F0BD4C040020032310B55F
:10071800002490B0049304A80233059307940D9421
:1007280000F0AAF80723210000936846063B0193CE
:100738000294039400F08EFA10B010BD802370B5B7
:100748001B4C9B02626988B01A43626162699020FF
:1007580013400193019BC023DB000125039303266B
:10076800022303A9C005049305950696079500F092
:10077800FBFA8023A269DB011A43A261A2690D4832
:1007880013400293029B236BB3432B4323630A4B0F
:10079800036096231B02436000238360C3600361E8
:1007A80083610C33436100F093FC08B070BDC04610
:1007B80000100240F8260020003801408023104A2B
:1007C80070B551699B0219435161526986B0134053
:1007D80000939024009B802501230026E4056D01E9
:1007E800029301A90233200004930195039600F0B7
:1007F800BBFA32002900200000F064FB06B070BD8F
:10080800001002408021902010B501224901C00546
:1008180000F058FB10BD8021902010B5002249013E
:10082800C00500F04FFB10BD13B56B46DC1D01225F
:10083800044B2100044800F077FC0028F5D120780B
:1008480016BDC04688130000F826002007B56B4681
:10085800D91D0870024B0122024800F0DBFC07BDDD
:1008680088130000F8260020024B1868421C1A6002
:100878007047C046C8040020F0B5036885B005007D
:10088800DB0703D42B689B0754D49AE00C23B74C9E
:1008980062681A40042A06D062681340082B0AD1FD
:1008A8006368DB0307D523689B03EBD56B68002BD4
:1008B800E8D10120C3E16B68012B16D0002B0DD1C4
:1008C8002268AB4B8026134023602268A94BB602EE
:1008D80013402360FFF7C8FF070027E0052B09D165
:1008E80080222368D20213432360802223685202A5
:1008F800134306E022689E4B1340236022689D4BF9
:1009080013402360FFF7B0FF80260700B602236874
:100918003342B7D1FFF7A8FFC01B6428F7D90320DB
:100928008DE1FFF7A1FFC01B6428F8D82368334284
:10093800F7D1A7E70C238D4C62681A4206D062688B
:100948001340082B10D16368DB030DD423689B0781
:1009580002D5EB68012BACD1F82123682A698B43B7
:10096800D200134323602CE0EB680122002B18D03F
:100978002368022613432360FFF776FF07002368E6
:100988007A49334205D1FFF76FFFC01B0228F6D919
:10099800C5E7F8200B682A698343D20013430B602C
:1009A8000FE02368022693432360FFF75DFF0700EB
:1009B8002368334205D0FFF757FFC01B0228F7D939
:1009C800ADE72B681B0703D42B685B0725D483E0AE
:1009D800EB690122654C002B0FD0636A0226134392
:1009E8006362FFF741FF0700636A3342ECD1FFF708
:1009F8003BFFC01B0228F7D991E7636A022693439D
:100A08006362FFF731FF0700636A3342DCD0FFF708
:100A18002BFFC01B0228F7D981E780230021534C04
:100A28005B05E26900911A4208D1E2691A43E26162
:100A3800E26913400393039B0123009380274E4EE2
:100A48007F0033683B4205D0AB68012B12D1226A84
:100A580013432EE033683B433360FFF705FF0190F3
:100A680033683B42F0D1FFF7FFFE019BC01A6428B0
:100A7800F6D954E70122002B0BD1236A02279343AE
:100A88002362236A033293432362FFF7EDFE0600D5
:100A980018E0052B07D10421236A0B432362236A3C
:100AA8001A432262BCE0236A934304222362236A26
:100AB80093432362B4E0FFF7D7FE304B801B984284
:100AC80000D92CE7236A3B42F5D1009B012B03D1C7
:100AD800E2692B4B1340E3612B68DB0641D56A6959
:100AE800224C0423012A1BD1616B02260B4363634A
:100AF800636B1A436263FFF7B7FE0700636B1B491A
:100B0800334205D1FFF7B0FEC01B0228F6D906E72D
:100B1800F8204B6BAA698343D20013434B6320E050
:100B280005320AD1F821626B9A436263636BAA6942
:100B38008B43D2001343636313E0626B02261343B3
:100B480001226363636B93436363FFF78DFE0700C2
:100B5800636B334205D0FFF787FEC01B0228F7D925
:100B6800DDE62A6A002A0DD1002068E00010024064
:100B7800FFFFFEFFFFFFFBFF00700040881300002F
:100B8800FFFFFFEF0C232F4C012061680B40082B5F
:100B980055D02D4B022A32D122688026134023607B
:100BA800FFF762FE0700B6042268264B324205D0E2
:100BB800FFF75AFEC01B0228F6D9B0E60F21DA6A01
:100BC8008A43E96A0A43DA62696AA86A5A68084382
:100BD8001E4980250A40802102435A601A68490448
:100BE8000A431A60FFF740FE0600AD0423682B4253
:100BF800BAD1FFF739FE801B0228F7D98FE62268A1
:100C0800802513402360FFF72FFE0600AD042368FC
:100C18002B42A9D0FFF728FE801B0228F7D97EE6D1
:100C2800FFF722FE02270600236A3B4200D04CE76A
:100C3800FFF71AFE064B801B9842F5D96FE605B000
:100C4800F0BDC04600100240FFFFFFFEFFFFC2FFDD
:100C5800881300000123F7B53E4D06002A680F00EF
:100C68001A408A420AD33268930711D5F0203A49CC
:100C78004B688343B06803434B6009E02A689A4392
:100C88000A432A602A6813409942ECD0012060E0A8
:100C9800D30706D4012329682E4A19408F4243D32B
:100CA80048E02D4C73682268012B02D1920307D4C7
:100CB800ECE7022B02D1920102D4E7E79207E5D5CF
:100CC800032162688A4313436360FFF7CDFD7368AD
:100CD8000190012B0DD10C2263681340042BD9D04D
:100CE800FFF7C2FD019BC01A1C4B9842F3D90320A1
:100CF8002FE0022B13D10C2263681340082BC9D0B4
:100D0800FFF7B2FD019BC01A144B9842F3D9EEE7E6
:100D1800FFF7AAFD019BC01A104B9842E7D80C2296
:100D280063681342F4D1B5E71168994311601268FA
:100D38001A42ABD133685B0706D50749084B4A68A6
:100D48001340F26813434B60E1220020054BD203A5
:100D58001A60FEBD00200240001002408813000007
:100D6800FFF8FFFF00000020F0B50B6887B0029382
:100D780000230191029ADA4000D195E001229A40BD
:100D880003920399029A0A40009200D18AE0019ADC
:100D98001021526816008E43022E0ED107251D40E1
:100DA800AD000139A940DC08A4000419276A8F4363
:100DB80001990969A9400F43276203245F00BC40D9
:100DC8000321E4431140B9400568013E25400D4325
:100DD8000560012E0FD801998568CE682540BE4070
:100DE800354385604568039916098D4301210E40F6
:100DF8009E4035434560C56801992C408D68802127
:100E0800BD4049052C43C4600A424BD00121274C00
:100E18000327A5691F400D43A561A4699D080C40DF
:100E28000594059C0F242249AD00BF006D18BC40F5
:100E38009021AE68C905A643002488420CD01D49FC
:100E48000134884208D01C490134884204D01B4927
:100E58000334884200D1023CBC40009934430E0060
:100E6800AC60174CCD4327683E43D10301D43E0004
:100E78002E4026606768009E3E43910301D43E00E1
:100E88002E406660A768009E3E43D10201D43E0012
:100E98002E40A660E668009F3743920201D42E4098
:100EA8003700E760013365E707B0F0BD0010024086
:100EB800000001400004004800080048000C0048F9
:100EC80000040140002A01D0816100E0816270477E
:100ED800F8B504000E0015001F002268D3693340DE
:100EE8009B1B59424B41AB421FD1069B0133F5D0A6
:100EF800069B002B12D123680D4A196803200A406B
:100F080001211A609A688A439A6022002023693274
:100F18001370537000236834237007E0FFF7A4FCB4
:100F2800069BC01B8342D8D2E5E70020F8BDC04627
:100F38005FFEFFFF73B500260400C666FFF794FC4A
:100F4800174A23680500934208D022002023002076
:100F58006932683413705370207020E01B681B07D7
:100F680004D423681B685B07EFD50CE080210D4B88
:100F780032000093890303002000FFF7A9FF00282F
:100F8800EFD003200BE08021064B00220093C90319
:100F98002B002000FFF79CFF0028F2D1D5E776BD93
:100FA80000380140FFFFFF01030070B519690468AC
:100FB800C56980682268084359693C4E08433C4922
:100FC80028430A400243226061683A4A98690A4005
:100FD800D9680A43196A6260A268084336490A4018
:100FE8000243A26080221202B44208D13349086B3E
:100FF800032101403248405C954204D02DE031493C
:101008008C421ED10CE008281DD8FFF7E9F80B1C0C
:10101800051C0B1C1C1C100059682B4B48080AE0C7
:10102800954223D15968E12348081B0403E0596815
:10103800802348085B02C018FFF7DCF883B2002061
:1010480003E0954230D10120002319000F221B072D
:1010580091435B0F0B43E36027E0082824D8FFF790
:10106800BFF805230F231323232318005968E1230E
:101078004808DB03C018FFF7BDF880B2E06011E054
:101088005968124B480808E05968E1234808DB030F
:1010980003E05968802348081B02C018FFF7AAF824
:1010A80080B2F060002000E0012070BD00380140EF
:1010B800F369FFFFFFCFFFFFFFF4FFFF00100240BF
:1010C800F4220008004400400048E8010024F4002D
:1010D80070B5041E01D1012023E0020069321378A3
:1010E800DBB2002B02D1010068310B7024230125EB
:1010F8001370226820001368AB431360FFF754FF96
:10110800A842E8D02368074A596820000A402A21E3
:101118005A609A688A439A601A682A431A60FFF7E5
:1011280009FF70BDFFB7FFFFF0B51F0003006A336A
:1011380016001A78040085B00D000220202A65D117
:101148000138002962D0002E60D08022A1685201A7
:10115800914204D12269002A01D1054256D12200C8
:10116800683211780220012950D001211170002223
:10117800E26622321A70FFF777FB23008021A2680B
:1011880058331E805E800390490104338A4206D199
:101198002269002A01D11E4A07E0FF2205E0002A41
:1011A80004D12269002AF8D07F221A801E882200E2
:1011B8005A32108880B2002820D013882021013BA1
:1011C8009BB2138020000097039B0022FFF780FE4C
:1011D80000281AD1A2682368110080225201914286
:1011E80007D12269002A04D19B8C33402B80023519
:1011F800DDE79B8C33402B700135D8E72300202294
:101208006A3368341A70207000E0032005B0F0BD1E
:10121800FF010000F0B5070085B0039369373B78FC
:1012280004000D0016000220202B57D10138002998
:1012380054D0002A52D08023A2685B019A4204D17C
:101248002369002B01D1014248D1230068331A7861
:101258000220012A42D001221A700023E3662133BA
:101268003B70FFF701FB230050331E805E80802611
:1012780002907601210052310A8892B2002A20D0C9
:101288000B880022013B9BB20B80039B80210093BB
:101298002000029BFFF71CFE002801D003201DE060
:1012A800A3682268B34208D12369002B05D12B8893
:1012B8000235DB05DB0D1385DCE72B78013513855B
:1012C800D8E7039B402100932000029BFFF700FE14
:1012D8000028E3D1202368343B70207005B0F0BDAE
:1012E80010B5024800F026F910BDC0466827002056
:1012F80010B501008022024800F024F910BDC04654
:101308006827002010B5020003000121014800F001
:101318005FFE10BD68270020F0B57A4C0123A54474
:10132800802400218026FF2564008A0006A8135027
:10133800FFA89A001C3011501A005800324000D003
:101348001B224340534001312B40A142EDD10022E2
:1013580001238026FF256C4C13515800210033408F
:1013680000D01B23434004322B40282AF4D10B0021
:1013780000210124FF2628333B321A70634BFFAD4E
:101388008B3319701C350192A3005B5906AAF31A16
:101398009B00D758FB11790019433140CB114A0003
:1013A8001A4332405000D311034333405800844657
:1013B8000093D81163461843019B30405F404F406B
:1013C800009B7A405340504A43402832A3544F4A26
:1013D8002832D454802301345B009C42D4D10024A9
:1013E8001826AB6B009402936B6A03936B6B0493A0
:1013F800EB6A0593444B009A2833D05C7F230500A1
:101408009D436B1E9D411B22FF236D4241002A40D4
:101418004A401A40010203044B405340424012061E
:1014280053403B4A2832A350F3413A4A2832A3504A
:10143800F341394A2832A350F341384A2832A3509D
:10144800324B009A28339D5C002D1AD0FFAA1C321B
:10145800AB009B58FF210193019A029B9818FFF754
:1014680039F8039A8900944606ABCF58019BFF21AF
:1014780063441800FFF72EF806AB8900CB581B020F
:1014880001E02F002B005F4000239D420CD0FFAAF3
:10149800AB001C329858049BFF211818FFF71AF864
:1014A80006AB8900CB581B045F4000239D420CD03B
:1014B800FFAB1C33AD00E858059BFF211818FFF758
:1014C80009F806AB8900CB581B065F40144B28333C
:1014D800E750F741134B2833E750F741124B2833B5
:1014E800E750F741114B2833E750009B0434013390
:1014F80000938023009A5B009A4200D07AE70C4B55
:101508009D44F0BDE4F7FFFFCC040020CC0500208B
:10151800CC060020CC0A0020CC0E0020CC120020E3
:10152800CC160020CC1A0020CC1E0020CC22002093
:101538001C0800008C2210B55200002100F0DCFDD0
:1015480010BD0000F7B5744F0400BB6A0D0016000B
:10155800002B03D1FFF7E0FE0123BB62C02E08D0A9
:1015680080235B009E4206D0F63B802E00D0CEE062
:1015780002E00C2300E00E232360230072090026FA
:10158800083363600192019A964210D0B700E819B7
:101598004178013609028C4662468178C078090490
:1015A8001143EA5D000611430143D951EBE7226874
:1015B8000C2A32D00E2A64D00A2A00D0AAE00024CD
:1015C800FF25564E28229446B4446146DF683A0AFD
:1015D8002A40885CA1591A6804344A40424060464F
:1015E800390E405C6146000450403A002A40895C4C
:1015F8003A0C0906414060462A40805C5A6800025D
:1016080041404A40196199685A614A409A617A4052
:10161800DA611033282CD5D17CE00024FF253F4E19
:1016280028229446B44461465F693A0A2A40885C95
:10163800A1591A6804344A4042406046390E405C59
:101648006146000450403A002A40895C3A0C090679
:10165800414060462A40805C5A68000241404A4046
:1016680099619968DA614A40D9681A624A401969E9
:101678005A624A409A627A40DA621833202CCFD1F3
:1016880048E00026FF20DC692449220A234F28313C
:101698000240F7598D5C1A6804367A405540220E8C
:1016A8008A5C1F6912045540220002408A5C1206B7
:1016B8006A40250C05404D5D2D026A405D681A623E
:1016C8006A409D685A626A40DD689A626A401500FD
:1016D800DA6205404D5D6F40150E4D5D2D067D406B
:1016E800170A0740120CCF5D02408A5C3F021204C1
:1016F8007D4055405A691D6355409A695D63554060
:101708006C409D63DC6320331C2EBCD102E020209A
:10171800404200E00020FEBDCC260020CC04002082
:10172800F0B54C780F788D7824023C432D042600C0
:101738002C000B0087B0CD780092426834431168C2
:101748002D0625436940019159791F799D79090230
:1017580039432D040E002900DD7931432D060D4350
:1017680051681E7A69400291597A9C7A090231437C
:1017780024040D002100DC7A294324060C439168D7
:101788005D7B4C40197B2D020D43997B7D4F0904ED
:1017980029430D00D97BD3680906294359400368BA
:1017A800FF205B10013B0593136910320393764BBE
:1017B8009C46059DFF23002D00DCEBE0019B734E4A
:1017C80003409B00FB189D6A13685D400B0E9B004D
:1017D800F3189B6A6E4E5D40029B1B0A03409B00F8
:1017E80063449B6A5D40230C03409B00F3189B6A8B
:1017F800664E5D40029B039503409B00FB189D6A63
:1018080053685D40019B1B0E9B00F3189B6A604E5A
:101818005D40230A03409B0063449B6A5D400B0CB8
:1018280003409B00F3189B6A584E5D402300034019
:101838009B00FB1804959B6A9568240E6B40029DDB
:10184800A4002D0EAD007519AD6A514E6B400D0AFE
:101858000540AD006544AD6A01406B40019D8900BB
:101868002D0C0540AD007519AD6A79186B40896A71
:10187800D5686940454D2C19A46A6140019C250A28
:101888000540AD006544AC6A6140029C250C0540EA
:10189800AD007519AC6A039D61403C4E0C0E0540C5
:1018A800AD00A40034197D19A46AAD6A384E6540AC
:1018B80014696540049C240A0440A4006444A46A92
:1018C80065401C0C0440A4003419A46A2F4E6540DE
:1018D8000195039C049D240E0540AD00A400341915
:1018E8007D19A46AAD6A2A4E6540546965401C0A90
:1018F8000440A4006444A46A65400C0C0440A4009D
:101908003419A46A214E65401C000295049D0440C8
:101918002D0EA400AD0075193C19AD6AA46A1B0E02
:101928006C4095699B006C400D0A0540AD0065440C
:10193800AD6A01406C40039D154E2D0C0540AD006D
:101948007519AD6A89006C40104D7918EB189B6ABF
:10195800896A5940D36920325940039B1D0A0540C2
:10196800AD006544AB6A5940049B1D0C0540AD00B1
:101978007619B36A5940059B013B05931368039395
:1019880017E7C046CC060020CC0A0020CC12002065
:10199800CC0E00207648019D84461D40080EAD00FF
:1019A800800060447D19AD6A866A03986E4046409F
:1019B8000298704D000A184080002818806A6E4D01
:1019C8004640200C184080002818806A694D46401F
:1019D80003960198029E000E1E40B6008000BE19B4
:1019E8006044806AB66A464050684640200A1840FB
:1019F80080002818806A604D4640080C1840800016
:101A08002818806A5B4D46400496260002981E40BE
:101A1800000EB6008000BE196044806AB66A240EC3
:101A280046409068A4004640080A184080002818DC
:101A3800806A514D464001981940000C18408000BA
:101A48002818806A8900644479184640896AA06A1F
:101A58004840D168474C48400199090A1940890013
:101A680067180299BF6A0C0C1C40A4002D19A96ABA
:101A780047404F4003984149184028310C5C15698C
:101A8800380E65402C00085C000644400498000AA3
:101A980018400D5C2000340C1C402D0268400D5D80
:101AA80054692D04454004981840085C4440039844
:101AB800000E085C00066040340A1C400C5D2402DD
:101AC80060403C0C1C400C5D24044440300018402D
:101AD800085C01949469D26944400498360E000E5B
:101AE800085C000660403C0A1C400C5D1F40CF5D4E
:101AF80024024440039857408A5D000C184012069F
:101B0800085C5740039A0004160A1E408A5D60402C
:101B180012025740049A160C3340CA5C009B009985
:101B28001D702B0A4B702B0C2D0E8B70CD700B007B
:101B38006946097912041971019B00991B0A4B71B6
:101B4800019B08721B0C8B71019B7A401C0E030AC7
:101B58004B72030C000EC87200208B72130A0A73B2
:101B68004B73130C120ECC718B73CA7307B0F0BD94
:101B7800CC120020CC0A0020CC0E0020CC0400207F
:101B8800F0B54B780E788F781B0233433F041C0066
:101B98003B0089B0CF780192426823433F061F4338
:101BA80013688D797B4002934B790F791B023B4375
:101BB8002D041E002B00CD7933432D061D43536899
:101BC8000E7A6B4003934B7A8C7A1B0233432404BE
:101BD8001D002300CC7A2B4324061C4393680D7BFD
:101BE800634004934B7B16691B022B431C008B7BC1
:101BF800C97B1B04234309061943D3681032594093
:101C08000368FF205B10013B0793EC4B9C46079C45
:101C1800FF23002C00DCE6E0029BE94D03409B001B
:101C280063449C6A1368E74E5C40039B1B0E9B0051
:101C3800EB189B6AE44D5C400B0A03409B00EB18D1
:101C48009B6ADF4D5C40049B1B0C03409B00F31810
:101C58009B6A5C40039B059403409B0063449C6A19
:101C680053685C40049B1B0E9B00EB189B6AD64D87
:101C78005C40029B1B0A03409B00EB189B6AD04DFB
:101C88005C400B0C03409B00F3189B6A5C40049B70
:101C9800069403409B00634494689B6A63400C0E5F
:101CA800A4002C19A46AC84D6340039C0140240A6F
:101CB8000440A4002C19A46A89006340029C614472
:101CC800240C0440A4003419A46A896A6340D468C7
:101CD8006140029C270EBA4CBF00E719BC6AB84F96
:101CE8006140049C240A0440A4002C19A46A6140A1
:101CF800039C250C0540AD007519AC6A059D614033
:101D0800069C0540240EAD00A4003C196544AD6A4C
:101D1800A76A14696F4067400C0AAB4D0440A400E1
:101D28002C19A56A1C0C0440A40034196F40A56A3C
:101D38001C0E6F40069D02970540A14FAD00A40000
:101D48003C196544A46AAD6A9F4F65405469654073
:101D5800059C240A0440A4003C19A46A984F6540D5
:101D68000C0C0440A4003419A46A65401C000395B7
:101D780004400D0EA400AD007D196444A46AAD6A48
:101D8800914F6C40956901406C40069D89002D0A71
:101D98000540AD007D19AD6A61446C40059D896AB6
:101DA8002D0C0540AD007519AD6A1B0A6C400494F2
:101DB800059C834D240EA4002C19A46A034061409D
:101DC8009B00D469FB1861409C6A069B61401B0C10
:101DD80003409B00F618B36A20325940079B1668E7
:101DE800013B079313E7029C0398754D1C40000EB6
:101DF800A400800028186444A46A876A080A674017
:101E08001840714C800077402018049E806A360C78
:101E180047401E406B48B6008619B66A774005975A
:101E2800049E039F360E1F40BF00B6006744AE19DC
:101E3800B66ABF6A774056687740029E360A1E40E7
:101E4800B600A619B66A77400E0C1E40B600861971
:101E5800B66A7740049E06971E400F0EB600BF0074
:101E68006644EF19BF6AB66A19407E4097688900D0
:101E78007E40039F61443F0A1F40BF00E719BF6AC5
:101E8800896A7E40029F3F0C1F40BF00C719BF6A86
:101E98007E40029F3F0EBF00ED19AF6AD5687940BA
:101EA8006940049D2D0A1D40AD006419A76A4F4082
:101EB80003990D0C1D40AD004019816A05984F40EB
:101EC8004249184028310C5C1569069865402C0079
:101ED800000E085C00064440380A18400D5C2000DB
:101EE800340C1C402D0268400D5D54692D0445409A
:101EF80006981840085C4440300E085C00066040B4
:101F0800059C240A1C400C5D240260403C0C1C40CB
:101F18000C5D2404444030001840085C0294946925
:101F2800D2694440380E085C1F4000066040CF5D0F
:101F3800069C5740240A059A1C400C5D120E8A5CC8
:101F48002402360A44401E400598120657408A5D0E
:101F5800000C18401202085C5740069A0004120C44
:101F68001340CA5C019B12045740019A1D702B0A4A
:101F780053702B0C2D0E9370D57013006A46127A8D
:101F880060401A71029B019A1B0A5371029B1072DE
:101F98001B0C9371029B17731C0E030A5372030CDC
:101FA800000ED072002093723B0A53733B0C3F0E15
:101FB800D4719373D77309B0F0BDC046CC16002016
:101FC800CC220020CC1E0020CC1A0020CC050020FA
:101FD80010B50C0011001A00012C02D1FFF7A0FB6C
:101FE80001E0FFF7CDFD10BD002103E00B4B5B586E
:101FF800435004310A480B4B42189A42F6D30A4A16
:1020080002E0002313600432084B9A42F9D300E03F
:1020180000BF00F00FF8FEF77BFAFEE70823000880
:102028000000002030040020300400208028002018
:10203800FEE7000070B50D4E0D4D0024AD1BAD1030
:1020480005D0A300F35801349847A542F9D100F010
:1020580031F9084E084D0024AD1BAD1005D0A30082
:10206800F35801349847A542F9D170BDFC22000805
:10207800FC220008FC2200080423000870B50F2A7F
:1020880032D90C0004430B00A40731D11500040019
:10209800103D2D0901352D0149191E6826605E681D
:1020A80066609E68A660DE681033E6601034994268
:1020B800F3D10F2345191340032B1BD91C1F0023F1
:1020C800A4080134A400CE58EE5004339C42FAD13F
:1020D80003232D1909191A4005D00023CC5CEC54B0
:1020E80001339A42FAD170BD0500002AF5D1FAE70A
:1020F8000500F2E71A00F8E770B583073FD0541ED1
:10210800002A3BD0CEB20300032503E0621E002C58
:1021180034D0140001335A1E16702B42F6D1032C0A
:1021280024D9FF250D402A0215432A0415430F2CF4
:1021380011D92600103E3609013636011A009B19BE
:10214800156055609560D56010329342F8D10F2222
:102158001440032C0AD9261FB6080136B6001A0007
:102168009B1920C29342FCD103221440002C05D0B5
:10217800C9B21C19197001339C42FBD170BD1400FF
:102188000300CCE7034B10B5002B02D0024800F047
:1021980005F810BD00000000B521000810B50100C9
:1021A80000230022002000F01BF810BD70B5094B79
:1021B800094CE41AA41009D0084AA518AD00ED1876
:1021C8002B68013C9847043D002CF9D100F078F8C1
:1021D80070BDC0460423000808230008FFFFFF3F26
:1021E800F8B544465F4656464D469B462F4BF0B4DD
:1021F8001C68A4235B000500E0580E0090460028E8
:102208004BD043681F2B0DDC5C1C002D21D1023301
:102218009B0044601E5000203CBC90469946A24654
:10222800AB46F8BD224B002B3CD0C820400000E054
:1022380000BF002836D0A42200235200A1584360D2
:102248000160A05040328350043283500124002D95
:10225800DDD09A0091468144424688214F467A5003
:10226800C4225200904680444246873999401268F9
:102278008A460A439446424661461160842249468A
:102288005F4652008F50022DC1D1020055468D3253
:10229800FF3211680D431560B9E720004D30FF305B
:1022A800E050AEE701204042B6E7C046F8220008F9
:1022B80000000000F8B5C046F8BC08BC9E46704750
:0C22C800F8B5C046F8BC08BC9E46704744
:1022D4002B7E151628AED2A6ABF7158809CF4F3C36
:1022E4003031323334353637383941424344454648
:0822F4000004080208000020AC
:0822FC008D210008B10100086A
:042304008901000843
:1023080000127A000000000000000000F402002023
:102318005C030020C403002000000000000000004F
:1023280000000000000000000000000000000000A5
:102338000000000000000000000000000000000095
:102348000000000000000000000000000000000085
:102358000000000000000000000000000000000075
:102368000000000000000000000000000000000065
:102378000000000000000000000000000000000055
:102388000000000000000000000000000000000045
:102398000000000000000000000000000000000035
:1023A8000000000000000000000000000000000025
:1023B80001000000000000000E33CDAB34126DE6C2
:1023C800ECDE05000B00000000000000000000002B
:1023D80000000000000000000000000000000000F5
:1023E80000000000000000000000000000000000E5
:1023F80000000000000000000000000000000000D5
:1024080000000000000000000000000000000000C4
:0400000508001FF1DF
:00000001FF
