:020000040800F2
:1000000000400020C53400080D3500080D350008FB
:100010000D3500080D3500080D3500080000000002
:100020000000000000000000000000000D35000886
:100030000D350008000000000D3500080D350008E2
:1000400000000000000000000000000000000000B0
:1000500000000000000000000000000000000000A0
:100060000000000000000000000000000000000090
:100070000000000000000000000000000000000080
:100080000000000000000000000000000000000070
:100090000000000000000000000000000000000060
:1000A0000000000000000000000000000000000050
:1000B0000000000000000000000000000000000040
:1000C0000000000000000000000000000000000030
:1000D0000000000000000000000000000000000020
:1000E0000000000000000000000000000000000010
:1000F0000000000000000000000000000000000000
:1001000000000000000000000000000000000000EF
:1001100000000000000000000000000000000000DF
:1001200000000000000000000000000000000000CF
:1001300000000000000000000000000000000000BF
:1001400000000000000000000000000000000000AF
:10015000000000000000000000000000000000009F
:10016000000000000000000000000000000000008F
:10017000000000000000000000000000000000007F
:08018000000000000000000077
:1001880010B5064C2378002B07D1054B002B02D065
:10019800044800E000BF0123237010BD4004002084
:1001A8000000000090370008084B10B5002B03D062
:1001B8000749084800E000BF07480368002B00D142
:1001C80010BD064B002BFBD09847F9E70000000054
:1001D800440400209037000840040020000000007C
:1001E800002243088B4274D303098B425FD3030A6E
:1001F8008B4244D3030B8B4228D3030C8B420DD381
:10020800FF22090212BA030C8B4202D3121209020E
:1002180065D0030B8B4219D300E0090AC30B8B424C
:1002280001D3CB03C01A5241830B8B4201D38B03FA
:10023800C01A5241430B8B4201D34B03C01A52419F
:10024800030B8B4201D30B03C01A5241C30A8B42E2
:1002580001D3CB02C01A5241830A8B4201D38B02CD
:10026800C01A5241430A8B4201D34B02C01A524171
:10027800030A8B4201D30B02C01A5241CDD2C309E3
:100288008B4201D3CB01C01A524183098B4201D35F
:100298008B01C01A524143098B4201D34B01C01A4A
:1002A800524103098B4201D30B01C01A5241C308C2
:1002B8008B4201D3CB00C01A524183088B4201D331
:1002C8008B00C01A524143088B4201D34B00C01A1D
:1002D8005241411A00D20146524110467047FFE789
:1002E80001B5002000F0F0F802BDC0460029F7D0A3
:1002F80076E7704703460B437FD4002243088B42BE
:1003080074D303098B425FD3030A8B4244D3030B94
:100318008B4228D3030C8B420DD3FF22090212BA59
:10032800030C8B4202D31212090265D0030B8B42D5
:1003380019D300E0090AC30B8B4201D3CB03C01ABF
:100348005241830B8B4201D38B03C01A5241430B9A
:100358008B4201D34B03C01A5241030B8B4201D38A
:100368000B03C01A5241C30A8B4201D3CB02C01AF5
:100378005241830A8B4201D38B02C01A5241430A6D
:100388008B4201D34B02C01A5241030A8B4201D35C
:100398000B02C01A5241CDD2C3098B4201D3CB0103
:1003A800C01A524183098B4201D38B01C01A5241B2
:1003B80043098B4201D34B01C01A524103098B42B6
:1003C80001D30B01C01A5241C3088B4201D3CB00A1
:1003D800C01A524183088B4201D38B00C01A524184
:1003E80043088B4201D34B00C01A5241411A00D234
:1003F80001465241104670475DE0CA0F00D049429D
:10040800031000D34042534000229C4603098B420C
:100418002DD3030A8B4212D3FC22890112BA030A94
:100428008B420CD3890192118B4208D38901921116
:100438008B4204D389013AD0921100E08909C3099B
:100448008B4201D3CB01C01A524183098B4201D39D
:100458008B01C01A524143098B4201D34B01C01A88
:10046800524103098B4201D30B01C01A5241C30800
:100478008B4201D3CB00C01A524183088B4201D36F
:100488008B00C01A5241D9D243088B4201D34B008A
:10049800C01A5241411A00D20146634652415B10CC
:1004A800104601D34042002B00D5494270476346AD
:1004B8005B1000D3404201B5002000F005F802BDF2
:1004C8000029F8D016E770477047C04680B582B05B
:1004D80000AF78607B68180001F0E8FC0023180082
:1004E800BD4602B080BDC04680B582B000AF78601E
:1004F80000F03AFB7B68180001F0E8FC00F042FBD2
:100508007B681A001021722000F02AFA00231800D4
:10051800BD4602B080BDC04680B582B000AF7860ED
:1005280000231800BD4602B080BDC04680B584B027
:1005380000AF3A001D4B1000190010231A0003F0F9
:1005480007F800F047FA00F073FA00F0D9FA01F062
:10055800A1FC3B00180001F0A9FC682000F036FB64
:10056800652000F033FB6C2000F030FB6C2000F0BD
:100578002DFB6F2000F02AFB0A2000F027FB00F07B
:10058800E7F80B4B1A0010216B2000F0EFF8094B2D
:100598001A001021702000F0E9F8074B1A0000211A
:1005A800782000F0E3F800F025F9FCE7A837000808
:1005B800D5040008F10400082105000880B586B0BC
:1005C80000AFF860B9607A6000237B61ABE07B69BB
:1005D8005B001A00BB689A181323FB1812781A706C
:1005E8007B695B000133BA68D2181223FB181278B2
:1005F8001A701223FB181B782F2B0ED91223FB1805
:100608001B78392B09D87B697A68D3181222BA1853
:100618001278303AD2B21A7029E01223FB181B78EC
:10062800402B0ED91223FB181B78462B09D87B695F
:100638007A68D3181222BA181278373AD2B21A70D6
:1006480015E01223FB181B78602B0ED91223FB1818
:100658001B78662B09D87B697A68D3181222BA18D6
:100668001278573AD2B21A7001E0012361E01323DD
:10067800FB181B782F2B17D91323FB181B78392B42
:1006880012D87B697A68D3187A6979688A181278D7
:1006980051B21322BA181278303A120152B20A43F0
:1006A80052B2D2B21A703BE01323FB181B78402BCE
:1006B80017D91323FB181B78462B12D87B697A6845
:1006C800D3187A6979688A18127851B21322BA183D
:1006D8001278373A120152B20A4352B2D2B21A70A1
:1006E8001EE01323FB181B78602B17D91323FB1864
:1006F8001B78662B12D87B697A68D3187A6979686F
:100708008A18127851B21322BA181278573A12017D
:1007180052B20A4352B2D2B21A7001E0012308E081
:100728007B6901337B617A69FB689A4200DA4EE79C
:1007380000231800BD4606B080BDC04680B582B013
:1007480000AF786000231800BD4602B080BDC046E7
:1007580080B500AF044B1A000021762000F006F89F
:10076800C046BD4680BDC0464507000880B584B078
:1007780000AFB9607A600F23FB18021C1A701B4B7C
:100788001B680A2B01DD01232BE0BB68402B01D934
:10079800012326E0154B1A68154913005B009B18C6
:1007A8009B000F22BA1812785A54104B1A68104935
:1007B80013005B009B189B00CB180433BA681A60BF
:1007C8000A4B1A680A4913005B009B189B00CB1858
:1007D80008337A681A60054B1B685A1C034B1A6069
:1007E80000231800BD4604B080BDC046D4040020D4
:1007F8005C04002090B5B5B000AFC723FC1800F02A
:10080800CFF9030023700023CC22BA18136014E038
:100818005149CC23FB181A6813005B009B189B00F6
:100828005B5CC722BA1812789A420ED0CC23FB1808
:100838001B680133CC22BA181360484B1B68CC22C2
:10084800BA1812689A42E3DB00E0C046434B1B68C3
:10085800CC22BA1812689A4200D173E00023C82249
:10086800BA18136020E0C723FC1800F099F90300B8
:100878002370C723FB181B780A2B65D0C723FB18E6
:100888001B780D2B60D04423FA18C823FB181B686B
:10089800D318C722BA1812781A70C823FB181B6815
:1008A8000133C822BA1813602B49CC23FB181A68E5
:1008B80013005B009B189B00CB1804331B685A007D
:1008C800C823FB181B689A42CDD8C723FC1800F030
:1008D80067F903002370C723FB181B780A2B04D081
:1008E800C723FB181B780D2B30D11B49CC23FB18D1
:1008F8001A6813005B009B189B00CB1804331B6815
:1009080018003A1D4423FB181900FFF757FE031E71
:100918001ED11149CC23FB181A6813005B009B18E1
:100928009B00CB1808331B683A1D1000984703003A
:100938001A003B001A703B001A0001217A2000F0CF
:100948000FF806E0C04604E0C04602E0C04600E0FA
:10095800C046BD4635B090BD5C040020D4040020DC
:1009680080B586B000AFB9607A600F23FB18021C0F
:100978001A700F23FB181B78180000F027F90023C2
:100988007B611AE07B697A68D3181B781B09DBB294
:100998001A000F4B9B5C180000F018F97B697A6805
:1009A800D3181B781A000F231340094AD35C180088
:1009B80000F00CF97B6901337B617A69BB689A4264
:1009C800E0DB0A2000F002F9C046BD4606B080BD53
:1009D8000000002080B590B000AF1023FB18032260
:1009E8001A601023FB1805225A601023FB180022F6
:1009F800DA601023FB1800225A621023FB18180033
:100A080000F01CF93B0007221A603B0001225A60E3
:100A18003B0000229A603B000022DA603B00002184
:100A2800180000F0FDFBC046BD4610B080BDC046B2
:100A380080B588B000AF2F4B2E4A526980218902B9
:100A48000A435A612B4B5A6980239B021340BB60AF
:100A5800BB680C23FB18C022D2001A600C23FB18B9
:100A680002225A600C23FB1801229A600C23FB18FF
:100A78000322DA600C23FB1801221A610C23FA18EE
:100A88009023DB051100180000F0A2FC194B194A4D
:100A980092698021C9010A439A61164B9A69802399
:100AA800DB0113407B607B68124B124A126B0321F7
:100AB8008A4301210A431A630F4B104A1A600E4BEE
:100AC800962212025A600C4B00229A600A4B0022AE
:100AD800DA60094B00221A61074B00229A61064B23
:100AE8000C225A61044B180001F016F8C046BD46A6
:100AF80008B080BD001002400827002000380140DF
:100B080080B586B000AF174B164A5269802189021A
:100B18000A435A61134B5A6980239B0213403B6076
:100B28003B683B1D802252011A603B1D01225A601E
:100B38003B1D00229A603B1D0322DA603A1D902378
:100B4800DB051100180000F043FC802359019023B5
:100B5800DB050022180000F0AFFDC046BD4606B018
:100B680080BDC0460010024080B500AF8023590107
:100B78009023DB050122180000F09EFDC046BD460B
:100B880080BDC04680B500AF802359019023DB05A6
:100B98000022180000F090FDC046BD4680BDC0464A
:100BA80080B582B000AFC046064BF91D0648012249
:100BB80000F0FEFF031EF7D1FB1D1B781800BD4691
:100BC80002B080BD881300000827002080B584B0DB
:100BD80000AF0200FB1D1A700F23FB18FA1D1278D4
:100BE8001A70054B0F22B9180448012201F0AEF81B
:100BF800C046BD4604B080BD881300000827002009
:100C080080B500AF044B1A68511C034B19601300E0
:100C18001800BD4680BDC046D804002080B500AF8E
:100C2800E123DB031800BD4680BDC04680B500AF98
:100C3800E123DB031800BD4680BDC04680B586B001
:100C480000AF786000233B617B681B68012213407A
:100C580000D18AE0C24B5B680C221340042B0BD0F6
:100C6800BF4B5B680C221340082B13D1BC4B5A684E
:100C780080235B0213400DD0B94B1A6880239B0276
:100C8800134000D170E07B685B68002B00D06BE0FC
:100C98000123B6E27B685B68012B07D1B04BB04AF1
:100CA8001268802149020A431A602FE07B685B685A
:100CB800002B0CD1AA4BAA4A1268AA490A401A600A
:100CC800A74BA74A1268A8490A401A601EE07B6829
:100CD8005B68052B0ED1A24BA14A12688021C9027C
:100CE8000A431A609E4B9E4A1268802149020A43B1
:100CF8001A600BE09A4B9A4A12689A490A401A609D
:100D0800974B974A126898490A401A607B685B6853
:100D1800002B14D0FFF774FF03003B6108E0FFF7D6
:100D28006FFF02003B69D31A642B01D9032368E2E1
:100D38008B4B1A6880239B021340F0D015E0FFF715
:100D48005FFF03003B6108E0FFF75AFF02003B69C1
:100D5800D31A642B01D9032353E2814B1A688023E9
:100D68009B021340F0D100E0C0467B681B6802225A
:100D7800134000D169E07A4B5B680C2213400BD01A
:100D8800774B5B680C221340082B1CD1744B5A68B4
:100D980080235B02134016D1714B1B68022213405B
:100DA80005D07B68DB68012B01D0012329E26C4A5E
:100DB8006B4B1B68F8218B4319007B681B69DB00B0
:100DC8000B43136041E07B68DB68002B24D0644B45
:100DD800634A126801210A431A60FFF711FF0300F2
:100DE8003B6108E0FFF70CFF02003B69D31A022BB6
:100DF80001D9032305E25A4B1B6802221340F1D0A4
:100E0800574A574B1B68F8218B4319007B681B69AD
:100E1800DB000B43136018E0514B514A1268012163
:100E28008A431A60FFF7ECFE03003B6108E0FFF716
:100E3800E7FE02003B69D31A022B01D90323E0E144
:100E4800474B1B6802221340F1D17B681B680822BC
:100E5800134036D07B68DB69002B19D0404B404AE1
:100E6800526A01210A435A62FFF7CAFE03003B6136
:100E780008E0FFF7C5FE02003B69D31A022B01D92F
:100E88000323BEE1364B5B6A02221340F1D018E01F
:100E9800334B334A526A01218A435A62FFF7B0FE44
:100EA80003003B6108E0FFF7ABFE02003B69D31A81
:100EB800022B01D90323A4E1294B5B6A02221340C8
:100EC800F1D17B681B680422134000D1B6E01723D8
:100ED800FB1800221A70224BDA6980235B05134045
:100EE80011D11F4B1E4AD269802149050A43DA6194
:100EF8001B4BDA6980235B051340FB60FB681723F3
:100F0800FB1801221A70194B1A6880235B001340E2
:100F18001AD1164B154A1268802149000A431A60F3
:100F2800FFF76EFE03003B6108E0FFF769FE020071
:100F38003B69D31A642B01D9032362E10B4B1A686E
:100F480080235B001340F0D07B689B68012B0FD196
:100F5800034B034A126A01210A431A6236E0C0466B
:100F680000100240FFFFFEFFFFFFFBFF0070004084
:100F78007B689B68002B0CD1A44BA44A126A012100
:100F88008A431A62A14BA14A126A04218A431A624F
:100F98001CE07B689B68052B0CD19C4B9B4A126A12
:100FA80004210A431A62994B984A126A01210A439A
:100FB8001A620BE0954B954A126A01218A431A621C
:100FC800924B924A126A04218A431A627B689B6890
:100FD800002B14D0FFF714FE03003B6109E0FFF774
:100FE8000FFE02003B69D31A894A934201D90323B1
:100FF80007E1864B1B6A02221340F0D013E0FFF78B
:10100800FFFD03003B6109E0FFF7FAFD02003B69C1
:10101800D31A7F4A934201D90323F2E07B4B1B6A20
:1010280002221340F0D11723FB181B78012B05D19E
:10103800764B764AD26977490A40DA617B681B6841
:101048001022134063D07B685B69012B2AD16F4B58
:101058006E4A526B04210A435A636C4B6B4A526BBB
:1010680001210A435A63FFF7CBFD03003B6108E007
:10107800FFF7C6FD02003B69D31A022B01D90323EF
:10108800BFE0624B5B6B02221340F1D05F4A5F4BBB
:101098005B6BF8218B4319007B689B69DB000B4372
:1010A800536334E07B685B69053311D1574B574A6A
:1010B800526B04218A435A63544A544B5B6BF821A0
:1010C8008B4319007B689B69DB000B4353631EE06D
:1010D8004E4B4E4A526B04210A435A634B4B4B4AC0
:1010E800526B01218A435A63FFF78AFD03003B6173
:1010F80008E0FFF785FD02003B69D31A022B01D9EE
:1011080003237EE0414B5B6B02221340F1D17B68E5
:101118001B6A002B00D173E03C4B5B680C22134028
:10112800082B00D16AE07B681B6A022B4BD1374B36
:10113800364A126838490A401A60FFF761FD030011
:101148003B6108E0FFF75CFD02003B69D31A022B04
:1011580001D9032355E02D4B1A6880239B041340C3
:10116800F0D12A4A294BDB6A0F218B4319007B688F
:10117800DB6A0B43D362254A244B5B682749194035
:101188007B68986A7B685B6A03430B4353601F4B19
:101198001E4A1268802149040A431A60FFF730FD8D
:1011A80003003B6108E0FFF72BFD02003B69D31AFF
:1011B800022B01D9032324E0144B1A6880239B04D3
:1011C8001340F0D01CE0114B104A126812490A4033
:1011D8001A60FFF715FD03003B6108E0FFF710FDFB
:1011E80002003B69D31A022B01D9032309E0074BFC
:1011F8001A6880239B041340F0D101E0012300E02A
:1012080000231800BD4606B080BDC046001002404D
:1012180088130000FFFFFFEFFFFFFFFEFFFFC2FF85
:1012280080B584B000AF786039600023FB60634B01
:101238001B6801221A403B689A4211D25F4B5F4AF1
:10124800126801218A4311003A680A431A605B4B0D
:101258001B6801221A403B689A4201D00123A8E08A
:101268007B681B680222134009D0554A544B5B68BF
:10127800F0218B4319007B689B680B4353607B68A4
:101288001B680122134000D167E07B685B68012B73
:1012980007D14B4B1A6880239B02134014D10123BA
:1012A80087E07B685B68022B07D1454B1A6880236F
:1012B8009B04134008D101237BE0414B1B680222A9
:1012C800134001D1012374E03D4A3D4B5B68032183
:1012D8008B4319007B685B680B435360FFF790FCF6
:1012E8000300FB607B685B68012B11D109E0FFF705
:1012F80087FC0200FB68D31A324A934201D90323C0
:1013080057E02F4B5B680C221340042BEFD124E0ED
:101318007B685B68022B1BD109E0FFF771FC0200B8
:10132800FB68D31A274A934201D9032341E0244B8F
:101338005B680C221340082BEFD10EE0FFF760FC2E
:101348000200FB68D31A1F4A934201D9032330E0F5
:101358001B4B5B680C221340F0D1184B1B68012211
:101368001A403B689A4211D9144B144A1268012159
:101378008A4311003A680A431A60104B1B6801221D
:101388001A403B689A4201D0012312E07B681B682F
:101398000422134008D00A4A094B5B680A491940DD
:1013A8007B68DB680B435360084BE122D2031A6069
:1013B80000231800BD4604B080BDC046002002408E
:1013C8000010024088130000FFF8FFFF1000002003
:1013D80080B586B000AF7860396000237B61002358
:1013E800FB6000233B614FE13B681B6801217A6980
:1013F80091400A001340FB60FB68002B00D140E1DC
:101408003B685B68022B03D03B685B68122B23D1D7
:101418007B69DA087B6808329200D3583B617B69A4
:10142800072213409B000F229A401300DA433B69BE
:1014380013403B613B681A697B6907210B409B009D
:101448009A4013003A6913433B617B69DA087B6869
:10145800083292003969D1507B681B683B617B690F
:101468005B0003229A401300DA433B6913403B6157
:101478003B685B6803221A407B695B009A40130053
:101488003A6913433B617B683A691A603B685B6859
:10149800012B0BD03B685B68022B07D03B685B686D
:1014A800112B03D03B685B68122B30D17B689B689B
:1014B8003B617B695B0003229A401300DA433B6976
:1014C80013403B613B68DA687B695B009A40130014
:1014D8003A6913433B617B683A699A607B685B6849
:1014E8003B6101227B699A401300DA433B69134050
:1014F8003B613B685B681B0901221A407B699A4083
:1015080013003A6913433B617B683A695A607B6808
:10151800DB683B617B695B0003229A401300DA4376
:101528003B6913403B613B689A687B695B009A4062
:1015380013003A6913433B617B683A69DA603B6898
:101548005A6880235B05134000D19AE0544B544AF3
:10155800926901210A439A61514B9B690122134008
:10156800BB60BB684F4A7B699B0802339B009B5852
:101578003B617B69032213409B000F229A401300B2
:10158800DA433B6913403B617A689023DB059A4252
:1015980013D07B68444A93420DD07B68434A9342F8
:1015A80007D07B68424A934201D1032306E0052312
:1015B80004E0022302E0012300E000237A6903210A
:1015C8000A40920093403A6913433B6135497B696D
:1015D8009B0802339B003A695A50364B1B683B61A3
:1015E800FB68DA433B6913403B613B685A688023D8
:1015F8005B02134003D03A69FB6813433B612D4BF0
:101608003A691A602B4B5B683B61FB68DA433B69BC
:1016180013403B613B685A6880239B02134003D008
:101628003A69FB6813433B61224B3A695A60214B84
:101638009B683B61FB68DA433B6913403B613B684D
:101648005A6880235B03134003D03A69FB6813434D
:101658003B61184B3A699A60164BDB683B61FB6843
:10166800DA433B6913403B613B685A6880239B031C
:10167800134003D03A69FB6813433B610D4B3A6949
:10168800DA607B6901337B613B681A687B69DA4001
:10169800131E00D0A8E6C046BD4606B080BDC046B1
:1016A8000010024000000140000400480008004803
:1016B800000C00480004014080B582B000AF78609B
:1016C80008001100BB1C021C1A807B1C0A1C1A7023
:1016D8007B1C1B78002B04D0BB1C1A887B689A6182
:1016E80003E0BB1C1A887B689A62C046BD4602B0FC
:1016F80080BDC04680B584B000AFF860B9603B607B
:10170800FB1D1A702BE0BB69013328D0BB69002B85
:1017180007D0FFF775FA02003B68D21ABB699A42F4
:101728001DD9FB681B68FA681268126816490A40D6
:101738001A60FB681B68FA681268926801218A437C
:101748009A60FB68692220219954FB686A2220214B
:101758009954FB6868220021995403230FE0FB6821
:101768001B68DB69BA681A40BB68D31A5A425341EE
:10177800DBB21A00FB1D1B789A42C4D00023180064
:10178800BD4604B080BDC0465FFEFFFF80B586B091
:1017980002AF78600023FB607B680022DA66FFF7FF
:1017A8002FFA0300FB607B681B681E4A934227D10F
:1017B8007B681B681B68082213400DD0FA688023D9
:1017C80099037868184B009313000022FFF792FFE3
:1017D800031E01D0032320E07B681B681B680422DA
:1017E80013400DD0FA688023D90378680E4B009314
:1017F80013000022FFF77EFF031E01D003230CE035
:101808007B686922202199547B686A222021995497
:101818007B6868220021995400231800BD4604B053
:1018280080BDC04600380140FFFFFF0190B587B07A
:1018380000AF78600023FB601723FB1810221A7092
:101848000A23FB1800221A801423FB1800221A808E
:101858001323FB1800221A707B689A687B681B693F
:101868001A437B685B691A437B68DB691343FB6037
:101878007B681B687A68126812689F491140FA6889
:101888000A431A607B681B687A68126852689B4929
:1018980011407A68D2680A435A607B689A697B6803
:1018A8001B6A1343FB607B681B687A68126892683E
:1018B80093491140FA680A439A607B681B68914A09
:1018C800934225D1904B1B6B03221340012B0FD061
:1018D80004D3022B11D0032B05D013E01723FB18D8
:1018E80000221A7022E01723FB1802221A701DE04A
:1018F8001723FB1804221A7018E01723FB18082274
:101908001A7013E01723FB1810221A70C0460DE056
:101918007B681B687D4A934204D11723FB18002279
:101928001A7003E01723FB1810221A707B68DA6913
:1019380080231B029A4200D07BE01723FB181B78F8
:10194800022B1CD002DC002B05D04FE0042B27D043
:10195800082B39D04AE0FFF769F903005A007B6881
:101968005B685B08D2187B685B6819001000FEF79B
:1019780037FC03001A001423FB181A803BE07B682D
:101988005B685B08624A9A187B685B6819001000FC
:10199800FEF726FC03001A001423FB181A802AE01D
:1019A800FFF73CF903005A007B685B685B08D218B4
:1019B8007B685B6819001000FEF712FC03001A0030
:1019C8001423FB181A8016E07B685B685B0880228A
:1019D80052029A187B685B6819001000FEF700FC39
:1019E80003001A001423FB181A8004E01323FB18C1
:1019F80001221A70C0460A23FB181422BA1812884A
:101A08000F218A431A801423FB181B885B109BB292
:101A18000722134099B20A23FB180A22BA1812881F
:101A28000A431A807B681B680A22BA181288DA608F
:101A38005BE01723FB181B78022B1BD002DC002B62
:101A480005D04DE0042B26D0082B37D048E07B6822
:101A58001C68FFF7EBF802007B685B685B08D2182C
:101A68007B685B6819001000FEF7BAFB03009BB2A5
:101A7800E3603AE07B681C687B685B685B08254A22
:101A88009A187B685B6819001000FEF7A9FB030031
:101A98009BB2E36029E07B681C68FFF7BFF802008F
:101AA8007B685B685B08D2187B685B68190010006C
:101AB800FEF796FB03009BB2E36016E07B681C68A8
:101AC8007B685B685B08802212029A187B685B68F7
:101AD80019001000FEF784FB03009BB2E36004E0EA
:101AE8001323FB1801221A70C0461323FB181B7816
:101AF8001800BD4607B090BDF369FFFFFFCFFFFF99
:101B0800FFF4FFFF0038014000100240004400408D
:101B18000048E8010024F40080B582B000AF786086
:101B28007B68002B01D101233BE07B6869229B5C29
:101B3800DBB2002B03D17B686822002199547B68B3
:101B48006922242199547B681B687A681268126894
:101B580001218A431A607B681800FFF767FE0300BB
:101B6800012B01D101231CE07B681B687A6812688D
:101B780052680E490A405A607B681B687A68126886
:101B880092682A218A439A607B681B687A6812687F
:101B9800126801210A431A607B681800FFF7F6FDF6
:101BA80003001800BD4602B080BDC046FFB7FFFF66
:101BB80080B58AB002AFF860B9603B60BB1D1A807F
:101BC8000023FB61FB686A229B5CDBB2202B00D000
:101BD800B4E0BB68002B03D0BB1D1B88002B01D1D0
:101BE8000123ACE0FB689A6880235B019A4209D123
:101BF800FB681B69002B05D1BB680122134001D08B
:101C080001239CE0FB6868229B5C012B01D1022325
:101C180095E0FB68682201219954FB680022DA6686
:101C2800FB686A2222219954FEF7EAFF0300FB6150
:101C3800FB68BA1D582112885A52FB68BA1D5A21EE
:101C480012885A52FB689A6880235B019A420DD128
:101C5800FB681B69002B04D1FB685C223A49995246
:101C680015E0FB685C22FF21995210E0FB689B6835
:101C7800002B0CD1FB681B69002B04D1FB685C228C
:101C8800FF21995203E0FB685C227F2199521A23B5
:101C9800FB18FA685C21525A1A803FE0FB685A2206
:101CA8009B5A9BB2013B99B2FB685A229952FA6936
:101CB800F8683B680093130000222021FFF71AFD03
:101CC800031E01D003233AE0FB689A6880235B0176
:101CD8009A4214D1FB681B69002B10D1BB687B6149
:101CE800FB681B689B8C9BB21A22BA181288134097
:101CF8009AB27B691A80BB680233BB600EE0BB688E
:101D08005A1CBA60FA681268928C92B2D2B21A213E
:101D180079180988C9B20A40D2B21A70FB685A22E7
:101D28009B5A9BB2002BB9D1FB686A222021995497
:101D3800FB68682200219954002300E00223180060
:101D4800BD4608B080BDC046FF01000080B588B020
:101D580002AFF860B9603B60BB1D1A8000237B614D
:101D6800FB6869229B5CDBB2202B00D08CE0BB684F
:101D7800002B03D0BB1D1B88002B01D1012384E05D
:101D8800FB689A6880235B019A4209D1FB681B694A
:101D9800002B05D1BB680122134001D0012374E058
:101DA800FB6868229B5C012B01D102236DE0FB6874
:101DB800682201219954FB680022DA66FB686922CF
:101DC80021219954FEF71CFF03007B61FB68BA1DB3
:101DD800502112885A52FB68BA1D522112885A5251
:101DE80035E0FB6852229B5A9BB2013B99B2FB68D3
:101DF800522299527A69F8683B68009313000022CE
:101E08008021FFF777FC031E01D003233DE0FB6828
:101E18009A6880235B019A4211D1FB681B69002BE9
:101E28000DD1BB683B61FB681B683A691288D20513
:101E3800D20D92B21A85BB680233BB6007E0FB681B
:101E48001A68BB68591CB9601B789BB21385FB687C
:101E580052229B5A9BB2002BC3D17A69F8683B681F
:101E68000093130000224021FFF744FC031E01D019
:101E780003230AE0FB68692220219954FB68682241
:101E880000219954002300E002231800BD4606B043
:101E980080BDC04680B500AF034B180000F0EAFAD9
:101EA800C046BD4680BDC0467827002080B582B0B8
:101EB80000AF78607968044B8022180000F0EAFAD5
:101EC800C046BD4602B080BD7827002080B582B0EC
:101ED80000AF78607B687A680348012101F0D0FA86
:101EE800C046BD4602B080BD7827002090B5E84CBA
:101EF800A54400AF0023E74ABA1813600123E64A55
:101F0800BA18136039E0E54B812212019446BC44AB
:101F18006344E04ABA1812689200DF4979180968E0
:101F2800D150DF4B812212019446BC446344DA4A03
:101F3800BA1812689200D74979180968D150D64B57
:101F4800FB181B685A00D44BFB181B6880210B40F8
:101F580001D01B2300E000235A40CF4BFB181B681D
:101F68005340FF221340CC4ABA181360C94BFB18E0
:101F78001B680133C74ABA181360C64BFB181B68A5
:101F8800FF2BC0DD0023C34ABA1813600123C24ADD
:101F9800BA18136022E0C04BFB181968C14BBD4A40
:101FA800BA1812689200D150BB4BFB181B685A0034
:101FB800B94BFB181B6880210B4001D01B2300E0A4
:101FC80000235340FF221340B34ABA181360B14BA1
:101FD800FB181B680133AF4ABA181360AD4BFB18E6
:101FE8001B68092BD7DDB04B63221A70AF4B6322F5
:101FF800002199540123A74ABA1813609CE0A84B02
:10200800812212019446BC446344A24ABA18126859
:102018009200D358FF22D21AA04B812109018C4685
:10202800BC4463449200D3589B4ABA1813609A4B35
:10203800FB181B689E4ABA1813609D4BFB181B6857
:102048005A009B4BFB181B68DB111343FF221340FC
:10205800974ABA181360904BFB181A68944BFB18F0
:102068001B6853408C4ABA181360914BFB181B68C5
:102078005A008F4BFB181B68DB111343FF221340D8
:102088008B4ABA181360844BFB181A68884BFB18E4
:102098001B685340804ABA181360854BFB181B68AD
:1020A8005A00834BFB181B68DB111343FF221340B4
:1020B8007F4ABA181360784BFB181A687C4BFB18D8
:1020C8001B685340744ABA181360794BFB181B6895
:1020D8005A00774BFB181B68DB111343FF22134090
:1020E800734ABA181360724BFB181B68632253407B
:1020F800694ABA1812685340674ABA181360664B9F
:10210800FB181B68D9B2684A624BFB181B68D318C6
:102118000A1C1A705F4BFB181B68D9B2634A5E4BE6
:10212800FB181B68D3180A1C1A705A4BFB181B683B
:102138000133584ABA181360564BFB181B68FF2B1B
:1021480000DC5CE70023534ABA18136074E1564A6E
:10215800504BFB181B68D3181B784F4ABA181360EA
:102168004D4BFB181B685A004B4BFB181B68802112
:102178000B4001D01B2300E000235340FF221340F3
:102188004B4ABA1813604A4BFB181A68424BFB18A3
:102198001B685340FF22134080221201BA181360B3
:1021A8003D4BFB181B681A02414BFB181B685A4031
:1021B800394BFB181B681B045A4080231B01FB1872
:1021C8001B681B065A4011003A4B324ABA1812686B
:1021D8009200D150374B2F4ABA1812689200D35840
:1021E8001822D3411900344B2A4ABA1812689200AF
:1021F800D150314B274ABA1812689200D358182286
:10220800D34119002D4B234ABA1812689200D150B5
:102218002A4B204ABA1812689200D3581822D34180
:102228001900274B1B4ABA1812689200D1501F4A4E
:10223800184BFB181B68D3181B78174ABA18136079
:10224800154BFB181B68002B3CD0154B8122120143
:102258009446BC4463449A6B114B812109018C4616
:10226800BC4463440C49791809688900CB58D318D1
:10227800FF211800FEF724F90B001A00074B8121F3
:1022880009018C46BC4463449200D3581C001AE0F0
:10229800ECF7FFFF0C08000008080000F0FBFFFF48
:1022A800F0F7FFFFDC260020DC040020DC1500200E
:1022B80004080000DC050020DC090020DC0D0020FB
:1022C800DC1100200024624BFB181B68002B22D075
:1022D800604B812212019446BC4463445A6A5D4BA8
:1022E800812109018C46BC4463445949791809681D
:1022F8008900CB58D318FF211800FEF7E1F80B002E
:102308001A00554B812109018C46BC446344920054
:10231800D3581B0200E000235C404D4BFB181B68A0
:10232800002B22D04B4B812212019446BC446344BB
:102338005A6B484B812109018C46BC44634444498B
:10234800791809688900CB58D318FF211800FEF7BF
:10235800B7F80B001A00404B812109018C46BC4498
:1023680063449200D3581B0400E000235C40384BC0
:10237800FB181B68002B22D0364B81221201944691
:10238800BC446344DA6A334B812109018C46BC445E
:1023980063442F49791809688900CB58D318FF215D
:1023A8001800FEF78DF80B001A002B4B812109014C
:1023B8008C46BC4463449200D3581B0600E00023BB
:1023C80021005940254B264ABA1812689200D1506C
:1023D800224B234ABA1812689200D3581822D341C4
:1023E8001900204B1E4ABA1812689200D1501D4B92
:1023F8001B4ABA1812689200D3581822D341190000
:10240800194B174ABA1812689200D150164B144A41
:10241800BA1812689200D3581822D3411900134BE6
:102428000F4ABA1812689200D1500D4BFB181B685E
:1024380001330B4ABA181360094BFB181B68FF2BB2
:1024480000DC84E6C046BD46094B9D4490BDC046AD
:1024580008080000F0F7FFFFF0FBFFFFDC16002084
:102468000C080000DC1A0020DC1E0020DC22002002
:102478001408000080B582B000AF78608C235A0041
:102488007B680021180001F0A1F8C046BD4602B0E3
:1024980080BDC04680B586B000AFF860B9607A608C
:1024A800944B1B68002B04D1FFF720FD914B0122B0
:1024B8001A607B68C02B09D080225200934209D051
:1024C800802B0BD1FB680A221A600AE0FB680C22F9
:1024D8001A6006E0FB680E221A6002E020235B42C5
:1024E800AEE1FB6808333B61FB683A695A60002338
:1024F8007B6126E07B699B003A69D3187A69920070
:10250800B9688A18127810007A6992000132B9689D
:102518008A1812781202010011437A699200023275
:10252800B86882181278120411437A69920003324B
:10253800B8688218127812060A431A607B69013358
:102548007B617B685A097B699A42D3D8FB681B6810
:102558000C2B5ED00E2B00D1C8E00A2B00D06EE108
:1025680000237B6151E03B6910333A691168624A84
:1025780078698000825851403A690C321268120A10
:10258800FF2002405D48825C51403A690C32126873
:10259800120CFF2002405948825C120251403A69ED
:1025A8000C321268120E5548825C120451403A6986
:1025B8000C321268FF2002405048825C12064A40E2
:1025C8001A603B6914333A69043211683A69103267
:1025D80012684A401A603B6918333A690832116830
:1025E8003A69143212684A401A603B691C333A69E6
:1025F8000C3211683A69183212684A401A607B69CD
:1026080001337B613B6910333B617B69092BAAD994
:1026180015E100237B6165E03B6918333A6911686D
:10262800354A78698000825851403A6914321268F4
:10263800120AFF2002403148825C51403A69143244
:102648001268120CFF2002402C48825C1202514092
:102658003A6914321268120E2848825C12045140FA
:102668003A6914321268FF2002402448825C12063C
:102678004A401A603B691C333A69043211683A6966
:10268800183212684A401A603B6920333A690832A6
:1026980011683A691C3212684A401A603B6924334F
:1026A8003A690C3211683A69203212684A401A6055
:1026B8003B6928333A69103211683A692432126842
:1026C8004A401A603B692C333A69143211683A69F6
:1026D800283212684A401A607B6901337B613B6982
:1026E80018333B617B69072B96D9A8E000237B61EF
:1026F800A0E0C04604270020DC260020DC040020DF
:102708003B6920333A6911684F4A786980008258DA
:1027180051403A691C321268120AFF2002404B48A5
:10272800825C51403A691C321268120CFF20024048
:102738004648825C120251403A691C321268120EF5
:102748004248825C120451403A691C321268FF20E8
:1027580002403E48825C12064A401A603B692433B4
:102768003A69043211683A69203212684A401A609C
:102778003B6928333A69083211683A692432126889
:102788004A401A603B692C333A690C3211683A693D
:10279800283212684A401A603B6930333A6910326D
:1027A80011683A692C321268FF2002402748825C7F
:1027B80051403A692C321268120AFF20024023481D
:1027C800825C120251403A692C321268120CFF20C6
:1027D80002401E48825C120451403A692C32126849
:1027E800120E1A48825C12064A401A603B6934335A
:1027F8003A69143211683A69303212684A401A60EC
:102808003B6938333A69183211683A6934321268C8
:102818004A401A603B693C333A691C3211683A698C
:10282800383212684A401A607B6901337B613B6920
:1028380020333B617B69062B00D861E7C046002343
:102848001800BD4606B080BDDC260020DC04002050
:1028580080B58EB000AFF860B9607A60FB685B68DD
:102868003B63BB681B781A00BB6801331B781B02EB
:102878001A43BB6802331B781B041A43BB68033333
:102888001B781B061343FB623B6B1A1D3A631B68DC
:10289800FA6A5340FB62BB6804331B781A00BB68B2
:1028A80005331B781B021A43BB6806331B781B04CD
:1028B8001A43BB6807331B781B061343BB623B6B89
:1028C8001A1D3A631B68BA6A5340BB62BB68083377
:1028D8001B781A00BB6809331B781B021A43BB68B4
:1028E8000A331B781B041A43BB680B331B781B067F
:1028F80013437B623B6B1A1D3A631B687A6A534029
:102908007B62BB680C331B781A00BB680D331B78DD
:102918001B021A43BB680E331B781B041A43BB689F
:102928000F331B781B0613433B623B6B1A1D3A633C
:102938001B683A6A53403B62FB681B685B10013BAB
:102948007B6312E13B6B1A1D3A631A68FB6AFF212D
:102958001940FE4B8900CB585A40BB6A1B0AFF211D
:102968001940FB4B8900CB585A407B6A1B0CFF214E
:102978001940F84B8900CB585A403B6A190EF64B60
:102988008900CB585340FB613B6B1A1D3A631A68A8
:10299800BB6AFF211940ED4B8900CB585A407B6A2E
:1029A8001B0AFF211940EA4B8900CB585A403B6A61
:1029B8001B0CFF211940E74B8900CB585A40FB6A92
:1029C800190EE54B8900CB585340BB613B6B1A1D70
:1029D8003A631A687B6AFF211940DC4B8900CB589F
:1029E8005A403B6A1B0AFF211940D94B8900CB5832
:1029F8005A40FB6A1B0CFF211940D64B8900CB5863
:102A08005A40BB6A190ED44B8900CB5853407B619E
:102A18003B6B1A1D3A631A683B6AFF211940CB4B7E
:102A28008900CB585A40FB6A1B0AFF211940C84B42
:102A38008900CB585A40BB6A1B0CFF211940C54B73
:102A48008900CB585A407B6A190EC34B8900CB5872
:102A580053403B613B6B1A1D3A631A68FB69FF21BF
:102A68001940BA4B8900CB585A40BB691B0AFF2151
:102A78001940B74B8900CB585A407B691B0CFF2182
:102A88001940B44B8900CB585A403B69190EB24BD8
:102A98008900CB585340FB623B6B1A1D3A631A6896
:102AA800BB69FF211940A94B8900CB585A407B6963
:102AB8001B0AFF211940A64B8900CB585A403B6995
:102AC8001B0CFF211940A34B8900CB585A40FB69C6
:102AD800190EA14B8900CB585340BB623B6B1A1DA2
:102AE8003A631A687B69FF211940984B8900CB58D3
:102AF8005A403B691B0AFF211940954B8900CB5866
:102B08005A40FB691B0CFF211940924B8900CB5896
:102B18005A40BB69190E904B8900CB5853407B62D1
:102B28003B6B1A1D3A631A683B69FF211940874BB2
:102B38008900CB585A40FB691B0AFF211940844B76
:102B48008900CB585A40BB691B0CFF211940814BA7
:102B58008900CB585A407B69190E7F4B8900CB58A6
:102B680053403B627B6B013B7B637B6B002B00DD3F
:102B7800E8E63B6B1A1D3A631A68FB6AFF211940A5
:102B8800724B8900CB585A40BB6A1B0AFF21194077
:102B98006F4B8900CB585A407B6A1B0CFF211940A8
:102BA8006C4B8900CB585A403B6A190E6A4B890016
:102BB800CB585340FB613B6B1A1D3A631A68BB6ADA
:102BC800FF211940614B8900CB585A407B6A1B0A88
:102BD800FF2119405E4B8900CB585A403B6A1B0CB9
:102BE800FF2119405B4B8900CB585A40FB6A190EEC
:102BF800594B8900CB585340BB613B6B1A1D3A6354
:102C08001A687B6AFF211940504B8900CB585A40FB
:102C18003B6A1B0AFF2119404D4B8900CB585A408B
:102C2800FB6A1B0CFF2119404A4B8900CB585A40BC
:102C3800BB6A190E484B8900CB5853407B613B6BEC
:102C48001A1D3A631A683B6AFF2119403F4B8900F5
:102C5800CB585A40FB6A1B0AFF2119403C4B89009C
:102C6800CB585A40BB6A1B0CFF211940394B8900CD
:102C7800CB585A407B6A190E374B8900CB585340C2
:102C88003B613B6B1A1D3A631B68FA69FF210A40D6
:102C980032498A5C5A40BB691B0AFF210B402F4905
:102CA800CB5C1B025A407B691B0CFF210B402B4954
:102CB800CB5C1B045A403B691B0E2849CB5C1B06A6
:102CC8005340FB623B6B1A1D3A631B68BA69FF21CC
:102CD8000A4022498A5C5A407B691B0AFF210B4043
:102CE8001E49CB5C1B025A403B691B0CFF210B4061
:102CF8001A49CB5C1B045A40FB691B0E1749CB5C75
:102D08001B065340BB623B6B1A1D3A631B687A690A
:102D1800FF210A4011498A5C5A403B691B0AFF217E
:102D28000B400E49CB5C1B025A40FB691B0CFF2170
:102D38000B400A49CB5C1B045A40BB691B0E074970
:102D4800CB5C1B0653407B620AE0C046DC050020D2
:102D5800DC090020DC0D0020DC110020DC04002050
:102D68003B6B1A1D3A631B683A69FF210A403D49CB
:102D78008A5C5A40FB691B0AFF210B403949CB5C2E
:102D88001B025A40BB691B0CFF210B403549CB5C29
:102D98001B045A407B691B0E3249CB5C1B0653400F
:102DA8003B62FB6ADAB27B681A707B680133FA6AA5
:102DB800120AD2B21A707B680233FA6A120CD2B2C3
:102DC8001A707B680333FA6A120ED2B21A707B68E3
:102DD8000433BA6AD2B21A707B680533BA6A120A27
:102DE800D2B21A707B680633BA6A120CD2B21A7061
:102DF8007B680733BA6A120ED2B21A707B6808333E
:102E08007A6AD2B21A707B6809337A6A120AD2B225
:102E18001A707B680A337A6A120CD2B21A707B680D
:102E28000B337A6A120ED2B21A707B680C333A6A84
:102E3800D2B21A707B680D333A6A120AD2B21A708B
:102E48007B680E333A6A120CD2B21A707B680F3361
:102E58003A6A120ED2B21A7000231800BD460EB09C
:102E680080BDC046DC04002080B58EB000AFF8609D
:102E7800B9607A60FB685B683B63BB681B781A00C3
:102E8800BB6801331B781B021A43BB6802331B78EB
:102E98001B041A43BB6803331B781B061343FB62EE
:102EA8003B6B1A1D3A631B68FA6A5340FB62BB68A6
:102EB80004331B781A00BB6805331B781B021A43BE
:102EC800BB6806331B781B041A43BB6807331B789F
:102ED8001B061343BB623B6B1A1D3A631B68BA6A35
:102EE8005340BB62BB6808331B781A00BB680933C0
:102EF8001B781B021A43BB680A331B781B041A434E
:102F0800BB680B331B781B0613437B623B6B1A1D94
:102F18003A631B687A6A53407B62BB680C331B7840
:102F28001A00BB680D331B781B021A43BB680E33AB
:102F38001B781B041A43BB680F331B781B0613430B
:102F48003B623B6B1A1D3A631B683A6A53403B620B
:102F5800FB681B685B10013B7B6312E13B6B1A1D2E
:102F68003A631A68FB6AFF211940FE4B8900CB5867
:102F78005A403B6A1B0AFF211940FB4B8900CB587A
:102F88005A407B6A1B0CFF211940F84B8900CB582B
:102F98005A40BB6A190EF64B8900CB585340FB6167
:102FA8003B6B1A1D3A631A68BB6AFF211940ED4B47
:102FB8008900CB585A40FB6A1B0AFF211940EA4B8B
:102FC8008900CB585A403B6A1B0CFF211940E74B3C
:102FD8008900CB585A407B6A190EE54B8900CB58BB
:102FE8005340BB613B6B1A1D3A631A687B6AFF2129
:102FF8001940DC4B8900CB585A40BB6A1B0AFF2199
:103008001940D94B8900CB585A40FB6A1B0CFF2149
:103018001940D64B8900CB585A403B6A190ED44BFD
:103028008900CB5853407B613B6B1A1D3A631A6881
:103038003B6AFF211940CB4B8900CB585A407B6A29
:103048001B0AFF211940C84B8900CB585A40BB6A5C
:103058001B0CFF211940C54B8900CB585A40FB6A0D
:10306800190EC34B8900CB5853403B613B6B1A1D6B
:103078003A631A68FB69FF211940BA4B8900CB589B
:103088005A403B691B0AFF211940B74B8900CB58AE
:103098005A407B691B0CFF211940B44B8900CB585F
:1030A8005A40BB69190EB24B8900CB585340FB629A
:1030B8003B6B1A1D3A631A68BB69FF211940A94B7B
:1030C8008900CB585A40FB691B0AFF211940A64BBF
:1030D8008900CB585A403B691B0CFF211940A34B70
:1030E8008900CB585A407B69190EA14B8900CB58EF
:1030F8005340BB623B6B1A1D3A631A687B69FF2118
:103108001940984B8900CB585A40BB691B0AFF21CC
:103118001940954B8900CB585A40FB691B0CFF217D
:103128001940924B8900CB585A403B69190E904B75
:103138008900CB5853407B623B6B1A1D3A631A686F
:103148003B69FF211940874B8900CB585A407B695E
:103158001B0AFF211940844B8900CB585A40BB6990
:103168001B0CFF211940814B8900CB585A40FB6941
:10317800190E7F4B8900CB5853403B627B6B013B58
:103188007B637B6B002B00DDE8E63B6B1A1D3A6323
:103198001A68FB6AFF211940724B8900CB585A40C4
:1031A8003B6A1B0AFF2119406F4B8900CB585A40D4
:1031B8007B6A1B0CFF2119406C4B8900CB585A4085
:1031C800BB6A190E6A4B8900CB585340FB613B6BB5
:1031D8001A1D3A631A68BB6AFF211940614B8900BE
:1031E800CB585A40FB6A1B0AFF2119405E4B8900E5
:1031F800CB585A403B6A1B0CFF2119405B4B890096
:10320800CB585A407B6A190E594B8900CB5853400A
:10321800BB613B6B1A1D3A631A687B6AFF21194030
:10322800504B8900CB585A40BB6A1B0AFF211940F2
:103238004D4B8900CB585A40FB6A1B0CFF211940A3
:103248004A4B8900CB585A403B6A190E484B8900B3
:10325800CB5853407B613B6B1A1D3A631A683B6A33
:10326800FF2119403F4B8900CB585A407B6A1B0A03
:10327800FF2119403C4B8900CB585A40BB6A1B0CB4
:10328800FF211940394B8900CB585A40FB6A190E67
:10329800374B8900CB5853403B613B6B1A1D3A634F
:1032A8001B68FA69FF210A4032498A5C5A403B6927
:1032B8001B0AFF210B402F49CB5C1B025A407B693C
:1032C8001B0CFF210B402B49CB5C1B045A40BB69EC
:1032D8001B0E2849CB5C1B065340FB623B6B1A1D37
:1032E8003A631B68BA69FF210A4022498A5C5A403E
:1032F800FB691B0AFF210B401E49CB5C1B025A408D
:103308003B691B0CFF210B401A49CB5C1B045A403C
:103318007B691B0E1749CB5C1B065340BB623B6B9A
:103328001A1D3A631B687A69FF210A4011498A5CB1
:103338005A40BB691B0AFF210B400E49CB5C1B029C
:103348005A40FB691B0CFF210B400A49CB5C1B044C
:103358005A403B691B0E0749CB5C1B0653407B62F6
:103368000AE0C046DC160020DC1A0020DC1E002023
:10337800DC220020DC1500203B6B1A1D3A631B6819
:103388003A69FF210A403D498A5C5A407B691B0A19
:10339800FF210B403949CB5C1B025A40BB691B0C0F
:1033A800FF210B403549CB5C1B045A40FB691B0EBF
:1033B8003249CB5C1B0653403B62FB6ADAB27B683E
:1033C8001A707B680133FA6A120AD2B21A707B68E3
:1033D8000233FA6A120CD2B21A707B680333FA6AA3
:1033E800120ED2B21A707B680433BA6AD2B21A705B
:1033F8007B680533BA6A120AD2B21A707B68063340
:10340800BA6A120CD2B21A707B680733BA6A120E03
:10341800D2B21A707B6808337A6AD2B21A707B68A3
:1034280009337A6A120AD2B21A707B680A337A6A46
:10343800120CD2B21A707B680B337A6A120ED2B2AF
:103448001A707B680C333A6AD2B21A707B680D33F3
:103458003A6A120AD2B21A707B680E333A6A120CB0
:10346800D2B21A707B680F333A6A120ED2B21A704F
:1034780000231800BD460EB080BDC046DC150020F4
:1034880080B584B000AFF860B9607A603B60BB6813
:10349800012B07D13A687968FB681800FFF7D8F95B
:1034A800030006E03A687968FB681800FFF7DCFC5F
:1034B80003001800BD4604B080BDC046002103E0EB
:1034C8000B4B5B58435004310A480B4B42189A4245
:1034D800F6D30A4A02E0002313600432084B9A42EA
:1034E800F9D300E000BF00F00FF8FDF71FF8FEE782
:1034F800C8370008000000204004002040040020D5
:1035080090280020FEE7000070B50D4E0D4D0024F8
:10351800AD1BAD1005D0A300F35801349847A54260
:10352800F9D100F031F9084E084D0024AD1BAD105B
:1035380005D0A300F35801349847A542F9D170BDCE
:10354800BC370008BC370008BC370008C43700087F
:1035580070B50F2A32D90C0004430B00A40731D1EF
:1035680015000400103D2D0901352D0149191E686B
:1035780026605E6866609E68A660DE681033E66056
:1035880010349942F3D10F2345191340032B1BD94B
:103598001C1F0023A4080134A400CE58EE500433A5
:1035A8009C42FAD103232D1909191A4005D000238A
:1035B800CC5CEC5401339A42FAD170BD0500002A64
:1035C800F5D1FAE70500F2E71A00F8E770B58307C6
:1035D8003FD0541E002A3BD0CEB20300032503E09F
:1035E800621E002C34D0140001335A1E16702B4270
:1035F800F6D1032C24D9FF250D402A0215432A04AD
:1036080015430F2C11D92600103E36090136360114
:103618001A009B19156055609560D5601032934269
:10362800F8D10F221440032C0AD9261FB6080136F8
:10363800B6001A009B1920C29342FCD10322144001
:10364800002C05D0C9B21C19197001339C42FBD15A
:1036580070BD14000300CCE7034B10B5002B02D05B
:10366800024800F005F810BD000000008936000887
:1036780010B5010000230022002000F01BF810BD47
:1036880070B5094B094CE41AA41009D0084AA518CA
:10369800AD00ED182B68013C9847043D002CF9D18A
:1036A80000F078F870BDC046C4370008C837000875
:1036B800FFFFFF3FF8B544465F4656464D469B46DA
:1036C8002F4BF0B41C68A4235B000500E0580E00E3
:1036D800904600284BD043681F2B0DDC5C1C002D46
:1036E80021D102339B0044601E5000203CBC904610
:1036F8009946A246AB46F8BD224B002B3CD0C820C9
:10370800400000E000BF002836D0A4220023520069
:10371800A15843600160A050403283500432835066
:103728000124002DDDD09A0091468144424688212B
:103738004F467A50C4225200904680444246873908
:10374800994012688A460A43944642466146116087
:10375800842249465F4652008F50022DC1D1020093
:1037680055468D32FF3211680D431560B9E72000C8
:103778004D30FF30E050AEE701204042B6E7C0468A
:10378800B837000800000000F8B5C046F8BC08BC0F
:103798009E467047F8B5C046F8BC08BC9E467047C0
:1037A8002B7E151628AED2A6ABF7158809CF4F3C4D
:0437B80018000020D5
:0837BC0061360008B1010008AC
:0437C400890100086F
:1037C800303132333435363738394142434445464F
:1037D80000127A000000000000000000040300202E
:1037E8006C030020D403002000000000000000004B
:1037F80000000000000000000000000000000000C1
:1038080000000000000000000000000000000000B0
:1038180000000000000000000000000000000000A0
:103828000000000000000000000000000000000090
:103838000000000000000000000000000000000080
:103848000000000000000000000000000000000070
:103858000000000000000000000000000000000060
:103868000000000000000000000000000000000050
:103878000000000000000000000000000000000040
:1038880001000000000000000E33CDAB34126DE6DD
:10389800ECDE05000B000000000000000000000046
:1038A8000000000000000000000000000000000010
:1038B8000000000000000000000000000000000000
:1038C80000000000000000000000000000000000F0
:1038D80000000000000000000000000000000000E0
:04000005080034C5F6
:00000001FF
