:020000040800F2
:1000000000400020492D0008912D0008912D000886
:10001000912D0008912D0008912D0008000000008E
:10002000000000000000000000000000912D00080A
:10003000912D000800000000912D0008912D00086E
:1000400000000000000000000000000000000000B0
:1000500000000000000000000000000000000000A0
:100060000000000000000000000000000000000090
:100070000000000000000000000000000000000080
:100080000000000000000000000000000000000070
:100090000000000000000000000000000000000060
:1000A0000000000000000000000000000000000050
:1000B0000000000000000000000000000000000040
:1000C0000000000000000000000000000000000030
:1000D0000000000000000000000000000000000020
:1000E0000000000000000000000000000000000010
:1000F0000000000000000000000000000000000000
:1001000000000000000000000000000000000000EF
:1001100000000000000000000000000000000000DF
:1001200000000000000000000000000000000000CF
:1001300000000000000000000000000000000000BF
:1001400000000000000000000000000000000000AF
:10015000000000000000000000000000000000009F
:10016000000000000000000000000000000000008F
:10017000000000000000000000000000000000007F
:08018000000000000000000077
:1001880010B5064C2378002B07D1054B002B02D065
:10019800044800E000BF0123237010BD4004002084
:1001A8000000000014300008084B10B5002B03D0E5
:1001B8000749084800E000BF07480368002B00D142
:1001C80010BD064B002BFBD09847F9E70000000054
:1001D80044040020143000084004002000000000FF
:1001E800002243088B4274D303098B425FD3030A6E
:1001F8008B4244D3030B8B4228D3030C8B420DD381
:10020800FF22090212BA030C8B4202D3121209020E
:1002180065D0030B8B4219D300E0090AC30B8B424C
:1002280001D3CB03C01A5241830B8B4201D38B03FA
:10023800C01A5241430B8B4201D34B03C01A52419F
:10024800030B8B4201D30B03C01A5241C30A8B42E2
:1002580001D3CB02C01A5241830A8B4201D38B02CD
:10026800C01A5241430A8B4201D34B02C01A524171
:10027800030A8B4201D30B02C01A5241CDD2C309E3
:100288008B4201D3CB01C01A524183098B4201D35F
:100298008B01C01A524143098B4201D34B01C01A4A
:1002A800524103098B4201D30B01C01A5241C308C2
:1002B8008B4201D3CB00C01A524183088B4201D331
:1002C8008B00C01A524143088B4201D34B00C01A1D
:1002D8005241411A00D20146524110467047FFE789
:1002E80001B5002000F006F802BDC0460029F7D08D
:1002F80076E770477047C04680B582B000AF786037
:100308007B68180001F0E8FC00231800BD4602B025
:1003180080BDC04680B582B000AF786000F03AFB7F
:100328007B68180001F0E8FC00F042FB7B681A00CB
:100338001021722000F02AFA00231800BD4602B0EE
:1003480080BDC04680B582B000AF78600023180039
:10035800BD4602B080BDC04680B584B000AF3A004B
:100368001D4B1000190010231A0002F033FD00F095
:1003780047FA00F073FA00F0D9FA01F0A1FC3B004B
:10038800180001F0A9FC682000F036FB652000F099
:1003980033FB6C2000F030FB6C2000F02DFB6F204D
:1003A80000F02AFB0A2000F027FB00F0E7F80B4BCF
:1003B8001A0010216B2000F0EFF8094B1A001021E9
:1003C800702000F0E9F8074B1A000021782000F0AF
:1003D800E3F800F025F9FCE72C30000801030008D9
:1003E8001D0300084D03000880B586B000AFF86013
:1003F800B9607A6000237B61ABE07B695B001A001F
:10040800BB689A181323FB1812781A707B695B0073
:100418000133BA68D2181223FB1812781A70122303
:10042800FB181B782F2B0ED91223FB181B78392B9E
:1004380009D87B697A68D3181222BA181278303A28
:10044800D2B21A7029E01223FB181B78402B0ED960
:100458001223FB181B78462B09D87B697A68D318B6
:100468001222BA181278373AD2B21A7015E012234B
:10047800FB181B78602B0ED91223FB181B78662BF0
:1004880009D87B697A68D3181222BA181278573AB1
:10049800D2B21A7001E0012361E01323FB181B7824
:1004A8002F2B17D91323FB181B78392B12D87B69EC
:1004B8007A68D3187A6979688A18127851B213223F
:1004C800BA181278303A120152B20A4352B2D2B272
:1004D8001A703BE01323FB181B78402B17D9132302
:1004E800FB181B78462B12D87B697A68D3187A696F
:1004F80079688A18127851B21322BA181278373AE2
:10050800120152B20A4352B2D2B21A701EE0132339
:10051800FB181B78602B17D91323FB181B78662B45
:1005280012D87B697A68D3187A6979688A18127838
:1005380051B21322BA181278573A120152B20A432A
:1005480052B2D2B21A7001E0012308E07B6901338C
:100558007B617A69FB689A4200DA4EE7002318004B
:10056800BD4606B080BDC04680B582B000AF786099
:1005780000231800BD4602B080BDC04680B500AF5C
:10058800044B1A000021762000F006F8C046BD464C
:1005980080BDC0467105000880B584B000AFB96061
:1005A8007A600F23FB18021C1A701B4B1B680A2B5E
:1005B80001DD01232BE0BB68402B01D9012326E094
:1005C800154B1A68154913005B009B189B000F22F6
:1005D800BA1812785A54104B1A68104913005B0065
:1005E8009B189B00CB180433BA681A600A4B1A6828
:1005F8000A4913005B009B189B00CB1808337A68E4
:100608001A60054B1B685A1C034B1A60002318001C
:10061800BD4604B080BDC046D40400205C04002060
:1006280090B5B5B000AFC723FC1800F0CFF90300B0
:1006380023700023CC22BA18136014E05149CC234C
:10064800FB181A6813005B009B189B005B5CC722B1
:10065800BA1812789A420ED0CC23FB181B680133C3
:10066800CC22BA181360484B1B68CC22BA181268FF
:100678009A42E3DB00E0C046434B1B68CC22BA1821
:1006880012689A4200D173E00023C822BA18136096
:1006980020E0C723FC1800F099F903002370C72352
:1006A800FB181B780A2B65D0C723FB181B780D2B6A
:1006B80060D04423FA18C823FB181B68D318C72234
:1006C800BA1812781A70C823FB181B680133C8229D
:1006D800BA1813602B49CC23FB181A6813005B0067
:1006E8009B189B00CB1804331B685A00C823FB18BF
:1006F8001B689A42CDD8C723FC1800F067F903009D
:100708002370C723FB181B780A2B04D0C723FB18B8
:100718001B780D2B30D11B49CC23FB181A6813000A
:100728005B009B189B00CB1804331B6818003A1D0C
:100738004423FB181900FFF757FE031E1ED1114969
:10074800CC23FB181A6813005B009B189B00CB187E
:1007580008331B683A1D1000984703001A003B0035
:100768001A703B001A0001217A2000F00FF806E009
:10077800C04604E0C04602E0C04600E0C046BD46B0
:1007880035B090BD5C040020D404002080B586B04C
:1007980000AFB9607A600F23FB18021C1A700F2390
:1007A800FB181B78180000F027F900237B611AE07A
:1007B8007B697A68D3181B781B09DBB21A000F4BC8
:1007C8009B5C180000F018F97B697A68D3181B78CD
:1007D8001A000F231340094AD35C180000F00CF9E3
:1007E8007B6901337B617A69BB689A42E0DB0A2046
:1007F80000F002F9C046BD4606B080BD00000020EA
:1008080080B590B000AF1023FB1803221A601023A4
:10081800FB1805225A601023FB180022DA60102307
:10082800FB1800225A621023FB18180000F01CF96C
:100838003B0007221A603B0001225A603B0000225D
:100848009A603B000022DA603B000021180000F0AB
:10085800FDFBC046BD4610B080BDC04680B588B01F
:1008680000AF2F4B2E4A5269802189020A435A61F0
:100878002B4B5A6980239B021340BB60BB680C2337
:10088800FB18C022D2001A600C23FB1802225A60FF
:100898000C23FB1801229A600C23FB180322DA6050
:1008A8000C23FB1801221A610C23FA189023DB058C
:1008B8001100180000F0A2FC194B194A9269802116
:1008C800C9010A439A61164B9A698023DB011340D8
:1008D8007B607B68124B124A126B03218A43012109
:1008E8000A431A630F4B104A1A600E4B96221202E3
:1008F8005A600C4B00229A600A4B0022DA60094BBE
:1009080000221A61074B00229A61064B0C225A6199
:10091800044B180001F016F8C046BD4608B080BD6B
:1009280000100240DC0400200038014080B586B089
:1009380000AF174B164A5269802189020A435A614F
:10094800134B5A6980239B0213403B603B683B1D55
:10095800802252011A603B1D01225A603B1D002271
:100968009A603B1D0322DA603A1D9023DB051100D3
:10097800180000F043FC802359019023DB05002276
:10098800180000F0AFFDC046BD4606B080BDC046A9
:100998000010024080B500AF802359019023DB0589
:1009A8000122180000F09EFDC046BD4680BDC0462D
:1009B80080B500AF802359019023DB050022180081
:1009C80000F090FDC046BD4680BDC04680B582B0EF
:1009D80000AFC046064BF91D0648012200F0FEFF95
:1009E800031EF7D1FB1D1B781800BD4602B080BD61
:1009F80088130000DC04002080B584B000AF02003A
:100A0800FB1D1A700F23FB18FA1D12781A70054B7C
:100A18000F22B9180448012201F0AEF8C046BD46BD
:100A280004B080BD88130000DC04002080B500AF4E
:100A3800044B1A68511C034B196013001800BD467B
:100A480080BDC046D804002080B500AFE123DB0399
:100A58001800BD4680BDC04680B500AFE123DB036A
:100A68001800BD4680BDC04680B586B000AF78602E
:100A780000233B617B681B680122134000D18AE098
:100A8800C24B5B680C221340042B0BD0BF4B5B6836
:100A98000C221340082B13D1BC4B5A6880235B02ED
:100AA80013400DD0B94B1A6880239B02134000D124
:100AB80070E07B685B68002B00D06BE00123B6E236
:100AC8007B685B68012B07D1B04BB04A1268802164
:100AD80049020A431A602FE07B685B68002B0CD13F
:100AE800AA4BAA4A1268AA490A401A60A74BA74A01
:100AF8001268A8490A401A601EE07B685B68052BEB
:100B08000ED1A24BA14A12688021C9020A431A6079
:100B18009E4B9E4A1268802149020A431A600BE0E4
:100B28009A4B9A4A12689A490A401A60974B974A10
:100B3800126898490A401A607B685B68002B14D0D9
:100B4800FFF774FF03003B6108E0FFF76FFF020047
:100B58003B69D31A642B01D9032368E28B4B1A68CB
:100B680080239B021340F0D015E0FFF75FFF0300DE
:100B78003B6108E0FFF75AFF02003B69D31A642B78
:100B880001D9032353E2814B1A6880239B02134047
:100B9800F0D100E0C0467B681B680222134000D1F8
:100BA80069E07A4B5B680C2213400BD0774B5B688B
:100BB8000C221340082B1CD1744B5A6880235B020B
:100BC800134016D1714B1B680222134005D07B6875
:100BD800DB68012B01D0012329E26C4A6B4B1B68AF
:100BE800F8218B4319007B681B69DB000B431360FA
:100BF80041E07B68DB68002B24D0644B634A1268B1
:100C080001210A431A60FFF711FF03003B6108E066
:100C1800FFF70CFF02003B69D31A022B01D903230B
:100C280005E25A4B1B6802221340F1D0574A574B32
:100C38001B68F8218B4319007B681B69DB000B4399
:100C4800136018E0514B514A126801218A431A6017
:100C5800FFF7ECFE03003B6108E0FFF7E7FE020048
:100C68003B69D31A022B01D90323E0E1474B1B68E8
:100C780002221340F1D17B681B680822134036D04A
:100C88007B68DB69002B19D0404B404A526A01212E
:100C98000A435A62FFF7CAFE03003B6108E0FFF708
:100CA800C5FE02003B69D31A022B01D90323BEE11A
:100CB800364B5B6A02221340F1D018E0334B334ABB
:100CC800526A01218A435A62FFF7B0FE03003B6172
:100CD80008E0FFF7ABFE02003B69D31A022B01D9EB
:100CE8000323A4E1294B5B6A02221340F1D17B68FC
:100CF8001B680422134000D1B6E01723FB1800221A
:100D08001A70224BDA6980235B05134011D11F4BFF
:100D18001E4AD269802149050A43DA611B4BDA6908
:100D280080235B051340FB60FB681723FB18012237
:100D38001A70194B1A6880235B0013401AD1164B9E
:100D4800154A1268802149000A431A60FFF76EFEAF
:100D580003003B6108E0FFF769FE02003B69D31A14
:100D6800642B01D9032362E10B4B1A6880235B00D3
:100D78001340F0D07B689B68012B0FD1034B034ACB
:100D8800126A01210A431A6236E0C0460010024086
:100D9800FFFFFEFFFFFFFBFF007000407B689B68C2
:100DA800002B0CD1A44BA44A126A01218A431A626F
:100DB800A14BA14A126A04218A431A621CE07B688B
:100DC8009B68052B0CD19C4B9B4A126A04210A4351
:100DD8001A62994B984A126A01210A431A620BE077
:100DE800954B954A126A01218A431A62924B924A9C
:100DF800126A04218A431A627B689B68002B14D00C
:100E0800FFF714FE03003B6109E0FFF70FFE020045
:100E18003B69D31A894A934201D9032307E1864BD8
:100E28001B6A02221340F0D013E0FFF7FFFD030016
:100E38003B6109E0FFF7FAFD02003B69D31A7F4ADC
:100E4800934201D90323F2E07B4B1B6A0222134031
:100E5800F0D11723FB181B78012B05D1764B764A66
:100E6800D26977490A40DA617B681B68102213400F
:100E780063D07B685B69012B2AD16F4B6E4A526B3A
:100E880004210A435A636C4B6B4A526B01210A4393
:100E98005A63FFF7CBFD03003B6108E0FFF7C6FD8F
:100EA80002003B69D31A022B01D90323BFE0624B2E
:100EB8005B6B02221340F1D05F4A5F4B5B6BF821FA
:100EC8008B4319007B689B69DB000B43536334E059
:100ED8007B685B69053311D1574B574A526B042124
:100EE8008A435A63544A544B5B6BF8218B4319006D
:100EF8007B689B69DB000B4353631EE04E4B4E4AF5
:100F0800526B04210A435A634B4B4B4A526B0121E3
:100F18008A435A63FFF78AFD03003B6108E0FFF745
:100F280085FD02003B69D31A022B01D903237EE019
:100F3800414B5B6B02221340F1D17B681B6A002B8B
:100F480000D173E03C4B5B680C221340082B00D1A6
:100F58006AE07B681B6A022B4BD1374B364A126812
:100F680038490A401A60FFF761FD03003B6108E059
:100F7800FFF75CFD02003B69D31A022B01D903235A
:100F880055E02D4B1A6880239B041340F0D12A4A60
:100F9800294BDB6A0F218B4319007B68DB6A0B4303
:100FA800D362254A244B5B68274919407B68986AB5
:100FB8007B685B6A03430B4353601F4B1E4A1268EE
:100FC800802149040A431A60FFF730FD03003B61A2
:100FD80008E0FFF72BFD02003B69D31A022B01D969
:100FE800032324E0144B1A6880239B041340F0D099
:100FF8001CE0114B104A126812490A401A60FFF7A8
:1010080015FD03003B6108E0FFF710FD02003B6996
:10101800D31A022B01D9032309E0074B1A6880234E
:101028009B041340F0D101E0012300E000231800E5
:10103800BD4606B080BDC0460010024088130000BF
:10104800FFFFFFEFFFFFFFFEFFFFC2FF80B584B089
:1010580000AF786039600023FB60634B1B68012296
:101068001A403B689A4211D25F4B5F4A12680121CD
:101078008A4311003A680A431A605B4B1B680122D5
:101088001A403B689A4201D00123A8E07B681B689C
:101098000222134009D0554A544B5B68F0218B4318
:1010A80019007B689B680B4353607B681B680122AF
:1010B800134000D167E07B685B68012B07D14B4B7D
:1010C8001A6880239B02134014D1012387E07B68B0
:1010D8005B68022B07D1454B1A6880239B04134099
:1010E80008D101237BE0414B1B680222134001D148
:1010F800012374E03D4A3D4B5B6803218B43190093
:101108007B685B680B435360FFF790FC0300FB6050
:101118007B685B68012B11D109E0FFF787FC0200AF
:10112800FB68D31A324A934201D9032357E02F4B65
:101138005B680C221340042BEFD124E07B685B68CA
:10114800022B1BD109E0FFF771FC0200FB68D31AE0
:10115800274A934201D9032341E0244B5B680C22C0
:101168001340082BEFD10EE0FFF760FC0200FB688C
:10117800D31A1F4A934201D9032330E01B4B5B6803
:101188000C221340F0D1184B1B6801221A403B680F
:101198009A4211D9144B144A126801218A4311004A
:1011A8003A680A431A60104B1B6801221A403B68D0
:1011B8009A4201D0012312E07B681B680422134085
:1011C80008D00A4A094B5B680A4919407B68DB6802
:1011D8000B435360084BE122D2031A600023180026
:1011E800BD4604B080BDC046002002400010024049
:1011F80088130000FFF8FFFF1000002080B586B0BC
:1012080000AF7860396000237B610023FB60002316
:101218003B614FE13B681B6801217A6991400A00F4
:101228001340FB60FB68002B00D140E13B685B6822
:10123800022B03D03B685B68122B23D17B69DA0849
:101248007B6808329200D3583B617B6907221340C0
:101258009B000F229A401300DA433B6913403B611D
:101268003B681A697B6907210B409B009A40130071
:101278003A6913433B617B69DA087B68083292005C
:101288003969D1507B681B683B617B695B0003222D
:101298009A401300DA433B6913403B613B685B6843
:1012A80003221A407B695B009A4013003A69134392
:1012B8003B617B683A691A603B685B68012B0BD01D
:1012C8003B685B68022B07D03B685B68112B03D037
:1012D8003B685B68122B30D17B689B683B617B69FC
:1012E8005B0003229A401300DA433B6913403B61D9
:1012F8003B68DA687B695B009A4013003A691343DC
:101308003B617B683A699A607B685B683B61012254
:101318007B699A401300DA433B6913403B613B68A1
:101328005B681B0901221A407B699A4013003A69DD
:1013380013433B617B683A695A607B68DB683B61B1
:101348007B695B0003229A401300DA433B69134030
:101358003B613B689A687B695B009A4013003A6975
:1013680013433B617B683A69DA603B685A688023BB
:101378005B05134000D19AE0544B544A926901210D
:101388000A439A61514B9B6901221340BB60BB68B9
:101398004F4A7B699B0802339B009B583B617B69E2
:1013A800032213409B000F229A401300DA433B6943
:1013B80013403B617A689023DB059A4213D07B681F
:1013C800444A93420DD07B68434A934207D07B68D6
:1013D800424A934201D1032306E0052304E0022395
:1013E80002E0012300E000237A6903210A40920009
:1013F80093403A6913433B6135497B699B08023343
:101408009B003A695A50364B1B683B61FB68DA43CC
:101418003B6913403B613B685A6880235B02134079
:1014280003D03A69FB6813433B612D4B3A691A6054
:101438002B4B5B683B61FB68DA433B6913403B61BC
:101448003B685A6880239B02134003D03A69FB68C3
:1014580013433B61224B3A695A60214B9B683B61BD
:10146800FB68DA433B6913403B613B685A68802359
:101478005B03134003D03A69FB6813433B61184B85
:101488003A699A60164BDB683B61FB68DA433B6953
:1014980013403B613B685A6880239B03134003D089
:1014A8003A69FB6813433B610D4B3A69DA607B6923
:1014B80001337B613B681A687B69DA40131E00D0F0
:1014C800A8E6C046BD4606B080BDC0460010024032
:1014D800000001400004004800080048000C0048D3
:1014E8000004014080B582B000AF786008001100A8
:1014F800BB1C021C1A807B1C0A1C1A707B1C1B78E4
:10150800002B04D0BB1C1A887B689A6103E0BB1CC3
:101518001A887B689A62C046BD4602B080BDC04644
:1015280080B584B000AFF860B9603B60FB1D1A70ED
:101538002BE0BB69013328D0BB69002B07D0FFF72C
:1015480075FA02003B68D21ABB699A421DD9FB683A
:101558001B68FA681268126816490A401A60FB6824
:101568001B68FA681268926801218A439A60FB68CE
:10157800692220219954FB686A2220219954FB682A
:1015880068220021995403230FE0FB681B68DB697C
:10159800BA681A40BB68D31A5A425341DBB21A00E0
:1015A800FB1D1B789A42C4D000231800BD4604B026
:1015B80080BDC0465FFEFFFF80B586B002AF786091
:1015C8000023FB607B680022DA66FFF72FFA03002E
:1015D800FB607B681B681E4A934227D17B681B68A7
:1015E8001B68082213400DD0FA6880239903786895
:1015F800184B009313000022FFF792FF031E01D03F
:10160800032320E07B681B681B68042213400DD06D
:10161800FA688023D90378680E4B009313000022E0
:10162800FFF77EFF031E01D003230CE07B686922CD
:10163800202199547B686A22202199547B6868226A
:101648000021995400231800BD4604B080BDC0464F
:1016580000380140FFFFFF0190B587B000AF786008
:101668000023FB601723FB1810221A700A23FB18AB
:1016780000221A801423FB1800221A801323FB1857
:1016880000221A707B689A687B681B691A437B681A
:101698005B691A437B68DB691343FB607B681B68E3
:1016A8007A68126812689F491140FA680A431A60FA
:1016B8007B681B687A68126852689B4911407A688F
:1016C800D2680A435A607B689A697B681B6A13432D
:1016D800FB607B681B687A681268926893491140BE
:1016E800FA680A439A607B681B68914A934225D13D
:1016F800904B1B6B03221340012B0FD004D3022BFA
:1017080011D0032B05D013E01723FB1800221A7001
:1017180022E01723FB1802221A701DE01723FB187A
:1017280004221A7018E01723FB1808221A7013E015
:101738001723FB1810221A70C0460DE07B681B683F
:101748007D4A934204D11723FB1800221A7003E044
:101758001723FB1810221A707B68DA6980231B0292
:101768009A4200D07BE01723FB181B78022B1CD071
:1017780002DC002B05D04FE0042B27D0082B39D0F2
:101788004AE0FFF769F903005A007B685B685B0869
:10179800D2187B685B6819001000FEF721FD030072
:1017A8001A001423FB181A803BE07B685B685B080F
:1017B800624A9A187B685B6819001000FEF710FDF2
:1017C80003001A001423FB181A802AE0FFF73CF9DB
:1017D80003005A007B685B685B08D2187B685B680B
:1017E80019001000FEF7FCFC03001A001423FB1874
:1017F8001A8016E07B685B685B08802252029A18A0
:101808007B685B6819001000FEF7EAFC03001A0009
:101818001423FB181A8004E01323FB1801221A7002
:10182800C0460A23FB181422BA1812880F218A43CB
:101838001A801423FB181B885B109BB207221340E5
:1018480099B20A23FB180A22BA1812880A431A8086
:101858007B681B680A22BA181288DA605BE01723D3
:10186800FB181B78022B1BD002DC002B05D04DE0A7
:10187800042B26D0082B37D048E07B681C68FFF77C
:10188800EBF802007B685B685B08D2187B685B68D2
:1018980019001000FEF7A4FC03009BB2E3603AE0D5
:1018A8007B681C687B685B685B08254A9A187B68BC
:1018B8005B6819001000FEF793FC03009BB2E3601D
:1018C80029E07B681C68FFF7BFF802007B685B684B
:1018D8005B08D2187B685B6819001000FEF780FC73
:1018E80003009BB2E36016E07B681C687B685B685A
:1018F8005B08802212029A187B685B681900100046
:10190800FEF76EFC03009BB2E36004E01323FB18B0
:1019180001221A70C0461323FB181B781800BD4615
:1019280007B090BDF369FFFFFFCFFFFFFFF4FFFF94
:101938000038014000100240004400400048E8011F
:101948000024F40080B582B000AF78607B68002B7B
:1019580001D101233BE07B6869229B5CDBB2002B51
:1019680003D17B686822002199547B68692224216D
:1019780099547B681B687A681268126801218A4347
:101988001A607B681800FFF767FE0300012B01D17E
:1019980001231CE07B681B687A68126852680E494C
:1019A8000A405A607B681B687A68126892682A2124
:1019B8008A439A607B681B687A68126812680121FA
:1019C8000A431A607B681800FFF7F6FD0300180049
:1019D800BD4602B080BDC046FFB7FFFF80B58AB0E4
:1019E80002AFF860B9603B60BB1D1A800023FB6141
:1019F800FB686A229B5CDBB2202B00D0B4E0BB689A
:101A0800002B03D0BB1D1B88002B01D10123ACE0A8
:101A1800FB689A6880235B019A4209D1FB681B69BD
:101A2800002B05D1BB680122134001D001239CE0A3
:101A3800FB6868229B5C012B01D1022395E0FB68BF
:101A4800682201219954FB680022DA66FB686A2241
:101A580022219954FEF7EAFF0300FB61FB68BA1DD7
:101A6800582112885A52FB68BA1D5A2112885A52B4
:101A7800FB689A6880235B019A420DD1FB681B6959
:101A8800002B04D1FB685C223A49995215E0FB68A7
:101A98005C22FF21995210E0FB689B68002B0CD157
:101AA800FB681B69002B04D1FB685C22FF2199525B
:101AB80003E0FB685C227F2199521A23FB18FA681D
:101AC8005C21525A1A803FE0FB685A229B5A9BB20B
:101AD800013B99B2FB685A229952FA69F8683B6847
:101AE8000093130000222021FFF71AFD031E01D0E6
:101AF80003233AE0FB689A6880235B019A4214D179
:101B0800FB681B69002B10D1BB687B61FB681B68F5
:101B18009B8C9BB21A22BA18128813409AB27B691E
:101B28001A80BB680233BB600EE0BB685A1CBA60FF
:101B3800FA681268928C92B2D2B21A21791809887E
:101B4800C9B20A40D2B21A70FB685A229B5A9BB299
:101B5800002BB9D1FB686A2220219954FB686822BE
:101B680000219954002300E002231800BD4608B064
:101B780080BDC046FF01000080B588B002AFF860A4
:101B8800B9603B60BB1D1A8000237B61FB6869223A
:101B98009B5CDBB2202B00D08CE0BB68002B03D011
:101BA800BB1D1B88002B01D1012384E0FB689A68C8
:101BB80080235B019A4209D1FB681B69002B05D180
:101BC800BB680122134001D0012374E0FB6868223E
:101BD8009B5C012B01D102236DE0FB686822012187
:101BE8009954FB680022DA66FB686922212199541E
:101BF800FEF71CFF03007B61FB68BA1D50211288A9
:101C08005A52FB68BA1D522112885A5235E0FB68B5
:101C180052229B5A9BB2013B99B2FB6852229952BD
:101C28007A69F8683B680093130000228021FFF767
:101C380077FC031E01D003233DE0FB689A688023EC
:101C48005B019A4211D1FB681B69002B0DD1BB685F
:101C58003B61FB681B683A691288D205D20D92B2C3
:101C68001A85BB680233BB6007E0FB681A68BB686B
:101C7800591CB9601B789BB21385FB6852229B5A8A
:101C88009BB2002BC3D17A69F8683B6800931300B4
:101C980000224021FFF744FC031E01D003230AE081
:101CA800FB68692220219954FB6868220021995415
:101CB800002300E002231800BD4606B080BDC046E0
:101CC80080B500AF034B180000F026F8C046BD46AB
:101CD80080BDC0464C05002080B582B000AF78605A
:101CE8007968044B8022180000F026F8C046BD46EB
:101CF80002B080BD4C05002080B582B000AF78608E
:101D08007B687A680348012100F0FCFFC046BD46A5
:101D180002B080BD4C05002080B582B000AF78606D
:101D28008C235A007B680021180001F091F8C04606
:101D3800BD4602B080BDC04680B586B000AFF86031
:101D4800B9607A607B68C02B09D080225200934228
:101D580009D0802B0BD1FB680A221A600AE0FB68C5
:101D68000C221A6006E0FB680E221A6002E02023AB
:101D78005B42A7E1FB6808333B61FB683A695A603C
:101D880000237B6126E07B699B003A69D3187A6956
:101D98009200B9688A18127810007A6992000132A4
:101DA800B9688A1812781202010011437A69920000
:101DB8000232B86882181278120411437A699200C4
:101DC8000332B8688218127812060A431A607B69CF
:101DD80001337B617B685A097B699A42D3D8FB68D7
:101DE8001B680C2B5ED00E2B00D1C8E00A2B00D04C
:101DF80067E100237B6151E03B6910333A69116860
:101E0800B24A78698000825851403A690C321268A7
:101E1800120AFF200240AE48825C51403A690C32F7
:101E28001268120CFF200240A948825C120251403D
:101E38003A690C321268120EA548825C12045140AD
:101E48003A690C321268FF200240A148825C1206EF
:101E58004A401A603B6914333A69043211683A6996
:101E6800103212684A401A603B6918333A690832DE
:101E780011683A69143212684A401A603B691C3387
:101E88003A690C3211683A69183212684A401A6085
:101E98007B6901337B613B6910333B617B69092BAB
:101EA800AAD90EE100237B6165E03B6918333A69E2
:101EB8001168864A78698000825851403A6914321C
:101EC8001268120AFF2002408148825C51403A6938
:101ED80014321268120CFF2002407D48825C120204
:101EE80051403A6914321268120E7948825C120421
:101EF80051403A6914321268FF2002407448825CEB
:101F080012064A401A603B691C333A690432116868
:101F18003A69183212684A401A603B6920333A69B4
:101F2800083211683A691C3212684A401A603B69E3
:101F380024333A690C3211683A69203212684A40EF
:101F48001A603B6928333A69103211683A692432B9
:101F580012684A401A603B692C333A691432116896
:101F68003A69283212684A401A607B6901337B61FA
:101F78003B6918333B617B69072B96D9A1E00023A5
:101F88007B6199E03B6920333A6911684F4A786967
:101F98008000825851403A691C321268120AFF20A8
:101FA80002404B48825C51403A691C321268120C5C
:101FB800FF2002404648825C120251403A691C32B6
:101FC8001268120E4248825C120451403A691C326F
:101FD8001268FF2002403E48825C12064A401A609E
:101FE8003B6924333A69043211683A69203212682D
:101FF8004A401A603B6928333A69083211683A69DD
:10200800243212684A401A603B692C333A690C3210
:1020180011683A69283212684A401A603B693033BD
:102028003A69103211683A692C321268FF2002406E
:102038002748825C51403A692C321268120AFF2004
:1020480002402348825C120251403A692C321268DD
:10205800120CFF2002401E48825C120451403A696B
:102068002C321268120E1A48825C12064A401A6014
:102078003B6934333A69143211683A69303212686C
:102088004A401A603B6938333A69183211683A692C
:10209800343212684A401A603B693C333A691C3250
:1020A80011683A69383212684A401A607B6901330C
:1020B8007B613B6920333B617B69062B00D861E774
:1020C800C04600231800BD4606B080BD3C5200083B
:1020D8003C30000880B58EB000AFF860B9607A6017
:1020E800FB685B683B63BB681B781A00BB680133FD
:1020F8001B781B021A43BB6802331B781B041A4364
:10210800BB6803331B781B061343FB623B6B1A1D2A
:102118003A631B68FA6A5340FB62BB6804331B7856
:102128001A00BB6805331B781B021A43BB680633C9
:102138001B781B041A43BB6807331B781B06134321
:10214800BB623B6B1A1D3A631B68BA6A5340BB6299
:10215800BB6808331B781A00BB6809331B781B025D
:102168001A43BB680A331B781B041A43BB680B333A
:102178001B781B0613437B623B6B1A1D3A631B6873
:102188007A6A53407B62BB680C331B781A00BB68C1
:102198000D331B781B021A43BB680E331B781B04D4
:1021A8001A43BB680F331B781B0613433B623B6B18
:1021B8001A1D3A631B683A6A53403B62FB681B6806
:1021C8005B10013B7B6312E13B6B1A1D3A631A6893
:1021D800FB6AFF211940FE4B8900CB585A40BB6A65
:1021E8001B0AFF211940FB4B8900CB585A407B6AD8
:1021F8001B0CFF211940F84B8900CB585A403B6A09
:10220800190EF64B8900CB585340FB613B6B1A1DE6
:102218003A631A68BB6AFF211940ED4B8900CB5815
:102228005A407B6A1B0AFF211940EA4B8900CB58A8
:102238005A403B6A1B0CFF211940E74B8900CB58D9
:102248005A40FB6A190EE54B8900CB585340BB61D5
:102258003B6B1A1D3A631A687B6AFF211940DC4BF5
:102268008900CB585A403B6A1B0AFF211940D94BB9
:102278008900CB585A40FB6A1B0CFF211940D64BEA
:102288008900CB585A40BB6A190ED44B8900CB58E9
:1022980053407B613B6B1A1D3A631A683B6AFF2106
:1022A8001940CB4B8900CB585A40FB6A1B0AFF21C7
:1022B8001940C84B8900CB585A40BB6A1B0CFF21F8
:1022C8001940C54B8900CB585A407B6A190EC34B3D
:1022D8008900CB5853403B613B6B1A1D3A631A681F
:1022E800FB69FF211940BA4B8900CB585A40BB699A
:1022F8001B0AFF211940B74B8900CB585A407B690C
:102308001B0CFF211940B44B8900CB585A403B693C
:10231800190EB24B8900CB585340FB623B6B1A1D18
:102328003A631A68BB69FF211940A94B8900CB5849
:102338005A407B691B0AFF211940A64B8900CB58DC
:102348005A403B691B0CFF211940A34B8900CB580D
:102358005A40FB69190EA14B8900CB585340BB6208
:102368003B6B1A1D3A631A687B69FF211940984B29
:102378008900CB585A403B691B0AFF211940954BED
:102388008900CB585A40FB691B0CFF211940924B1E
:102398008900CB585A40BB69190E904B8900CB581D
:1023A80053407B623B6B1A1D3A631A683B69FF21F5
:1023B8001940874B8900CB585A40FB691B0AFF21FB
:1023C8001940844B8900CB585A40BB691B0CFF212C
:1023D8001940814B8900CB585A407B69190E7F4BB5
:1023E8008900CB5853403B627B6B013B7B637B6B23
:1023F800002B00DDE8E63B6B1A1D3A631A68FB6A9E
:10240800FF211940724B8900CB585A40BB6A1B0AFE
:10241800FF2119406F4B8900CB585A407B6A1B0C2F
:10242800FF2119406C4B8900CB585A403B6A190E62
:102438006A4B8900CB585340FB613B6B1A1D3A63CA
:102448001A68BB6AFF211940614B8900CB585A4072
:102458007B6A1B0AFF2119405E4B8900CB585A4002
:102468003B6A1B0CFF2119405B4B8900CB585A4033
:10247800FB6A190E594B8900CB585340BB613B6B23
:102488001A1D3A631A687B6AFF211940504B89006C
:10249800CB585A403B6A1B0AFF2119404D4B890013
:1024A800CB585A40FB6A1B0CFF2119404A4B890044
:1024B800CB585A40BB6A190E484B8900CB58534039
:1024C8007B613B6B1A1D3A631A683B6AFF2119400E
:1024D8003F4B8900CB585A40FB6A1B0AFF21194021
:1024E8003C4B8900CB585A40BB6A1B0CFF21194052
:1024F800394B8900CB585A407B6A190E374B8900F3
:10250800CB5853403B613B6B1A1D3A631B68FA6911
:10251800FF210A4032498A5C5A40BB691B0AFF21E5
:102528000B402F49CB5C1B025A407B691B0CFF21D7
:102538000B402B49CB5C1B045A403B691B0E2849B6
:10254800CB5C1B065340FB623B6B1A1D3A631B684E
:10255800BA69FF210A4022498A5C5A407B691B0AF2
:10256800FF210B401E49CB5C1B025A403B691B0CE8
:10257800FF210B401A49CB5C1B045A40FB691B0E18
:102588001749CB5C1B065340BB623B6B1A1D3A6371
:102598001B687A69FF210A4011498A5C5A403B69E5
:1025A8001B0AFF210B400E49CB5C1B025A40FB69FA
:1025B8001B0CFF210B400A49CB5C1B045A40BB692A
:1025C8001B0E0749CB5C1B0653407B620AE0C046E2
:1025D8003C3100083C3500083C3900083C3D000807
:1025E8003C3000083B6B1A1D3A631B683A69FF21AF
:1025F8000A403D498A5C5A40FB691B0AFF210B408F
:102608003949CB5C1B025A40BB691B0CFF210B40AC
:102618003549CB5C1B045A407B691B0E3249CB5CA5
:102628001B0653403B62FB6ADAB27B681A707B6810
:102638000133FA6A120AD2B21A707B680233FA6A54
:10264800120CD2B21A707B680333FA6A120ED2B235
:102658001A707B680433BA6AD2B21A707B68053381
:10266800BA6A120AD2B21A707B680633BA6A120CB6
:10267800D2B21A707B680733BA6A120ED2B21A70D5
:102688007B6808337A6AD2B21A707B6809337A6A2F
:10269800120AD2B21A707B680A337A6A120CD2B262
:1026A8001A707B680B337A6A120ED2B21A707B6882
:1026B8000C333A6AD2B21A707B680D333A6A120A3E
:1026C800D2B21A707B680E333A6A120CD2B21A7000
:1026D8007B680F333A6A120ED2B21A7000231800C0
:1026E800BD460EB080BDC0463C30000880B58EB0F7
:1026F80000AFF860B9607A60FB685B683B63BB68F1
:102708001B781A00BB6801331B781B021A43BB688D
:1027180002331B781B041A43BB6803331B781B0660
:102728001343FB623B6B1A1D3A631B68FA6A5340FA
:10273800FB62BB6804331B781A00BB6805331B783F
:102748001B021A43BB6806331B781B041A43BB6879
:1027580007331B781B061343BB623B6B1A1D3A6396
:102768001B68BA6A5340BB62BB6808331B781A00FF
:10277800BB6809331B781B021A43BB680A331B78F2
:102788001B041A43BB680B331B781B0613437B627D
:102798003B6B1A1D3A631B687A6A53407B62BB68BD
:1027A8000C331B781A00BB680D331B781B021A43C5
:1027B800BB680E331B781B041A43BB680F331B78A6
:1027C8001B0613433B623B6B1A1D3A631B683A6A4C
:1027D80053403B62FB681B685B10013B7B6312E163
:1027E8003B6B1A1D3A631A68FB6AFF211940FE4BBE
:1027F8008900CB585A403B6A1B0AFF211940FB4B02
:102808008900CB585A407B6A1B0CFF211940F84BB2
:102818008900CB585A40BB6A190EF64B8900CB5831
:102828005340FB613B6B1A1D3A631A68BB6AFF2170
:102838001940ED4B8900CB585A40FB6A1B0AFF210F
:102848001940EA4B8900CB585A403B6A1B0CFF21C0
:102858001940E74B8900CB585A407B6A190EE54B63
:102868008900CB585340BB613B6B1A1D3A631A6809
:102878007B6AFF211940DC4B8900CB585A40BB6A60
:102888001B0AFF211940D94B8900CB585A40FB6AD3
:102898001B0CFF211940D64B8900CB585A403B6A84
:1028A800190ED44B8900CB5853407B613B6B1A1DE2
:1028B8003A631A683B6AFF211940CB4B8900CB5811
:1028C8005A407B6A1B0AFF211940C84B8900CB5824
:1028D8005A40BB6A1B0CFF211940C54B8900CB58D5
:1028E8005A40FB6A190EC34B8900CB5853403B61D1
:1028F8003B6B1A1D3A631A68FB69FF211940BA4BF2
:102908008900CB585A403B691B0AFF211940B74B35
:102918008900CB585A407B691B0CFF211940B44BE6
:102928008900CB585A40BB69190EB24B8900CB5865
:102938005340FB623B6B1A1D3A631A68BB69FF215F
:102948001940A94B8900CB585A40FB691B0AFF2143
:102958001940A64B8900CB585A403B691B0CFF21F4
:102968001940A34B8900CB585A407B69190EA14BDB
:102978008900CB585340BB623B6B1A1D3A631A68F7
:102988007B69FF211940984B8900CB585A40BB6995
:102998001B0AFF211940954B8900CB585A40FB6907
:1029A8001B0CFF211940924B8900CB585A403B69B8
:1029B800190E904B8900CB5853407B623B6B1A1D14
:1029C8003A631A683B69FF211940874B8900CB5845
:1029D8005A407B691B0AFF211940844B8900CB5858
:1029E8005A40BB691B0CFF211940814B8900CB5809
:1029F8005A40FB69190E7F4B8900CB5853403B6204
:102A08007B6B013B7B637B6B002B00DDE8E63B6B5C
:102A18001A1D3A631A68FB6AFF211940724B890034
:102A2800CB585A403B6A1B0AFF2119406F4B89005B
:102A3800CB585A407B6A1B0CFF2119406C4B89000C
:102A4800CB585A40BB6A190E6A4B8900CB58534081
:102A5800FB613B6B1A1D3A631A68BB6AFF21194078
:102A6800614B8900CB585A40FB6A1B0AFF21194069
:102A78005E4B8900CB585A403B6A1B0CFF2119401A
:102A88005B4B8900CB585A407B6A190E594B890019
:102A9800CB585340BB613B6B1A1D3A631A687B6A7B
:102AA800FF211940504B8900CB585A40BB6A1B0A7A
:102AB800FF2119404D4B8900CB585A40FB6A1B0C2B
:102AC800FF2119404A4B8900CB585A403B6A190EDE
:102AD800484B8900CB5853407B613B6B1A1D3A63C6
:102AE8001A683B6AFF2119403F4B8900CB585A406E
:102AF8007B6A1B0AFF2119403C4B8900CB585A407E
:102B0800BB6A1B0CFF211940394B8900CB585A402E
:102B1800FB6A190E374B8900CB5853403B613B6B1E
:102B28001A1D3A631B68FA69FF210A4032498A5C18
:102B38005A403B691B0AFF210B402F49CB5C1B0203
:102B48005A407B691B0CFF210B402B49CB5C1B04B3
:102B58005A40BB691B0E2849CB5C1B065340FB62DD
:102B68003B6B1A1D3A631B68BA69FF210A40224968
:102B78008A5C5A40FB691B0AFF210B401E49CB5C4B
:102B88001B025A403B691B0CFF210B401A49CB5CC6
:102B98001B045A407B691B0E1749CB5C1B0653402C
:102BA800BB623B6B1A1D3A631B687A69FF210A40B6
:102BB80011498A5C5A40BB691B0AFF210B400E4928
:102BC800CB5C1B025A40FB691B0CFF210B400A49D6
:102BD800CB5C1B045A403B691B0E0749CB5C1B06A8
:102BE80053407B620AE0C0463C4200083C4600086D
:102BF8003C4A00083C4E00083C4100083B6B1A1D4B
:102C08003A631B683A69FF210A403D498A5C5A4089
:102C18007B691B0AFF210B403949CB5C1B025A40D8
:102C2800BB691B0CFF210B403549CB5C1B045A4088
:102C3800FB691B0E3249CB5C1B0653403B62FB6AA7
:102C4800DAB27B681A707B680133FA6A120AD2B268
:102C58001A707B680233FA6A120CD2B21A707B6857
:102C68000333FA6A120ED2B21A707B680433BA6A56
:102C7800D2B21A707B680533BA6A120AD2B21A70D5
:102C88007B680633BA6A120CD2B21A707B680733B3
:102C9800BA6A120ED2B21A707B6808337A6AD2B254
:102CA8001A707B6809337A6A120AD2B21A707B6882
:102CB8000A337A6A120CD2B21A707B680B337A6ABA
:102CC800120ED2B21A707B680C333A6AD2B21A70FA
:102CD8007B680D333A6A120AD2B21A707B680E33D7
:102CE8003A6A120CD2B21A707B680F333A6A120E23
:102CF800D2B21A7000231800BD460EB080BDC0467F
:102D08003C41000880B584B000AFF860B9607A60D3
:102D18003B60BB68012B07D13A687968FB681800EB
:102D2800FFF7D8F9030006E03A687968FB681800ED
:102D3800FFF7DCFC03001800BD4604B080BDC046A8
:102D4800002103E00B4B5B58435004310A480B4BFE
:102D580042189A42F6D30A4A02E00023136004326A
:102D6800084B9A42F9D300E000BF00F00FF8FDF7D6
:102D7800F3FAFEE7A85600080000002040040020EF
:102D88004004002064060020FEE7000070B50D4EE8
:102D98000D4D0024AD1BAD1005D0A300F358013430
:102DA8009847A542F9D100F031F9084E084D0024A2
:102DB800AD1BAD1005D0A300F35801349847A542C8
:102DC800F9D170BD9C5600089C5600089C56000816
:102DD800A456000870B50F2A32D90C0004430B0022
:102DE800A40731D115000400103D2D0901352D012E
:102DF80049191E6826605E6866609E68A660DE687F
:102E08001033E66010349942F3D10F23451913406B
:102E1800032B1BD91C1F0023A4080134A400CE587F
:102E2800EE5004339C42FAD103232D1909191A4094
:102E380005D00023CC5CEC5401339A42FAD170BD22
:102E48000500002AF5D1FAE70500F2E71A00F8E7CD
:102E580070B583073FD0541E002A3BD0CEB2030082
:102E6800032503E0621E002C34D0140001335A1EDF
:102E780016702B42F6D1032C24D9FF250D402A02C7
:102E880015432A0415430F2C11D92600103E360984
:102E9800013636011A009B19156055609560D5609A
:102EA80010329342F8D10F221440032C0AD9261F5E
:102EB800B6080136B6001A009B1920C29342FCD10D
:102EC80003221440002C05D0C9B21C191970013313
:102ED8009C42FBD170BD14000300CCE7034B10B536
:102EE800002B02D0024800F005F810BD00000000D9
:102EF8000D2F000810B5010000230022002000F06B
:102F08001BF810BD70B5094B094CE41AA41009D080
:102F1800084AA518AD00ED182B68013C9847043DF8
:102F2800002CF9D100F078F870BDC046A45600080E
:102F3800A8560008FFFFFF3FF8B544465F465646CF
:102F48004D469B462F4BF0B41C68A4235B0005003C
:102F5800E0580E00904600284BD043681F2B0DDC2C
:102F68005C1C002D21D102339B0044601E500020C0
:102F78003CBC90469946A246AB46F8BD224B002B76
:102F88003CD0C820400000E000BF002836D0A42272
:102F980000235200A15843600160A0504032835082
:102FA800043283500124002DDDD09A0091468144DB
:102FB800424688214F467A50C422520090468044A7
:102FC80042468739994012688A460A4394464246DF
:102FD80061461160842249465F4652008F50022D97
:102FE800C1D1020055468D32FF3211680D4315607C
:102FF800B9E720004D30FF30E050AEE701204042F5
:10300800B6E7C0469856000800000000F8B5C0466C
:10301800F8BC08BC9E467047F8B5C046F8BC08BC6A
:043028009E46704709
:10302C002B7E151628AED2A6ABF7158809CF4F3CD0
:10303C00637C777BF26B6FC53001672BFED7AB7669
:10304C00CA82C97DFA5947F0ADD4A2AF9CA472C014
:10305C00B7FD9326363FF7CC34A5E5F171D8311581
:10306C0004C723C31896059A071280E2EB27B275A2
:10307C0009832C1A1B6E5AA0523BD6B329E32F841A
:10308C0053D100ED20FCB15B6ACBBE394A4C58CF12
:10309C00D0EFAAFB434D338545F9027F503C9FA8E6
:1030AC0051A3408F929D38F5BCB6DA2110FFF3D2B4
:1030BC00CD0C13EC5F974417C4A77E3D645D197368
:1030CC0060814FDC222A908846EEB814DE5E0BDB62
:1030DC00E0323A0A4906245CC2D3AC629195E47999
:1030EC00E7C8376D8DD54EA96C56F4EA657AAE08F3
:1030FC00BA78252E1CA6B4C6E8DD741F4BBD8B8A8E
:10310C00703EB5664803F60E613557B986C11D9EF3
:10311C00E1F8981169D98E949B1E87E9CE5528DF6A
:10312C008CA1890DBFE6426841992D0FB054BB1696
:10313C00C66363A5F87C7C84EE777799F67B7B8DF0
:10314C00FFF2F20DD66B6BBDDE6F6FB191C5C5543E
:10315C006030305002010103CE6767A9562B2B7DDE
:10316C00E7FEFE19B5D7D7624DABABE6EC76769A97
:10317C008FCACA451F82829D89C9C940FA7D7D8745
:10318C00EFFAFA15B25959EB8E4747C9FBF0F00B21
:10319C0041ADADECB3D4D4675FA2A2FD45AFAFEAAD
:1031AC00239C9CBF53A4A4F7E47272969BC0C05B93
:1031BC0075B7B7C2E1FDFD1C3D9393AE4C26266A54
:1031CC006C36365A7E3F3F41F5F7F70283CCCC4F35
:1031DC006834345C51A5A5F4D1E5E534F9F1F10876
:1031EC00E2717193ABD8D873623131532A15153F04
:1031FC000804040C95C7C752462323659DC3C35EC0
:10320C0030181828379696A10A05050F2F9A9AB5EB
:10321C000E070709241212361B80809BDFE2E23D69
:10322C00CDEBEB264E2727697FB2B2CDEA75759FA1
:10323C001209091B1D83839E582C2C74341A1A2EC8
:10324C00361B1B2DDC6E6EB2B45A5AEE5BA0A0FB83
:10325C00A45252F6763B3B4DB7D6D6617DB3B3CE76
:10326C005229297BDDE3E33E5E2F2F711384849773
:10327C00A65353F5B9D1D16800000000C1EDED2C77
:10328C0040202060E3FCFC1F79B1B1C8B65B5BED5C
:10329C00D46A6ABE8DCBCB4667BEBED97239394B68
:1032AC00944A4ADE984C4CD4B05858E885CFCF4A53
:1032BC00BBD0D06BC5EFEF2A4FAAAAE5EDFBFB16EE
:1032CC00864343C59A4D4DD7663333551185859446
:1032DC008A4545CFE9F9F91004020206FE7F7F8189
:1032EC00A05050F0783C3C44259F9FBA4BA8A8E3D3
:1032FC00A25151F35DA3A3FE804040C0058F8F8A7D
:10330C003F9292AD219D9DBC70383848F1F5F50483
:10331C0063BCBCDF77B6B6C1AFDADA754221216384
:10332C0020101030E5FFFF1AFDF3F30EBFD2D26D63
:10333C0081CDCD4C180C0C1426131335C3ECEC2F8B
:10334C00BE5F5FE1359797A2884444CC2E1717399E
:10335C0093C4C45755A7A7F2FC7E7E827A3D3D47A5
:10336C00C86464ACBA5D5DE73219192BE6737395CA
:10337C00C06060A0198181989E4F4FD1A3DCDC7F87
:10338C0044222266542A2A7E3B9090AB0B88888379
:10339C008C4646CAC7EEEE296BB8B8D32814143C39
:1033AC00A7DEDE79BC5E5EE2160B0B1DADDBDB76B9
:1033BC00DBE0E03B64323256743A3A4E140A0A1E91
:1033CC00924949DB0C06060A4824246CB85C5CE480
:1033DC009FC2C25DBDD3D36E43ACACEFC46262A6D8
:1033EC00399191A8319595A4D3E4E437F279798B8E
:1033FC00D5E7E7328BC8C8436E373759DA6D6DB7EE
:10340C00018D8D8CB1D5D5649C4E4ED249A9A9E0C5
:10341C00D86C6CB4AC5656FAF3F4F407CFEAEA2540
:10342C00CA6565AFF47A7A8E47AEAEE91008081813
:10343C006FBABAD5F07878884A25256F5C2E2E7233
:10344C00381C1C2457A6A6F173B4B4C797C6C65132
:10345C00CBE8E823A1DDDD7CE874749C3E1F1F21C2
:10346C00964B4BDD61BDBDDC0D8B8B860F8A8A853F
:10347C00E07070907C3E3E4271B5B5C4CC6666AAD5
:10348C00904848D806030305F7F6F6011C0E0E12F9
:10349C00C26161A36A35355FAE5757F969B9B9D0C6
:1034AC001786869199C1C1583A1D1D27279E9EB932
:1034BC00D9E1E138EBF8F8132B9898B322111133BA
:1034CC00D26969BBA9D9D970078E8E89339494A718
:1034DC002D9B9BB63C1E1E2215878792C9E9E920BD
:1034EC0087CECE49AA5555FF50282878A5DFDF7A1C
:1034FC00038C8C8F59A1A1F8098989801A0D0D179D
:10350C0065BFBFDAD7E6E631844242C6D06868B8F8
:10351C00824141C3299999B05A2D2D771E0F0F1155
:10352C007BB0B0CBA85454FC6DBBBBD62C16163A52
:10353C00A5C6636384F87C7C99EE77778DF67B7BEC
:10354C000DFFF2F2BDD66B6BB1DE6F6F5491C5C53A
:10355C005060303003020101A9CE67677D562B2BDA
:10356C0019E7FEFE62B5D7D7E64DABAB9AEC767693
:10357C00458FCACA9D1F82824089C9C987FA7D7D41
:10358C0015EFFAFAEBB25959C98E47470BFBF0F01D
:10359C00EC41ADAD67B3D4D4FD5FA2A2EA45AFAFA9
:1035AC00BF239C9CF753A4A496E472725B9BC0C08F
:1035BC00C275B7B71CE1FDFDAE3D93936A4C262650
:1035CC005A6C3636417E3F3F02F5F7F74F83CCCC31
:1035DC005C683434F451A5A534D1E5E508F9F1F172
:1035EC0093E2717173ABD8D8536231313F2A151500
:1035FC000C0804045295C7C7654623235E9DC3C3BC
:10360C0028301818A13796960F0A0505B52F9A9AE7
:10361C00090E0707362412129B1B80803DDFE2E265
:10362C0026CDEBEB694E2727CD7FB2B29FEA75759D
:10363C001B1209099E1D838374582C2C2E341A1AC4
:10364C002D361B1BB2DC6E6EEEB45A5AFB5BA0A07F
:10365C00F6A452524D763B3B61B7D6D6CE7DB3B372
:10366C007B5229293EDDE3E3715E2F2F971384846F
:10367C00F5A6535368B9D1D1000000002CC1EDED73
:10368C00604020201FE3FCFCC879B1B1EDB65B5B58
:10369C00BED46A6A468DCBCBD967BEBE4B72393964
:1036AC00DE944A4AD4984C4CE8B058584A85CFCF4F
:1036BC006BBBD0D02AC5EFEFE54FAAAA16EDFBFBEA
:1036CC00C5864343D79A4D4D556633339411858542
:1036DC00CF8A454510E9F9F90604020281FE7F7F85
:1036EC00F0A0505044783C3CBA259F9FE34BA8A8CF
:1036FC00F3A25151FE5DA3A3C08040408A058F8F79
:10370C00AD3F9292BC219D9D4870383804F1F5F57F
:10371C00DF63BCBCC177B6B675AFDADA6342212180
:10372C00302010101AE5FFFF0EFDF3F36DBFD2D25F
:10373C004C81CDCD14180C0C352613132FC3ECEC87
:10374C00E1BE5F5FA2359797CC884444392E17179A
:10375C005793C4C4F255A7A782FC7E7E477A3D3DA1
:10376C00ACC86464E7BA5D5D2B32191995E67373C6
:10377C00A0C0606098198181D19E4F4F7FA3DCDC83
:10378C00664422227E542A2AAB3B9090830B888875
:10379C00CA8C464629C7EEEED36BB8B83C28141435
:1037AC0079A7DEDEE2BC5E5E1D160B0B76ADDBDBB5
:1037BC003BDBE0E0566432324E743A3A1E140A0A8D
:1037CC00DB9249490A0C06066C482424E4B85C5C7C
:1037DC005D9FC2C26EBDD3D3EF43ACACA6C46262D4
:1037EC00A8399191A431959537D3E4E48BF279798A
:1037FC0032D5E7E7438BC8C8596E3737B7DA6D6DEA
:10380C008C018D8D64B1D5D5D29C4E4EE049A9A9C1
:10381C00B4D86C6CFAAC565607F3F4F425CFEAEA3C
:10382C00AFCA65658EF47A7AE947AEAE181008080F
:10383C00D56FBABA88F078786F4A2525725C2E2E2F
:10384C0024381C1CF157A6A6C773B4B45197C6C62E
:10385C0023CBE8E87CA1DDDD9CE87474213E1F1FBE
:10386C00DD964B4BDC61BDBD860D8B8B850F8A8A3B
:10387C0090E07070427C3E3EC471B5B5AACC6666D1
:10388C00D89048480506030301F7F6F6121C0E0EF5
:10389C00A3C261615F6A3535F9AE5757D069B9B9C2
:1038AC00911786865899C1C1273A1D1DB9279E9E2E
:1038BC0038D9E1E113EBF8F8B32B989833221111B6
:1038CC00BBD2696970A9D9D989078E8EA733949414
:1038DC00B62D9B9B223C1E1E9215878720C9E9E9B9
:1038EC004987CECEFFAA5555785028287AA5DFDF18
:1038FC008F038C8CF859A1A180098989171A0D0D99
:10390C00DA65BFBF31D7E6E6C6844242B8D06868F4
:10391C00C3824141B0299999775A2D2D111E0F0F51
:10392C00CB7BB0B0FCA85454D66DBBBB3A2C16164E
:10393C0063A5C6637C84F87C7799EE777B8DF67BE8
:10394C00F20DFFF26BBDD66B6FB1DE6FC55491C536
:10395C00305060300103020167A9CE672B7D562BD6
:10396C00FE19E7FED762B5D7ABE64DAB769AEC768F
:10397C00CA458FCA829D1F82C94089C97D87FA7D3D
:10398C00FA15EFFA59EBB25947C98E47F00BFBF019
:10399C00ADEC41ADD467B3D4A2FD5FA2AFEA45AFA5
:1039AC009CBF239CA4F753A47296E472C05B9BC08B
:1039BC00B7C275B7FD1CE1FD93AE3D93266A4C264C
:1039CC00365A6C363F417E3FF702F5F7CC4F83CC2D
:1039DC00345C6834A5F451A5E534D1E5F108F9F16E
:1039EC007193E271D873ABD831536231153F2A15FC
:1039FC00040C0804C75295C723654623C35E9DC3B8
:103A0C001828301896A13796050F0A059AB52F9AE3
:103A1C0007090E0712362412809B1B80E23DDFE261
:103A2C00EB26CDEB27694E27B2CD7FB2759FEA7599
:103A3C00091B1209839E1D832C74582C1A2E341AC0
:103A4C001B2D361B6EB2DC6E5AEEB45AA0FB5BA07B
:103A5C0052F6A4523B4D763BD661B7D6B3CE7DB36E
:103A6C00297B5229E33EDDE32F715E2F849713846B
:103A7C0053F5A653D168B9D100000000ED2CC1ED6F
:103A8C0020604020FC1FE3FCB1C879B15BEDB65B54
:103A9C006ABED46ACB468DCBBED967BE394B723960
:103AAC004ADE944A4CD4984C58E8B058CF4A85CF4B
:103ABC00D06BBBD0EF2AC5EFAAE54FAAFB16EDFBE6
:103ACC0043C586434DD79A4D33556633859411853E
:103ADC0045CF8A45F910E9F9020604027F81FE7F81
:103AEC0050F0A0503C44783C9FBA259FA8E34BA8CB
:103AFC0051F3A251A3FE5DA340C080408F8A058F75
:103B0C0092AD3F929DBC219D38487038F504F1F57B
:103B1C00BCDF63BCB6C177B6DA75AFDA216342217C
:103B2C0010302010FF1AE5FFF30EFDF3D26DBFD25B
:103B3C00CD4C81CD0C14180C13352613EC2FC3EC83
:103B4C005FE1BE5F97A2359744CC884417392E1796
:103B5C00C45793C4A7F255A77E82FC7E3D477A3D9D
:103B6C0064ACC8645DE7BA5D192B32197395E673C2
:103B7C0060A0C060819819814FD19E4FDC7FA3DC7F
:103B8C00226644222A7E542A90AB3B9088830B8871
:103B9C0046CA8C46EE29C7EEB8D36BB8143C281431
:103BAC00DE79A7DE5EE2BC5E0B1D160BDB76ADDBB1
:103BBC00E03BDBE0325664323A4E743A0A1E140A89
:103BCC0049DB9249060A0C06246C48245CE4B85C78
:103BDC00C25D9FC2D36EBDD3ACEF43AC62A6C462D0
:103BEC0091A8399195A43195E437D3E4798BF27986
:103BFC00E732D5E7C8438BC837596E376DB7DA6DE6
:103C0C008D8C018DD564B1D54ED29C4EA9E049A9BD
:103C1C006CB4D86C56FAAC56F407F3F4EA25CFEA38
:103C2C0065AFCA657A8EF47AAEE947AE081810080B
:103C3C00BAD56FBA7888F078256F4A252E725C2E2B
:103C4C001C24381CA6F157A6B4C773B4C65197C62A
:103C5C00E823CBE8DD7CA1DD749CE8741F213E1FBA
:103C6C004BDD964BBDDC61BD8B860D8B8A850F8A37
:103C7C007090E0703E427C3EB5C471B566AACC66CD
:103C8C0048D8904803050603F601F7F60E121C0EF1
:103C9C0061A3C261355F6A3557F9AE57B9D069B9BE
:103CAC0086911786C15899C11D273A1D9EB9279E2A
:103CBC00E138D9E1F813EBF898B32B9811332211B2
:103CCC0069BBD269D970A9D98E89078E94A7339410
:103CDC009BB62D9B1E223C1E87921587E920C9E9B5
:103CEC00CE4987CE55FFAA5528785028DF7AA5DF14
:103CFC008C8F038CA1F859A1898009890D171A0D95
:103D0C00BFDA65BFE631D7E642C6844268B8D068F0
:103D1C0041C3824199B029992D775A2D0F111E0F4D
:103D2C00B0CB7BB054FCA854BBD66DBB163A2C164A
:103D3C006363A5C67C7C84F8777799EE7B7B8DF6E4
:103D4C00F2F20DFF6B6BBDD66F6FB1DEC5C5549132
:103D5C0030305060010103026767A9CE2B2B7D56D2
:103D6C00FEFE19E7D7D762B5ABABE64D76769AEC8B
:103D7C00CACA458F82829D1FC9C940897D7D87FA39
:103D8C00FAFA15EF5959EBB24747C98EF0F00BFB15
:103D9C00ADADEC41D4D467B3A2A2FD5FAFAFEA45A1
:103DAC009C9CBF23A4A4F753727296E4C0C05B9B87
:103DBC00B7B7C275FDFD1CE19393AE3D26266A4C48
:103DCC0036365A6C3F3F417EF7F702F5CCCC4F8329
:103DDC0034345C68A5A5F451E5E534D1F1F108F96A
:103DEC00717193E2D8D873AB3131536215153F2AF8
:103DFC0004040C08C7C7529523236546C3C35E9DB4
:103E0C00181828309696A13705050F0A9A9AB52FDF
:103E1C000707090E1212362480809B1BE2E23DDF5D
:103E2C00EBEB26CD2727694EB2B2CD7F75759FEA95
:103E3C0009091B1283839E1D2C2C74581A1A2E34BC
:103E4C001B1B2D366E6EB2DC5A5AEEB4A0A0FB5B77
:103E5C005252F6A43B3B4D76D6D661B7B3B3CE7D6A
:103E6C0029297B52E3E33EDD2F2F715E8484971367
:103E7C005353F5A6D1D168B900000000EDED2CC16B
:103E8C0020206040FCFC1FE3B1B1C8795B5BEDB650
:103E9C006A6ABED4CBCB468DBEBED96739394B725C
:103EAC004A4ADE944C4CD4985858E8B0CFCF4A8547
:103EBC00D0D06BBBEFEF2AC5AAAAE54FFBFB16EDE2
:103ECC004343C5864D4DD79A33335566858594113A
:103EDC004545CF8AF9F910E9020206047F7F81FE7D
:103EEC005050F0A03C3C44789F9FBA25A8A8E34BC7
:103EFC005151F3A2A3A3FE5D4040C0808F8F8A0571
:103F0C009292AD3F9D9DBC2138384870F5F504F177
:103F1C00BCBCDF63B6B6C177DADA75AF2121634278
:103F2C0010103020FFFF1AE5F3F30EFDD2D26DBF57
:103F3C00CDCD4C810C0C141813133526ECEC2FC37F
:103F4C005F5FE1BE9797A2354444CC881717392E92
:103F5C00C4C45793A7A7F2557E7E82FC3D3D477A99
:103F6C006464ACC85D5DE7BA19192B32737395E6BE
:103F7C006060A0C0818198194F4FD19EDCDC7FA37B
:103F8C00222266442A2A7E549090AB3B8888830B6D
:103F9C004646CA8CEEEE29C7B8B8D36B14143C282D
:103FAC00DEDE79A75E5EE2BC0B0B1D16DBDB76ADAD
:103FBC00E0E03BDB323256643A3A4E740A0A1E1485
:103FCC004949DB9206060A0C24246C485C5CE4B874
:103FDC00C2C25D9FD3D36EBDACACEF436262A6C4CC
:103FEC009191A8399595A431E4E437D379798BF282
:103FFC00E7E732D5C8C8438B3737596E6D6DB7DAE2
:10400C008D8D8C01D5D564B14E4ED29CA9A9E049B9
:10401C006C6CB4D85656FAACF4F407F3EAEA25CF34
:10402C006565AFCA7A7A8EF4AEAEE9470808181007
:10403C00BABAD56F787888F025256F4A2E2E725C27
:10404C001C1C2438A6A6F157B4B4C773C6C6519726
:10405C00E8E823CBDDDD7CA174749CE81F1F213EB6
:10406C004B4BDD96BDBDDC618B8B860D8A8A850F33
:10407C00707090E03E3E427CB5B5C4716666AACCC9
:10408C004848D89003030506F6F601F70E0E121CED
:10409C006161A3C235355F6A5757F9AEB9B9D069BA
:1040AC0086869117C1C158991D1D273A9E9EB92726
:1040BC00E1E138D9F8F813EB9898B32B11113322AE
:1040CC006969BBD2D9D970A98E8E89079494A7330C
:1040DC009B9BB62D1E1E223C87879215E9E920C9B1
:1040EC00CECE49875555FFAA28287850DFDF7AA510
:1040FC008C8C8F03A1A1F859898980090D0D171A91
:10410C00BFBFDA65E6E631D74242C6846868B8D0EC
:10411C004141C3829999B0292D2D775A0F0F111E49
:10412C00B0B0CB7B5454FCA8BBBBD66D16163A2C46
:10413C0052096AD53036A538BF40A39E81F3D7FB10
:10414C007CE339829B2FFF87348E4344C4DEE9CB5A
:10415C00547B9432A6C2233DEE4C950B42FAC34ECF
:10416C00082EA16628D924B2765BA2496D8BD12585
:10417C0072F8F66486689816D4A45CCC5D65B69229
:10418C006C704850FDEDB9DA5E154657A78D9D84CD
:10419C0090D8AB008CBCD30AF7E45805B8B34506ED
:1041AC00D02C1E8FCA3F0F02C1AFBD0301138A6B07
:1041BC003A9111414F67DCEA97F2CFCEF0B4E67337
:1041CC0096AC7422E7AD3585E2F937E81C75DF6EE5
:1041DC0047F11A711D29C5896FB7620EAA18BE1B4B
:1041EC00FC563E4BC6D279209ADBC0FE78CD5AF4F1
:1041FC001FDDA8338807C731B11210592780EC5F37
:10420C0060517FA919B54A0D2DE57A9F93C99CEF92
:10421C00A0E03B4DAE2AF5B0C8EBBB3C8353996193
:10422C00172B047EBA77D626E169146355210C7DD1
:10423C0051F4A7507E4165531A17A4C33A275E96D2
:10424C003BAB6BCB1F9D45F1ACFA58AB4BE30393E7
:10425C002030FA55AD766DF688CC7691F5024C256A
:10426C004FE5D7FCC52ACBD726354480B562A38F42
:10427C00DEB15A4925BA1B6745EA0E985DFEC0E1CE
:10428C00C32F7502814CF0128D4697A36BD3F9C6E0
:10429C00038F5FE715929C95BF6D7AEB955259DAB7
:1042AC00D4BE832D587421D349E069298EC9C844E2
:1042BC0075C2896AF48E797899583E6B27B971DD8D
:1042CC00BEE14FB6F088AD17C920AC667DCE3AB4CE
:1042DC0063DF4A18E51A31829751336062537F4588
:1042EC00B16477E0BB6BAE84FE81A01CF9082B9403
:1042FC00704868588F45FD1994DE6C87527BF8B76F
:10430C00AB73D323724B02E2E31F8F576655AB2A74
:10431C00B2EB28072FB5C20386C57B9AD33708A505
:10432C00302887F223BFA5B202036ABAED16825C6D
:10433C008ACF1C2BA779B492F307F2F04E69E2A155
:10434C0065DAF4CD0605BED5D134621FC4A6FE8A4B
:10435C00342E539DA2F355A0058AE132A4F6EB75D9
:10436C000B83EC394060EFAA5E719F06BD6E105155
:10437C003E218AF996DD063DDD3E05AE4DE6BD4695
:10438C0091548DB571C45D050406D46F605015FF52
:10439C001998FB24D6BDE997894043CC67D99E7701
:1043AC00B0E842BD07898B88E7195B3879C8EEDB2A
:1043BC00A17C0A477C420FE9F8841EC9000000006A
:1043CC0009808683322BED481E1170AC6C5A724EEC
:1043DC00FD0EFFFB0F8538563DAED51E362D392709
:1043EC000A0FD964685CA6219B5B54D124362E3A03
:1043FC000C0A67B19357E70FB4EE96D21B9B919EB4
:10440C0080C0C54F61DC20A25A774B691C121A166A
:10441C00E293BA0AC0A02AE53C22E043121B171D06
:10442C000E090D0BF28BC7AD2DB6A8B9141EA9C879
:10443C0057F11985AF75074CEE99DDBBA37F60FD75
:10444C00F701269F5C72F5BC44663BC55BFB7E3472
:10445C008B432976CB23C6DCB6EDFC68B8E4F1635C
:10446C00D731DCCA426385101397224084C61120D1
:10447C00854A247DD2BB3DF8AEF93211C729A16D16
:10448C001D9E2F4BDCB230F30D8652EC77C1E3D07E
:10449C002BB3166CA970B999119448FA47E96422A8
:1044AC00A8FC8CC4A0F03F1A567D2CD8223390EF78
:1044BC0087494EC7D938D1C18CCAA2FE98D40B36C5
:1044CC00A6F581CFA57ADE28DAB78E263FADBFA43C
:1044DC002C3A9DE45078920D6A5FCC9B547E4662D8
:1044EC00F68D13C290D8B8E82E39F75E82C3AFF5BB
:1044FC009F5D80BE69D0937C6FD52DA9CF2512B35B
:10450C00C8AC993B10187DA7E89C636EDB3BBB7B6A
:10451C00CD2678096E5918F4EC9AB701834F9AA8F6
:10452C00E6956E65AAFFE67E21BCCF08EF15E8E69E
:10453C00BAE79BD94A6F36CEEA9F09D429B07CD60C
:10454C0031A4B2AF2A3F2331C6A5943035A266C040
:10455C00744EBC37FC82CAA6E090D0B033A7D815F5
:10456C00F104984A41ECDAF77FCD500E1791F62FF3
:10457C00764DD68D43EFB04DCCAA4D54E49604DF66
:10458C009ED1B5E34C6A881BC12C1FB84665517F80
:10459C009D5EEA04018C355DFA877473FB0B412E2A
:1045AC00B3671D5A92DBD252E91056336DD64713BE
:1045BC009AD7618C37A10C7A59F8148EEB133C897D
:1045CC00CEA927EEB761C935E11CE5ED7A47B13CC0
:1045DC009CD2DF5955F2733F1814CE7973C737BF8D
:1045EC0053F7CDEA5FFDAA5BDF3D6F147844DB86A1
:1045FC00CAAFF381B968C43E3824342CC2A3405FDF
:10460C00161DC372BCE2250C283C498BFF0D95414D
:10461C0039A80171080CB3DED8B4E49C6456C1907F
:10462C007BCB8461D532B670486C5C74D0B8574281
:10463C005051F4A7537E4165C31A17A4963A275ECE
:10464C00CB3BAB6BF11F9D45ABACFA58934BE303E3
:10465C00552030FAF6AD766D9188CC7625F5024C66
:10466C00FC4FE5D7D7C52ACB802635448FB562A33E
:10467C0049DEB15A6725BA1B9845EA0EE15DFEC0CA
:10468C0002C32F7512814CF0A38D4697C66BD3F9DC
:10469C00E7038F5F9515929CEBBF6D7ADA955259B3
:1046AC002DD4BE83D35874212949E069448EC9C8DE
:1046BC006A75C28978F48E796B99583EDD27B97189
:1046CC00B6BEE14F17F088AD66C920ACB47DCE3ACA
:1046DC001863DF4A82E51A31609751334562537F84
:1046EC00E0B1647784BB6BAE1CFE81A094F9082BFF
:1046FC0058704868198F45FD8794DE6CB7527BF86B
:10470C0023AB73D3E2724B0257E31F8F2A6655AB70
:10471C0007B2EB28032FB5C29A86C57BA5D3370801
:10472C00F2302887B223BFA5BA02036A5CED168269
:10473C002B8ACF1C92A779B4F0F307F2A14E69E251
:10474C00CD65DAF4D50605BE1FD134628AC4A6FE47
:10475C009D342E53A0A2F35532058AE175A4F6EBD5
:10476C00390B83ECAA4060EF065E719F51BD6E1051
:10477C00F93E218A3D96DD06AEDD3E05464DE6BD91
:10478C00B591548D0571C45D6F0406D4FF6050154E
:10479C00241998FB97D6BDE9CC8940437767D99EFD
:1047AC00BDB0E8428807898B38E7195BDB79C8EE26
:1047BC0047A17C0AE97C420FC9F8841E0000000066
:1047CC008309808648322BEDAC1E11704E6C5A72E8
:1047DC00FBFD0EFF560F85381E3DAED527362D3905
:1047EC00640A0FD921685CA6D19B5B543A24362EFF
:1047FC00B10C0A670F9357E7D2B4EE969E1B9B91B0
:10480C004F80C0C5A261DC20695A774B161C121A66
:10481C000AE293BAE5C0A02A433C22E01D121B1702
:10482C000B0E090DADF28BC7B92DB6A8C8141EA975
:10483C008557F1194CAF7507BBEE99DDFDA37F6071
:10484C009FF70126BC5C72F5C544663B345BFB7E6E
:10485C00768B4329DCCB23C668B6EDFC63B8E4F158
:10486C00CAD731DC10426385401397222084C611CD
:10487C007D854A24F8D2BB3D11AEF9326DC729A112
:10488C004B1D9E2FF3DCB230EC0D8652D077C1E37A
:10489C006C2BB31699A970B9FA1194482247E964A4
:1048AC00C4A8FC8C1AA0F03FD8567D2CEF22339074
:1048BC00C787494EC1D938D1FE8CCAA23698D40BC1
:1048CC00CFA6F58128A57ADE26DAB78EA43FADBF38
:1048DC00E42C3A9D0D5078929B6A5FCC62547E46D4
:1048EC00C2F68D13E890D8B85E2E39F7F582C3AFB7
:1048FC00BE9F5D807C69D093A96FD52DB3CF251257
:10490C003BC8AC99A710187D6EE89C637BDB3BBB66
:10491C0009CD2678F46E591801EC9AB7A8834F9AF2
:10492C0065E6956E7EAAFFE60821BCCFE6EF15E89A
:10493C00D9BAE79BCE4A6F36D4EA9F09D629B07C08
:10494C00AF31A4B2312A3F2330C6A594C035A2663C
:10495C0037744EBCA6FC82CAB0E090D01533A7D8F1
:10496C004AF10498F741ECDA0E7FCD502F1791F6EF
:10497C008D764DD64D43EFB054CCAA4DDFE4960462
:10498C00E39ED1B51B4C6A88B8C12C1F7F4665517C
:10499C00049D5EEA5D018C3573FA87742EFB0B4126
:1049AC005AB3671D5292DBD233E91056136DD647BA
:1049BC008C9AD7617A37A10C8E59F81489EB133C79
:1049CC00EECEA92735B761C9EDE11CE53C7A47B1BC
:1049DC00599CD2DF3F55F273791814CEBF73C73789
:1049EC00EA53F7CD5B5FFDAA14DF3D6F867844DB9D
:1049FC0081CAAFF33EB968C42C3824345FC2A340DB
:104A0C0072161DC30CBCE2258B283C4941FF0D9549
:104A1C007139A801DE080CB39CD8B4E4906456C17B
:104A2C00617BCB8470D532B674486C5C42D0B8577D
:104A3C00A75051F465537E41A4C31A175E963A27CA
:104A4C006BCB3BAB45F11F9D58ABACFA03934BE3DF
:104A5C00FA5520306DF6AD76769188CC4C25F50262
:104A6C00D7FC4FE5CBD7C52A44802635A38FB5623A
:104A7C005A49DEB11B6725BA0E9845EAC0E15DFEC6
:104A8C007502C32FF012814C97A38D46F9C66BD3D8
:104A9C005FE7038F9C9515927AEBBF6D59DA9552AF
:104AAC00832DD4BE21D35874692949E0C8448EC9DA
:104ABC00896A75C27978F48E3E6B995871DD27B985
:104ACC004FB6BEE1AD17F088AC66C9203AB47DCEC6
:104ADC004A1863DF3182E51A336097517F45625380
:104AEC0077E0B164AE84BB6BA01CFE812B94F908FB
:104AFC0068587048FD198F456C8794DEF8B7527B67
:104B0C00D323AB7302E2724B8F57E31FAB2A66556C
:104B1C002807B2EBC2032FB57B9A86C508A5D337FD
:104B2C0087F23028A5B223BF6ABA0203825CED1665
:104B3C001C2B8ACFB492A779F2F0F307E2A14E694D
:104B4C00F4CD65DABED50605621FD134FE8AC4A643
:104B5C00539D342E55A0A2F3E132058AEB75A4F6D1
:104B6C00EC390B83EFAA40609F065E711051BD6E4D
:104B7C008AF93E21063D96DD05AEDD3EBD464DE68D
:104B8C008DB591545D0571C4D46F040615FF60504A
:104B9C00FB241998E997D6BD43CC89409E7767D9F9
:104BAC0042BDB0E88B8807895B38E719EEDB79C822
:104BBC000A47A17C0FE97C421EC9F8840000000062
:104BCC0086830980ED48322B70AC1E11724E6C5AE4
:104BDC00FFFBFD0E38560F85D51E3DAE3927362D01
:104BEC00D9640A0FA621685C54D19B5B2E3A2436FB
:104BFC0067B10C0AE70F935796D2B4EE919E1B9BAC
:104C0C00C54F80C020A261DC4B695A771A161C1262
:104C1C00BA0AE2932AE5C0A0E0433C22171D121BFE
:104C2C000D0B0E09C7ADF28BA8B92DB6A9C8141E71
:104C3C00198557F1074CAF75DDBBEE9960FDA37F6D
:104C4C00269FF701F5BC5C723BC544667E345BFB6A
:104C5C0029768B43C6DCCB23FC68B6EDF163B8E454
:104C6C00DCCAD7318510426322401397112084C6C9
:104C7C00247D854A3DF8D2BB3211AEF9A16DC7290E
:104C8C002F4B1D9E30F3DCB252EC0D86E3D077C176
:104C9C00166C2BB3B999A97048FA1194642247E9A0
:104CAC008CC4A8FC3F1AA0F02CD8567D90EF223370
:104CBC004EC78749D1C1D938A2FE8CCA0B3698D4BD
:104CCC0081CFA6F5DE28A57A8E26DAB7BFA43FAD34
:104CDC009DE42C3A920D5078CC9B6A5F4662547ED0
:104CEC0013C2F68DB8E890D8F75E2E39AFF582C3B3
:104CFC0080BE9F5D937C69D02DA96FD512B3CF2553
:104D0C00993BC8AC7DA71018636EE89CBB7BDB3B62
:104D1C007809CD2618F46E59B701EC9A9AA8834FEE
:104D2C006E65E695E67EAAFFCF0821BCE8E6EF1596
:104D3C009BD9BAE736CE4A6F09D4EA9F7CD629B004
:104D4C00B2AF31A423312A3F9430C6A566C035A238
:104D5C00BC37744ECAA6FC82D0B0E090D81533A7ED
:104D6C00984AF104DAF741EC500E7FCDF62F1791EB
:104D7C00D68D764DB04D43EF4D54CCAA04DFE4965E
:104D8C00B5E39ED1881B4C6A1FB8C12C517F466578
:104D9C00EA049D5E355D018C7473FA87412EFB0B22
:104DAC001D5AB367D25292DB5633E91047136DD6B6
:104DBC00618C9AD70C7A37A1148E59F83C89EB1375
:104DCC0027EECEA9C935B761E5EDE11CB13C7A47B8
:104DDC00DF599CD2733F55F2CE79181437BF73C785
:104DEC00CDEA53F7AA5B5FFD6F14DF3DDB86784499
:104DFC00F381CAAFC43EB968342C3824405FC2A3D7
:104E0C00C372161D250CBCE2498B283C9541FF0D45
:104E1C00017139A8B3DE080CE49CD8B4C190645677
:104E2C0084617BCBB670D5325C74486C5742D0B879
:104E3C00F4A750514165537E17A4C31A275E963AC6
:104E4C00AB6BCB3B9D45F11FFA58ABACE303934BDB
:104E5C0030FA5520766DF6ADCC769188024C25F55E
:104E6C00E5D7FC4F2ACBD7C53544802662A38FB536
:104E7C00B15A49DEBA1B6725EA0E9845FEC0E15DC2
:104E8C002F7502C34CF012814697A38DD3F9C66BD4
:104E9C008F5FE703929C95156D7AEBBF5259DA95AB
:104EAC00BE832DD47421D358E0692949C9C8448ED6
:104EBC00C2896A758E7978F4583E6B99B971DD2781
:104ECC00E14FB6BE88AD17F020AC66C9CE3AB47DC2
:104EDC00DF4A18631A3182E551336097537F45627C
:104EEC006477E0B16BAE84BB81A01CFE082B94F9F7
:104EFC004868587045FD198FDE6C87947BF8B75263
:104F0C0073D323AB4B02E2721F8F57E355AB2A6668
:104F1C00EB2807B2B5C2032FC57B9A863708A5D3F9
:104F2C002887F230BFA5B223036ABA0216825CED61
:104F3C00CF1C2B8A79B492A707F2F0F369E2A14E49
:104F4C00DAF4CD6505BED50634621FD1A6FE8AC43F
:104F5C002E539D34F355A0A28AE13205F6EB75A4CD
:104F6C0083EC390B60EFAA40719F065E6E1051BD49
:104F7C00218AF93EDD063D963E05AEDDE6BD464D89
:104F8C00548DB591C45D057106D46F045015FF6046
:104F9C0098FB2419BDE997D64043CC89D99E7767F5
:104FAC00E842BDB0898B8807195B38E7C8EEDB791E
:104FBC007C0A47A1420FE97C841EC9F8000000005E
:104FCC00808683092BED48321170AC1E5A724E6CE0
:104FDC000EFFFBFD8538560FAED51E3D2D392736FD
:104FEC000FD9640A5CA621685B54D19B362E3A24F7
:104FFC000A67B10C57E70F93EE96D2B49B919E1BA8
:10500C00C0C54F80DC20A261774B695A121A161C5E
:10501C0093BA0AE2A02AE5C022E0433C1B171D12FA
:10502C00090D0B0E8BC7ADF2B6A8B92D1EA9C8146D
:10503C00F119855775074CAF99DDBBEE7F60FDA369
:10504C0001269FF772F5BC5C663BC544FB7E345B66
:10505C004329768B23C6DCCBEDFC68B6E4F163B850
:10506C0031DCCAD76385104297224013C6112084C5
:10507C004A247D85BB3DF8D2F93211AE29A16DC70A
:10508C009E2F4B1DB230F3DC8652EC0DC1E3D07772
:10509C00B3166C2B70B999A99448FA11E96422479C
:1050AC00FC8CC4A8F03F1AA07D2CD8563390EF226C
:1050BC00494EC78738D1C1D9CAA2FE8CD40B3698B9
:1050CC00F581CFA67ADE28A5B78E26DAADBFA43F30
:1050DC003A9DE42C78920D505FCC9B6A7E466254CC
:1050EC008D13C2F6D8B8E89039F75E2EC3AFF582AF
:1050FC005D80BE9FD0937C69D52DA96F2512B3CF4F
:10510C00AC993BC8187DA7109C636EE83BBB7BDB5E
:10511C00267809CD5918F46E9AB701EC4F9AA883EA
:10512C00956E65E6FFE67EAABCCF082115E8E6EF92
:10513C00E79BD9BA6F36CE4A9F09D4EAB07CD62900
:10514C00A4B2AF313F23312AA59430C6A266C03534
:10515C004EBC377482CAA6FC90D0B0E0A7D81533E9
:10516C0004984AF1ECDAF741CD500E7F91F62F17E7
:10517C004DD68D76EFB04D43AA4D54CC9604DFE45A
:10518C00D1B5E39E6A881B4C2C1FB8C165517F4674
:10519C005EEA049D8C355D01877473FA0B412EFB1E
:1051AC00671D5AB3DBD25292105633E9D647136DB2
:1051BC00D7618C9AA10C7A37F8148E59133C89EB71
:1051CC00A927EECE61C935B71CE5EDE147B13C7AB4
:1051DC00D2DF599CF2733F5514CE7918C737BF7381
:1051EC00F7CDEA53FDAA5B5F3D6F14DF44DB867895
:1051FC00AFF381CA68C43EB924342C38A3405FC2D3
:10520C001DC37216E2250CBC3C498B280D9541FF41
:10521C00A80171390CB3DE08B4E49CD856C1906473
:10522C00CB84617B32B670D56C5C7448B85742D075
:10523C000100000002000000040000000800000053
:10524C001000000020000000400000008000000062
:10525C001B0000003600000044416AC2D1F53C58E6
:10526C003303917E6BE9EBE048E31E9E256718F251
:10527C009229319C19F15BA4058CCFFDBBCB382D49
:10528C001F6F56585D8A4ADEC34C052CC0DA8D73ED
:10529C00451AFE5F03BE297FF3F6752AE8D7831102
:1052AC0038F041560631B1148B79EECC93A0EE5DFB
:1052BC00FF30B4EA21636DA4FACA37E0B0C8537367
:1052CC00DF706E73F7C9AF865DF678DD17BA4E7571
:1052DC00B61768C6ADEF7C7B4804E1818FE6297573
:1052EC0019A3E88C573104138A05FC5E095AF4841F
:1052FC008A08D328D3688E3D7BD966D53AD8C1BBF2
:10530C0085D2ADFAE87BB104FE3C53653E2F45B522
:10531C006FCD88B2CC898FF02B7E151628AED2A615
:10532C00ABF7158809CF4F3C0000000000000000CF
:10533C0000000000000000008E73B0F7DA0E64521B
:10534C00C810F32B809079E562F8EAD2522C6B7B73
:10535C000000000000000000603DEB1015CA71BE9B
:10536C002B73AEF0857D77811F352C073B6108D7F9
:10537C002D9810A30914DFF400010203040506079D
:10538C0008090A0B0C0D0E0F6BC1BEE22E409F9646
:10539C00E93D7E117393172AAE2D8A571E03AC9CE0
:1053AC009EB76FAC45AF8E5130C81C46A35CE41160
:1053BC00E5FBC1191A0A52EFF69F2445DF4F9B17E4
:1053CC00AD2B417BE66C37103B3FD92EB72DAD2072
:1053DC00333449F8E83CFB4AC8A64537A0B3A93F8B
:1053EC00CDE3CDAD9F1CE58B26751F67A3CBB140DC
:1053FC00B1808CF187A4F4DFC04B05357C5D1C0EAD
:10540C00EAC4C66F9FF7F2E6CDC80D6FDDF18CAB29
:10541C0034C25909C99A417467CE7F7F81173621EE
:10542C00961A2B70171D3D7A2E1E8A1DD59B88B19E
:10543C00C8E60FED1EFAC4C9C05F9F9CA9834FA09C
:10544C0042AE8FBA584B09FFDC7E84BFDA79164B1B
:10545C007ECD8486985D386039FFED143B28B1C849
:10546C0032113C6331E5407BDF10132415E54B9280
:10547C00A13ED0A8267AE2F975A385741AB9CEF8A4
:10548C002031623D55B1E471AE6852F8121067CC10
:10549C004BF7A5765577F39E7E24067817FAE0D75E
:1054AC0043D6CE1F325391637691BE035E5020A833
:1054BC00AC6E618529F9A0DC000000300000000012
:1054CC000000000000000001006CB6DBC0543B592A
:1054DC00DA48D90B0000000100E0017B27777F3F01
:1054EC004A1786F00000000153696E676C652062F4
:1054FC006C6F636B206D7367000000000000000090
:10550C00000000000000000000000000000000008F
:10551C000000000000000000000102030405060763
:10552C0008090A0B0C0D0E0F101112131415161777
:10553C0018191A1B1C1D1E1F000000000000000083
:10554C000000000000000000000102030405060733
:10555C0008090A0B0C0D0E0F101112131415161747
:10556C0018191A1B1C1D1E1F2021222300000000CD
:10557C000000000000000000E4095D4FB7A7B379FC
:10558C002D6175A3261311B8000000000000000067
:10559C0000000000000000000000000000000000FF
:1055AC0000000000000000005104A106168A72D908
:1055BC00790D41EE8EDAD388EB2E1EFC46DA57C8F5
:1055CC00FCE630DF9141BE28000000000000000026
:1055DC000000000000000000C1CF48A89F2FFDD99B
:1055EC00CF4652E9EFDB72D74540A42BDE6D7836FF
:1055FC00D59A5CEAAEF3105325B2072F00000000D9
:10560C00000000000000000010000000200000005E
:10561C002400000064656300656E63002020414532
:10562C00532D4543422D25336420282573293A20D8
:10563C00000000006661696C656400007061737342
:10564C006564000020204145532D4342432D2533F2
:10565C006420282573293A200000000020204145B1
:10566C00532D4346423132382D253364202825737F
:10567C00293A200020204145532D4354522D3132DC
:10568C003820282573293A2000000000180000203B
:08569C00E52E0008B101000831
:0456A4008901000870
:1056A8003031323334353637383941424344454650
:1056B80000127A000000000000000000040300202F
:1056C8006C030020D403002000000000000000004C
:1056D80000000000000000000000000000000000C2
:1056E80000000000000000000000000000000000B2
:1056F80000000000000000000000000000000000A2
:105708000000000000000000000000000000000091
:105718000000000000000000000000000000000081
:105728000000000000000000000000000000000071
:105738000000000000000000000000000000000061
:105748000000000000000000000000000000000051
:105758000000000000000000000000000000000041
:1057680001000000000000000E33CDAB34126DE6DE
:10577800ECDE05000B000000000000000000000047
:105788000000000000000000000000000000000011
:105798000000000000000000000000000000000001
:1057A80000000000000000000000000000000000F1
:1057B80000000000000000000000000000000000E1
:0400000508002D4979
:00000001FF
