:020000040800F2
:1000000000300020612D0008A92D0008A92D00084E
:10001000A92D0008A92D0008A92D00080000000046
:10002000000000000000000000000000A92D0008F2
:10003000A92D000800000000A92D0008A92D000826
:1000400000000000000000000000000000000000B0
:1000500000000000000000000000000000000000A0
:100060000000000000000000000000000000000090
:100070000000000000000000000000000000000080
:100080000000000000000000000000000000000070
:100090000000000000000000000000000000000060
:1000A0000000000000000000000000000000000050
:1000B0000000000000000000000000000000000040
:1000C0000000000000000000000000000000000030
:1000D0000000000000000000000000000000000020
:1000E0000000000000000000000000000000000010
:1000F0000000000000000000000000000000000000
:1001000000000000000000000000000000000000EF
:1001100000000000000000000000000000000000DF
:1001200000000000000000000000000000000000CF
:1001300000000000000000000000000000000000BF
:1001400000000000000000000000000000000000AF
:10015000000000000000000000000000000000009F
:10016000000000000000000000000000000000008F
:10017000000000000000000000000000000000007F
:08018000000000000000000077
:1001880010B5054C237833B9044B13B10448AFF3C9
:1001980000800123237010BD3804002000000000F7
:1001A800842F0008084B10B51BB108490848AFF365
:1001B80000800848036803B910BD074B002BFBD02B
:1001C800BDE81040184700BF000000003C040020B4
:1001D800842F0008380400200000000080B582B099
:1001E80000AF7860786801F0D1FB00231846083723
:1001F800BD4680BD80B582B000AF786000F0CCFA13
:10020800786801F0D3FB00F0D3FA7A6810217220E5
:1002180000F0E2F9002318460837BD4680BD00BF4C
:1002280080B483B000AF7860002318460C37BD4611
:1002380080BC704790B585B000AF1C4B3C46186831
:1002480059689A68DB680FC400F0FCF900F020FADE
:1002580000F074FA01F090FB3B46184601F096FB5B
:10026800682000F0C3FA652000F0C0FA6C2000F0A6
:10027800BDFA6C2000F0BAFA6F2000F0B7FA0A2035
:1002880000F0B4FA00F0BCF8094A10216B2000F025
:10029800C3F8084A1021702000F0BEF8064A002171
:1002A800782000F0B9F800F0F9F8FCE79C2F000876
:1002B800E5010008FD0100082902000880B487B0A4
:1002C80000AFF860B9607A6000237B6183E07B69E6
:1002D8005B001A46BB6813441B78FB747B695B00A0
:1002E8000133BA6813441B78BB74BB7C2F2B0AD923
:1002F800BB7C392B07D87B697A681344BA7C303ABF
:10030800D2B21A701DE0BB7C402B0AD9BB7C462BAD
:1003180007D87B697A681344BA7C373AD2B21A7024
:100328000FE0BB7C602B0AD9BB7C662B07D87B69A6
:100338007A681344BA7C573AD2B21A7001E00123A2
:100348004FE0FB7C2F2B13D9FB7C392B10D87B6912
:100358007A6813447A6979680A44127851B2FA7C47
:10036800303A120152B20A4352B2D2B21A702FE096
:10037800FB7C402B13D9FB7C462B10D87B697A6811
:1003880013447A6979680A44127851B2FA7C373A88
:10039800120152B20A4352B2D2B21A7018E0FB7C70
:1003A800602B13D9FB7C662B10D87B697A681344C1
:1003B8007A6979680A44127851B2FA7C573A12017C
:1003C80052B20A4352B2D2B21A7001E0012308E0D5
:1003D8007B6901337B617A69FB689A42FFF677AFE4
:1003E800002318461C37BD4680BC704780B483B0D4
:1003F80000AF7860002318460C37BD4680BC7047B4
:1004080080B500AF034A0021762000F005F800BF50
:1004180080BD00BFF503000880B485B000AF034677
:10042800B9607A60FB731B4B1B680A2B01DD012343
:100438002AE0BB68402B01D9012325E0154B1A6837
:10044800154913465B0013449B000B44FA7B1A7052
:10045800104B1A68104913465B0013449B000B4469
:100468000433BA681A600B4B1A680B4913465B00D1
:1004780013449B000B4408337A681A60054B1B68C9
:100488000133044A1360002318461437BD4680BC64
:10049800704700BFCC0400205404002080B5B4B0DD
:1004A80000AF00F091F9034687F8C7300023C7F87A
:1004B800CC3011E04649D7F8CC2013465B001344F2
:1004C8009B000B441B7897F8C7209A420BD0D7F8AB
:1004D800CC300133C7F8CC303E4B1B68D7F8CC2062
:1004E8009A42E7DB00E000BF3A4B1B68D7F8CC2004
:1004F8009A4263D00023C7F8C83019E000F064F9C5
:10050800034687F8C73097F8C7300A2B58D097F8B2
:10051800C7300D2B54D007F14402D7F8C830134424
:1005280097F8C7201A70D7F8C8300133C7F8C83011
:100538002749D7F8CC2013465B0013449B000B4493
:1005480004331B685A00D7F8C8309A42D6D800F04E
:100558003BF9034687F8C73097F8C7300A2B03D012
:1005680097F8C7300D2B2DD11949D7F8CC20134651
:100578005B0013449B000B4404331B6818463A1D68
:1005880007F144031946FFF799FE0346002B1BD1D8
:100598000F49D7F8CC2013465B0013449B000B444B
:1005A80008331B683A1D1046984703463B703B4684
:1005B8001A4601217A2000F00FF806E000BF04E097
:1005C80000BF02E000BF00E000BFD037BD4680BDDD
:1005D80054040020CC04002080B586B000AF034648
:1005E800B9607A60FB73FB7B184600F0FFF80023C4
:1005F8007B6119E07B697A6813441B781B09DBB2BD
:100608001A460F4B9B5C184600F0F0F87B697A6835
:1006180013441B7803F00F03094AD35C184600F013
:10062800E5F87B6901337B617A69BB689A42E1DB53
:100638000A2000F0DBF800BF1837BD4680BD00BFB8
:100648000000002080B592B000AF03237B61052332
:10065800BB6100233B6200233B6307F11403184688
:1006680000F0F0F80F233B6001237B600023BB60A0
:100678000023FB6000233B6105237B643B46796CC8
:10068800184600F0F1FA00BF4837BD4680BD00BFEC
:1006980080B588B000AF4FF4C063FB6002233B61B4
:1006A80001237B610223BB610723FB610023BB603D
:1006B8001E4A1E4B1B6B43F0010313631B4B1B6B42
:1006C80003F00103BB60BB6807F10C031946184827
:1006D80000F0AAFB174B184A1A60164B4FF4164243
:1006E8005A60144B00229A60124B0022DA60114BB8
:1006F80000221A610F4B00229A610E4B0C225A619C
:1007080000237B60094A094B5B6C43F01003536478
:10071800064B5B6C03F010037B607B68054800F0B8
:1007280059FF00BF2037BD4680BD00BF00380240DA
:1007380000000240002700200010014080B586B06C
:1007480000AF00233B60124A114B1B6B43F00103BF
:1007580013630F4B1B6B03F001033B603B684FF4C3
:1007680080537B600123BB600023FB6002233B6155
:100778003B1D1946074800F057FB00224FF48051F3
:10078800044800F0F3FC00BF1837BD4680BD00BF29
:10079800003802400000024080B500AF01224FF44B
:1007A8008051024800F0E2FC00BF80BD000002401A
:1007B80080B500AF00224FF48051024800F0D6FC0B
:1007C80000BF80BD0000024080B582B000AFF91DB7
:1007D80041F288330122044801F028F8FB791846D1
:1007E8000837BD4680BD00BF0027002080B584B013
:1007F80000AF0346FB71FB79FB7307F10F0141F270
:1008080088330122034800F079FF00BF1037BD4646
:1008180080BD00BF0027002080B400AF044B1B68D8
:100828005A1C03490A601846BD4680BC704700BF81
:10083800D004002080B400AF4FF4E1031846BD4651
:1008480080BC704780B58EB000AF786000237B63B2
:100858007B681B6803F00103002B4FD0A44B9B68F7
:1008680003F00C03042B0BD0A14B9B6803F00C0383
:10087800082B11D19E4B5B6803F48003002B0BD02F
:100888009B4B1B6803F40033002B36D07B685B68F6
:10089800002B32D10123DFE1964A7B685B68DBB22B
:1008A80013707B685B68002B13D0FFF7B5FF786384
:1008B80008E0FFF7B1FF02467B6BD31A642B01D91E
:1008C8000323C9E18A4B1B6803F40033002BF0D0E3
:1008D80014E0FFF7A1FF786308E0FFF79DFF0246E9
:1008E8007B6BD31A642B01D90323B5E1804B1B68BA
:1008F80003F40033002BF0D100E000BF7B681B68D5
:1009080003F00203002B77D0794B9B6803F00C03AC
:10091800002B0BD0764B9B6803F00C03082B26D1D9
:10092800734B5B6803F48003002B20D1704B1B686A
:1009380003F00203002B05D07B68DB68012B01D094
:10094800012389E16A486A4B1B6823F0F8027B6837
:100958001969F8233B623B6A93FAA3F3FB61FB69CD
:10096800B3FA83F301FA03F31343036044E07B68AB
:10097800DB68002B2AD0604B01221A60FFF74CFF7E
:10098800786308E0FFF748FF02467B6BD31A022B17
:1009980001D9032360E1564B1B6803F00203002BC7
:1009A800F0D05348524B1B6823F0F8027B68196952
:1009B800F823FB62FB6A93FAA3F3BB61BB69B3FA42
:1009C80083F301FA03F31343036015E04A4B002253
:1009D8001A60FFF721FF786308E0FFF71DFF024662
:1009E8007B6BD31A022B01D9032335E1404B1B68DB
:1009F80003F00203002BF0D17B681B6803F00803A7
:100A0800002B30D07B685B69002B16D03B4B012252
:100A18001A60FFF701FF786308E0FFF7FDFE024662
:100A28007B6BD31A022B01D9032315E1304B5B6F83
:100A380003F00203002BF0D015E0304B00221A60BF
:100A4800FFF7EAFE786308E0FFF7E6FE02467B6BF5
:100A5800D31A022B01D90323FEE0254B5B6F03F069
:100A68000203002BF0D17B681B6803F00403002B02
:100A780066D00023BB601E4A1D4B1B6C43F080539D
:100A880013641B4B1B6C03F08053BB60BB681C4A90
:100A98001B4B1B6843F480731360FFF7BDFE78633C
:100AA80008E0FFF7B9FE02467B6BD31A022B01D987
:100AB8000323D1E0124B1B6803F48073002BF0D0A2
:100AC800104A7B689B68DBB213707B689B68002BBD
:100AD80021D0FFF7A1FE786316E0FFF79DFE0246DE
:100AE8007B6BD31A41F2883293420DD90323B3E0CA
:100AF800003802400238024000004742800E474258
:100B08000070004070380240554B1B6F03F0020321
:100B1800002BE2D014E0FFF77FFE78630AE0FFF7CE
:100B28007BFE02467B6BD31A41F28832934201D98D
:100B3800032391E04A4B1B6F03F00203002BEED115
:100B48007B689B69002B00F08680454B9B6803F00F
:100B58000C03082B7DD07B689B69022B62D1414B2B
:100B680000221A60FFF758FE786308E0FFF754FE8A
:100B780002467B6BD31A642B01D903236CE0384BF4
:100B88001B6803F00073002BF0D135487B68DA69E5
:100B98007B681B6A1A437B68596A47F6C073BB6255
:100BA800BB6A93FAA3F3FB60FB68B3FA83F301FA19
:100BB80003F31A437B689B6A5B08591E4FF4403362
:100BC8007B627B6A93FAA3F33B613B69B3FA83F3D5
:100BD80001FA03F31A437B68D96A4FF070633B63E9
:100BE8003B6B93FAA3F37B617B69B3FA83F301FA56
:100BF80003F3134343601B4B01221A60FFF70CFEFB
:100C0800786308E0FFF708FE02467B6BD31A642B73
:100C180001D9032320E0124B1B6803F00073002B5B
:100C2800F0D018E00F4B00221A60FFF7F5FD78634B
:100C380008E0FFF7F1FD02467B6BD31A642B01D95C
:100C4800032309E0064B1B6803F00073002BF0D167
:100C580001E0012300E0002318463837BD4680BD77
:100C6800003802406000474280B584B000AF786029
:100C780039600023FB60664B1B6803F00F023B687A
:100C88009A420CD2624B3A68D2B21A70604B1B6817
:100C980003F00F023B689A4201D00123B3E07B685E
:100CA8001B6803F00203002B08D05A49594B9B6874
:100CB80023F0F0027B689B6813438B607B681B689A
:100CC80003F00103002B6AD07B685B68012B07D116
:100CD800504B1B6803F40033002B15D1012392E01D
:100CE8007B685B68022B07D14A4B1B6803F00073D3
:100CF800002B09D1012386E0464B1B6803F0020351
:100D0800002B01D101237EE04249424B9B6823F02E
:100D180003027B685B6813438B60FFF77DFDF86017
:100D28007B685B68012B12D10AE0FFF775FD02466C
:100D3800FB68D31A41F28832934201D9032362E057
:100D4800344B9B6803F00C03042BEED127E07B683F
:100D58005B68022B1DD10AE0FFF75EFD0246FB68C7
:100D6800D31A41F28832934201D903234BE0294B2D
:100D78009B6803F00C03082BEED110E0FFF74CFD45
:100D88000246FB68D31A41F28832934201D9032301
:100D980039E0204B9B6803F00C03002BEED11C4B71
:100DA8001B6803F00F023B689A420CD9184B3A684B
:100DB800D2B21A70164B1B6803F00F023B689A42B6
:100DC80001D001231FE07B681B6803F00403002B9C
:100DD80008D010490F4B9B6823F4E0527B68DB680E
:100DE80013438B607B681B6803F00803002B09D052
:100DF8000849084B9B6823F460427B681B69DB0049
:100E080013438B60002318461037BD4680BD00BFD2
:100E1800003C02400038024080B400AF4FF4E103C8
:100E28001846BD4680BC704780B489B000AF786072
:100E3800396000237B6100233B610023BB610023F1
:100E4800FB6171E10122FB6902FA03F37B613B68F4
:100E58001A687B6913403B613A697B699A4240F0A2
:100E680060813B685B68022B03D03B685B68122B90
:100E780023D1FB69DA087B68083253F82230BB615A
:100E8800FB6903F007039B000F2202FA03F3DB431D
:100E9800BA691340BB613B681A69FB6903F0070331
:100EA8009B0002FA03F3BA691343BB61FB69DA08D2
:100EB8007B680832B96943F822107B681B68BB61FC
:100EC800FB695B00032202FA03F3DB43BA691340B0
:100ED800BB613B685B6803F00302FB695B0002FAD5
:100EE80003F3BA691343BB617B68BA691A603B684C
:100EF8005B68012B0BD03B685B68022B07D03B6813
:100F08005B68112B03D03B685B68122B30D17B6880
:100F18009B68BB61FB695B00032202FA03F3DB43B6
:100F2800BA691340BB613B68DA68FB695B0002FA87
:100F380003F3BA691343BB617B68BA699A607B683B
:100F48005B68BB610122FB6902FA03F3DB43BA6900
:100F58001340BB613B685B681B0903F00102FB6936
:100F680002FA03F3BA691343BB617B68BA695A6032
:100F78007B68DB68BB61FB695B00032202FA03F351
:100F8800DB43BA691340BB613B689A68FB695B0045
:100F980002FA03F3BA691343BB617B68BA69DA6082
:100FA8003B685B6803F08053002B00F0BA80002395
:100FB800FB60624A614B5B6C43F4804353645F4B54
:100FC8005B6C03F48043FB60FB685D4AFB699B082C
:100FD800023352F82330BB61FB6903F003039B0023
:100FE8000F2202FA03F3DB43BA691340BB617B6843
:100FF800544A934231D07B68534A93422BD07B6842
:10100800524A934225D07B68514A93421FD07B684D
:10101800504A934219D07B684F4A934213D07B6859
:101028004E4A93420DD07B684D4A934207D07B6865
:101038004C4A934201D1082310E009230EE007230C
:101048000CE006230AE0052308E0042306E0032356
:1010580004E0022302E0012300E00023FA6902F021
:10106800030292009340BA691343BB613449FB6998
:101078009B080233BA6941F823203B4B1B68BB61CC
:101088003B69DB43BA691340BB613B685B6803F4A7
:101098008033002B03D0BA693B691343BB61324AE2
:1010A800BB691360304B5B68BB613B69DB43BA6962
:1010B8001340BB613B685B6803F40033002B03D02B
:1010C800BA693B691343BB61274ABB695360264B26
:1010D8009B68BB613B69DB43BA691340BB613B68F2
:1010E8005B6803F48013002B03D0BA693B69134390
:1010F800BB611D4ABB6993601B4BDB68BB613B69E5
:10110800DB43BA691340BB613B685B6803F40013B7
:10111800002B03D0BA693B691343BB61124ABB6910
:10112800D360FB690133FB61FB690F2B7FF68AAE45
:1011380000BF2437BD4680BC704700BF003802405E
:10114800003801400000024000040240000802404C
:10115800000C024000100240001402400018024037
:10116800001C024000200240003C014080B483B0D3
:1011780000AF78600B467B8013467B707B78002B32
:1011880003D07A887B689A6103E07B881A047B68BD
:101198009A6100BF0C37BD4680BC7047F0B585B07A
:1011A80000AF78600023FB607B681B681B69FB60ED
:1011B800FB6823F44053FB607B68DB68FA681343E1
:1011C800FB607B681B68FA681A617B681B68DB68D0
:1011D800FB60FB6823F4164323F00C03FB607B6879
:1011E8009A687B681B691A437B685B691A437B684A
:1011F800DB691343FA681343FB607B681B68FA6872
:10120800DA607B681B685B69FB60FB6823F44073EA
:10121800FB607B689B69FA681343FB607B681B680B
:10122800FA685A617B68DB69B3F5004F40F0E480E7
:101238007B681B68AB4A934204D07B681B68AA4A48
:1012480093426CD17B681C68FFF7E6FD02461346A3
:101258009B0013449A001A447B685B685B00B2FBEE
:10126800F3F3A24AA2FB03235B091D01FFF7D4FD98
:10127800024613469B0013449A001A447B685B6835
:101288005B00B2FBF3F6FFF7C7FD024613469B006F
:1012980013449A001A447B685B685B00B2FBF3F363
:1012A800924AA2FB03235B09642202FB03F3F31AAD
:1012B800DB0032338D4AA2FB03235B0903F0F803FA
:1012C8005B001D44FFF7A8FD024613469B0013442C
:1012D8009A001A447B685B685B00B2FBF3F6FFF781
:1012E8009BFD024613469B0013449A001A447B68F0
:1012F8005B685B00B2FBF3F37C4AA2FB03235B0948
:10130800642202FB03F3F31ADB003233774AA2FBB1
:1013180003235B0903F007032B44A36054E17B68B4
:101328001C68FFF787FA024613469B0013449A008D
:101338001A447B685B685B00B2FBF3F36B4AA2FB61
:1013480003235B091D01FFF775FA024613469B004C
:1013580013449A001A447B685B685B00B2FBF3F69F
:10136800FFF768FA024613469B0013449A001A4492
:101378007B685B685B00B2FBF3F35C4AA2FB032368
:101388005B09642202FB03F3F31ADB003233574A8A
:10139800A2FB03235B0903F0F8035B001D44FFF77E
:1013A80049FA024613469B0013449A001A447B6884
:1013B8005B685B00B2FBF3F6FFF73CFA02461346A4
:1013C8009B0013449A001A447B685B685B00B2FB7D
:1013D800F3F3464AA2FB03235B09642202FB03F3EF
:1013E800F31ADB003233414AA2FB03235B0903F003
:1013F80007032B44A360E7E07B681B68394A9342E4
:1014080004D07B681B68384A934271D17B681C689A
:10141800FFF702FD024613469B0013449A001A4444
:101428007B685B689B00B2FBF3F3304AA2FB0323A3
:101438005B091D01FFF7F0FC024613469B001344AD
:101448009A001A447B685B689B00B2FBF3F6FFF7CF
:10145800E3FC024613469B0013449A001A447B6837
:101468005B689B00B2FBF3F3204AA2FB03235B09F2
:10147800642202FB03F3F31A1B0132331B4AA2FB5B
:1014880003235B0903F0F0031D44FFF7C5FC024684
:1014980013469B0013449A001A447B685B689B00C0
:1014A800B2FBF3F6FFF7B8FC024613469B00134461
:1014B8009A001A447B685B689B00B2FBF3F30B4A03
:1014C800A2FB03235B09642202FB03F3F31A1B014B
:1014D8003233064AA2FB03235B0903F00F032B44B4
:1014E800A36071E000100140001401401F85EB511A
:1014F8007B681C68FFF79EF9024613469B0013445D
:101508009A001A447B685B689B00B2FBF3F3304A8D
:10151800A2FB03235B091D01FFF78CF90246134662
:101528009B0013449A001A447B685B689B00B2FBDB
:10153800F3F6FFF77FF9024613469B0013449A001F
:101548001A447B685B689B00B2FBF3F3204AA2FB5A
:1015580003235B09642202FB03F3F31A1B013233F2
:101568001B4AA2FB03235B0903F0F0031D44FFF7AA
:1015780061F9024613469B0013449A001A447B689B
:101588005B689B00B2FBF3F6FFF754F9024613467B
:101598009B0013449A001A447B685B689B00B2FB6B
:1015A800F3F30B4AA2FB03235B09642202FB03F358
:1015B800F31A1B013233064AA2FB03235B0903F02B
:1015C8000F032B44A360FFE700BF1437BD46F0BDEF
:1015D8001F85EB5180B582B000AF78607B68002B27
:1015E80001D101233CE07B6893F83930DBB2002B52
:1015F80003D17B68002283F838207B68242283F893
:1016080039207B681B687A681268D26822F4005215
:10161800DA607868FFF7C2FD7B681B687A68126831
:10162800126922F490421A617B681B687A68126812
:10163800526922F02A025A617B681B687A6812682C
:10164800D26842F40052DA607B680022DA637B6871
:10165800202283F839207B68202283F83A2000234F
:1016680018460837BD4680BD80B584B000AFF86025
:10167800B9603B601346FB712CE0BB69B3F1FF3FD7
:1016880028D0BB69002B07D0FFF7C6F802463B6895
:10169800D21ABB699A421DD9FB681B68FA6812689E
:1016A800D26822F4D072DA60FB681B68FA681268A4
:1016B800526922F001025A61FB68202283F839201E
:1016C800FB68202283F83A20FB68002283F8382040
:1016D80003230FE0FB681B681A68BB681A40BB68E5
:1016E8009A420CBF01230023DBB21A46FB799A42C7
:1016F800C3D0002318461037BD4680BD80B588B0DA
:1017080002AFF860B9603B601346FB8000237B6141
:10171800FB6893F83930DBB2202B40F08280BB683D
:10172800002B02D0FB88002B01D101237AE0FB6853
:1017380093F83830012B01D1022373E0FB680122B2
:1017480083F83820FB680022DA63FB68212283F8DB
:101758003920FFF761F87861FB68FA889A84FB689A
:10176800FA88DA8441E0FB68DB8C9BB2013B9AB2D1
:10177800FB68DA84FB689B68B3F5805F21D13B681E
:1017880000937B6900228021F868FFF76DFF03460C
:10179800002B01D0032345E0BB683B61FB681B6855
:1017A8003A691288C2F308025A60FB681B69002B69
:1017B80003D1BB680233BB6017E0BB680133BB6071
:1017C80013E03B6800937B6900228021F868FFF7EB
:1017D8004BFF0346002B01D0032323E0FB681A6864
:1017E800BB68591CB9601B785360FB68DB8C9BB2E3
:1017F800002BB8D13B6800937B6900224021F86830
:10180800FFF732FF0346002B01D003230AE0FB68F1
:10181800202283F83920FB68002283F8382000232F
:1018280000E0022318461837BD4680BD80B588B051
:1018380002AFF860B9603B601346FB8000237B6110
:10184800FB6893F83A30DBB2202B40F09080BB68FD
:10185800002B02D0FB88002B01D1012388E0FB6814
:1018680093F83830012B01D1022381E0FB68012273
:1018780083F83820FB680022DA63FB68222283F8A9
:101888003A20FEF7C9FF7861FB68FA889A85FB68F9
:10189800FA88DA855CE0FB68DB8D9BB2013B9AB283
:1018A800FB68DA85FB689B68B3F5805F2BD13B68E2
:1018B80000937B6900222021F868FFF7D5FE0346D4
:1018C800002B01D0032353E0BB683B61FB681B6915
:1018D800002B0CD1FB681B685B689BB2C3F3080341
:1018E8009AB23B691A80BB680233BB6030E0FB6880
:1018F8001B685B689BB2DBB29AB23B691A80BB6813
:101908000133BB6024E03B6800937B6900222021FF
:10191800F868FFF7A9FE0346002B01D0032327E050
:10192800FB681B69002B08D1BB685A1CBA60FA68AF
:1019380012685268D2B21A700AE0BB685A1CBA60C0
:10194800FA6812685268D2B202F07F02D2B21A70F4
:10195800FB68DB8D9BB2002B9DD1FB68202283F8AE
:101968003A20FB68002283F83820002300E0022395
:1019780018461837BD4680BD80B500AF024800F054
:101988002DFA00BF80BD00BF4027002080B582B07F
:1019980000AF786080227968034800F02DFA00BF14
:1019A8000837BD4680BD00BF4027002080B582B003
:1019B80000AF78607B687A680121034801F0B0F9CC
:1019C80000BF0837BD4680BD4027002090B4ADF564
:1019D800016D00AF0023C7F80C380123C7F8083899
:1019E80026E007F58063D7F80C28D7F8081843F8DD
:1019F80022103B46D7F80828D7F80C1843F82210CD
:101A0800D7F808385A00D7F8083803F08003002BB5
:101A180001D01B2300E000235A40D7F80838534070
:101A2800DBB2C7F80838D7F80C380133C7F80C38D8
:101A3800D7F80C38FF2BD4DD0023C7F80C38012366
:101A4800C7F808381BE0D7F80828D849D7F80C3861
:101A580041F82320D7F808385A00D7F8083803F097
:101A68008003002B01D01B2300E000235340DBB28E
:101A7800C7F80838D7F80C380133C7F80C38D7F846
:101A88000C38092BDFDDCA4B63221A70C94B0022C0
:101A980083F863200123C7F80C386DE03B46D7F87C
:101AA8000C2853F82230C3F1FF0207F5806353F87E
:101AB8002230C7F80838D7F80838C7F80438D7F8F4
:101AC80004385A00D7F80438DB111343DBB2C7F8DF
:101AD8000438D7F80828D7F804385340C7F8083826
:101AE800D7F804385A00D7F80438DB111343DBB2AF
:101AF800C7F80438D7F80828D7F804385340C7F887
:101B08000838D7F804385A00D7F80438DB111343DB
:101B1800DBB2C7F80438D7F80828D7F80438534098
:101B2800C7F80838D7F804385A00D7F80438DB1152
:101B38001343DBB2C7F80438D7F8043883F06303DB
:101B4800D7F808285340C7F80838D7F80838D9B262
:101B5800974AD7F80C3813440A461A70D7F80C3845
:101B6800D9B2944AD7F8083813440A461A70D7F8F5
:101B78000C380133C7F80C38D7F80C38FF2B8DDD3B
:101B88000023C7F80C3806E1894AD7F80C38134403
:101B98001B78C7F80838D7F808385A00D7F8083833
:101BA80003F08003002B01D01B2300E000235340E7
:101BB800DBB2C7F80438D7F80428D7F808385340F8
:101BC800DBB2C7F80038D7F808381A02D7F8043853
:101BD8005A40D7F808381B045A40D7F800381B0673
:101BE8005A407549D7F80C3841F82320724AD7F87B
:101BF8000C3852F823304FEA33627049D7F80C3862
:101C080041F823206D4AD7F80C3852F823304FEAB0
:101C180033626B49D7F80C3841F82320684AD7F863
:101C28000C3852F823304FEA33626649D7F80C383B
:101C380041F823205F4AD7F80C3813441B78C7F8BB
:101C48000838D7F80838002B18D03B469A6B3B4623
:101C5800D7F8081853F821301A445B4B82FB033439
:101C68001319D911D317C91A0B461B025B1AD11ABB
:101C780007F5806353F82130184600E00020D7F8B4
:101C88000838002B18D03B465A6A3B46D7F8081844
:101C980053F821301A444C4B82FB03341319D911E1
:101CA800D317C91A0B461B025B1AD11A07F58063B2
:101CB80053F821301B0200E000235840D7F80838B9
:101CC800002B18D03B465A6B3B46D7F8081853F8F8
:101CD80021301A443C4B82FB03341319D911D31712
:101CE800C91A0B461B025B1AD11A07F5806353F811
:101CF80021301B0400E000235840D7F80838002B97
:101D080018D03B46DA6A3B46D7F8081853F8213012
:101D18001A442D4B82FB03341319D911D317C91A4E
:101D28000B461B025B1AD11A07F5806353F8213062
:101D38001B0600E0002380EA03022449D7F80C3888
:101D480041F82320214AD7F80C3852F823304FEABB
:101D580033621F49D7F80C3841F823201C4AD7F8BA
:101D68000C3852F823304FEA33621A49D7F80C3846
:101D780041F82320174AD7F80C3852F823304FEA95
:101D880033621549D7F80C3841F82320D7F80C38B6
:101D98000133C7F80C38D7F80C38FF2B7FF7F4AEAF
:101DA80000BF07F50167BD4690BC7047D4260020E8
:101DB800D4040020D4150020D4050020D409002024
:101DC800D40D0020D411002081808080D4160020FA
:101DD800D41A0020D41E0020D422002080B582B05E
:101DE80000AF78604FF48C720021786801F002F837
:101DF80000BF0837BD4680BD80B586B000AFF8602B
:101E0800B9607A60904B1B68002B04D1FFF7DEFDA8
:101E18008D4B01221A607B68C02B08D0B3F5807FF8
:101E280009D0802B0BD1FB680A221A600AE0FB68F4
:101E38000C221A6006E0FB680E221A6002E06FF0BE
:101E48001F03A1E1FB6808333B61FB683A695A60EC
:101E580000237B6126E07B699B003A6913447A6919
:101E68009200B9680A44127810467A6992000132E1
:101E7800B9680A441278120240EA02017A699200AB
:101E88000232B86802441278120411437A69920047
:101E98000332B8680244127812060A431A607B6952
:101EA80001337B617B685A097B699A42D3D8FB6806
:101EB8001B680C2B5BD00E2B00F0C3800A2B40F064
:101EC800628100237B614EE03B6910333A691168F7
:101ED8005E487A6950F822204A4039690C3109680D
:101EE800090AC9B25A48415C51403A690C32126831
:101EF800120CD2B25648825C120251403A690C3236
:101F08001268120E5248825C120451403A690C322F
:101F18001268D2B24E48825C12064A401A603B6987
:101F280014333A69043211683A69103212684A4027
:101F38001A603B6918333A69083211683A691432F1
:101F480012684A401A603B691C333A690C321168BE
:101F58003A69183212684A401A607B6901337B611A
:101F68003B6910333B617B69092BADD90BE1002339
:101F78007B6162E03B6918333A69116833487A69D2
:101F880050F822204A40396914310968090AC9B24F
:101F98002F48415C51403A6914321268120CD2B28F
:101FA8002B48825C120251403A6914321268120EB0
:101FB8002748825C120451403A6914321268D2B23E
:101FC8002348825C12064A401A603B691C333A690E
:101FD800043211683A69183212684A401A603B693B
:101FE80020333A69083211683A691C3212684A404B
:101FF8001A603B6924333A690C3211683A69203215
:1020080012684A401A603B6928333A6910321168ED
:102018003A69243212684A401A603B692C333A699B
:10202800143211683A69283212684A401A607B698A
:1020380001337B613B6918333B617B69072B99D975
:10204800A1E000237B6199E0FC260020D426002033
:10205800D40400203B6920333A6911684C487A69F6
:1020680050F822204A4039691C310968090AC9B266
:102078004848415C51403A691C321268120CD2B28D
:102088004448825C120251403A691C321268120EAE
:102098004048825C120451403A691C321268D2B23C
:1020A8003C48825C12064A401A603B6924333A690C
:1020B800043211683A69203212684A401A603B6952
:1020C80028333A69083211683A69243212684A405A
:1020D8001A603B692C333A690C3211683A69283224
:1020E80012684A401A603B6930333A691032126804
:1020F80039692C310968C9B22648415C51403A69AE
:102108002C321268120AD2B22248825C1202514062
:102118003A692C321268120CD2B21E48825C120440
:1021280051403A692C321268120E1A48825C120623
:102138004A401A603B6934333A69143211683A6983
:10214800303212684A401A603B6938333A691832AB
:1021580011683A69343212684A401A603B693C3364
:102168003A691C3211683A69383212684A401A6072
:102178007B6901337B613B6920333B617B69062BBB
:102188007FF668AF00BF002318461837BD4680BDEC
:10219800D4260020D404002080B48FB000AFF860AB
:1021A800B9607A60FB685B683B63BB681B781A465A
:1021B800BB6801331B781B021A43BB6802331B78C8
:1021C8001B041A43BB6803331B781B061343FB62CB
:1021D8003B6B1A1D3A631B68FA6A5340FB62BB6883
:1021E80004331B781A46BB6805331B781B021A4355
:1021F800BB6806331B781B041A43BB6807331B787C
:102208001B061343BB623B6B1A1D3A631B68BA6A11
:102218005340BB62BB6808331B781A46BB68093356
:102228001B781B021A43BB680A331B781B041A432A
:10223800BB680B331B781B0613437B623B6B1A1D71
:102248003A631B687A6A53407B62BB680C331B781D
:102258001A46BB680D331B781B021A43BB680E3342
:102268001B781B041A43BB680F331B781B061343E8
:102278003B623B6B1A1D3A631B683A6A53403B62E8
:10228800FB681B685B10013B7B63FAE03B6B1A1D24
:102298003A631A68FB6ADBB2AC4951F823305A40FA
:1022A800BB6A1B0ADBB2AA4951F823305A407B6A41
:1022B8001B0CDBB2A74951F823305A403B6A1B0E6E
:1022C800A54951F823305340FB613B6B1A1D3A6313
:1022D8001A68BB6ADBB29D4951F823305A407B6AC1
:1022E8001B0ADBB29A4951F823305A403B6A1B0C4F
:1022F800DBB2984951F823305A40FB6A1B0E9649C5
:1023080051F823305340BB613B6B1A1D3A631A687E
:102318007B6ADBB28D4951F823305A403B6A1B0A6D
:10232800DBB28B4951F823305A40FB6A1B0CDBB2F5
:10233800884951F823305A40BB6A1B0E864951F828
:10234800233053407B613B6B1A1D3A631A683B6A22
:10235800DBB27E4951F823305A40FB6A1B0ADBB2D4
:102368007B4951F823305A40BB6A1B0CDBB27949D0
:1023780051F823305A407B6A1B0E774951F82330B5
:1023880053403B613B6B1A1D3A631A68FB69DBB229
:102398006E4951F823305A40BB691B0ADBB26C49BD
:1023A80051F823305A407B691B0CDBB2694951F85C
:1023B80023305A403B691B0E674951F8233053407C
:1023C800FB623B6B1A1D3A631A68BB69DBB25F4953
:1023D80051F823305A407B691B0ADBB25C4951F83B
:1023E80023305A403B691B0CDBB25A4951F8233061
:1023F8005A40FB691B0E584951F823305340BB62C1
:102408003B6B1A1D3A631A687B69DBB24F4951F876
:1024180023305A403B691B0ADBB24D4951F823303F
:102428005A40FB691B0CDBB24A4951F823305A4029
:10243800BB691B0E484951F8233053407B623B6B04
:102448001A1D3A631A683B69DBB2404951F82330D8
:102458005A40FB691B0ADBB23D4951F823305A4008
:10246800BB691B0CDBB23B4951F823305A407B69EE
:102478001B0E394951F8233053403B627B6B013BBB
:102488007B637B6B002B3FF701AF3B6B1A1D3A63F5
:102498001A68FB6ADBB22D4951F823305A40BB6AEF
:1024A8001B0ADBB22A4951F823305A407B6A1B0CBD
:1024B800DBB2284951F823305A403B6A1B0E2649A3
:1024C80051F823305340FB613B6B1A1D3A631A687D
:1024D800BB6ADBB21D4951F823305A407B6A1B0A9C
:1024E800DBB21B4951F823305A403B6A1B0CDBB264
:1024F800184951F823305A40FB6A1B0E164951F807
:1025080023305340BB613B6B1A1D3A631A687B6AE0
:10251800DBB20E4951F823305A403B6A1B0ADBB242
:102528000B4951F823305A40FB6A1B0CDBB20949AE
:1025380051F823305A40BB6A1B0E074951F8233023
:1025480053407B613B6B1A1D08E000BFD405002097
:10255800D4090020D40D0020D41100203A631A6851
:102568003B6ADBB2784951F823305A40FB6A1B0AB0
:10257800DBB2764951F823305A40BB6A1B0CDBB2F8
:10258800734951F823305A407B6A1B0E714951F840
:10259800233053403B613B6B1A1D3A631B68FA6951
:1025A800D2B26D498A5C5A40BB691B0ADBB26A49E0
:1025B800CB5C1B025A407B691B0CDBB26649CB5CC7
:1025C8001B045A403B691B0E6349CB5C1B065340F6
:1025D800FB623B6B1A1D3A631B68BA69D2B25E494B
:1025E8008A5C5A407B691B0ADBB25B49CB5C1B02E5
:1025F8005A403B691B0CDBB25749CB5C1B045A4061
:10260800FB691B0E5449CB5C1B065340BB623B6BFA
:102618001A1D3A631B687A69D2B24F498A5C5A40DC
:102628003B691B0ADBB24C49CB5C1B025A40FB6975
:102638001B0CDBB24849CB5C1B045A40BB691B0E20
:102648004549CB5C1B0653407B623B6B1A1D3A63C2
:102658001B683A69D2B240498A5C5A40FB691B0A36
:10266800DBB23D49CB5C1B025A40BB691B0CDBB299
:102678003949CB5C1B045A407B691B0E3649CB5C3D
:102688001B0653403B62FB6ADAB27B681A707B68B0
:102698000133FA6A120AD2B21A707B680233FA6AF4
:1026A800120CD2B21A707B680333FA6A120ED2B2D5
:1026B8001A707B680433BA6AD2B21A707B68053321
:1026C800BA6A120AD2B21A707B680633BA6A120C56
:1026D800D2B21A707B680733BA6A120ED2B21A7075
:1026E8007B6808337A6AD2B21A707B6809337A6ACF
:1026F800120AD2B21A707B680A337A6A120CD2B202
:102708001A707B680B337A6A120ED2B21A707B6821
:102718000C333A6AD2B21A707B680D333A6A120ADD
:10272800D2B21A707B680E333A6A120CD2B21A709F
:102738007B680F333A6A120ED2B21A700023184619
:102748003C37BD4680BC7047D4050020D409002022
:10275800D40D0020D4110020D404002080B48FB000
:1027680000AFF860B9607A60FB685B683B63BB6880
:102778001B781A46BB6801331B781B021A43BB68D7
:1027880002331B781B041A43BB6803331B781B06F0
:102798001343FB623B6B1A1D3A631B68FA6A53408A
:1027A800FB62BB6804331B781A46BB6805331B7889
:1027B8001B021A43BB6806331B781B041A43BB6809
:1027C80007331B781B061343BB623B6B1A1D3A6326
:1027D8001B68BA6A5340BB62BB6808331B781A4649
:1027E800BB6809331B781B021A43BB680A331B7882
:1027F8001B041A43BB680B331B781B0613437B620D
:102808003B6B1A1D3A631B687A6A53407B62BB684C
:102818000C331B781A46BB680D331B781B021A430E
:10282800BB680E331B781B041A43BB680F331B7835
:102838001B0613433B623B6B1A1D3A631B683A6ADB
:1028480053403B62FB681B685B10013B7B63FAE00B
:102858003B6B1A1D3A631A68FB6ADBB2AC4951F844
:1028680023305A403B6A1B0ADBB2AA4951F823308D
:102878005A407B6A1B0CDBB2A74951F823305A40F7
:10288800BB6A1B0EA54951F823305340FB613B6BD3
:102898001A1D3A631A68BB6ADBB29D4951F82330A6
:1028A8005A40FB6A1B0ADBB29A4951F823305A4056
:1028B8003B6A1B0CDBB2984951F823305A407B6ABB
:1028C8001B0E964951F823305340BB613B6B1A1DD0
:1028D8003A631A687B6ADBB28D4951F823305A4053
:1028E800BB6A1B0ADBB28B4951F823305A40FB6A9A
:1028F8001B0CDBB2884951F823305A403B6A1B0E47
:10290800864951F8233053407B613B6B1A1D3A636B
:102918001A683B6ADBB27E4951F823305A407B6A19
:102928001B0ADBB27B4951F823305A40BB6A1B0CA7
:10293800DBB2794951F823305A40FB6A1B0E7749BC
:1029480051F8233053403B613B6B1A1D3A631A68B8
:10295800FB69DBB26E4951F823305A403B691B0AC8
:10296800DBB26C4951F823305A407B691B0CDBB24F
:10297800694951F823305A40BB691B0E674951F821
:1029880023305340FB623B6B1A1D3A631A68BB69DC
:10299800DBB25F4951F823305A40FB691B0ADBB2AE
:1029A8005C4951F823305A403B691B0CDBB25A4949
:1029B80051F823305A407B691B0E584951F823308F
:1029C8005340BB623B6B1A1D3A631A687B69DBB2E2
:1029D8004F4951F823305A40BB691B0ADBB24D49B5
:1029E80051F823305A40FB691B0CDBB24A4951F8B5
:1029F80023305A403B691B0E484951F82330534055
:102A08007B623B6B1A1D3A631A683B69DBB240492B
:102A180051F823305A407B691B0ADBB23D4951F813
:102A280023305A40BB691B0CDBB23B4951F82330B9
:102A38005A40FB691B0E394951F8233053403B6219
:102A48007B6B013B7B637B6B002B3FF701AF3B6BE1
:102A58001A1D3A631A68FB6ADBB22D4951F8233014
:102A68005A403B6A1B0ADBB22A4951F823305A40C4
:102A78007B6A1B0CDBB2284951F823305A40BB6AE9
:102A88001B0E264951F823305340FB613B6B1A1D3E
:102A98003A631A68BB6ADBB21D4951F823305A40C1
:102AA800FB6A1B0ADBB21B4951F823305A403B6AC8
:102AB8001B0CDBB2184951F823305A407B6A1B0EB5
:102AC800164951F823305340BB613B6B1A1D3A63DA
:102AD8001A687B6ADBB20E4951F823305A40BB6A48
:102AE8001B0ADBB20B4951F823305A40FB6A1B0C16
:102AF800DBB2094951F823305A403B6A1B0E07499B
:102B080051F8233053407B613B6B1A1D08E000BF2E
:102B1800D4160020D41A0020D41E0020D42200206D
:102B28003A631A683B6ADBB2784951F823305A4055
:102B38007B6A1B0ADBB2764951F823305A40BB6ADC
:102B48001B0CDBB2734951F823305A40FB6A1B0E49
:102B5800714951F8233053403B613B6B1A1D3A636E
:102B68001B68FA69D2B26D498A5C5A403B691B0AF4
:102B7800DBB26A49CB5C1B025A407B691B0CDBB297
:102B88006649CB5C1B045A40BB691B0E6349CB5C8E
:102B98001B065340FB623B6B1A1D3A631B68BA69FC
:102BA800D2B25E498A5C5A40FB691B0ADBB25B49B8
:102BB800CB5C1B025A403B691B0CDBB25749CB5C10
:102BC8001B045A407B691B0E5449CB5C1B065340BF
:102BD800BB623B6B1A1D3A631B687A69D2B24F49D4
:102BE8008A5C5A40BB691B0ADBB24C49CB5C1B02AE
:102BF8005A40FB691B0CDBB24849CB5C1B045A40AA
:102C08003B691B0E4549CB5C1B0653407B623B6B03
:102C18001A1D3A631B683A69D2B240498A5C5A4025
:102C28007B691B0ADBB23D49CB5C1B025A40BB697E
:102C38001B0CDBB23949CB5C1B045A40FB691B0EE9
:102C48003649CB5C1B0653403B62FB6ADAB27B68B1
:102C58001A707B680133FA6A120AD2B21A707B685A
:102C68000233FA6A120CD2B21A707B680333FA6A1A
:102C7800120ED2B21A707B680433BA6AD2B21A70D2
:102C88007B680533BA6A120AD2B21A707B680633B7
:102C9800BA6A120CD2B21A707B680733BA6A120E7B
:102CA800D2B21A707B6808337A6AD2B21A707B681B
:102CB80009337A6A120AD2B21A707B680A337A6ABE
:102CC800120CD2B21A707B680B337A6A120ED2B227
:102CD8001A707B680C333A6AD2B21A707B680D336B
:102CE8003A6A120AD2B21A707B680E333A6A120C28
:102CF800D2B21A707B680F333A6A120ED2B21A70C7
:102D0800002318463C37BD4680BC7047D4160020C7
:102D1800D41A0020D41E0020D4220020D41500206C
:102D280080B584B000AFF860B9607A603B60BB687A
:102D3800012B06D13A687968F868FFF72DFA03463F
:102D480005E03A687968F868FFF708FD0346184611
:102D58001037BD4680BD00BF002103E00B4B5B5818
:102D6800435004310A480B4B42189A42F6D30A4A98
:102D780002E0002313600432084B9A42F9D3AFF300
:102D8800008000F00FF8FDF755FAFEE7BC2F0008A9
:102D980000000020380400203804002058280020B3
:102DA800FEE7000070B50F4E0F4D761BB61018BF2A
:102DB800002405D0013455F8043B9847A642F9D1C0
:102DC8000A4E0B4D00F0DAF8761BB61018BF002437
:102DD80006D0013455F8043B9847A642F9D170BD96
:102DE80070BD00BFB02F0008B02F0008B82F000832
:102DF800B02F000870B4840746D0541E002A41D072
:102E0800CDB2034602E0621EE4B3144603F8015B48
:102E18009A07F8D1032C2ED9CDB245EA05250F2CF7
:102E280045EA054519D9264603F11002103E0F2E32
:102E380042F8105C42F80C5C42F8085C42F8045C0A
:102E480002F11002F2D8A4F1100222F00F0204F0ED
:102E58000F041032032C13440DD91E462246043A9F
:102E6800032A46F8045BFAD8221F22F00302043230
:102E7800134404F003042CB1C9B21C4403F8011B29
:102E8800A342FBD170BC704714460346C2E700BF9B
:102E9800024B13B1024800F005B87047000000006B
:102EA800B92E0008002301461A46184600F014B847
:102EB80038B5074D074C2C1BA41005D0013C55F81C
:102EC800043D9847002CF9D1BDE8384000F05CB8C3
:102ED800BC2F0008B82F00082DE9F047254C0646FE
:102EE80025688846D5F8484192469946C4B3606833
:102EF8001F2817DC411C76B104EB8003C3F888A0B7
:102F0800D4F88851012282401543022EC4F8885112
:102F1800C3F808911ED0831C6160002044F8238008
:102F2800BDE8F087144B03B34FF4C870AFF30080CB
:102F38000446D0B1D5F84831002784E888003846DF
:102F4800C5F848410121C4F88871C4F88C71002E75
:102F5800E1D0D1E7D4F88C311A43C4F88C21DAE7F0
:102F680005F5A674C5F84841C1E74FF0FF30BDE844
:102F7800F08700BFAC2F000800000000F8B500BFC4
:102F8800F8BC08BC9E467047F8B500BFF8BC08BC42
:042F98009E4670479A
:102F9C002B7E151628AED2A6ABF7158809CF4F3C61
:042FAC0010000020F1
:082FB000992E0008AD01000894
:042FB8008901000883
:102FBC003031323334353637383941424344454663
:102FCC0000000000FC02002064030020CC03002061
:102FDC0000000000000000000000000000000000E5
:102FEC0000000000000000000000000000000000D5
:102FFC0000000000000000000000000000000000C5
:10300C0000000000000000000000000000000000B4
:10301C0000000000000000000000000000000000A4
:10302C000000000000000000000000000000000094
:10303C000000000000000000000000000000000084
:10304C000000000000000000000000000000000074
:10305C000000000000000000000000000000000064
:10306C000000000000000000010000000000000053
:10307C000E33CDAB34126DE6ECDE05000B00000018
:10308C000000000000000000000000000000000034
:10309C000000000000000000000000000000000024
:1030AC000000000000000000000000000000000014
:1030BC000000000000000000000000000000000004
:0400000508002D6161
:00000001FF
