:020000040800F2
:1000000000300020CD1A0008151B0008151B000841
:10001000151B0008151B0008151B00080000000038
:10002000000000000000000000000000151B000898
:10003000151B000800000000151B0008151B000818
:1000400000000000000000000000000000000000B0
:1000500000000000000000000000000000000000A0
:100060000000000000000000000000000000000090
:100070000000000000000000000000000000000080
:100080000000000000000000000000000000000070
:100090000000000000000000000000000000000060
:1000A0000000000000000000000000000000000050
:1000B0000000000000000000000000000000000040
:1000C0000000000000000000000000000000000030
:1000D0000000000000000000000000000000000020
:1000E0000000000000000000000000000000000010
:1000F0000000000000000000000000000000000000
:1001000000000000000000000000000000000000EF
:1001100000000000000000000000000000000000DF
:1001200000000000000000000000000000000000CF
:1001300000000000000000000000000000000000BF
:1001400000000000000000000000000000000000AF
:10015000000000000000000000000000000000009F
:10016000000000000000000000000000000000008F
:10017000000000000000000000000000000000007F
:08018000000000000000000077
:1001880010B5054C237833B9044B13B10448AFF3C9
:1001980000800123237010BD280400200000000007
:1001A800F01C0008084B10B51BB108490848AFF30C
:1001B80000800848036803B910BD074B002BFBD02B
:1001C800BDE81040184700BF000000002C040020C4
:1001D800F01C0008280400200000000000207047E0
:1001E80008B500F0F9FD002008BD10B5044600F080
:1001F80093F9204600F0F8FD00F096F92246102108
:10020800722000F0A7F8002010BD00007FB56A46F4
:100218006D461E4B03F110061446186859680833DA
:1002280003C4B3422246F7D100F0FAF800F012F9FD
:1002380000F04CF900F0CAFD284600F0CDFD68201A
:1002480000F08AF9652000F087F96C2000F084F945
:100258006C2000F081F96F2000F07EF90A2000F090
:100268007BF900F06FF80A4A10216B2000F054F86F
:10027800084A1021702000F04FF8074A0021782022
:1002880000F04AF800F088F8FCE700BF081D0008F5
:10029800E9010008F3010008E501000800207047A3
:1002A800134670B501319C1AA04232DD0D7811F861
:1002B800014CA5F13006F6B2092E01D81E700DE0EA
:1002C800A5F14106052E01D8373D06E0A5F16106E6
:1002D800052E01D9012070BD573D1D70A4F13005D0
:1002E800EEB2092E03D81C7844EA05140DE0A4F1F7
:1002F8004105052D01D8373C04E0A4F16105052D21
:10030800E8D8573C1D7845EA04141C7002310133C3
:10031800C9E7002070BD000030B5094D2B680A2BD5
:100328000BDC402909D80C2404FB03540133207149
:10033800A160E2602B60002030BD012030BD00BF0D
:1003480044040020024A00217620FFF7E5BF00BFE1
:10035800A50200082DE9F04115460F462C4600F08D
:10036800FBF80C4E631B9F420EDDA04614F8013BC0
:100378001B09F05C00F0F0F898F8003003F00F0368
:10038800F05C00F0E9F8EDE70A20BDE8F04100F084
:10039800E3B800BF181D0008F0B5204DB3B000F059
:1003A800CBF82B6800242A1D0C219C420BDA01FB98
:1003B80004F6B65C864204D10C27002607FB0457D6
:1003C8000CE00134F1E726D0F6E700F0B5F80A288A
:1003D80021D00D281FD012ABF0540136BB68B6EB04
:1003E800430FF2D300F0A8F80A2801D00D2812D143
:1003F8000C2303FB045402AA12A9A068FFF750FFBC
:1004080048B9E36802A8984732AA02F8C40D012146
:100418007A20FFF79FFF33B0F0BD00BF44040020EF
:1004280030B593B000240323052506A80693079545
:1004380009940D9400F0D0F80F2301932946012365
:1004480001A8029303940494059400F029FA13B0C8
:1004580030BD000030B54FF4C06389B00393022368
:100468000025164C04930693012207230195059253
:100478000793236B03A913432363236B104813408B
:100488000193019B00F094FA0E480F4A4FF416436B
:1004980080E80C000C2302958560C56005618561C4
:1004A8004361636C43F010036364636C03F01003EF
:1004B8000293029B00F066FB09B030BD0038024091
:1004C80000000240F02600200010014070B5104BDB
:1004D80086B0002400941A6B0E4D42F001021A6394
:1004E8001B6B4FF4805603F001030093009B01231C
:1004F800029301A90223284604930196039400F06D
:1005080057FA22463146284600F038FB06B070BD3F
:10051800003802400000024001224FF48051014897
:1005280000F02CBB0000024000224FF4805101482B
:1005380000F024BB0000024007B541F288330122D5
:100548000DF10701034800F0E9FB9DF8070003B02F
:100558005DF804FBF026002007B502A901F8010D9B
:1005680041F288330122034800F082FB03B05DF8B2
:1005780004FB00BFF0260020024B1868421C1A60DA
:10058800704700BFC004002070B5044616461D46DB
:100598002068036831EA03031BD06B1CF9D095B9B6
:1005A80023680320DA6822F4D072DA605A6922F0EC
:1005B80001025A61202384F8393084F83A30002344
:1005C80084F8383070BDFFF7D7FF801B8542DFD233
:1005D800E6E7002070BD00000368F7B5DC070146B8
:1005E80003D40B68980737D487E0A64B9A6802F0C3
:1005F8000C02042A07D09A6802F00C02082A0BD1D0
:100608005B685A0208D59F4B1B689B03E9D54B686A
:10061800002BE6D1012033E19B4B0A791A704B6815
:100628006BB1FFF7A9FF0546964C23689F03D8D402
:10063800FFF7A2FF401B6428F7D9032020E1FFF74A
:100648009BFF05468F4C23689E03CAD5FFF794FF8E
:10065800401B6428F7D9F0E78A4B9A6812F00C0F10
:1006680007D09A6802F00C02082A17D15B685D026D
:1006780014D4844B1A68940702D5CA68012AC9D1D0
:100688001A68F82090FAA0F0B0FA80F00C6922F00D
:10069800F80204FA00F002431A602EE0CA687B4BA5
:1006A800EAB101221A60FFF767FF0646754D2B680D
:1006B800744C980705D4FFF75FFF801B0228F6D912
:1006C800BBE72368F82292FAA2F2B2FA82F208692A
:1006D80023F0F80300FA02F2134323600DE01A60D6
:1006E800FFF74AFF0546674C23689A0705D5FFF7C9
:1006F80043FF401B0228F7D99FE70B681B0703D469
:100708000B685F0745D51FE04A69614B72B101224A
:100718001A60FFF731FF05465A4C636F9E07EFD406
:10072800FFF72AFF401B0228F7D986E71A60FFF770
:1007380023FF0546534C636F9807E1D5FFF71CFF6D
:10074800401B0228F7D978E7002301934D4B514C01
:100758001A6C42F080521A641B6C03F080530193A8
:10076800019B236843F480732360FFF705FF054668
:100778002368DA0510D5484B0A7A1A708B68BBB122
:10078800FFF7FAFE41F2883605463E4C236F9B0779
:1007980008D58A69DAB959E0FFF7EEFE401B02284E
:1007A800E6D94AE7FFF7E8FE401BB042EED944E736
:1007B800FFF7E2FE41F288360546324C236F9F0769
:1007C800E7D5FFF7D9FE401BB042F7D935E72D4CE6
:1007D800A36803F00C03082B3FF41CAF2F4D002334
:1007E800022A2B6040D1FFF7C7FE07462368254E33
:1007F80098012DD447F6C07292FAA2F24FF4403312
:10080800B2FA82FE93FAA3F34FF07062B3FA83F759
:1008180092FAA2F2B2FA82F0CC690B6A4A6A2343CE
:1008280002FA0EF243EA02048B6A5A08013A02FA03
:1008380007F3CA6A234382401343736001232B6082
:10084800FFF79AFE014633689A0107D5002017E0A2
:10085800FFF792FEC01B6428C8D9EEE6FFF78CFEAE
:10086800401A6428EFD9E8E6FFF786FE01462368B8
:100878009B01EBD5FFF780FE401A6428F7D9DCE628
:1008880003B0F0BD00380240023802400000474281
:10089800800E4742007000407038024060004742B6
:1008A800F8B5414B04461A6802F00F028A420AD38F
:1008B8002068850710D53D4DAB6823F0F002A3688A
:1008C8001343AB6008E0CAB21A701B6803F00F0349
:1008D8009942EDD00120F8BDC20706D4324B1A6800
:1008E80002F00F02914241D347E062682F4B012A80
:1008F800186802D110F4003F06E0022A02D110F075
:10090800007F01E010F0020FE4D09868274E20F035
:10091800030002439A60FFF72FFE63680546012B28
:1009280041F288370BD1B36803F00C03042BD5D000
:10093800FFF722FE401BB842F5D90320F8BD022B71
:100948000FD1B36803F00C03082BC7D0FFF714FED0
:10095800401BB842F5D9F0E7FFF70EFE401BB8423E
:10096800EBD8B36813F00C0FF6D1B7E7CAB21A7018
:100978001B6803F00F039942ACD12068430706D5E2
:100988000A498B6823F4E052E36813438B6010F044
:10099800080008D0054A21699368002023F46043C1
:1009A80043EAC1039360F8BD003C024000380240AE
:1009B8002DE9F04F6D4F0B68BE4685B0DFF8B4C126
:1009C800DFF8B481019300220124019B944034EAAA
:1009D800030340F0C3804D6825F0100ABAF1020FF6
:1009E80014D14FEAD20900EB890902F0070BD9F8B4
:1009F80020604FEA8B0B0F2303FA0BF326EA03065A
:100A08000B6903FA0BF33343C9F820304FEA420B62
:100A18004FF0030909FA0BF96FEA0909036805F0B1
:100A2800030603EA090306FA0BF60AF1FF3A334311
:100A3800BAF1010F03600FD88368CE6809EA03038F
:100A480006FA0BF61E4386604368C5F3001623EAD0
:100A58000403964033434360C36809EA03098B687B
:100A680003FA0BF343EA0903C360EB0076D50023CE
:100A78000393DCF8446022F0030946F48046CCF87E
:100A88004460DCF8446009F1804906F48046039626
:100A980009F59C3902F0030A354B039E4FEA8A0A8E
:100AA800D9F808B00F2606FA0AF698422BEA060685
:100AB80020D003F5806398421ED003F580639842E6
:100AC8001CD003F5806398421AD003F580639842DE
:100AD80018D0404518D003F50063984216D003F5A6
:100AE8008063984214D003F58063984214BF0923A9
:100AF80008230EE000230CE001230AE0022308E0AB
:100B0800032306E0042304E0052302E0062300E0B3
:100B1800072303FA0AF33343E643C9F808303B686E
:100B280015F4803F0CBF33402343CEF80030DEF885
:100B3800043015F4003F0CBF334023437B60BB688F
:100B480015F4801F0CBF33402343CEF80830DEF87D
:100B58000C30AD0254BF33402343FB600132102AEE
:100B68007FF432AF05B0BDE8F08F00BF003C014014
:100B780000000240003802400014024002B9090493
:100B88008161704730B500286ED090F8393003F095
:100B9800FF020BB980F838200168242380F8393027
:100BA800CB68846823F40053CB600B69C56923F4D0
:100BB8004052C368B5F5004F43EA020302690B616E
:100BC800CB6844EA0204426923F4164342EA040269
:100BD80042EA050223F00C0343EA0203CB604B69A7
:100BE80023F44072836943EA02034B61426815D1DA
:100BF8001E4B5200B3FBF2F26424B2FBF4F504FB83
:100C08001522D2003232B2FBF4F303F007025B0084
:100C180002EB051203F4F87313440FE0134C92002F
:100C2800B4FBF2F26423B2FBF3F403FB14221201C7
:100C38003232B2FBF3F3DBB203EB04138B600B69C4
:100C4800202223F490430B614B6923F02A034B6164
:100C5800CB6843F40053CB600023C36380F839208A
:100C680080F83A20184630BD012030BD0080FC0ACB
:100C7800F8B51F4690F839300D46202B044611462A
:100C88004AD1002D46D0002A44D090F83830012BA4
:100C980042D0012380F838300023C363212380F831
:100CA8003930FFF769FC0646A184E184E38C9BB2E6
:100CB80013B3E38C3246013B9BB2E384A3688021E3
:100CC800B3F5805F20463B460DD1FFF75DFC08B1C8
:100CD8000320F8BD2B882268C3F3080353602369F7
:100CE80043B90235E2E7FFF74FFC0028F0D123684B
:100CF8002A785A600135D9E73B46324640212046DA
:100D0800FFF742FC0028E3D1202384F8393084F827
:100D18003800F8BD0120F8BD0220F8BDF8B51F461F
:100D280090F83A300D46202B044611464BD1002D41
:100D380047D0002A45D090F83830012B43D0012302
:100D480080F838300023C363222380F83A30FFF755
:100D580013FC0646A185E185E08D80B258B3E38D8A
:100D68003246013B9BB2E385A3682021B3F5805F3F
:100D780020463B4611D1FFF707FC08B10320F8BD18
:100D8800236822695B6822B9C3F3080325F8023B8C
:100D9800E2E7DBB225F8013BDEE7FFF7F5FB0028C9
:100DA800ECD1236821696A1C5B6809B103F07F03F1
:100DB8002B701546D0E7202384F83A3084F83800A1
:100DC800F8BD0120F8BD0220F8BD0000014800F080
:100DD80001B900BF3027002001468022014800F0F9
:100DE800FFB800BF30270020034602460121014812
:100DF80000F05CBE302700202DE9F04FADF60C0D59
:100E0800012300220DF5816002A941F8223013F078
:100E1800800140F8232018BF1B2183EA43030132D5
:100E28004B40B2F5807FDBB2EED1664C0123002245
:100E380013F0800144F8223018BF1B21013281EAE7
:100E480043030A2A5F4DDBB2F2D1632385F82830C9
:100E5800002385F88B31012405F1280650F8243049
:100E680002AAC3F1FF0352F823E04FEAEE1747EA5C
:100E78004E07FFB2F91141EA4701C9B2CA1142EA65
:100E88004102D2B28EF0630ED3118EEA070743EA0D
:100E9800420379404A40DBB25340A3552B4483F8C0
:100EA80028410134B4F5807FD8D1474E836BD0F800
:100EB80024E0D0F834C0D0F82C800193002206F545
:100EC800007906F5807A0DF58167FF24935D13F0AC
:100ED800800F14BF1B21002181EA43011804C9B205
:100EE80040EA032048404B4040EA0363374949F849
:100EF80022304FEA336341F8223001F580654FEA2A
:100F0800336345F8223001F500614FEA336341F855
:100F180022301AF802309000C3B157F82310019D0F
:100F28000D4495FBF4FBCBEB0B2BCBEB050B714482
:100F380002AD55F82B5091FBF4FBCBEB0B2BCBEB15
:100F4800010B02A951F82B10090201E01D461946B0
:100F58004D4073B157F82310614491FBF4FBCBEB80
:100F68000B2BCBEB01010DF1080B5BF821100904E9
:100F780000E019464D405BB157F82330434493FBDA
:100F8800F4F1C1EB0121591A02AB53F821301B06C9
:100F98000F496B40435001F580614FEA336343507A
:100FA80001F580654FEA33630132435101F5006171
:100FB8004FEA3363B2F5807F435087D10DF60C0DAD
:100FC800BDE8F08FC4040020EC040020EC0A0020E7
:100FD800EC1600204FF48C72002100F0C1BD000017
:100FE800F8B5874E0446B36B0F4615461BB9FFF795
:100FF80003FF0123B363C02D07D0B5F5807F06D06A
:10100800802D40F0F8800A2302E00C2300E00E2334
:10101800236004F1080363606D090022AA4210D01E
:1010280007EB820188784E78000440EA062017F81A
:101038002260C978304340EA016043F82200013257
:10104800ECE722680C2A38D00E2A75D00A2A40F01C
:10105800D5806C4D0026DC6855F826101A680136D4
:101068005140C4F307222A4492F8280005EB146281
:1010780092F82820414081EA0241E2B22A4492F8DB
:1010880028200A2E81EA0261C4F307422A4492F812
:10109800282003F1100381EA022253F80C1C1A607D
:1010A80082EA010253F8081C5A6082EA01029A6037
:1010B80082EA0402DA60CED1A0E0524C002554F84E
:1010C800251058691A6801354A40C0F307212144A0
:1010D80091F82810082D82EA010204EB106191F8BA
:1010E800281003F1180382EA0142C1B2214491F8A1
:1010F800281082EA0162C0F30741214491F82810C0
:1011080082EA012253F8141C1A6082EA010253F899
:10111800101C5A6082EA010253F80C1C9A6082EA99
:10112800010253F8081CDA6082EA01021A6182EAB5
:1011380000025A61C3D161E03248002550F82510F9
:10114800DC691A689E685140C4F30722024492F889
:1011580028200135514000EB146292F82820072D11
:1011680081EA0241E2B2024492F8282003F1200306
:1011780081EA0261C4F30742024492F8282081EA16
:10118800022153F81C2C196081EA020153F8142C2F
:10119800596081EA060182EA01029960D1B2DA60F7
:1011A800014491F8286053F8101C81EA060100EB0D
:1011B800126696F8286081EA0661C2F3072606449B
:1011C800C2F3074296F82860024492F8282081EA80
:1011D800062181EA024253F80C1C1A6182EA0102D4
:1011E80053F8081C5A6182EA01029A6182EA0402F1
:1011F800DA61A3D102E06FF01F00F8BD0020F8BD4E
:10120800B4260020C40400202DE9F04743680F6885
:101218001C684D6867405C688E686C409D687540C6
:10122800CE68D9684E40016818464FEA610850F800
:1012380010AF844908F1FF38B8F1000F8646814B9A
:1012480000F120005FFA87F940F3FE804FEA166C40
:1012580001EB890901EB8C0CDCF8283ED9F828E26F
:101268004FEA17698EEA030E50F8203C01EB890912
:101278008EEA030EC4F3072301EB8303D3F8283661
:101288004FEA146A8EEA0303C5F3074E01EB8E0E8C
:10129800DEF828EA01EB8A0A83EA0E0EE3B201EBD4
:1012A8008303D3F828C2D9F8283EC4F307448CEA4C
:1012B800030C50F81C3C01EB84048CEA030CC5F3C6
:1012C800072301EB8303D3F8283608F1FF388CEAAB
:1012D8000303C6F3074C01EB8C0CDCF828CA83EA3D
:1012E8000C0CEBB201EB8303D3F82892DAF8283E12
:1012F8002D0E89EA030950F8183C4FEA1C6A89EA5E
:101308000309C6F3072301EB8303D3F82836F6B2A3
:1013180089EA0303C7F3074901EB8909D9F8289A31
:1013280001EB860683EA090301EB8509D9F8285EF3
:10133800D6F82862C7F307276E4001EB870750F8F5
:10134800145CD7F828767540D4F8286A7D406E403A
:101358005FFA8EF4350E01EB840401EB8505D4F8B1
:101368002872D5F8284ECCF30725674001EB850590
:1013780050F8104CD5F828567C406C40C3F307450C
:1013880001EB8505D5F8287A4FEA1E6967405FFAB0
:101398008CF401EB840401EB8909D4F82852D9F8BC
:1013A800284E01EB8A0A654050F80C4CCCF3074CE8
:1013B8006C40C3F3072501EB8505D5F8285601EBEA
:1013C8008C0C6C40C6F3074501EB8505D5F8285A07
:1013D8006C40DDB201EB8505D5F82892DAF8285E75
:1013E8001B0E89EA050950F8085C01EB830389EABA
:1013F8000509C6F30725F6B201EB850501EB86065C
:10140800D6F82862D5F82856D3F8283E89EA050583
:101418007340CEF3074950F8046CCEF3072E01EB66
:101428008E0E5E40DEF8283601EB89095E40D9F859
:10143800289ADCF8283A85EA09055E40D0F800A029
:10144800FAE600BFC4040020310E03EB890903EB60
:101458008101D9F82802D1F8281E4FEA176880EAD6
:10146800010CC4F3072103EB8101D1F828168CEA9B
:101478000A0A8AEA010AC5F3074103EB8101D1F898
:10148800281A03EB88088AEA010CE1B203EB810110
:10149800D1F82802D8F8281E4FEA14694840DEF827
:1014A800041003EB89094140C5F3072003EB8000D2
:1014B800D0F82806C4F307444140C6F3074003EBBD
:1014C8008000D0F8280A03EB84044140E8B203EB1B
:1014D8008000D0F82882D9F8280E2D0E88EA000856
:1014E800DEF8080003EB850588EA0008C6F3072044
:1014F800F6B203EB800003EB8606D5F8285ED0F839
:101508002806D6F8286288EA00006E40C7F3074824
:10151800DEF80C50C7F3072703EB87077540D7F8A9
:101528002866D4F8284A754065405FFA8CF41C4454
:1015380094F8287003EB8808DEF8104003EB156672
:10154800D8F8288A7C4096F82870C1F3072680EAE4
:1015580008001E4484EA076496F82870C0F307461A
:101568001E4484EA072496F8287084EA0747CCB218
:101578001C4494F82860DEF81440744003EB1C66A1
:1015880096F8286084EA0664C0F307261E4496F895
:10159800286084EA0624C5F307461E4496F82860A6
:1015A80084EA0646C4B21C4494F82880DEF8184041
:1015B80003EB106088EA040403EB116898F82880AC
:1015C800C1F3074184EA0864C5F30728984498F8EA
:1015D8002880EDB284EA0824CCF30748984498F8A8
:1015E80028801D4484EA084495F82880DEF81C50B9
:1015F80090F828001944CCF3072C88EA05059C4488
:1016080091F82830390A85EA00609CF82850517012
:10161800390C9170310A5171310C80EA05209171B1
:10162800210A80EA03435172210C9172190A17703A
:1016380016713F0E360E14721373240E5173190C63
:101648001B0ED770D671D4729173D3730020BDE886
:10165800F08700BF2DE9F04F43680D684E688F682A
:10166800D1F80C80D9681C6888EA010801686540CF
:101678004FEA610C19465C6851F8109F66409C68F7
:10168800874B7C400CF1FF3CBCF1000F0F468448AF
:1016980001F120015FFA85FE40F30481370E03EB68
:1016A800870703EB8E0ED7F8300DDEF830E1C8F36C
:1016B80007278EEA000E03EB870751F8200CD7F8AE
:1016C80030758EEA00007840C4F3074703EB8707BC
:1016D800D7F830794FEA146980EA070EF0B203EBC5
:1016E800800003EB8909D0F83071D9F8300D4FEA42
:1016F800186A474051F81C0C03EB8A0A7840C5F376
:10170800072703EB8707D7F830750CF1FF3C7840C3
:10171800C8F3074703EB8707D7F830795FFA88F8EB
:1017280080EA070BE7B203EB8707D7F83091DAF8BE
:10173800307D03EB880889EA070951F8187CD8F846
:10174800308189EA0709C6F3072703EB8707D7F82B
:101758003075C4F3072489EA0707C5F3074903EB83
:101768008909D9F830992D0E87EA090703EB85090D
:10177800D9F8305D03EB840488EA050851F8145C55
:10178800D4F83045C6F3074688EA050503EB860614
:101798006540D6F830494FEA1B6685EA04085FFAC7
:1017A8008EF403EB840403EB8606D4F83051D6F8A4
:1017B800304D4FEA1769654051F8104C03EB890921
:1017C8006C40C8F3072503EB8505D5F83065C7F3EA
:1017D800074503EB8505D5F83059744065405FFA35
:1017E8008BF403EB8404D4F83061D9F8304D4FEA18
:1017F800186A664051F80C4C03EB8A0A7440CEF321
:10180800072603EB8606D6F830657440C8F307460A
:1018180003EB8606D6F830695FFA88F86640FCB2B2
:1018280003EB8404D4F83091DAF8304D03EB8808E0
:1018380089EA040951F8084CD8F8308189EA040982
:10184800CBF3072403EB8404D4F8304551F8040C97
:1018580089EA0404CEF307494FEA1E6E03EB8E0EA5
:10186800DEF830EDC7F3072788EA0E0888EA000893
:1018780003EB8707CBF3074003EB8909D7F83075EB
:1018880003EB8000D9F83099D0F8300988EA0707C7
:1018980084EA090487EA0008D1F80090F4E600BF5A
:1018A800BC150020330E00EB8E0E00EB8303DEF830
:1018B8003011D3F8303D81EA030CC8F3072300EB5D
:1018C8008303D3F830358CEA090989EA0309C4F39C
:1018D800074300EB8303D3F83039210E89EA030C60
:1018E800F3B200EB830300EB8101D3F830E1D1F8C8
:1018F800303DC5F307218EEA030E00EB81017B68BA
:10190800D1F830158EEA03034B40C8F3074100EBCA
:101918008101D1F8301983EA010EE1B24FEA186368
:1019280000EB810100EB8303D1F83011D3F8303D8F
:101938005FFA88F881EA0309C6F30723B96800EB60
:101948008303D3F8303589EA01015940C5F30743C9
:1019580000EB8303D3F830392D0E00EB880800EB39
:10196800850581EA0309D8F83011D5F8303DC4F36C
:10197800072481EA030500EB8404FB68C6F30746E5
:10198800D4F8301500EB86006B40D0F830594B4046
:101998005D40454B5FFA8CF1194491F8284139694B
:1019A80003EB1E60614090F82841C5F307201844F6
:1019B80081EA046190F82841C9F30740184481EA94
:1019C800042190F8284181EA04445FFA8EF1194411
:1019D80091F828017969414003EB196090F82801D2
:1019E80081EA0061CCF30720184490F8280181EAC5
:1019F8000021C5F30740184490F8280181EA004007
:101A08005FFA89F1194491F82861B969C9F307297E
:101A1800714003EB156696F82861EDB281EA06611C
:101A2800CEF307261E4496F828611D4481EA062154
:101A3800CCF307461E4496F8286103EB1C6C81EA38
:101A4800064195F82861FD69994475409CF828611C
:101A5800CEF3074E85EA06659E4499F828619EF8FC
:101A6800283185EA062585EA0343250A147055704E
:101A7800250C240ED470040A10715471040C000E45
:101A8800D071080A11725072080C090ED172190A25
:101A980013735173190C1B0E907295709471917396
:101AA800D3730020BDE8F08FC404002010B414469E
:101AB80001291A46214602D110BCFFF7A5BB10BC6C
:101AC800FFF7C8BD002103E00B4B5B5843500431BE
:101AD8000A480B4B42189A42F6D30A4A02E00023FE
:101AE80013600432084B9A42F9D3AFF3008000F038
:101AF8000FF8FEF78BFBFEE7381D000800000020FA
:101B0800280400202804002048280020FEE70000C0
:101B180070B50F4E0F4D761BB61018BF002405D0B8
:101B2800013455F8043B9847A642F9D10A4E0B4DAB
:101B380000F0DAF8761BB61018BF002406D001347E
:101B480055F8043B9847A642F9D170BD70BD00BF57
:101B58002C1D00082C1D0008341D00082C1D000831
:101B680070B4840746D0541E002A41D0CDB2034633
:101B780002E0621EE4B3144603F8015B9A07F8D149
:101B8800032C2ED9CDB245EA05250F2C45EA05458B
:101B980019D9264603F11002103E0F2E42F8105CA8
:101BA80042F80C5C42F8085C42F8045C02F110024E
:101BB800F2D8A4F1100222F00F0204F00F04103240
:101BC800032C13440DD91E462246043A032A46F82C
:101BD800045BFAD8221F22F003020432134404F0F3
:101BE80003042CB1C9B21C4403F8011BA342FBD166
:101BF80070BC704714460346C2E700BF024B13B1DE
:101C0800024800F005B8704700000000251C0008D5
:101C1800002301461A46184600F014B838B5074D97
:101C2800074C2C1BA41005D0013C55F8043D9847DF
:101C3800002CF9D1BDE8384000F05CB8381D000828
:101C4800341D00082DE9F047254C064625688846CE
:101C5800D5F8484192469946C4B360681F2817DCF6
:101C6800411C76B104EB8003C3F888A0D4F88851EE
:101C7800012282401543022EC4F88851C3F8089106
:101C88001ED0831C6160002044F82380BDE8F087E3
:101C9800144B03B34FF4C870AFF300800446D0B1BF
:101CA800D5F84831002784E888003846C5F8484107
:101CB8000121C4F88871C4F88C71002EE1D0D1E7F5
:101CC800D4F88C311A43C4F88C21DAE705F5A674E8
:101CD800C5F84841C1E74FF0FF30BDE8F08700BFC5
:101CE800281D000800000000F8B500BFF8BC08BCBB
:101CF8009E467047F8B500BFF8BC08BC9E467047C2
:101D08002B7E151628AED2A6ABF7158809CF4F3C07
:101D18003031323334353637383941424344454619
:041D28000000002097
:081D2C00051C0008AD010008D0
:041D34008901000819
:101D380000000000EC02002054030020BC03002037
:101D4800000000000000000000000000000000008B
:101D5800000000000000000000000000000000007B
:101D6800000000000000000000000000000000006B
:101D7800000000000000000000000000000000005B
:101D8800000000000000000000000000000000004B
:101D9800000000000000000000000000000000003B
:101DA800000000000000000000000000000000002B
:101DB800000000000000000000000000000000001B
:101DC800000000000000000000000000000000000B
:101DD80000000000000000000100000000000000FA
:101DE8000E33CDAB34126DE6ECDE05000B000000BF
:101DF80000000000000000000000000000000000DB
:101E080000000000000000000000000000000000CA
:101E180000000000000000000000000000000000BA
:101E280000000000000000000000000000000000AA
:0400000508001ACD08
:00000001FF
