:020000040800F2
:1000000000200020F53200083D3300083D33000891
:100010003D3300083D3300083D3300080000000078
:100020000000000000000000000000003D33000858
:100030003D330008000000003D3300083D33000858
:1000400000000000000000000000000000000000B0
:1000500000000000000000000000000000000000A0
:100060000000000000000000000000000000000090
:100070000000000000000000000000000000000080
:100080000000000000000000000000000000000070
:100090000000000000000000000000000000000060
:1000A0000000000000000000000000000000000050
:1000B0000000000000000000000000000000000040
:1000C0000000000000000000000000000000000030
:1000D0000000000000000000000000000000000020
:1000E0000000000000000000000000000000000010
:1000F0000000000000000000000000000000000000
:1001000000000000000000000000000000000000EF
:1001100000000000000000000000000000000000DF
:1001200000000000000000000000000000000000CF
:1001300000000000000000000000000000000000BF
:1001400000000000000000000000000000000000AF
:10015000000000000000000000000000000000009F
:10016000000000000000000000000000000000008F
:10017000000000000000000000000000000000007F
:08018000000000000000000077
:1001880010B5054C237833B9044B13B10448AFF3C9
:1001980000800123237010BD3804002000000000F7
:1001A80018350008084B10B51BB108490848AFF3CB
:1001B80000800848036803B910BD074B002BFBD02B
:1001C800BDE81040184700BF000000003C040020B4
:1001D80018350008380400200000000080B582B0FF
:1001E80000AF7860786802F0ABF80023184608374B
:1001F800BD4680BD80B582B000AF786000F0CAFA15
:10020800786802F0ADF800F0D1FA7A68102172200F
:1002180000F0E2F9002318460837BD4680BD00BF4C
:1002280080B483B000AF7860002318460C37BD4611
:1002380080BC704790B585B000AF1C4B3C46186831
:1002480059689A68DB680FC400F0FCF900F01EFAE0
:1002580000F074FA02F06AF83B46184602F070F8AB
:10026800682000F0C5FA652000F0C2FA6C2000F0A2
:10027800BFFA6C2000F0BCFA6F2000F0B9FA0A202F
:1002880000F0B6FA00F0BCF8094A10216B2000F023
:10029800C3F8084A1021702000F0BEF8064A002171
:1002A800782000F0B9F800F0F9F8FCE730350008DC
:1002B800E5010008FD0100082902000880B487B0A4
:1002C80000AFF860B9607A6000237B6183E07B69E6
:1002D8005B001A46BB6813441B78FB747B695B00A0
:1002E8000133BA6813441B78BB74BB7C2F2B0AD923
:1002F800BB7C392B07D87B697A681344BA7C303ABF
:10030800D2B21A701DE0BB7C402B0AD9BB7C462BAD
:1003180007D87B697A681344BA7C373AD2B21A7024
:100328000FE0BB7C602B0AD9BB7C662B07D87B69A6
:100338007A681344BA7C573AD2B21A7001E00123A2
:100348004FE0FB7C2F2B13D9FB7C392B10D87B6912
:100358007A6813447A6979680A44127851B2FA7C47
:10036800303A120152B20A4352B2D2B21A702FE096
:10037800FB7C402B13D9FB7C462B10D87B697A6811
:1003880013447A6979680A44127851B2FA7C373A88
:10039800120152B20A4352B2D2B21A7018E0FB7C70
:1003A800602B13D9FB7C662B10D87B697A681344C1
:1003B8007A6979680A44127851B2FA7C573A12017C
:1003C80052B20A4352B2D2B21A7001E0012308E0D5
:1003D8007B6901337B617A69FB689A42FFF677AFE4
:1003E800002318461C37BD4680BC704780B483B0D4
:1003F80000AF7860002318460C37BD4680BC7047B4
:1004080080B500AF034A0021762000F005F800BF50
:1004180080BD00BFF503000880B485B000AF034677
:10042800B9607A60FB731B4B1B680A2B01DD012343
:100438002AE0BB68402B01D9012325E0154B1A6837
:10044800154913465B0013449B000B44FA7B1A7052
:10045800104B1A68104913465B0013449B000B4469
:100468000433BA681A600B4B1A680B4913465B00D1
:1004780013449B000B4408337A681A60054B1B68C9
:100488000133044A1360002318461437BD4680BC64
:10049800704700BFCC0400205404002080B5B4B0DD
:1004A80000AF00F08FF9034687F8C7300023C7F87C
:1004B800CC3011E04649D7F8CC2013465B001344F2
:1004C8009B000B441B7897F8C7209A420BD0D7F8AB
:1004D800CC300133C7F8CC303E4B1B68D7F8CC2062
:1004E8009A42E7DB00E000BF3A4B1B68D7F8CC2004
:1004F8009A4263D00023C7F8C83019E000F062F9C7
:10050800034687F8C73097F8C7300A2B58D097F8B2
:10051800C7300D2B54D007F14402D7F8C830134424
:1005280097F8C7201A70D7F8C8300133C7F8C83011
:100538002749D7F8CC2013465B0013449B000B4493
:1005480004331B685A00D7F8C8309A42D6D800F04E
:1005580039F9034687F8C73097F8C7300A2B03D014
:1005680097F8C7300D2B2DD11949D7F8CC20134651
:100578005B0013449B000B4404331B6818463A1D68
:1005880007F144031946FFF799FE0346002B1BD1D8
:100598000F49D7F8CC2013465B0013449B000B444B
:1005A80008331B683A1D1046984703463B703B4684
:1005B8001A4601217A2000F00FF806E000BF04E097
:1005C80000BF02E000BF00E000BFD037BD4680BDDD
:1005D80054040020CC04002080B586B000AF034648
:1005E800B9607A60FB73FB7B184600F001F90023C1
:1005F8007B6119E07B697A6813441B781B09DBB2BD
:100608001A460F4B9B5C184600F0F2F87B697A6833
:1006180013441B7803F00F03094AD35C184600F013
:10062800E7F87B6901337B617A69BB689A42E1DB51
:100638000A2000F0DDF800BF1837BD4680BD00BFB6
:100648000000002080B590B000AF0323BB614FF4D9
:10065800A023FB610023BB620023BB6307F11803DF
:10066800184600F00FF90F237B600123BB600023BD
:10067800FB6000233B6100237B613B1D0021184682
:1006880001F020F800BF4037BD4680BD80B586B078
:1006980000AF264A254B9B6943F004039361234B23
:1006A8009B6903F004037B607B684FF40073BB60B5
:1006B8000223FB6003237B6107F1080319461C48EA
:1006C80001F068F94FF48063BB600023FB6007F119
:1006D80008031946164801F05DF9144A134B9B6943
:1006E80043F480439361114B9B6903F480433B605F
:1006F8003B68104B104A1A600E4B4FF416425A6072
:100708000C4B00229A600B4B0022DA60094B002246
:100718001A61084B00229A61064B0C225A6105485F
:1007280001F05EFC00BF1837BD4680BD00100240D6
:1007380000080140D40400200038014080B586B08C
:1007480000AF124A114B9B6943F0040393610F4BAE
:100758009B6903F004037B607B684FF48053BB60A4
:100768000123FB6000233B6103237B6107F108033E
:100778001946074801F00EF900224FF48051044849
:1007880001F066FA00BF1837BD4680BD0010024070
:100798000008014080B500AF01224FF480510248A3
:1007A80001F056FA00BF80BD0008014080B500AFD7
:1007B80000224FF48051024801F04AFA00BF80BD80
:1007C8000008014080B582B000AF00BFF91D41F2BA
:1007D80088330122054801F0F1FC0346002BF5D1CE
:1007E800FB7918460837BD4680BD00BFD4040020F9
:1007F80080B584B000AF0346FB71FB79FB7307F14A
:100808000F0141F288330122034801F02FFC00BF99
:100818001037BD4680BD00BFD404002080B400AFAF
:10082800044B1B685A1C03490A601846BD4680BC25
:10083800704700BFD004002080B584B000AF786056
:100848000023FB60FFF7EAFFF86000BFFFF7E6FF51
:100858000246FB68D21A7B689A42F7D300BF10376A
:10086800BD4680BD80B400AF4FF4E1031846BD46D5
:1008780080BC704780B400AF4FF4E1031846BD4612
:1008880080BC704790B5E5B000AF3B1D18600023F1
:10089800C7F88C313B1D1B681B6803F00103002B54
:1008A80000F07581B84B5B6803F00C03042B0BD088
:1008B800B54B5B6803F00C03082B5FD1B24B5B6848
:1008C80003F48033002B59D04FF40033C7F8CC30F1
:1008D800D7F8CC3093FAA3F3C7F8C830D7F8C830A4
:1008E800B3FA83F35BB243F020035BB2DBB25B097C
:1008F800DBB2012B02D1A44B1B681BE04FF4003381
:10090800C7F87031D7F8703193FAA3F3C7F8C43039
:10091800D7F8C430B3FA83F35BB243F020035BB279
:10092800DBB25B09DBB2022B02D1974B1B6A01E0F9
:10093800954B5B6A4FF40032C7F86C21D7F86C21ED
:1009480092FAA2F2C7F8C020D7F8C020B2FA82F211
:1009580052B242F0200252B2D2B202F01F02D34089
:1009680003F00103002B00F011813B1D1B685B683D
:10097800002B40F00B81012300F09DBE3B1D1B683E
:100988005B68B3F5803F06D17F4A7F4B1B6843F411
:100998008033136030E03B1D1B685B68002B0CD173
:1009A800794A794B1B6823F480331360764A764B77
:1009B8001B6823F4802313601EE03B1D1B685B68E3
:1009C800B3F5A02F0CD1704A6F4B1B6843F48023FA
:1009D80013606D4A6C4B1B6843F4803313600BE063
:1009E800694A694B1B6823F480331360664A664B77
:1009F8001B6823F4802313603B1D1B685B68002B76
:100A080060D0FFF70BFFC7F88C010AE0FFF706FF7D
:100A18000246D7F88C31D31A642B02D9032300F08D
:100A28004ABE4FF40033C7F86831D7F8683193FAF3
:100A3800A3F3C7F8BC30D7F8BC30B3FA83F35BB282
:100A480043F020035BB2DBB25B09DBB2012B02D1BE
:100A58004D4B1B681BE04FF40033C7F88831D7F8BB
:100A6800883193FAA3F3C7F8B830D7F8B830B3FA97
:100A780083F35BB243F020035BB2DBB25B09DBB20A
:100A8800022B02D1404B1B6A01E03F4B5B6A4FF4DB
:100A98000032C7F88421D7F8842192FAA2F2C7F865
:100AA800B420D7F8B420B2FA82F252B242F020024F
:100AB80052B2D2B202F01F02D34003F00103002B5E
:100AC800A4D064E0FFF7AAFEC7F88C010AE0FFF79C
:100AD800A5FE0246D7F88C31D31A642B02D903231A
:100AE80000F0E9BD4FF40033C7F88031D7F8803102
:100AF80093FAA3F3C7F8B030D7F8B030B3FA83F35A
:100B08005BB243F020035BB2DBB25B09DBB2012BC3
:100B180002D11D4B1B681BE04FF40033C7F87C3132
:100B2800D7F87C3193FAA3F3C7F8AC30D7F8AC30D8
:100B3800B3FA83F35BB243F020035BB2DBB25B0929
:100B4800DBB2022B02D1104B1B6A01E00E4B5B6A31
:100B58004FF40032C7F87821D7F8782192FAA2F238
:100B6800C7F8A820D7F8A820B2FA82F252B242F009
:100B7800200252B2D2B202F01F02D34003F00103A6
:100B8800002BA4D103E000BF0010024000BF3B1DB2
:100B98001B681B6803F00203002B00F09881BC4B14
:100BA8005B6803F00C03002B0BD0B94B5B6803F0B8
:100BB8000C03082B74D1B64B5B6803F48033002B0D
:100BC8006ED10223C7F87431D7F8743193FAA3F3BE
:100BD800C7F8A430D7F8A430B3FA83F35BB243F074
:100BE80020035BB2DBB25B09DBB2012B02D1A84B5D
:100BF8001B681AE00223C7F84031D7F8403193FA4E
:100C0800A3F3C7F8A030D7F8A030B3FA83F35BB2E8
:100C180043F020035BB2DBB25B09DBB2022B02D1EB
:100C28009B4B1B6A01E09A4B5B6A0222C7F83C2186
:100C3800D7F83C2192FAA2F2C7F89C20D7F89C205A
:100C4800B2FA82F252B242F0200252B2D2B202F0AA
:100C58001F02D34003F00103002B07D03B1D1B6884
:100C68001B69012B02D0012300F025BD8848884B61
:100C78001B6823F0F8023B1D1B685969F823C7F865
:100C88003831D7F8383193FAA3F3C7F89830D7F842
:100C98009830B3FA83F301FA03F31343036016E1C0
:100CA8003B1D1B681B69002B00F094800123C7F8CB
:100CB8003431D7F8343193FAA3F3C7F89430D7F81E
:100CC8009430B3FA83F39B0003F1844303F5840360
:100CD8001A4601231360FFF7A1FDC7F88C010AE04B
:100CE800FFF79CFD0246D7F88C31D31A022B02D9A4
:100CF800032300F0E0BC0223C7F86431D7F864315D
:100D080093FAA3F207F190031A6007F190031B68A6
:100D1800B3FA83F35BB243F020035BB2DBB25B0947
:100D2800DBB2012B02D15A4B1B681CE00223C7F827
:100D38006031D7F8603193FAA3F207F18C031A6097
:100D480007F18C031B68B3FA83F35BB243F020030B
:100D58005BB2DBB25B09DBB2022B02D14C4B1B6AE4
:100D680001E04B4B5B6A0222C7F85C21D7F85C2193
:100D780092FAA2F107F18802116007F1880212685D
:100D8800B2FA82F252B242F0200252B2D2B202F069
:100D98001F02D34003F00103002BA1D03C4C3C4B75
:100DA8001B6823F0F8023B1D1B685969F823C7F834
:100DB8005831D7F8583193FAA3F007F18403186033
:100DC80007F184031B68B3FA83F301FA03F31343AF
:100DD80023607CE00123C7F85431D7F8543193FAE3
:100DE800A3F207F180031A6007F180031B68B3FAC6
:100DF80083F39B0003F1844303F584031A4600231D
:100E08001360FFF70BFDC7F88C010AE0FFF706FD3A
:100E18000246D7F88C31D31A022B02D9032300F0EB
:100E28004ABC0223C7F85031D7F8503193FAA3F2DD
:100E380007F17C031A6007F17C031B68B3FA83F39C
:100E48005BB243F020035BB2DBB25B09DBB2012B80
:100E580002D10F4B1B681FE00223C7F84C31D7F8AB
:100E68004C3193FAA3F207F178031A6007F178037B
:100E78001B68B3FA83F35BB243F020035BB2DBB2C7
:100E88005B09DBB2022B05D1014B1B6A04E000BFF2
:100E980000100240B74B5B6A0222C7F84821D7F816
:100EA800482192FAA2F107F17402116007F1740265
:100EB8001268B2FA82F252B242F0200252B2D2B2B0
:100EC80002F01F02D34003F00103002B9ED13B1D0B
:100ED8001B681B6803F00803002B00F0F9803B1D1A
:100EE8001B689B69002B7BD00123C7F84431D7F8D6
:100EF800443193FAA3F207F170031A6007F1700303
:100F08001B68B3FA83F39B001A469B4B13441A469B
:100F180001231360FFF782FCC7F88C0109E0FFF793
:100F28007DFC0246D7F88C31D31A022B01D9032352
:100F3800C1E30223C7F83031D7F8303193FAA3F26E
:100F480007F16C031A6007F16C031B68B3FA83F3AB
:100F58005BB243F060035BB2DBB25B09DBB2012B2F
:100F680002D1844B1B681CE00223C7F82C31D7F848
:100F78002C3193FAA3F207F168031A6007F16803AA
:100F88001B68B3FA83F35BB243F060035BB2DBB276
:100F98005B09DBB2022B02D1764B1B6A01E0754B71
:100FA8005B6A0222C7F82821D7F8282192FAA2F111
:100FB80007F16402116007F164021268B2FA82F262
:100FC80052B242F0600252B2D2B202F01F02D340D3
:100FD80003F00103002BA2D00120FFF72DFC77E0DE
:100FE8000123C7F82431D7F8243193FAA3F207F183
:100FF80060031A6007F160031B68B3FA83F39B0070
:101008001A465D4B13441A4600231360FFF706FC8B
:10101800C7F88C0109E0FFF701FC0246D7F88C31CC
:10102800D31A022B01D9032345E30223C7F8203141
:10103800D7F8203193FAA3F207F15C031A6007F19D
:101048005C031B68B3FA83F35BB243F060035BB2E3
:10105800DBB25B09DBB2012B02D1464B1B681CE0FB
:101068000223C7F81C31D7F81C3193FAA3F207F111
:1010780058031A6007F158031B68B3FA83F35BB28D
:1010880043F060035BB2DBB25B09DBB2022B02D137
:10109800384B1B6A01E0374B5B6A0222C7F81821FC
:1010A800D7F8182192FAA2F107F15402116007F15A
:1010B80054021268B2FA82F252B242F0600252B29C
:1010C800D2B202F01F02D34003F00103002BA2D1D9
:1010D8003B1D1B681B6803F00403002B00F03C81D8
:1010E800244A244BDB6943F08053D361214BDB69ED
:1010F80003F0805207F108031A6007F108031B6820
:101108001E4A1E4B1B6843F480731360FFF786FB6F
:10111800C7F88C0109E0FFF781FB0246D7F88C314C
:10112800D31A642B01D90323C5E2144B1B6803F4BB
:101138008073002BEFD03B1D1B68DB68012B06D1A9
:101148000C4A0C4B1B6A43F00103136236E03B1D4B
:101158001B68DB68002B13D1064A064B1B6A23F079
:1011680001031362034A034B1B6A23F0040313624F
:1011780024E000BF0010024080044242007000409A
:101188003B1D1B68DB68052B0CD1AC4AAB4B1B6ABB
:1011980043F004031362A94AA84B1B6A43F00103F6
:1011A80013620BE0A54AA54B1B6A23F001031362E7
:1011B800A24AA24B1B6A23F0040313623B1D1B685F
:1011C800DB68002B64D0FFF729FBC7F88C010BE024
:1011D800FFF724FB0246D7F88C31D31A41F2883244
:1011E800934201D9032366E20223C7F81431D7F8E2
:1011F800143193FAA3F207F150031A6007F1500370
:101208001B68B3FA83F35BB243F040035BB2DBB213
:101218005B09DBB2012B02D1884B1B681CE002235F
:10122800C7F81031D7F8103193FAA3F207F14C033D
:101238001A6007F14C031B68B3FA83F35BB243F0FF
:1012480040035BB2DBB25B09DBB2022B02D17B4B02
:101258001B6A01E0794B5B6A0222C7F80C21D7F8B8
:101268000C2192FAA2F107F14802116007F1480235
:101278001268B2FA82F252B242F0400252B2D2B2CC
:1012880002F01F02D34003F00103002BA0D063E05B
:10129800FFF7C4FAC7F88C010BE0FFF7BFFA024664
:1012A800D7F88C31D31A41F28832934201D90323FB
:1012B80001E20223C7F80831D7F8083193FAA3F2FC
:1012C80007F144031A6007F144031B68B3FA83F378
:1012D8005BB243F040035BB2DBB25B09DBB2012BCC
:1012E80002D1564B1B681CE00223C7F80431D7F81B
:1012F800043193FAA3F207F140031A6007F140039F
:101308001B68B3FA83F35BB243F040035BB2DBB212
:101318005B09DBB2022B02D1484B1B6A01E0474B49
:101328005B6A0222C7F80021D7F8002192FAA2F1DD
:1013380007F13C02116007F13C021268B2FA82F22E
:1013480052B242F0400252B2D2B202F01F02D3406F
:1013580003F00103002BA0D13B1D1B68DB69002BA8
:1013680000F0A881354B5B6803F00C03082B00F0F4
:101378009F813B1D1B68DB69022B40F01B814FF0EE
:101388008073C7F8FC30D7F8FC3093FAA3F207F162
:1013980038031A6007F138031B68B3FA83F39B001C
:1013A80003F1844303F584031A4600231360FFF70F
:1013B80035FAC7F88C0109E0FFF730FA0246D7F88A
:1013C8008C31D31A022B01D9032374E14FF0007337
:1013D800C7F8F830D7F8F83093FAA3F207F13403D6
:1013E8001A6007F134031B68B3FA83F35BB243F066
:1013F80020035BB2DBB25B09DBB2012B02D10F4BDE
:101408001B681FE04FF00073C7F8F430D7F8F430CA
:1014180093FAA3F207F130031A6007F130031B684F
:10142800B3FA83F35BB243F020035BB2DBB25B0930
:10143800DBB2022B04D1014B1B6A03E0001002400F
:101448009F4B5B6A4FF00072C7F8F020D7F8F02086
:1014580092FAA2F107F12C02116007F12C0212682E
:10146800B2FA82F252B242F0200252B2D2B202F082
:101478001F02D34003F00103002B9DD13B1D1B68C5
:101488001B6AB3F5803F09D18D498D4BDB6A23F088
:101498000F023B1D1B689B681343CB628848884B2F
:1014A8005B6823F474123B1D1B68196A3B1D1B689B
:1014B8005B6A0B43134343604FF08073C7F8EC300B
:1014C800D7F8EC3093FAA3F207F128031A6007F172
:1014D80028031B68B3FA83F39B0003F1844303F5E5
:1014E80084031A4601231360FFF798F9C7F88C01A3
:1014F80009E0FFF793F90246D7F88C31D31A022B8B
:1015080001D90323D7E04FF00073C7F8E830D7F8C4
:10151800E83093FAA3F207F124031A6007F12403D1
:101528001B68B3FA83F35BB243F020035BB2DBB210
:101538005B09DBB2012B02D1614B1B681DE04FF048
:101548000073C7F8E430D7F8E43093FAA3F207F150
:1015580020031A6007F120031B68B3FA83F35BB218
:1015680043F020035BB2DBB25B09DBB2022B02D192
:10157800534B1B6A01E0524B5B6A4FF00072C7F88D
:10158800E020D7F8E02092FAA2F107F11C021160DE
:1015980007F11C021268B2FA82F252B242F020023B
:1015A80052B2D2B202F01F02D34003F00103002B63
:1015B8009FD07FE04FF08073C7F8DC30D7F8DC307D
:1015C80093FAA3F207F118031A6007F118031B68CE
:1015D800B3FA83F39B0003F1844303F584031A46AB
:1015E80000231360FFF71AF9C7F88C0109E0FFF729
:1015F80015F90246D7F88C31D31A022B01D90323E7
:1016080059E04FF00073C7F8D830D7F8D83093FABC
:10161800A3F207F114031A6007F114031B68B3FA65
:1016280083F35BB243F020035BB2DBB25B09DBB24E
:10163800012B02D1224B1B681DE04FF00073C7F845
:10164800D430D7F8D43093FAA3F207F110031A6014
:1016580007F110031B68B3FA83F35BB243F020036E
:101668005BB2DBB25B09DBB2022B02D1144B1B6A03
:1016780001E0134B5B6A4FF00072C7F8D020D7F82F
:10168800D02092FAA2F107F10C02116007F10C02C6
:101698001268B2FA82F252B242F0200252B2D2B2C8
:1016A80002F01F02D34003F00103002B9FD101E099
:1016B800012300E00023184607F5CA77BD4690BD10
:1016C8000010024080B596B000AF78603960002302
:1016D8007B657B681B6803F00203002B08D09649E2
:1016E800954B5B6823F0F0027B689B6813434B6063
:1016F8007B681B6803F00103002B00F025817B68E1
:101708005B68012B46D14FF400333B633B6B93FA84
:10171800A3F3FB62FB6AB3FA83F35BB243F02003E3
:101728005BB2DBB25B09DBB2012B02D1824B1B68D7
:1017380017E04FF400333B653B6D93FAA3F3BB62AC
:10174800BB6AB3FA83F35BB243F020035BB2DBB24C
:101758005B09DBB2022B02D1774B1B6A01E0764BA7
:101768005B6A4FF40032FA64FA6C92FAA2F27A6277
:101778007A6AB2FA82F252B242F0200252B2D2B27D
:1017880002F01F02D34003F00103002B40F08F80CA
:101798000123F9E07B685B68022B45D14FF00073A9
:1017A800BB64BB6C93FAA3F33B623B6AB3FA83F363
:1017B8005BB243F020035BB2DBB25B09DBB2012B07
:1017C80002D15D4B1B6817E04FF000737B647B6CA4
:1017D80093FAA3F3FB61FB69B3FA83F35BB243F0BB
:1017E80020035BB2DBB25B09DBB2022B02D1524BA6
:1017F8001B6A01E0504B5B6A4FF000723A643A6C26
:1018080092FAA2F2BA61BA69B2FA82F252B242F01C
:10181800200252B2D2B202F01F02D34003F00103F9
:10182800002B44D10123AFE00223FB63FB6B93FA47
:10183800A3F37B617B69B3FA83F35BB243F02003C4
:101848005BB2DBB25B09DBB2012B02D13A4B1B68FE
:1018580016E00223BB63BB6B93FAA3F33B613B69BE
:10186800B3FA83F35BB243F020035BB2DBB25B09EC
:10187800DBB2022B02D1304B1B6A01E02E4B5B6AB4
:1018880002227A637A6B92FAA2F2FA60FA68B2FAE2
:1018980082F252B242F0200252B2D2B202F01F02D9
:1018A800D34003F00103002B01D101236CE022494E
:1018B800214B5B6823F003027B685B6813434B6032
:1018C800FEF7ACFF78657B685B68012B12D10AE0F4
:1018D800FEF7A4FF02467B6DD31A41F28832934289
:1018E80001D9032350E0144B5B6803F00C03042B6D
:1018F800EED129E07B685B68022B1FD10AE0FEF776
:101908008DFF02467B6DD31A41F28832934201D98A
:10191800032339E0084B5B6803F00C03082BEED176
:1019280012E0FEF77BFF02467B6DD31A41F2883244
:10193800934203D9032327E000100240144B5B684D
:1019480003F00C03002BECD17B681B6803F0040345
:10195800002B08D00E490E4B5B6823F4E0627B68CD
:10196800DB6813434B607B681B6803F00803002B9C
:1019780009D00749064B5B6823F460527B681B69F2
:10198800DB0013434B60002318465837BD4680BD23
:101998000010024080B48BB000AF7860396000233B
:1019A800FB610023BB6100237B6100233B620023B2
:1019B8003B6100237B6227E101227B6A02FA03F381
:1019C800FB613B681A68FB691340BB61BA69FB6934
:1019D8009A4240F016813B685B68122B34D0122B78
:1019E8000DD8022B2BD0022B04D8002B31D0012B81
:1019F8001CD048E0032B43D0112B1BD043E0874A6F
:101A0800934226D0854A934206D8854A934220D0ED
:101A1800844A93421DD036E0834A934219D0834AC0
:101A2800934216D0824A934213D02CE03B68DB687D
:101A38003B6228E03B68DB6804333B6223E03B6899
:101A4800DB6808333B621EE03B68DB680C333B62B3
:101A580019E03B689B68002B02D104233B6212E02B
:101A68003B689B68012B05D108233B627B68FA69B8
:101A78001A6108E008233B627B68FA695A6102E050
:101A880000233B6200BFBB69FF2B01D87B6801E0E4
:101A98007B680433FB60BB69FF2B02D87B6A9B0021
:101AA80002E07B6A083B9B003B61FB681A680F21D8
:101AB8003B6901FA03F3DB431A40396A3B6901FACF
:101AC80003F31A43FB681A603B685B6803F08053B2
:101AD800002B00F09680574A564B9B6943F0010350
:101AE8009361544B9B6903F00103BB60BB68524A86
:101AF8007B6A9B08023352F823307B617B6A03F0D0
:101B080003039B000F2202FA03F3DB437A691340B5
:101B18007B617B68494A934213D07B68484A934269
:101B28000DD07B68474A934207D07B68464A934268
:101B380001D1032306E0042304E0022302E0012389
:101B480000E000237A6A02F00302920093407A6967
:101B580013437B6138497B6A9B0802337A6941F8F1
:101B680023203B685B6803F48033002B06D0374999
:101B7800364B1A68BB6913430B6006E03349334B95
:101B88001A68BB69DB4313400B603B685B6803F46E
:101B98000033002B06D02D492C4B5A68BB691343E0
:101BA8004B6006E02949294B5A68BB69DB4313405F
:101BB8004B603B685B6803F48013002B06D0234915
:101BC800224B9A68BB6913438B6006E01F491F4B81
:101BD8009A68BB69DB4313408B603B685B6803F41E
:101BE8000013002B06D01949184BDA68BB69134358
:101BF800CB6006E01549154BDA68BB69DB43134037
:101C0800CB607B6A01337B627B6A0F2B7FF6D4AE95
:101C180000BF2C37BD4680BC704700BF00002110B4
:101C280000001110000012100000311000003210E6
:101C3800000022100010024000000140000801408E
:101C4800000C014000100140001401400004014054
:101C580080B483B000AF78600B467B8013467B70FE
:101C68007B78002B03D07A887B681A6103E07B8835
:101C78001A047B681A6100BF0C37BD4680BC7047E8
:101C880080B586B000AFF860B9603B601346FB7161
:101C980000237B61FEF7C2FD7861FB79002B7BD1C5
:101CA80038E03B68B3F1FF3F34D03B68002B07D0E6
:101CB800FEF7B4FD02467B69D21A3B689A4229D9DD
:101CC800FB681B68FA681268D26822F08002DA6042
:101CD800FB681B68FA681268D26822F02002DA6092
:101CE800FB681B68FA681268D26822F48072DA60AE
:101CF800FB681B68FA681268526922F001025A618F
:101D0800FB68012283F83920FB68002283F8382019
:101D180003234AE0FB681B681A68BB681A40BB6863
:101D28009A42BED140E03B68B3F1FF3F34D03B68F4
:101D3800002B07D0FEF772FD02467B69D21A3B687A
:101D48009A4229D9FB681B68FA681268D26822F09F
:101D58008002DA60FB681B68FA681268D26822F0B1
:101D68002002DA60FB681B68FA681268D26822F4FD
:101D78008072DA60FB681B68FA681268526922F0A0
:101D880001025A61FB68012283F83920FB680022AE
:101D980083F83820032308E0FB681B681A68BB68CF
:101DA8001A40BB689A42BED0002318461837BD4671
:101DB80080BD00BFF0B585B000AF78600023FB6040
:101DC8007B681B687A681268126922F440517A6845
:101DD800D2680A431A617B689A687B681B691A4350
:101DE8007B685B691343FB607B681A687B681B68C8
:101DF800DB6823F4B05323F00C03F9680B43D3607A
:101E08007B681B687A681268526922F440717A68A4
:101E180092690A435A617B681B686F4A93426BD187
:101E28007B681C68FEF726FD024613469B00134498
:101E38009A001A447B685B689B00B2FBF3F3674A1D
:101E4800A2FB03235B091D01FEF714FD024613469E
:101E58009B0013449A001A447B685B689B00B2FBA2
:101E6800F3F6FEF707FD024613469B0013449A005B
:101E78001A447B685B689B00B2FBF3F3574AA2FBEA
:101E880003235B09642202FB03F3F31A1B013233B9
:101E9800524AA2FB03235B0903F0F0031D44FEF73B
:101EA800E9FC024613469B0013449A001A447B68D7
:101EB8005B689B00B2FBF3F6FEF7DCFC02461346B8
:101EC8009B0013449A001A447B685B689B00B2FB32
:101ED800F3F3424AA2FB03235B09642202FB03F3E8
:101EE800F31A1B0132333D4AA2FB03235B0903F0BB
:101EF8000F032B44A3606AE07B681C68FEF7B2FC02
:101F0800024613469B0013449A001A447B685B6898
:101F18009B00B2FBF3F3314AA2FB03235B091D01CB
:101F2800FEF7A0FC024613469B0013449A001A448D
:101F38007B685B689B00B2FBF3F6FEF793FC0246F6
:101F480013469B0013449A001A447B685B689B0005
:101F5800B2FBF3F3214AA2FB03235B09642202FBD1
:101F680003F3F31A1B0132331C4AA2FB03235B0958
:101F780003F0F0031D44FEF775FC024613469B0070
:101F880013449A001A447B685B689B00B2FBF3F623
:101F9800FEF768FC024613469B0013449A001A4455
:101FA8007B685B689B00B2FBF3F30C4AA2FB03233C
:101FB8005B09642202FB03F3F31A1B013233074A5D
:101FC800A2FB03235B0903F00F032B44A36000BFAC
:101FD8001437BD46F0BD00BF003801401F85EB51E6
:101FE80080B582B000AF78607B68002B01D10123F7
:101FF80038E07B6893F83930DBB2002B03D17B687B
:10200800002283F838207B68022283F839207B6815
:102018001B687A681268D26822F40052DA6078681D
:10202800FFF7C8FE7B681B687A681268126922F499
:1020380090421A617B681B687A681268526922F0BC
:102048002A025A617B681B687A681268D26842F46F
:102058000052DA607B680022DA637B68012283F829
:102068003920002318460837BD4680BD80B586B0A4
:1020780000AFF860B9603B601346FB8000237B61CA
:10208800FB6893F83930DBB27B617B69012B03D0A5
:102098007B69222B40F08D80BB68002B02D0FB8827
:1020A800002B01D1012385E0FB6893F83830012B20
:1020B80001D102237EE0FB68012283F83820FB6807
:1020C8000022DA63FB6893F83930DBB2222B04D1A3
:1020D800FB68322283F8392003E0FB68122283F878
:1020E8003920FB68FA889A84FB68FA88DA843CE02D
:1020F800FB68DB8C013B9AB2FB68DA84FB689B685F
:10210800B3F5805F1FD13B6800228021F868FFF794
:10211800B7FD0346002B01D003234BE0BB683B61AE
:10212800FB681B683A691288C2F308025A60FB68A8
:102138001B69002B03D1BB680233BB6015E0BB6889
:102148000133BB6011E03B6800228021F868FFF78B
:1021580097FD0346002B01D003232BE0FB681A6888
:10216800BB68591CB9601B785360FB68DB8C002B7B
:10217800BED13B6800224021F868FFF781FD034685
:10218800002B01D0032315E0FB6893F83930DBB24C
:10219800322B04D1FB68222283F8392003E0FB6844
:1021A800012283F83920FB68002283F838200023B5
:1021B80000E0022318461837BD4680BD80B586B0BA
:1021C80000AFF860B9603B601346FB8000237B6179
:1021D800FB6893F83930DBB27B617B69012B03D054
:1021E8007B69122B40F09D80BB68002B02D0FB88D6
:1021F800002B01D1012395E0FB6893F83830012BBF
:1022080001D102238EE0FB68012283F83820FB68A5
:102218000022DA63FB6893F83930DBB2122B04D161
:10222800FB68322283F8392003E0FB68222283F816
:102238003920FB68FA889A85FB68FA88DA8557E0BE
:10224800FB68DB8D013B9AB2FB68DA85FB689B680B
:10225800B3F5805F29D13B6800222021F868FFF799
:102268000FFD0346002B01D003235BE0BB683B61F5
:10227800FB681B69002B0CD1FB681B685B689BB271
:10228800C3F308039AB23B691A80BB680233BB6088
:102298002EE0FB681B685B689BB2DBB29AB23B69B5
:1022A8001A80BB680133BB6022E03B680022202112
:1022B800F868FFF7E5FC0346002B01D0032331E063
:1022C800FB681B69002B08D1BB685A1CBA60FA6806
:1022D80012685268D2B21A700AE0BB685A1CBA6017
:1022E800FA6812685268D2B202F07F02D2B21A704B
:1022F800FB68DB8D002BA3D1FB6893F83930DBB288
:10230800322B04D1FB68122283F8392003E0FB68E2
:10231800012283F83920FB68002283F83820002343
:1023280000E0022318461837BD4680BD80B500AFCF
:10233800024800F025F800BF80BD00BF140500204A
:1023480080B582B000AF786080227968034800F0D9
:1023580025F800BF0837BD4680BD00BF1405002022
:1023680080B582B000AF78607B687A680121034845
:1023780000F0A0FF00BF0837BD4680BD140500204F
:1023880080B582B000AF78604FF48C720021786815
:1023980000F0FAFF00BF0837BD4680BD80B487B0A3
:1023A80000AFF860B9607A607B68C02B08D0B3F5DD
:1023B800807F09D0802B0BD1FB680A221A600AE0C3
:1023C800FB680C221A6006E0FB680E221A6002E025
:1023D8006FF01F03A0E1FB6808333B61FB683A69B3
:1023E8005A6000237B6126E07B699B003A691344AD
:1023F8007A699200B9680A44127810467A6992009C
:102408000132B9680A441278120240EA02017A6974
:1024180092000232B86802441278120411437A69B1
:1024280092000332B8680244127812060A431A600E
:102438007B6901337B617B685A097B699A42D3D8EF
:10244800FB681B680C2B5BD00E2B00F0C3800A2B9B
:1024580040F0618100237B614EE03B6910333A69AB
:1024680011685E487A6950F822204A4039690C316F
:102478000968090AC9B25A48415C51403A690C32A4
:102488001268120CD2B25648825C120251403A6964
:102498000C321268120E5248825C120451403A699A
:1024A8000C321268D2B24E48825C12064A401A6058
:1024B8003B6914333A69043211683A691032126878
:1024C8004A401A603B6918333A69083211683A6918
:1024D800143212684A401A603B691C333A690C325C
:1024E80011683A69183212684A401A607B690133E8
:1024F8007B613B6910333B617B69092BADD90AE1EC
:1025080000237B6162E03B6918333A6911683348FC
:102518007A6950F822204A40396914310968090A51
:10252800C9B22F48415C51403A6914321268120C02
:10253800D2B22B48825C120251403A6914321268B6
:10254800120E2748825C120451403A69143212680C
:10255800D2B22348825C12064A401A603B691C3397
:102568003A69043211683A69183212684A401A60A6
:102578003B6920333A69083211683A691C3212689B
:102588004A401A603B6924333A690C3211683A6947
:10259800203212684A401A603B6928333A6910327F
:1025A80011683A69243212684A401A603B692C3330
:1025B8003A69143211683A69283212684A401A6036
:1025C8007B6901337B613B6918333B617B69072B6E
:1025D80099D9A0E000237B6198E000BF405700082C
:1025E800403500083B6920333A6911684D487A69DB
:1025F80050F822204A4039691C310968090AC9B2D1
:102608004948415C51403A691C321268120CD2B2F6
:102618004548825C120251403A691C321268120E17
:102628004148825C120451403A691C321268D2B2A5
:102638003D48825C12064A401A603B6924333A6975
:10264800043211683A69203212684A401A603B69BC
:1026580028333A69083211683A69243212684A40C4
:102668001A603B692C333A690C3211683A6928328E
:1026780012684A401A603B6930333A69103212686E
:1026880039692C310968C9B22748415C51403A6917
:102698002C321268120AD2B22348825C12025140CC
:1026A8003A692C321268120CD2B21F48825C1204AA
:1026B80051403A692C321268120E1B48825C12068D
:1026C8004A401A603B6934333A69143211683A69EE
:1026D800303212684A401A603B6938333A69183216
:1026E80011683A69343212684A401A603B693C33CF
:1026F8003A691C3211683A69383212684A401A60DD
:102708007B6901337B613B6920333B617B69062B25
:102718007FF668AF00BF002318461C37BD4680BC53
:10272800704700BF405700084035000880B48FB09C
:1027380000AFF860B9607A60FB685B683B63BB68B0
:102748001B781A46BB6801331B781B021A43BB6807
:1027580002331B781B041A43BB6803331B781B0620
:102768001343FB623B6B1A1D3A631B68FA6A5340BA
:10277800FB62BB6804331B781A46BB6805331B78B9
:102788001B021A43BB6806331B781B041A43BB6839
:1027980007331B781B061343BB623B6B1A1D3A6356
:1027A8001B68BA6A5340BB62BB6808331B781A4679
:1027B800BB6809331B781B021A43BB680A331B78B2
:1027C8001B041A43BB680B331B781B0613437B623D
:1027D8003B6B1A1D3A631B687A6A53407B62BB687D
:1027E8000C331B781A46BB680D331B781B021A433F
:1027F800BB680E331B781B041A43BB680F331B7866
:102808001B0613433B623B6B1A1D3A631B683A6A0B
:1028180053403B62FB681B685B10013B7B63FAE03B
:102828003B6B1A1D3A631A68FB6ADBB2AC4951F874
:1028380023305A40BB6A1B0ADBB2AA4951F823303D
:102848005A407B6A1B0CDBB2A74951F823305A4027
:102858003B6A1B0EA54951F823305340FB613B6B83
:102868001A1D3A631A68BB6ADBB29D4951F82330D6
:102878005A407B6A1B0ADBB29A4951F823305A4006
:102888003B6A1B0CDBB2984951F823305A40FB6A6B
:102898001B0E964951F823305340BB613B6B1A1D00
:1028A8003A631A687B6ADBB28D4951F823305A4083
:1028B8003B6A1B0ADBB28B4951F823305A40FB6A4A
:1028C8001B0CDBB2884951F823305A40BB6A1B0EF7
:1028D800864951F8233053407B613B6B1A1D3A639C
:1028E8001A683B6ADBB27E4951F823305A40FB6ACA
:1028F8001B0ADBB27B4951F823305A40BB6A1B0CD8
:10290800DBB2794951F823305A407B6A1B0E77496C
:1029180051F8233053403B613B6B1A1D3A631A68E8
:10292800FB69DBB26E4951F823305A40BB691B0A78
:10293800DBB26C4951F823305A407B691B0CDBB27F
:10294800694951F823305A403B691B0E674951F8D1
:1029580023305340FB623B6B1A1D3A631A68BB690C
:10296800DBB25F4951F823305A407B691B0ADBB25E
:102978005C4951F823305A403B691B0CDBB25A4979
:1029880051F823305A40FB691B0E584951F823303F
:102998005340BB623B6B1A1D3A631A687B69DBB212
:1029A8004F4951F823305A403B691B0ADBB24D4965
:1029B80051F823305A40FB691B0CDBB24A4951F8E5
:1029C80023305A40BB691B0E484951F82330534005
:1029D8007B623B6B1A1D3A631A683B69DBB240495C
:1029E80051F823305A40FB691B0ADBB23D4951F8C4
:1029F80023305A40BB691B0CDBB23B4951F82330EA
:102A08005A407B691B0E394951F8233053403B62C9
:102A18007B6B013B7B637B6B002B3FF701AF3B6B11
:102A28001A1D3A631A68FB6ADBB22D4951F8233044
:102A38005A40BB6A1B0ADBB22A4951F823305A4074
:102A48007B6A1B0CDBB2284951F823305A403B6A99
:102A58001B0E264951F823305340FB613B6B1A1D6E
:102A68003A631A68BB6ADBB21D4951F823305A40F1
:102A78007B6A1B0ADBB21B4951F823305A403B6A78
:102A88001B0CDBB2184951F823305A40FB6A1B0E65
:102A9800164951F823305340BB613B6B1A1D3A630A
:102AA8001A687B6ADBB20E4951F823305A403B6AF8
:102AB8001B0ADBB20B4951F823305A40FB6A1B0C46
:102AC800DBB2094951F823305A40BB6A1B0E07494B
:102AD80051F8233053407B613B6B1A1D08E000BF5F
:102AE80040360008403A0008403E000840420008CE
:102AF8003A631A683B6ADBB2784951F823305A4086
:102B0800FB6A1B0ADBB2764951F823305A40BB6A8C
:102B18001B0CDBB2734951F823305A407B6A1B0EF9
:102B2800714951F8233053403B613B6B1A1D3A639E
:102B38001B68FA69D2B26D498A5C5A40BB691B0AA4
:102B4800DBB26A49CB5C1B025A407B691B0CDBB2C7
:102B58006649CB5C1B045A403B691B0E6349CB5C3E
:102B68001B065340FB623B6B1A1D3A631B68BA692C
:102B7800D2B25E498A5C5A407B691B0ADBB25B4968
:102B8800CB5C1B025A403B691B0CDBB25749CB5C40
:102B98001B045A40FB691B0E5449CB5C1B0653406F
:102BA800BB623B6B1A1D3A631B687A69D2B24F4904
:102BB8008A5C5A403B691B0ADBB24C49CB5C1B025E
:102BC8005A40FB691B0CDBB24849CB5C1B045A40DA
:102BD800BB691B0E4549CB5C1B0653407B623B6BB4
:102BE8001A1D3A631B683A69D2B240498A5C5A4056
:102BF800FB691B0ADBB23D49CB5C1B025A40BB692F
:102C08001B0CDBB23949CB5C1B045A407B691B0E99
:102C18003649CB5C1B0653403B62FB6ADAB27B68E1
:102C28001A707B680133FA6A120AD2B21A707B688A
:102C38000233FA6A120CD2B21A707B680333FA6A4A
:102C4800120ED2B21A707B680433BA6AD2B21A7002
:102C58007B680533BA6A120AD2B21A707B680633E7
:102C6800BA6A120CD2B21A707B680733BA6A120EAB
:102C7800D2B21A707B6808337A6AD2B21A707B684B
:102C880009337A6A120AD2B21A707B680A337A6AEE
:102C9800120CD2B21A707B680B337A6A120ED2B257
:102CA8001A707B680C333A6AD2B21A707B680D339B
:102CB8003A6A120AD2B21A707B680E333A6A120C58
:102CC800D2B21A707B680F333A6A120ED2B21A70F7
:102CD800002318463C37BD4680BC70474036000884
:102CE800403A0008403E00084042000840350008CD
:102CF80080B48FB000AFF860B9607A60FB685B6839
:102D08003B63BB681B781A46BB6801331B781B0200
:102D18001A43BB6802331B781B041A43BB6803338E
:102D28001B781B061343FB623B6B1A1D3A631B6837
:102D3800FA6A5340FB62BB6804331B781A46BB68C7
:102D480005331B781B021A43BB6806331B781B0428
:102D58001A43BB6807331B781B061343BB623B6BE4
:102D68001A1D3A631B68BA6A5340BB62BB680833D2
:102D78001B781A46BB6809331B781B021A43BB68C9
:102D88000A331B781B041A43BB680B331B781B06DA
:102D980013437B623B6B1A1D3A631B687A6A534084
:102DA8007B62BB680C331B781A46BB680D331B78F3
:102DB8001B021A43BB680E331B781B041A43BB68FB
:102DC8000F331B781B0613433B623B6B1A1D3A6398
:102DD8001B683A6A53403B62FB681B685B10013B07
:102DE8007B63FAE03B6B1A1D3A631A68FB6ADBB235
:102DF800AC4951F823305A403B6A1B0ADBB2AA4956
:102E080051F823305A407B6A1B0CDBB2A74951F8B2
:102E180023305A40BB6A1B0EA54951F82330534052
:102E2800FB613B6B1A1D3A631A68BB6ADBB29D49AA
:102E380051F823305A40FB6A1B0ADBB29A4951F811
:102E480023305A403B6A1B0CDBB2984951F82330B7
:102E58005A407B6A1B0E964951F823305340BB6198
:102E68003B6B1A1D3A631A687B6ADBB28D4951F8CD
:102E780023305A40BB6A1B0ADBB28B4951F8233016
:102E88005A40FB6A1B0CDBB2884951F823305A4080
:102E98003B6A1B0E864951F8233053407B613B6BDC
:102EA8001A1D3A631A683B6ADBB27E4951F823302F
:102EB8005A407B6A1B0ADBB27B4951F823305A40DF
:102EC800BB6A1B0CDBB2794951F823305A40FB6AC4
:102ED8001B0E774951F8233053403B613B6B1A1D59
:102EE8003A631A68FB69DBB26E4951F823305A40DD
:102EF8003B691B0ADBB26C4951F823305A407B69A5
:102F08001B0CDBB2694951F823305A40BB691B0ED0
:102F1800674951F823305340FB623B6B1A1D3A63F3
:102F28001A68BB69DBB25F4951F823305A40FB6924
:102F38001B0ADBB25C4951F823305A403B691B0C31
:102F4800DBB25A4951F823305A407B691B0E584965
:102F580051F823305340BB623B6B1A1D3A631A6821
:102F68007B69DBB24F4951F823305A40BB691B0AD1
:102F7800DBB24D4951F823305A40FB691B0CDBB2D8
:102F88004A4951F823305A403B691B0E484951F8C9
:102F9800233053407B623B6B1A1D3A631A683B69C6
:102FA800DBB2404951F823305A407B691B0ADBB237
:102FB8003D4951F823305A40BB691B0CDBB23B49F1
:102FC80051F823305A40FB691B0E394951F8233018
:102FD80053403B627B6B013B7B637B6B002B3FF772
:102FE80001AF3B6B1A1D3A631A68FB6ADBB22D49C5
:102FF80051F823305A403B6A1B0ADBB22A4951F880
:1030080023305A407B6A1B0CDBB2284951F8233025
:103018005A40BB6A1B0E264951F823305340FB61C6
:103028003B6B1A1D3A631A68BB6ADBB21D4951F83B
:1030380023305A40FB6A1B0ADBB21B4951F8233084
:103048005A403B6A1B0CDBB2184951F823305A40EE
:103058007B6A1B0E164951F823305340BB613B6B0A
:103068001A1D3A631A687B6ADBB20E4951F823309D
:103078005A40BB6A1B0ADBB20B4951F823305A404D
:10308800FB6A1B0CDBB2094951F823305A403B6AF2
:103098001B0E074951F8233053407B613B6B1A1DC7
:1030A80008E000BF40470008404B0008404F0008B8
:1030B800405300083A631A683B6ADBB2784951F812
:1030C80023305A407B6A1B0ADBB2764951F8233019
:1030D8005A40BB6A1B0CDBB2734951F823305A4083
:1030E800FB6A1B0E714951F8233053403B613B6B1F
:1030F8001A1D3A631B68FA69D2B26D498A5C5A4054
:103108003B691B0ADBB26A49CB5C1B025A407B69EC
:103118001B0CDBB26649CB5C1B045A40BB691B0E17
:103128006349CB5C1B065340FB623B6B1A1D3A6339
:103138001B68BA69D2B25E498A5C5A40FB691B0AAD
:10314800DBB25B49CB5C1B025A403B691B0CDBB210
:103158005749CB5C1B045A407B691B0E5449CB5C16
:103168001B065340BB623B6B1A1D3A631B687A69A6
:10317800D2B24F498A5C5A40BB691B0ADBB24C4940
:10318800CB5C1B025A40FB691B0CDBB24849CB5C89
:103198001B045A403B691B0E4549CB5C1B06534038
:1031A8007B623B6B1A1D3A631B683A69D2B240498D
:1031B8008A5C5A407B691B0ADBB23D49CB5C1B0227
:1031C8005A40BB691B0CDBB23949CB5C1B045A4023
:1031D800FB691B0E3649CB5C1B0653403B62FB6AFE
:1031E800DAB27B681A707B680133FA6A120AD2B2C3
:1031F8001A707B680233FA6A120CD2B21A707B68B2
:103208000333FA6A120ED2B21A707B680433BA6AB0
:10321800D2B21A707B680533BA6A120AD2B21A702F
:103228007B680633BA6A120CD2B21A707B6807330D
:10323800BA6A120ED2B21A707B6808337A6AD2B2AE
:103248001A707B6809337A6A120AD2B21A707B68DC
:103258000A337A6A120CD2B21A707B680B337A6A14
:10326800120ED2B21A707B680C333A6AD2B21A7054
:103278007B680D333A6A120AD2B21A707B680E3331
:103288003A6A120CD2B21A707B680F333A6A120E7D
:10329800D2B21A70002318463C37BD4680BC70472E
:1032A80040470008404B0008404F000840530008C2
:1032B8004046000880B584B000AFF860B9607A6015
:1032C8003B60BB68012B06D13A687968F868FFF75C
:1032D8002DFA034605E03A687968F868FFF708FDB3
:1032E800034618461037BD4680BD00BF002103E0E5
:1032F8000B4B5B58435004310A480B4B42189A4217
:10330800F6D30A4A02E0002313600432084B9A42BB
:10331800F9D3AFF3008000F00FF8FCF78BFFFEE75E
:10332800AC5B0008000000203804002038040020AE
:103338002C060020FEE7000070B50F4E0F4D761BDF
:10334800B61018BF002405D0013455F8043B98473F
:10335800A642F9D10A4E0B4D00F0DAF8761BB610EA
:1033680018BF002406D0013455F8043B9847A642FC
:10337800F9D170BD70BD00BFA05B0008A05B00085C
:10338800A85B0008A05B000870B4840746D0541EF0
:10339800002A41D0CDB2034602E0621EE4B31446CF
:1033A80003F8015B9A07F8D1032C2ED9CDB245EA70
:1033B80005250F2C45EA054519D9264603F11002C3
:1033C800103E0F2E42F8105C42F80C5C42F8085C84
:1033D80042F8045C02F11002F2D8A4F1100222F0C3
:1033E8000F0204F00F041032032C13440DD91E46AB
:1033F8002246043A032A46F8045BFAD8221F22F030
:1034080003020432134404F003042CB1C9B21C446F
:1034180003F8011BA342FBD170BC70471446034656
:10342800C2E700BF024B13B1024800F005B870476D
:10343800000000004D340008002301461A461846D3
:1034480000F014B838B5074D074C2C1BA41005D054
:10345800013C55F8043D9847002CF9D1BDE83840A7
:1034680000F05CB8AC5B0008A85B00082DE9F047E9
:10347800254C064625688846D5F84841924699461F
:10348800C4B360681F2817DC411C76B104EB8003C5
:10349800C3F888A0D4F88851012282401543022E2F
:1034A800C4F88851C3F808911ED0831C61600020BD
:1034B80044F82380BDE8F087144B03B34FF4C87079
:1034C800AFF300800446D0B1D5F84831002784E82E
:1034D80088003846C5F848410121C4F88871C4F805
:1034E8008C71002EE1D0D1E7D4F88C311A43C4F89E
:1034F8008C21DAE705F5A674C5F84841C1E74FF015
:10350800FF30BDE8F08700BF9C5B000800000000AA
:10351800F8B500BFF8BC08BC9E467047F8B500BFB8
:08352800F8BC08BC9E46704788
:103530002B7E151628AED2A6ABF7158809CF4F3CC7
:10354000637C777BF26B6FC53001672BFED7AB7660
:10355000CA82C97DFA5947F0ADD4A2AF9CA472C00B
:10356000B7FD9326363FF7CC34A5E5F171D8311578
:1035700004C723C31896059A071280E2EB27B27599
:1035800009832C1A1B6E5AA0523BD6B329E32F8411
:1035900053D100ED20FCB15B6ACBBE394A4C58CF09
:1035A000D0EFAAFB434D338545F9027F503C9FA8DD
:1035B00051A3408F929D38F5BCB6DA2110FFF3D2AB
:1035C000CD0C13EC5F974417C4A77E3D645D19735F
:1035D00060814FDC222A908846EEB814DE5E0BDB59
:1035E000E0323A0A4906245CC2D3AC629195E47990
:1035F000E7C8376D8DD54EA96C56F4EA657AAE08EA
:10360000BA78252E1CA6B4C6E8DD741F4BBD8B8A84
:10361000703EB5664803F60E613557B986C11D9EEA
:10362000E1F8981169D98E949B1E87E9CE5528DF61
:103630008CA1890DBFE6426841992D0FB054BB168D
:10364000C66363A5F87C7C84EE777799F67B7B8DE7
:10365000FFF2F20DD66B6BBDDE6F6FB191C5C55435
:103660006030305002010103CE6767A9562B2B7DD5
:10367000E7FEFE19B5D7D7624DABABE6EC76769A8E
:103680008FCACA451F82829D89C9C940FA7D7D873C
:10369000EFFAFA15B25959EB8E4747C9FBF0F00B18
:1036A00041ADADECB3D4D4675FA2A2FD45AFAFEAA4
:1036B000239C9CBF53A4A4F7E47272969BC0C05B8A
:1036C00075B7B7C2E1FDFD1C3D9393AE4C26266A4B
:1036D0006C36365A7E3F3F41F5F7F70283CCCC4F2C
:1036E0006834345C51A5A5F4D1E5E534F9F1F1086D
:1036F000E2717193ABD8D873623131532A15153FFB
:103700000804040C95C7C752462323659DC3C35EB6
:1037100030181828379696A10A05050F2F9A9AB5E2
:103720000E070709241212361B80809BDFE2E23D60
:10373000CDEBEB264E2727697FB2B2CDEA75759F98
:103740001209091B1D83839E582C2C74341A1A2EBF
:10375000361B1B2DDC6E6EB2B45A5AEE5BA0A0FB7A
:10376000A45252F6763B3B4DB7D6D6617DB3B3CE6D
:103770005229297BDDE3E33E5E2F2F71138484976A
:10378000A65353F5B9D1D16800000000C1EDED2C6E
:1037900040202060E3FCFC1F79B1B1C8B65B5BED53
:1037A000D46A6ABE8DCBCB4667BEBED97239394B5F
:1037B000944A4ADE984C4CD4B05858E885CFCF4A4A
:1037C000BBD0D06BC5EFEF2A4FAAAAE5EDFBFB16E5
:1037D000864343C59A4D4DD766333355118585943D
:1037E0008A4545CFE9F9F91004020206FE7F7F8180
:1037F000A05050F0783C3C44259F9FBA4BA8A8E3CA
:10380000A25151F35DA3A3FE804040C0058F8F8A73
:103810003F9292AD219D9DBC70383848F1F5F5047A
:1038200063BCBCDF77B6B6C1AFDADA75422121637B
:1038300020101030E5FFFF1AFDF3F30EBFD2D26D5A
:1038400081CDCD4C180C0C1426131335C3ECEC2F82
:10385000BE5F5FE1359797A2884444CC2E17173995
:1038600093C4C45755A7A7F2FC7E7E827A3D3D479C
:10387000C86464ACBA5D5DE73219192BE6737395C1
:10388000C06060A0198181989E4F4FD1A3DCDC7F7E
:1038900044222266542A2A7E3B9090AB0B88888370
:1038A0008C4646CAC7EEEE296BB8B8D32814143C30
:1038B000A7DEDE79BC5E5EE2160B0B1DADDBDB76B0
:1038C000DBE0E03B64323256743A3A4E140A0A1E88
:1038D000924949DB0C06060A4824246CB85C5CE477
:1038E0009FC2C25DBDD3D36E43ACACEFC46262A6CF
:1038F000399191A8319595A4D3E4E437F279798B85
:10390000D5E7E7328BC8C8436E373759DA6D6DB7E4
:10391000018D8D8CB1D5D5649C4E4ED249A9A9E0BC
:10392000D86C6CB4AC5656FAF3F4F407CFEAEA2537
:10393000CA6565AFF47A7A8E47AEAEE9100808180A
:103940006FBABAD5F07878884A25256F5C2E2E722A
:10395000381C1C2457A6A6F173B4B4C797C6C65129
:10396000CBE8E823A1DDDD7CE874749C3E1F1F21B9
:10397000964B4BDD61BDBDDC0D8B8B860F8A8A8536
:10398000E07070907C3E3E4271B5B5C4CC6666AACC
:10399000904848D806030305F7F6F6011C0E0E12F0
:1039A000C26161A36A35355FAE5757F969B9B9D0BD
:1039B0001786869199C1C1583A1D1D27279E9EB929
:1039C000D9E1E138EBF8F8132B9898B322111133B1
:1039D000D26969BBA9D9D970078E8E89339494A70F
:1039E0002D9B9BB63C1E1E2215878792C9E9E920B4
:1039F00087CECE49AA5555FF50282878A5DFDF7A13
:103A0000038C8C8F59A1A1F8098989801A0D0D1793
:103A100065BFBFDAD7E6E631844242C6D06868B8EF
:103A2000824141C3299999B05A2D2D771E0F0F114C
:103A30007BB0B0CBA85454FC6DBBBBD62C16163A49
:103A4000A5C6636384F87C7C99EE77778DF67B7BE3
:103A50000DFFF2F2BDD66B6BB1DE6F6F5491C5C531
:103A60005060303003020101A9CE67677D562B2BD1
:103A700019E7FEFE62B5D7D7E64DABAB9AEC76768A
:103A8000458FCACA9D1F82824089C9C987FA7D7D38
:103A900015EFFAFAEBB25959C98E47470BFBF0F014
:103AA000EC41ADAD67B3D4D4FD5FA2A2EA45AFAFA0
:103AB000BF239C9CF753A4A496E472725B9BC0C086
:103AC000C275B7B71CE1FDFDAE3D93936A4C262647
:103AD0005A6C3636417E3F3F02F5F7F74F83CCCC28
:103AE0005C683434F451A5A534D1E5E508F9F1F169
:103AF00093E2717173ABD8D8536231313F2A1515F7
:103B00000C0804045295C7C7654623235E9DC3C3B2
:103B100028301818A13796960F0A0505B52F9A9ADE
:103B2000090E0707362412129B1B80803DDFE2E25C
:103B300026CDEBEB694E2727CD7FB2B29FEA757594
:103B40001B1209099E1D838374582C2C2E341A1ABB
:103B50002D361B1BB2DC6E6EEEB45A5AFB5BA0A076
:103B6000F6A452524D763B3B61B7D6D6CE7DB3B369
:103B70007B5229293EDDE3E3715E2F2F9713848466
:103B8000F5A6535368B9D1D1000000002CC1EDED6A
:103B9000604020201FE3FCFCC879B1B1EDB65B5B4F
:103BA000BED46A6A468DCBCBD967BEBE4B7239395B
:103BB000DE944A4AD4984C4CE8B058584A85CFCF46
:103BC0006BBBD0D02AC5EFEFE54FAAAA16EDFBFBE1
:103BD000C5864343D79A4D4D556633339411858539
:103BE000CF8A454510E9F9F90604020281FE7F7F7C
:103BF000F0A0505044783C3CBA259F9FE34BA8A8C6
:103C0000F3A25151FE5DA3A3C08040408A058F8F6F
:103C1000AD3F9292BC219D9D4870383804F1F5F576
:103C2000DF63BCBCC177B6B675AFDADA6342212177
:103C3000302010101AE5FFFF0EFDF3F36DBFD2D256
:103C40004C81CDCD14180C0C352613132FC3ECEC7E
:103C5000E1BE5F5FA2359797CC884444392E171791
:103C60005793C4C4F255A7A782FC7E7E477A3D3D98
:103C7000ACC86464E7BA5D5D2B32191995E67373BD
:103C8000A0C0606098198181D19E4F4F7FA3DCDC7A
:103C9000664422227E542A2AAB3B9090830B88886C
:103CA000CA8C464629C7EEEED36BB8B83C2814142C
:103CB00079A7DEDEE2BC5E5E1D160B0B76ADDBDBAC
:103CC0003BDBE0E0566432324E743A3A1E140A0A84
:103CD000DB9249490A0C06066C482424E4B85C5C73
:103CE0005D9FC2C26EBDD3D3EF43ACACA6C46262CB
:103CF000A8399191A431959537D3E4E48BF2797981
:103D000032D5E7E7438BC8C8596E3737B7DA6D6DE0
:103D10008C018D8D64B1D5D5D29C4E4EE049A9A9B8
:103D2000B4D86C6CFAAC565607F3F4F425CFEAEA33
:103D3000AFCA65658EF47A7AE947AEAE1810080806
:103D4000D56FBABA88F078786F4A2525725C2E2E26
:103D500024381C1CF157A6A6C773B4B45197C6C625
:103D600023CBE8E87CA1DDDD9CE87474213E1F1FB5
:103D7000DD964B4BDC61BDBD860D8B8B850F8A8A32
:103D800090E07070427C3E3EC471B5B5AACC6666C8
:103D9000D89048480506030301F7F6F6121C0E0EEC
:103DA000A3C261615F6A3535F9AE5757D069B9B9B9
:103DB000911786865899C1C1273A1D1DB9279E9E25
:103DC00038D9E1E113EBF8F8B32B989833221111AD
:103DD000BBD2696970A9D9D989078E8EA73394940B
:103DE000B62D9B9B223C1E1E9215878720C9E9E9B0
:103DF0004987CECEFFAA5555785028287AA5DFDF0F
:103E00008F038C8CF859A1A180098989171A0D0D8F
:103E1000DA65BFBF31D7E6E6C6844242B8D06868EB
:103E2000C3824141B0299999775A2D2D111E0F0F48
:103E3000CB7BB0B0FCA85454D66DBBBB3A2C161645
:103E400063A5C6637C84F87C7799EE777B8DF67BDF
:103E5000F20DFFF26BBDD66B6FB1DE6FC55491C52D
:103E6000305060300103020167A9CE672B7D562BCD
:103E7000FE19E7FED762B5D7ABE64DAB769AEC7686
:103E8000CA458FCA829D1F82C94089C97D87FA7D34
:103E9000FA15EFFA59EBB25947C98E47F00BFBF010
:103EA000ADEC41ADD467B3D4A2FD5FA2AFEA45AF9C
:103EB0009CBF239CA4F753A47296E472C05B9BC082
:103EC000B7C275B7FD1CE1FD93AE3D93266A4C2643
:103ED000365A6C363F417E3FF702F5F7CC4F83CC24
:103EE000345C6834A5F451A5E534D1E5F108F9F165
:103EF0007193E271D873ABD831536231153F2A15F3
:103F0000040C0804C75295C723654623C35E9DC3AE
:103F10001828301896A13796050F0A059AB52F9ADA
:103F200007090E0712362412809B1B80E23DDFE258
:103F3000EB26CDEB27694E27B2CD7FB2759FEA7590
:103F4000091B1209839E1D832C74582C1A2E341AB7
:103F50001B2D361B6EB2DC6E5AEEB45AA0FB5BA072
:103F600052F6A4523B4D763BD661B7D6B3CE7DB365
:103F7000297B5229E33EDDE32F715E2F8497138462
:103F800053F5A653D168B9D100000000ED2CC1ED66
:103F900020604020FC1FE3FCB1C879B15BEDB65B4B
:103FA0006ABED46ACB468DCBBED967BE394B723957
:103FB0004ADE944A4CD4984C58E8B058CF4A85CF42
:103FC000D06BBBD0EF2AC5EFAAE54FAAFB16EDFBDD
:103FD00043C586434DD79A4D335566338594118535
:103FE00045CF8A45F910E9F9020604027F81FE7F78
:103FF00050F0A0503C44783C9FBA259FA8E34BA8C2
:1040000051F3A251A3FE5DA340C080408F8A058F6B
:1040100092AD3F929DBC219D38487038F504F1F572
:10402000BCDF63BCB6C177B6DA75AFDA2163422173
:1040300010302010FF1AE5FFF30EFDF3D26DBFD252
:10404000CD4C81CD0C14180C13352613EC2FC3EC7A
:104050005FE1BE5F97A2359744CC884417392E178D
:10406000C45793C4A7F255A77E82FC7E3D477A3D94
:1040700064ACC8645DE7BA5D192B32197395E673B9
:1040800060A0C060819819814FD19E4FDC7FA3DC76
:10409000226644222A7E542A90AB3B9088830B8868
:1040A00046CA8C46EE29C7EEB8D36BB8143C281428
:1040B000DE79A7DE5EE2BC5E0B1D160BDB76ADDBA8
:1040C000E03BDBE0325664323A4E743A0A1E140A80
:1040D00049DB9249060A0C06246C48245CE4B85C6F
:1040E000C25D9FC2D36EBDD3ACEF43AC62A6C462C7
:1040F00091A8399195A43195E437D3E4798BF2797D
:10410000E732D5E7C8438BC837596E376DB7DA6DDC
:104110008D8C018DD564B1D54ED29C4EA9E049A9B4
:104120006CB4D86C56FAAC56F407F3F4EA25CFEA2F
:1041300065AFCA657A8EF47AAEE947AE0818100802
:10414000BAD56FBA7888F078256F4A252E725C2E22
:104150001C24381CA6F157A6B4C773B4C65197C621
:10416000E823CBE8DD7CA1DD749CE8741F213E1FB1
:104170004BDD964BBDDC61BD8B860D8B8A850F8A2E
:104180007090E0703E427C3EB5C471B566AACC66C4
:1041900048D8904803050603F601F7F60E121C0EE8
:1041A00061A3C261355F6A3557F9AE57B9D069B9B5
:1041B00086911786C15899C11D273A1D9EB9279E21
:1041C000E138D9E1F813EBF898B32B9811332211A9
:1041D00069BBD269D970A9D98E89078E94A7339407
:1041E0009BB62D9B1E223C1E87921587E920C9E9AC
:1041F000CE4987CE55FFAA5528785028DF7AA5DF0B
:104200008C8F038CA1F859A1898009890D171A0D8B
:10421000BFDA65BFE631D7E642C6844268B8D068E7
:1042200041C3824199B029992D775A2D0F111E0F44
:10423000B0CB7BB054FCA854BBD66DBB163A2C1641
:104240006363A5C67C7C84F8777799EE7B7B8DF6DB
:10425000F2F20DFF6B6BBDD66F6FB1DEC5C5549129
:1042600030305060010103026767A9CE2B2B7D56C9
:10427000FEFE19E7D7D762B5ABABE64D76769AEC82
:10428000CACA458F82829D1FC9C940897D7D87FA30
:10429000FAFA15EF5959EBB24747C98EF0F00BFB0C
:1042A000ADADEC41D4D467B3A2A2FD5FAFAFEA4598
:1042B0009C9CBF23A4A4F753727296E4C0C05B9B7E
:1042C000B7B7C275FDFD1CE19393AE3D26266A4C3F
:1042D00036365A6C3F3F417EF7F702F5CCCC4F8320
:1042E00034345C68A5A5F451E5E534D1F1F108F961
:1042F000717193E2D8D873AB3131536215153F2AEF
:1043000004040C08C7C7529523236546C3C35E9DAA
:10431000181828309696A13705050F0A9A9AB52FD6
:104320000707090E1212362480809B1BE2E23DDF54
:10433000EBEB26CD2727694EB2B2CD7F75759FEA8C
:1043400009091B1283839E1D2C2C74581A1A2E34B3
:104350001B1B2D366E6EB2DC5A5AEEB4A0A0FB5B6E
:104360005252F6A43B3B4D76D6D661B7B3B3CE7D61
:1043700029297B52E3E33EDD2F2F715E848497135E
:104380005353F5A6D1D168B900000000EDED2CC162
:1043900020206040FCFC1FE3B1B1C8795B5BEDB647
:1043A0006A6ABED4CBCB468DBEBED96739394B7253
:1043B0004A4ADE944C4CD4985858E8B0CFCF4A853E
:1043C000D0D06BBBEFEF2AC5AAAAE54FFBFB16EDD9
:1043D0004343C5864D4DD79A333355668585941131
:1043E0004545CF8AF9F910E9020206047F7F81FE74
:1043F0005050F0A03C3C44789F9FBA25A8A8E34BBE
:104400005151F3A2A3A3FE5D4040C0808F8F8A0567
:104410009292AD3F9D9DBC2138384870F5F504F16E
:10442000BCBCDF63B6B6C177DADA75AF212163426F
:1044300010103020FFFF1AE5F3F30EFDD2D26DBF4E
:10444000CDCD4C810C0C141813133526ECEC2FC376
:104450005F5FE1BE9797A2354444CC881717392E89
:10446000C4C45793A7A7F2557E7E82FC3D3D477A90
:104470006464ACC85D5DE7BA19192B32737395E6B5
:104480006060A0C0818198194F4FD19EDCDC7FA372
:10449000222266442A2A7E549090AB3B8888830B64
:1044A0004646CA8CEEEE29C7B8B8D36B14143C2824
:1044B000DEDE79A75E5EE2BC0B0B1D16DBDB76ADA4
:1044C000E0E03BDB323256643A3A4E740A0A1E147C
:1044D0004949DB9206060A0C24246C485C5CE4B86B
:1044E000C2C25D9FD3D36EBDACACEF436262A6C4C3
:1044F0009191A8399595A431E4E437D379798BF279
:10450000E7E732D5C8C8438B3737596E6D6DB7DAD8
:104510008D8D8C01D5D564B14E4ED29CA9A9E049B0
:104520006C6CB4D85656FAACF4F407F3EAEA25CF2B
:104530006565AFCA7A7A8EF4AEAEE94708081810FE
:10454000BABAD56F787888F025256F4A2E2E725C1E
:104550001C1C2438A6A6F157B4B4C773C6C651971D
:10456000E8E823CBDDDD7CA174749CE81F1F213EAD
:104570004B4BDD96BDBDDC618B8B860D8A8A850F2A
:10458000707090E03E3E427CB5B5C4716666AACCC0
:104590004848D89003030506F6F601F70E0E121CE4
:1045A0006161A3C235355F6A5757F9AEB9B9D069B1
:1045B00086869117C1C158991D1D273A9E9EB9271D
:1045C000E1E138D9F8F813EB9898B32B11113322A5
:1045D0006969BBD2D9D970A98E8E89079494A73303
:1045E0009B9BB62D1E1E223C87879215E9E920C9A8
:1045F000CECE49875555FFAA28287850DFDF7AA507
:104600008C8C8F03A1A1F859898980090D0D171A87
:10461000BFBFDA65E6E631D74242C6846868B8D0E3
:104620004141C3829999B0292D2D775A0F0F111E40
:10463000B0B0CB7B5454FCA8BBBBD66D16163A2C3D
:1046400052096AD53036A538BF40A39E81F3D7FB07
:104650007CE339829B2FFF87348E4344C4DEE9CB51
:10466000547B9432A6C2233DEE4C950B42FAC34EC6
:10467000082EA16628D924B2765BA2496D8BD1257C
:1046800072F8F66486689816D4A45CCC5D65B69220
:104690006C704850FDEDB9DA5E154657A78D9D84C4
:1046A00090D8AB008CBCD30AF7E45805B8B34506E4
:1046B000D02C1E8FCA3F0F02C1AFBD0301138A6BFE
:1046C0003A9111414F67DCEA97F2CFCEF0B4E6732E
:1046D00096AC7422E7AD3585E2F937E81C75DF6EDC
:1046E00047F11A711D29C5896FB7620EAA18BE1B42
:1046F000FC563E4BC6D279209ADBC0FE78CD5AF4E8
:104700001FDDA8338807C731B11210592780EC5F2D
:1047100060517FA919B54A0D2DE57A9F93C99CEF89
:10472000A0E03B4DAE2AF5B0C8EBBB3C835399618A
:10473000172B047EBA77D626E169146355210C7DC8
:1047400051F4A7507E4165531A17A4C33A275E96C9
:104750003BAB6BCB1F9D45F1ACFA58AB4BE30393DE
:104760002030FA55AD766DF688CC7691F5024C2561
:104770004FE5D7FCC52ACBD726354480B562A38F39
:10478000DEB15A4925BA1B6745EA0E985DFEC0E1C5
:10479000C32F7502814CF0128D4697A36BD3F9C6D7
:1047A000038F5FE715929C95BF6D7AEB955259DAAE
:1047B000D4BE832D587421D349E069298EC9C844D9
:1047C00075C2896AF48E797899583E6B27B971DD84
:1047D000BEE14FB6F088AD17C920AC667DCE3AB4C5
:1047E00063DF4A18E51A31829751336062537F457F
:1047F000B16477E0BB6BAE84FE81A01CF9082B94FA
:10480000704868588F45FD1994DE6C87527BF8B765
:10481000AB73D323724B02E2E31F8F576655AB2A6B
:10482000B2EB28072FB5C20386C57B9AD33708A5FC
:10483000302887F223BFA5B202036ABAED16825C64
:104840008ACF1C2BA779B492F307F2F04E69E2A14C
:1048500065DAF4CD0605BED5D134621FC4A6FE8A42
:10486000342E539DA2F355A0058AE132A4F6EB75D0
:104870000B83EC394060EFAA5E719F06BD6E10514C
:104880003E218AF996DD063DDD3E05AE4DE6BD468C
:1048900091548DB571C45D050406D46F605015FF49
:1048A0001998FB24D6BDE997894043CC67D99E77F8
:1048B000B0E842BD07898B88E7195B3879C8EEDB21
:1048C000A17C0A477C420FE9F8841EC90000000061
:1048D00009808683322BED481E1170AC6C5A724EE3
:1048E000FD0EFFFB0F8538563DAED51E362D392700
:1048F0000A0FD964685CA6219B5B54D124362E3AFA
:104900000C0A67B19357E70FB4EE96D21B9B919EAA
:1049100080C0C54F61DC20A25A774B691C121A1661
:10492000E293BA0AC0A02AE53C22E043121B171DFD
:104930000E090D0BF28BC7AD2DB6A8B9141EA9C870
:1049400057F11985AF75074CEE99DDBBA37F60FD6C
:10495000F701269F5C72F5BC44663BC55BFB7E3469
:104960008B432976CB23C6DCB6EDFC68B8E4F16353
:10497000D731DCCA426385101397224084C61120C8
:10498000854A247DD2BB3DF8AEF93211C729A16D0D
:104990001D9E2F4BDCB230F30D8652EC77C1E3D075
:1049A0002BB3166CA970B999119448FA47E964229F
:1049B000A8FC8CC4A0F03F1A567D2CD8223390EF6F
:1049C00087494EC7D938D1C18CCAA2FE98D40B36BC
:1049D000A6F581CFA57ADE28DAB78E263FADBFA433
:1049E0002C3A9DE45078920D6A5FCC9B547E4662CF
:1049F000F68D13C290D8B8E82E39F75E82C3AFF5B2
:104A00009F5D80BE69D0937C6FD52DA9CF2512B351
:104A1000C8AC993B10187DA7E89C636EDB3BBB7B61
:104A2000CD2678096E5918F4EC9AB701834F9AA8ED
:104A3000E6956E65AAFFE67E21BCCF08EF15E8E695
:104A4000BAE79BD94A6F36CEEA9F09D429B07CD603
:104A500031A4B2AF2A3F2331C6A5943035A266C037
:104A6000744EBC37FC82CAA6E090D0B033A7D815EC
:104A7000F104984A41ECDAF77FCD500E1791F62FEA
:104A8000764DD68D43EFB04DCCAA4D54E49604DF5D
:104A90009ED1B5E34C6A881BC12C1FB84665517F77
:104AA0009D5EEA04018C355DFA877473FB0B412E21
:104AB000B3671D5A92DBD252E91056336DD64713B5
:104AC0009AD7618C37A10C7A59F8148EEB133C8974
:104AD000CEA927EEB761C935E11CE5ED7A47B13CB7
:104AE0009CD2DF5955F2733F1814CE7973C737BF84
:104AF00053F7CDEA5FFDAA5BDF3D6F147844DB8698
:104B0000CAAFF381B968C43E3824342CC2A3405FD5
:104B1000161DC372BCE2250C283C498BFF0D954144
:104B200039A80171080CB3DED8B4E49C6456C19076
:104B30007BCB8461D532B670486C5C74D0B8574278
:104B40005051F4A7537E4165C31A17A4963A275EC5
:104B5000CB3BAB6BF11F9D45ABACFA58934BE303DA
:104B6000552030FAF6AD766D9188CC7625F5024C5D
:104B7000FC4FE5D7D7C52ACB802635448FB562A335
:104B800049DEB15A6725BA1B9845EA0EE15DFEC0C1
:104B900002C32F7512814CF0A38D4697C66BD3F9D3
:104BA000E7038F5F9515929CEBBF6D7ADA955259AA
:104BB0002DD4BE83D35874212949E069448EC9C8D5
:104BC0006A75C28978F48E796B99583EDD27B97180
:104BD000B6BEE14F17F088AD66C920ACB47DCE3AC1
:104BE0001863DF4A82E51A31609751334562537F7B
:104BF000E0B1647784BB6BAE1CFE81A094F9082BF6
:104C000058704868198F45FD8794DE6CB7527BF861
:104C100023AB73D3E2724B0257E31F8F2A6655AB67
:104C200007B2EB28032FB5C29A86C57BA5D33708F8
:104C3000F2302887B223BFA5BA02036A5CED168260
:104C40002B8ACF1C92A779B4F0F307F2A14E69E248
:104C5000CD65DAF4D50605BE1FD134628AC4A6FE3E
:104C60009D342E53A0A2F35532058AE175A4F6EBCC
:104C7000390B83ECAA4060EF065E719F51BD6E1048
:104C8000F93E218A3D96DD06AEDD3E05464DE6BD88
:104C9000B591548D0571C45D6F0406D4FF60501545
:104CA000241998FB97D6BDE9CC8940437767D99EF4
:104CB000BDB0E8428807898B38E7195BDB79C8EE1D
:104CC00047A17C0AE97C420FC9F8841E000000005D
:104CD0008309808648322BEDAC1E11704E6C5A72DF
:104CE000FBFD0EFF560F85381E3DAED527362D39FC
:104CF000640A0FD921685CA6D19B5B543A24362EF6
:104D0000B10C0A670F9357E7D2B4EE969E1B9B91A6
:104D10004F80C0C5A261DC20695A774B161C121A5D
:104D20000AE293BAE5C0A02A433C22E01D121B17F9
:104D30000B0E090DADF28BC7B92DB6A8C8141EA96C
:104D40008557F1194CAF7507BBEE99DDFDA37F6068
:104D50009FF70126BC5C72F5C544663B345BFB7E65
:104D6000768B4329DCCB23C668B6EDFC63B8E4F14F
:104D7000CAD731DC10426385401397222084C611C4
:104D80007D854A24F8D2BB3D11AEF9326DC729A109
:104D90004B1D9E2FF3DCB230EC0D8652D077C1E371
:104DA0006C2BB31699A970B9FA1194482247E9649B
:104DB000C4A8FC8C1AA0F03FD8567D2CEF2233906B
:104DC000C787494EC1D938D1FE8CCAA23698D40BB8
:104DD000CFA6F58128A57ADE26DAB78EA43FADBF2F
:104DE000E42C3A9D0D5078929B6A5FCC62547E46CB
:104DF000C2F68D13E890D8B85E2E39F7F582C3AFAE
:104E0000BE9F5D807C69D093A96FD52DB3CF25124D
:104E10003BC8AC99A710187D6EE89C637BDB3BBB5D
:104E200009CD2678F46E591801EC9AB7A8834F9AE9
:104E300065E6956E7EAAFFE60821BCCFE6EF15E891
:104E4000D9BAE79BCE4A6F36D4EA9F09D629B07CFF
:104E5000AF31A4B2312A3F2330C6A594C035A26633
:104E600037744EBCA6FC82CAB0E090D01533A7D8E8
:104E70004AF10498F741ECDA0E7FCD502F1791F6E6
:104E80008D764DD64D43EFB054CCAA4DDFE4960459
:104E9000E39ED1B51B4C6A88B8C12C1F7F46655173
:104EA000049D5EEA5D018C3573FA87742EFB0B411D
:104EB0005AB3671D5292DBD233E91056136DD647B1
:104EC0008C9AD7617A37A10C8E59F81489EB133C70
:104ED000EECEA92735B761C9EDE11CE53C7A47B1B3
:104EE000599CD2DF3F55F273791814CEBF73C73780
:104EF000EA53F7CD5B5FFDAA14DF3D6F867844DB94
:104F000081CAAFF33EB968C42C3824345FC2A340D1
:104F100072161DC30CBCE2258B283C4941FF0D9540
:104F20007139A801DE080CB39CD8B4E4906456C172
:104F3000617BCB8470D532B674486C5C42D0B85774
:104F4000A75051F465537E41A4C31A175E963A27C1
:104F50006BCB3BAB45F11F9D58ABACFA03934BE3D6
:104F6000FA5520306DF6AD76769188CC4C25F50259
:104F7000D7FC4FE5CBD7C52A44802635A38FB56231
:104F80005A49DEB11B6725BA0E9845EAC0E15DFEBD
:104F90007502C32FF012814C97A38D46F9C66BD3CF
:104FA0005FE7038F9C9515927AEBBF6D59DA9552A6
:104FB000832DD4BE21D35874692949E0C8448EC9D1
:104FC000896A75C27978F48E3E6B995871DD27B97C
:104FD0004FB6BEE1AD17F088AC66C9203AB47DCEBD
:104FE0004A1863DF3182E51A336097517F45625377
:104FF00077E0B164AE84BB6BA01CFE812B94F908F2
:1050000068587048FD198F456C8794DEF8B7527B5D
:10501000D323AB7302E2724B8F57E31FAB2A665563
:105020002807B2EBC2032FB57B9A86C508A5D337F4
:1050300087F23028A5B223BF6ABA0203825CED165C
:105040001C2B8ACFB492A779F2F0F307E2A14E6944
:10505000F4CD65DABED50605621FD134FE8AC4A63A
:10506000539D342E55A0A2F3E132058AEB75A4F6C8
:10507000EC390B83EFAA40609F065E711051BD6E44
:105080008AF93E21063D96DD05AEDD3EBD464DE684
:105090008DB591545D0571C4D46F040615FF605041
:1050A000FB241998E997D6BD43CC89409E7767D9F0
:1050B00042BDB0E88B8807895B38E719EEDB79C819
:1050C0000A47A17C0FE97C421EC9F8840000000059
:1050D00086830980ED48322B70AC1E11724E6C5ADB
:1050E000FFFBFD0E38560F85D51E3DAE3927362DF8
:1050F000D9640A0FA621685C54D19B5B2E3A2436F2
:1051000067B10C0AE70F935796D2B4EE919E1B9BA2
:10511000C54F80C020A261DC4B695A771A161C1259
:10512000BA0AE2932AE5C0A0E0433C22171D121BF5
:105130000D0B0E09C7ADF28BA8B92DB6A9C8141E68
:10514000198557F1074CAF75DDBBEE9960FDA37F64
:10515000269FF701F5BC5C723BC544667E345BFB61
:1051600029768B43C6DCCB23FC68B6EDF163B8E44B
:10517000DCCAD7318510426322401397112084C6C0
:10518000247D854A3DF8D2BB3211AEF9A16DC72905
:105190002F4B1D9E30F3DCB252EC0D86E3D077C16D
:1051A000166C2BB3B999A97048FA1194642247E997
:1051B0008CC4A8FC3F1AA0F02CD8567D90EF223367
:1051C0004EC78749D1C1D938A2FE8CCA0B3698D4B4
:1051D00081CFA6F5DE28A57A8E26DAB7BFA43FAD2B
:1051E0009DE42C3A920D5078CC9B6A5F4662547EC7
:1051F00013C2F68DB8E890D8F75E2E39AFF582C3AA
:1052000080BE9F5D937C69D02DA96FD512B3CF2549
:10521000993BC8AC7DA71018636EE89CBB7BDB3B59
:105220007809CD2618F46E59B701EC9A9AA8834FE5
:105230006E65E695E67EAAFFCF0821BCE8E6EF158D
:105240009BD9BAE736CE4A6F09D4EA9F7CD629B0FB
:10525000B2AF31A423312A3F9430C6A566C035A22F
:10526000BC37744ECAA6FC82D0B0E090D81533A7E4
:10527000984AF104DAF741EC500E7FCDF62F1791E2
:10528000D68D764DB04D43EF4D54CCAA04DFE49655
:10529000B5E39ED1881B4C6A1FB8C12C517F46656F
:1052A000EA049D5E355D018C7473FA87412EFB0B19
:1052B0001D5AB367D25292DB5633E91047136DD6AD
:1052C000618C9AD70C7A37A1148E59F83C89EB136C
:1052D00027EECEA9C935B761E5EDE11CB13C7A47AF
:1052E000DF599CD2733F55F2CE79181437BF73C77C
:1052F000CDEA53F7AA5B5FFD6F14DF3DDB86784490
:10530000F381CAAFC43EB968342C3824405FC2A3CD
:10531000C372161D250CBCE2498B283C9541FF0D3C
:10532000017139A8B3DE080CE49CD8B4C19064566E
:1053300084617BCBB670D5325C74486C5742D0B870
:10534000F4A750514165537E17A4C31A275E963ABD
:10535000AB6BCB3B9D45F11FFA58ABACE303934BD2
:1053600030FA5520766DF6ADCC769188024C25F555
:10537000E5D7FC4F2ACBD7C53544802662A38FB52D
:10538000B15A49DEBA1B6725EA0E9845FEC0E15DB9
:105390002F7502C34CF012814697A38DD3F9C66BCB
:1053A0008F5FE703929C95156D7AEBBF5259DA95A2
:1053B000BE832DD47421D358E0692949C9C8448ECD
:1053C000C2896A758E7978F4583E6B99B971DD2778
:1053D000E14FB6BE88AD17F020AC66C9CE3AB47DB9
:1053E000DF4A18631A3182E551336097537F456273
:1053F0006477E0B16BAE84BB81A01CFE082B94F9EE
:105400004868587045FD198FDE6C87947BF8B75259
:1054100073D323AB4B02E2721F8F57E355AB2A665F
:10542000EB2807B2B5C2032FC57B9A863708A5D3F0
:105430002887F230BFA5B223036ABA0216825CED58
:10544000CF1C2B8A79B492A707F2F0F369E2A14E40
:10545000DAF4CD6505BED50634621FD1A6FE8AC436
:105460002E539D34F355A0A28AE13205F6EB75A4C4
:1054700083EC390B60EFAA40719F065E6E1051BD40
:10548000218AF93EDD063D963E05AEDDE6BD464D80
:10549000548DB591C45D057106D46F045015FF603D
:1054A00098FB2419BDE997D64043CC89D99E7767EC
:1054B000E842BDB0898B8807195B38E7C8EEDB7915
:1054C0007C0A47A1420FE97C841EC9F80000000055
:1054D000808683092BED48321170AC1E5A724E6CD7
:1054E0000EFFFBFD8538560FAED51E3D2D392736F4
:1054F0000FD9640A5CA621685B54D19B362E3A24EE
:105500000A67B10C57E70F93EE96D2B49B919E1B9E
:10551000C0C54F80DC20A261774B695A121A161C55
:1055200093BA0AE2A02AE5C022E0433C1B171D12F1
:10553000090D0B0E8BC7ADF2B6A8B92D1EA9C81464
:10554000F119855775074CAF99DDBBEE7F60FDA360
:1055500001269FF772F5BC5C663BC544FB7E345B5D
:105560004329768B23C6DCCBEDFC68B6E4F163B847
:1055700031DCCAD76385104297224013C6112084BC
:105580004A247D85BB3DF8D2F93211AE29A16DC701
:105590009E2F4B1DB230F3DC8652EC0DC1E3D07769
:1055A000B3166C2B70B999A99448FA11E964224793
:1055B000FC8CC4A8F03F1AA07D2CD8563390EF2263
:1055C000494EC78738D1C1D9CAA2FE8CD40B3698B0
:1055D000F581CFA67ADE28A5B78E26DAADBFA43F27
:1055E0003A9DE42C78920D505FCC9B6A7E466254C3
:1055F0008D13C2F6D8B8E89039F75E2EC3AFF582A6
:105600005D80BE9FD0937C69D52DA96F2512B3CF45
:10561000AC993BC8187DA7109C636EE83BBB7BDB55
:10562000267809CD5918F46E9AB701EC4F9AA883E1
:10563000956E65E6FFE67EAABCCF082115E8E6EF89
:10564000E79BD9BA6F36CE4A9F09D4EAB07CD629F7
:10565000A4B2AF313F23312AA59430C6A266C0352B
:105660004EBC377482CAA6FC90D0B0E0A7D81533E0
:1056700004984AF1ECDAF741CD500E7F91F62F17DE
:105680004DD68D76EFB04D43AA4D54CC9604DFE451
:10569000D1B5E39E6A881B4C2C1FB8C165517F466B
:1056A0005EEA049D8C355D01877473FA0B412EFB15
:1056B000671D5AB3DBD25292105633E9D647136DA9
:1056C000D7618C9AA10C7A37F8148E59133C89EB68
:1056D000A927EECE61C935B71CE5EDE147B13C7AAB
:1056E000D2DF599CF2733F5514CE7918C737BF7378
:1056F000F7CDEA53FDAA5B5F3D6F14DF44DB86788C
:10570000AFF381CA68C43EB924342C38A3405FC2C9
:105710001DC37216E2250CBC3C498B280D9541FF38
:10572000A80171390CB3DE08B4E49CD856C190646A
:10573000CB84617B32B670D56C5C7448B85742D06C
:10574000010000000200000004000000080000004A
:105750001000000020000000400000008000000059
:105760001B0000003600000044416AC2D1F53C58DD
:105770003303917E6BE9EBE048E31E9E256718F248
:105780009229319C19F15BA4058CCFFDBBCB382D40
:105790001F6F56585D8A4ADEC34C052CC0DA8D73E4
:1057A000451AFE5F03BE297FF3F6752AE8D78311F9
:1057B00038F041560631B1148B79EECC93A0EE5DF2
:1057C000FF30B4EA21636DA4FACA37E0B0C853735E
:1057D000DF706E73F7C9AF865DF678DD17BA4E7568
:1057E000B61768C6ADEF7C7B4804E1818FE629756A
:1057F00019A3E88C573104138A05FC5E095AF48416
:105800008A08D328D3688E3D7BD966D53AD8C1BBE8
:1058100085D2ADFAE87BB104FE3C53653E2F45B519
:105820006FCD88B2CC898FF02B7E151628AED2A60C
:10583000ABF7158809CF4F3C0000000000000000C6
:1058400000000000000000008E73B0F7DA0E645212
:10585000C810F32B809079E562F8EAD2522C6B7B6A
:105860000000000000000000603DEB1015CA71BE92
:105870002B73AEF0857D77811F352C073B6108D7F0
:105880002D9810A30914DFF4000102030405060794
:1058900008090A0B0C0D0E0F6BC1BEE22E409F963D
:1058A000E93D7E117393172AAE2D8A571E03AC9CD7
:1058B0009EB76FAC45AF8E5130C81C46A35CE41157
:1058C000E5FBC1191A0A52EFF69F2445DF4F9B17DB
:1058D000AD2B417BE66C37103B3FD92EB72DAD2069
:1058E000333449F8E83CFB4AC8A64537A0B3A93F82
:1058F000CDE3CDAD9F1CE58B26751F67A3CBB140D3
:10590000B1808CF187A4F4DFC04B05357C5D1C0EA3
:10591000EAC4C66F9FF7F2E6CDC80D6FDDF18CAB20
:1059200034C25909C99A417467CE7F7F81173621E5
:10593000961A2B70171D3D7A2E1E8A1DD59B88B195
:10594000C8E60FED1EFAC4C9C05F9F9CA9834FA093
:1059500042AE8FBA584B09FFDC7E84BFDA79164B12
:105960007ECD8486985D386039FFED143B28B1C840
:1059700032113C6331E5407BDF10132415E54B9277
:10598000A13ED0A8267AE2F975A385741AB9CEF89B
:105990002031623D55B1E471AE6852F8121067CC07
:1059A0004BF7A5765577F39E7E24067817FAE0D755
:1059B00043D6CE1F325391637691BE035E5020A82A
:1059C000AC6E618529F9A0DC000000300000000009
:1059D0000000000000000001006CB6DBC0543B5921
:1059E000DA48D90B0000000100E0017B27777F3FF8
:1059F0004A1786F00000000153696E676C652062EB
:105A00006C6F636B206D7367000000000000000086
:105A10000000000000000000000000000000000086
:105A2000000000000000000000010203040506075A
:105A300008090A0B0C0D0E0F10111213141516176E
:105A400018191A1B1C1D1E1F00000000000000007A
:105A5000000000000000000000010203040506072A
:105A600008090A0B0C0D0E0F10111213141516173E
:105A700018191A1B1C1D1E1F2021222300000000C4
:105A80000000000000000000E4095D4FB7A7B379F3
:105A90002D6175A3261311B800000000000000005E
:105AA00000000000000000000000000000000000F6
:105AB00000000000000000005104A106168A72D9FF
:105AC000790D41EE8EDAD388EB2E1EFC46DA57C8EC
