:020000040800F2
:100000002044002089190008770B0008770B0008AE
:10001000770B0008770B0008770B00080000000042
:10002000000000000000000000000000770B000846
:10003000770B000800000000770B0008770B000822
:100040002DE9F04F83B000200122DFF8E43ADFF819
:10005000E41A1A6041F8220014064CBF1B24002445
:1000600082EA4202401C1B1D6240FF2802F0FF0290
:10007000EFDDDFF8C43A01220A201A6014064CBFF3
:100080001B2400241B1D84EA4202401E02F0FF02D2
:10009000F3D1DFF8A87ADFF8982A632038707C1C47
:1000A000002082F8630401F10408012058F8043BA1
:1000B000DFF87C2A5B4202EB8302D2F8FC33DA11D0
:1000C00042EA430202F0FF02D60946EA42065340E2
:1000D00006F0FF06F20942EA4602734002F0FF0210
:1000E000D60946EA420606F0FF06724082F0630235
:1000F0005340DFF84C2A04F8013BD054401CFF2841
:10010000D4DD01974FF4807002910090DFF8343A0B
:10011000DFF8344ADFF8348ADFF8346ADFF834AACB
:10012000DFF834CADFF808EA0198007805064CBF0A
:100130001B25002585EA400505F0FF0585EA002717
:1001400087EA0047684087EA00651D604FEA35602E
:1001500020604FEA3060C8F800004FEA306030603D
:10016000107808B9002540E08D6B51F82070D1F867
:100170002490D1F834B03D4451F8207051F820005B
:10018000B9445F44D1F82CB058444FF0FF0B95FBB5
:10019000FBFBCBEB0B2BA5EB0B05DFF894B95BF866
:1001A00025504FF0FF0B99FBFBFBCBEB0B2BA9EB87
:1001B0000B09DFF87CB95BF8299085EA09254FF037
:1001C000FF0997FBF9F9C9EB0929A7EB09075BF8C8
:1001D000277085EA0745FF2790FBF7F7C7EB07274E
:1001E000C01B5BF8200085EA006528464AF8045BDE
:1001F0004FEA30604CF8040B361D4FEA30604EF881
:10020000040B4FEA3060029D2D1D0295241D45F818
:10021000040D1B1D0198451C0195521C009D6D1E6F
:1002200008F1040800957FF47FAF03B0BDE8F08FBC
:100230004FF48C7100F09CBCF8B5DFF8FC58074611
:10024000A86A0E46144618B9FFF7FAFE0121A96202
:10025000802C05D0C02C4AD0B4F5807F49D04AE02C
:100260000A20386007F10801640979600FD0084658
:100270003278737842EA0322B37842EA0342F37891
:10028000361D42EA0362641E40F8042BF0D1386840
:100290000A2804D00C2831D00E285DD025E0DFF8E4
:1002A0009C480B6855F8046BCA687340C2F3072674
:1002B000170EA65D7340C2F30746A65D83EA0623C8
:1002C000E65D83EA064302F0FF06A75D83EA076363
:1002D0000B610E694B6873404B618E6873405A40E6
:1002E0008B61CA611031401EDBD10020F2BD0C20B1
:1002F000B7E70E20B5E76FF01F00F2BD0820DFF86A
:100300003C480B6855F8046B4A697340C2F30726F2
:10031000170EA65D7340C2F30746A65D83EA062367
:10032000E65D83EA064302F0FF06A75D83EA076302
:100330008B618E694B687340CB618E6873400B6232
:10034000CE6873404B620E6973405A408B62CA623A
:100350001831401ED5D1C8E7DFF8E04707200B6809
:1003600055F8046BCA697340C2F30726170EA65DE1
:100370007340C2F30746A65D83EA0623E65D83EA7F
:10038000064302F0FF06A75D83EA07630B620E6A6D
:100390004B6873404B628E6873408B62CE687340CB
:1003A00003F0FF07CB620E69E75D7E40C3F30727CA
:1003B000E75D86EA0726C3F307471B0EE75DE35CAC
:1003C00086EA074686EA03660E634B690E6B734046
:1003D0004B638E6973405A408B63CA632031401E61
:1003E000BDD182E72DE9F44F0D4641682A786B783C
:1003F000AC78EE782F7B0068DFF84C87DFF844C7D5
:1004000042EA032242EA044251F8043B6C7942EA90
:1004100006625A402B79AE7943EA0423EC7943EA29
:10042000064343EA046351F8044B6E7A63402C7A26
:1004300044EA0624AE7A44EA0644EE7A44EA0664C4
:1004400051F8046B74406E7B47EA0626AF7B46EAA0
:100450000747EE7B51F8045B401047EA0666401EF2
:1004600085EA060E0028DFF8E856DFF8E06640F37C
:10047000C98002F0FF0951F8047B5CF829A0C3F39E
:10048000072958F829908AEA070789EA0707C4F379
:10049000074956F8299089EA07074FEA1E6955F877
:1004A00029A051F8049B8AEA070703F0FF0A5CF8C9
:1004B0002AB0C4F3072A58F82AA08BEA09098AEA65
:1004C0000909CEF3074A56F82AA08AEA09094FEA31
:1004D000126A55F82AB051F804AB8BEA090904F006
:1004E000FF0B5CF82BB08BEA0A0ACEF3072B58F807
:1004F0002BB08BEA0A0AC2F3074B56F82BB08BEAF3
:100500000A0A4FEA136B55F82BB08BEA0A0A0EF071
:10051000FF0E51F804BB5CF82EE0C2F3072258F836
:1005200022208EEA0B0E82EA0E0EC3F3074256F823
:10053000222082EA0E03240E55F8242082EA030EBC
:1005400007F0FF0351F8042B5CF82340C9F307239D
:1005500058F8233062405A40CAF3074356F8233014
:100560005A404FEA1E6355F8234051F8043B62405D
:1005700009F0FF045CF824406340CAF3072458F8EC
:1005800024406340CEF3074456F8244063403C0EB9
:1005900055F8244063400AF0FF0B51F8044B5CF817
:1005A0002BB08BEA0404CEF3072B58F82BB08BEA60
:1005B0000404C7F3074B56F82BB08BEA04044FEA48
:1005C000196B55F82BB08BEA04040EF0FF0E51F8AE
:1005D00004BB5CF82EE0C7F3072758F827708EEAB3
:1005E0000B0E87EA0E0EC9F3074756F8277087EA05
:1005F0000E0E4FEA1A6A55F82A70401E87EA0E0E50
:100600007FF437AF02F0FF0AD1F800905CF82A00BF
:10061000009F80EA0909C3F3072058F8200080EA08
:100620000909C4F3074056F8200080EA09094FEA97
:100630001E6A55F82A0080EA090903F0FF0BD1F879
:1006400004A05CF82B0080EA0A0AC4F3072058F8DB
:10065000200080EA0A0ACEF3074056F8200080EA1C
:100660000A0A4FEA126B55F82B00D1F808B080EA5D
:100670000A0A04F0FF005CF8200080EA0B0BCEF3BE
:10068000072058F8200080EA0B0BC2F3074056F809
:10069000200080EA0B0B180E55F8200080EA0B0BA7
:1006A0000EF0FF0EC8685CF82EC0C2F3072258F89F
:1006B00022208CEA00005040C3F3074256F8222063
:1006C0005040240E55F82420DFF870440B6909F0DF
:1006D000FF055040625D5340CAF30722050EA25C3D
:1006E000665D4D6983EA0223CBF307420BF0FF08F6
:1006F000A25C83EA024383EA06630AF0FF06A25D76
:100700005540CBF307224FEA1966A25C85EA022521
:10071000C0F30742A25C85EA0245A25D8E69C96901
:1007200085EA026514F808205640C0F3072200F05D
:10073000FF00205CA25C4140C9F3072086EA022644
:10074000C9F30742205CA25C81EA0021CAF307409A
:1007500086EA02464FEA1A62205CA25C81EA004106
:100760004FEA1B6086EA0266BFE12DE9F44F0D46B1
:1007700041682A786B78AC78EE782F7B0068DFF8D8
:10078000D883DFF8D0C342EA032242EA044251F898
:10079000043B6C7942EA06625A402B79AE7943EA0F
:1007A0000423EC7943EA064343EA046351F8044B1B
:1007B0006E7A63402C7A44EA0624AE7A44EA064410
:1007C000EE7A44EA066451F8046B74406E7B47EAA3
:1007D0000626AF7B46EA0747EE7B51F8045B4010E4
:1007E00047EA0666401E85EA060E0028D14DD04E27
:1007F00040F3C88002F0FF0951F8047B5CF829A09F
:10080000CEF3072958F829908AEA070789EA0707EB
:10081000C4F3074956F8299089EA07074FEA136994
:1008200055F829A051F8049B8AEA070703F0FF0A4C
:100830005CF82AB0C2F3072A58F82AA08BEA090903
:100840008AEA0909CEF3074A56F82AA08AEA090972
:100850004FEA146A55F82AB051F804AB8BEA09093B
:1008600004F0FF0B5CF82BB08BEA0A0AC3F3072BEA
:1008700058F82BB08BEA0A0AC2F3074B56F82BB094
:100880008BEA0A0A4FEA1E6B55F82BB08BEA0A0A6C
:100890000EF0FF0E51F804BB5CF82EE0C4F3072401
:1008A00058F82440C3F307438EEA0B0E56F8233062
:1008B000120E84EA0E0455F82220634082EA030EE9
:1008C00007F0FF0351F8042B5CF82340CEF3072315
:1008D00058F8233062405A40CAF3074356F8233091
:1008E0005A404FEA196355F8234051F8043B6240DF
:1008F00009F0FF045CF824406340C7F3072458F86C
:1009000024406340CEF3074456F8244063404FEA46
:100910001A6455F8244063400AF0FF0B51F8044B69
:100920005CF82BB08BEA0404C9F3072B58F82BB002
:100930008BEA0404C7F3074B56F82BB08BEA040488
:100940004FEA1E6B55F82BB08BEA04040EF0FF0E35
:1009500051F804BB5CF82EE0CAF3072A58F82AA025
:10096000C9F307498EEA0B0E56F829903F0E8AEA22
:100970000E0E55F8277089EA0E0E401E87EA0E0EFD
:100980007FF438AF02F0FF0AD1F800905CF82A003B
:10099000009F80EA0909CEF3072058F8200080EA7A
:1009A0000909C4F3074056F8200080EA09094FEA14
:1009B000136A55F82A0080EA090903F0FF0BD1F801
:1009C00004A05CF82B0080EA0A0AC2F3072058F85A
:1009D000200080EA0A0ACEF3074056F8200080EA99
:1009E0000A0A4FEA146B55F82B00D1F808B080EAD8
:1009F0000A0A04F0FF005CF8200080EA0B0BC3F346
:100A0000072058F8200080EA0B0BC2F3074056F885
:100A1000200080EA0B0B4FEA1E6055F8200080EAA8
:100A20000B0B0EF0FF0EC8685CF82EC0C4F3072451
:100A300058F82440C3F307438CEA000056F82330EB
:100A4000120E604055F82220584006F5806409F0E7
:100A5000FF0550400B69625D5340C0F307224FEA27
:100A60001A65A25C665D4D6983EA0223CBF30742F7
:100A70000BF0FF08A25C83EA024383EA06630AF0F4
:100A8000FF06A25D5540C9F307224FEA1B66A25C30
:100A900085EA0225C0F30742A25C85EA0245A25D11
:100AA0008E69C96985EA026514F808205640CAF3C0
:100AB0000722A25C86EA0226C9F30742A25C86EA04
:100AC0000246020E00F0FF00205CA25C4140CBF326
:100AD000072086EA0266205C81EA0021CAF307400B
:100AE000205C81EA00414FEA1960225C3B70180AE1
:100AF000787081EA0261180CB8701B0EFB703D71B2
:100B0000280A7871280CB8712D0EFD713E72300ADA
:100B10007872300CB872360EFE723973080A787328
:100B2000080CB873090EF9730020BDE8F28F0000BD
:100B300018000020181D0020EC2300203022002087
:100B4000180400201805002018090020180D0020A6
:100B500018110020181500201819002018B4144688
:100B600001291A46214601D118BC3BE418BCFCE51A
:100B7000002200F001B8FEE700B500BF1300964662
:100B80009446103928BFA0E80C50FAD85FEA417C9F
:100B900028BF0CC048BF40F8042BC90728BF20F865
:100BA000022B48BF00F8012B00BD0000F8B401780B
:100BB000DFF88C28DFF88438CC0740F1A2809168F8
:100BC00001F00C01042907D0916801F00C010829FB
:100BD0000DD151684C020AD51468A10340F19180EF
:100BE0004168002940F08D80F2BC012070474168C7
:100BF00091701C684168651C00291D600CD00024A0
:100C00001568A9037DD41968641C491C652C1960FA
:100C1000F6D3F2BC03207047002411688D0370D511
:100C20001D68641C6D1C652C1D60F6D3F1E7196806
:100C30006D1C491C022D196040F29080E9E71C6888
:100C4000C168DFF80068651C71B1012737601D605D
:100C5000002411688D0700F1A7801D68641C6D1CBD
:100C6000022C1D60F5D9D4E731601D6000241168A5
:100C70008D0763D51D68641C6D1C022C1D60F6D9A0
:100C8000C7E739601E60002561688E076AD51E6857
:100C90006D1C761C022D1E60F6D9BAE71E68641C16
:100CA000761C8C421E60C0F09380B2E7002441F2B3
:100CB00089312E68B70740F18F801F68641C7F1C44
:100CC0008C421F60F5D3A4E7641C652C1F60C0F044
:100CD00096809EE71868761C401C652E1860C0F050
:100CE000A88096E7002028661E6000241068810115
:100CF00040F1A3801968641C491C652C1960F5D368
:100D000087E701788C0719D5916811F00C0F07D08F
:100D1000916801F00C01082991D151684C028ED4E0
:100D20001468A10703D5C16801297FF45DAF146879
:100D3000016924F0F80444EAC1041460047821072E
:100D400010D51D684169DFF80047DFF800776E1C99
:100D5000002996D0012139601E60002561688E0748
:100D60007FF565AF0478610736D500210091146CDA
:100D700044F080541464116C01F08051009100998A
:100D8000DFF8CC160C6844F480740C601D686C1C91
:100D90001C6000251C680F68661CFC050CD46D1CCB
:100DA000022D1E60F6D934E71168046921F0F801BC
:100DB00041EAC4011160C1E7DFF88C5681682970EF
:100DC00081681E6000293FF471AF002441F289312F
:100DD0002E68B7077FF562AF816971B3946804F03C
:100DE0000C04082C3FF400AF1C68DFF85856661C52
:100DF00002297FF477AF002129661E6000241E6857
:100E00001168771C89013FF55FAFC469016A0C4323
:100E1000416A44EA8114816AC06A891EC903090CC7
:100E200044EA014444EA00645460012129661F60D9
:100E30000026106881017FF54DAFF2BC002070479D
:100E4000F0B4DFF810360246186800F00F00884250
:100E500005D219701C6804F00F048C426AD1107816
:100E6000DFF8DC45850705D5A568906825F0F00515
:100E70000543A5601078C50751D55068012802D1F7
:100E80002568AE0303E0022803D12568AE0103D430
:100E900050E02668B5074DD5A568AD0840EA850045
:100EA000A060DFF8980505686E1C06605668012E84
:100EB0000FD1A66806F00C06042E30D00668771C09
:100EC0000760761B41F28937BE42F2D3F0BC0320A3
:100ED0007047022E2FD1A66806F00C06082E1ED0F1
:100EE0000668771C0760761B41F28937BE42F2D351
:100EF000ECE71078410705D5A168D06821F4E051EE
:100F00000143A1601078010706D5A068116920F49B
:100F1000604040EAC100A0600020F0BC7047186843
:100F200000F00F008142E4D219701B6803F00F0338
:100F30008B42DED00BE2A66816F00C0FEFD00668ED
:100F4000771C0760761B41F28937BE42F3D3BDE7B9
:100F50002DE9F84F81460D464FF0000AD346D4469E
:100F6000DFF8F404DFF8F414DFF8F4240F2301248D
:100F700004FA0AFE2C680EEA0408F04540F0C68028
:100F80006C68022C18BF122C12D14FEADA0409EB5C
:100F900084040CF01C07266A03FA07F7BE43009688
:100FA0000CF01C062F6907FA06F6009F3E432662E6
:100FB0000324D9F800602F7904FA0BF4E44307F016
:100FC0000307264007FA0BF73E43C9F800606E6836
:100FD000012E18BF022E03D0112E18BF122E14D1CD
:100FE000D9F80860EF68264007FA0BF73E43C9F8C6
:100FF0000860D9F8046026EA0E076E68C6F300168A
:1010000006FA0AF63E43C9F80460D9F80C60344089
:10101000AE6806FA0BF63443C9F80C406C68E4007D
:1010200074D5002400944FEA9A06146844F480446E
:1010300014600CF00C0E146804F48044009403FA5D
:101040000EF7009C51F82640BC43DFF81874B945F0
:1010500008BF00272FD0DFF81074B94508BF01275B
:1010600029D0DFF80874B94508BF022723D0DFF87C
:101070000074B94508BF03271DD0DFF8F873B945E0
:1010800008BF042717D0DFF8F073B94508BF05275C
:1010900011D0DFF8E873B94508BF06270BD0DFF899
:1010A000E073B94508BF072705D0DFF8D873B94505
:1010B0000CBF0827092707FA0EF73C4341F82640E2
:1010C0006FEA080E04686E680EEA0404F70348BF6E
:1010D00048EA0404046044686E680EEA0404B70336
:1010E00048BF48EA0404446084686E680EEA040459
:1010F000F70248BF48EA04048460C4686E680EEAD8
:101100000404B60248BF48EA0404C4600AF1010AB4
:10111000BAF10F0F0CF1040C0BF1020B7FF627AFA5
:10112000BDE8F18F81B002B90904816101B0704757
:1011300081B002681369C16823F440530B43136103
:10114000DFF84413D3680B4081680B4301690B43FC
:1011500041690B43C1690B43D3605369816923F42F
:1011600040730B435361DFF82413C369B3F5004F99
:1011700030D18A421CBFC6498A4215D14368C5494D
:101180005B00B1FBF3F16420B1FBF0F300FB131142
:10119000C9003231B1FBF0F0410001F4F87101EB0C
:1011A000031100F0070029E04368BA495B00B1FB76
:1011B000F3F16420B1FBF0F300FB1311C9003231ED
:1011C000B1FBF0F0410001F4F87101EB031100F004
:1011D000070013E04368AF499B00B1FBF3F16420C3
:1011E000B1FBF0F300FB131109013231B1FBF0F058
:1011F00000F0F00101EB031100F00F0040189060C7
:1012000001B0704738B5040001D1012032BD04F1AE
:101210003805687808B90021297024216970206890
:10122000C16821F40051C1602046FFF781FF2068AA
:10123000016921F4904101612068416921F02A018E
:1012400041612068C16841F40051C16000206860BC
:1012500020206870A870002032BDF0B4044604F16C
:1012600038056878202848D109B1100000D16EE017
:101270002878012841D001262E70212000266E609A
:1012800068706E4E3768781C3060A284E28402E099
:1012900011F8012B4260E08CB8B1E28C501EE08462
:1012A000A2682068B2F5805F28D1026812063ED499
:1012B00013F1010FF9D0B3B1326802F1010CD21B66
:1012C0009342C6F800C0F0D20DE0206801684A06DB
:1012D00037D413F1010FF8D02BB131684A1CC91B68
:1012E0008B423260F1D2C16821F4D071C1602068B4
:1012F0004169490849004161D1E0CDE00268120628
:10130000C6D413F1010FF9D03BB1326802F1010CE0
:10131000D21B9342C6F800C0F0D2C26822F4D07249
:10132000C26020684269520852004261E4E70A88BC
:10133000C2F3080242602069002814BF491C891CBE
:10134000A9E72021697000202870F0BC7047F0BC2C
:1013500001207047F0B4044604F13805A87820282D
:101360003BD109B1100000D1F1E72878012834D031
:1013700001262E70222000266E60A8702F4E37683E
:10138000781C3060A285E285E08D38B3E28D501E76
:10139000E085A0682268B0F5805F22D110688006E1
:1013A00038D413F1010FF9D03BB1306800F1010CD2
:1013B000C01B8342C6F800C0F0D2D06820F4D070C1
:1013C000D0602068416949084900416167E0506880
:1013D00000F07F0001F8010BD6E75DE02021A97045
:1013E000B2E71068800622D413F1010FF9D03BB1A7
:1013F000306800F1010CC01B8342C6F800C0F0D277
:10140000D06820F4D070D060206842695208520041
:101410004261DBE720695268002819BF02F0FF0231
:1014200021F8012BC2F3080221F8022BACE7206956
:101430000028CCD1526801F8012BA5E71824002020
:10144000003802400000474270380240800E474298
:1014500000700040003C0240003C01400838014060
:1014600044380240000002400004024000080240EC
:10147000000C02400010024000140240001802401C
:10148000001C024000200240F369FFFF00100140F1
:10149000001401400080FC0AF0BC022070472020AC
:1014A0006870A870002028700320F0BC704700000E
:1014B00070B400282DDD4C780B78A4F130050A2D8E
:1014C00038BF303C0AD3A4F14106062E38BF373C62
:1014D00004D3A4F16105062D1ED2573C1470A3F16C
:1014E00030040A2C38BF15780CD3A3F14104062C24
:1014F00002D21578373B05E0A3F16104062C0BD22C
:101500001578573B891C45EA0315401E02F8015B1C
:10151000D1D170BC0020704770BC01207047002002
:1015200070473E48816F0B290BDA01EB410200EB5B
:10153000820276231370491C00235360384B93605A
:101540008167704730B4354B9C6F0B2C01DA412911
:1015500002D330BC0120704704EB440503EB850542
:10156000641C28706960AA609C67002030BC7047CA
:1015700070B5B0B000F0D6F8284A946F0021134639
:1015800004E013F80C5B85421BD0491CA142F8DB38
:1015900017D130B070BD00F0C5F80A281EBF0D2865
:1015A00005F8010B641C12D130B070BD70686A463A
:1015B00010A9FFF77DFF10B9B1686846884730B0C1
:1015C00070BD01EB4100002410AD02EB8006706895
:1015D000B4EB400FDFD300F0A5F80A2818BF0D28A0
:1015E000E4D030B070BD70B50C46154600F0A5F8DB
:1015F000012C0EDB0B4E28780009305C00F09DF8C2
:1016000015F8010B00F00F00305C00F096F8641E36
:10161000F1D1BDE870400A2000F08FB830230020DF
:101620001F1500080000002000B591B003200590B0
:101630000521002008900C90069105A8FFF7B6FA46
:101640000F2100910120002101900291039104914A
:1016500068460521FFF7F4FB11B000BD10B586B058
:101660004FF4C06001900221012003900291049187
:10167000072005900021364C0091206840F00100C1
:101680002060216801F00101009101A90098314812
:10169000FFF75EFC3048314901604FF4164141606C
:1016A00000218160C160016181610C2141610021E3
:1016B0000091626942F010026261616901F01001FB
:1016C00000910099FFF79EFD06B010BD10B586B0E1
:1016D0000020009001221E481E4C016841F00101CB
:1016E00001604FF48051006800F001000090009804
:1016F0000091002002210290039101926946204648
:10170000FFF726FC00224FF480512046FFF70AFD28
:1017100006B010BD012200E000224FF480510D48B8
:10172000FFF700BD80B541F28833012269460A48BF
:10173000FFF710FE9DF8000002BD80B58DF8000097
:1017400041F28833012269460348FFF786FD01BD57
:101750003038024000000240AC230020001001405D
:1017600080B500F060F8002002BD10B50446FFF718
:10177000D1FF204600F05CF8FFF7CEFF2246102193
:101780007220FFF730FF002010BD0020704730B5F9
:101790000FF27C0191E83C0085B0684680E83C008F
:1017A000FFF742FFFFF75AFFFFF790FF00F038F80E
:1017B000684600F038F86820FFF7BFFF6520FFF7A4
:1017C000BCFF6C20FFF7B9FF6C20FFF7B6FF6F205E
:1017D000FFF7B3FF0A20FFF7B0FFFFF7A2FE094AA9
:1017E00010216B20FFF7AEFE074A10217020FFF793
:1017F000A9FE064A00217820FFF7A4FEFFF7B8FEF5
:10180000FCE70000611700086B1700088B17000841
:101810002B7E151628AED2A6ABF7158809CF4F3C04
:101820000648FEF705BD014680220448FEF704BDC8
:1018300003461A4601210148FFF790B918210020FC
:1018400019E050F8042BD30744BFA9F101039A18FB
:10185000091F0023042942F8043BF9D25FEA817C86
:10186000134604D54FF0000CA2F800C09B1CC9071A
:1018700044BF0021197050F8041B0029E1D17047C2
:1018800010B500F013F802000023DB4300241068B9
:10189000984203D011000220ABBE146050689842F9
:1018A00003D0111D0220ABBE546010BD004870472C
:1018B0001000002010B450F8041B79B1026843688E
:1018C00002440830DC0744BFA9F10104E31852F8D0
:1018D000044B43F8044B091FF9D1ECE710BC7047E7
:1018E00010B5074979441831064C7C44163404E09D
:1018F0000A68081D114488470146A142F8D110BD6D
:10190000080000002800000039FFFFFF0424000049
:1019100018000020000000009DFFFFFF18000000DD
:1019200050000000000000200000000000F00BF854
:10193000002801D0FFF7D4FF0020AFF30080FFF7AD
:1019400026FF00F002F80120704700F001B8000007
:101950000746384600F002F8FBE7000080B5FFF7C5
:101960008FFF024A11001820ABBEFBE726000200E1
:1019700030313233343536373839414243444546C5
:10198000FFFFFFFFFFFFFFFFAFF30080AFF300801B
:04199000FFF7CCFF92
:04000005080019894D
:00000001FF
