:020000040800F2
:100000002044002009250008BB110008BB1100088E
:10001000BB110008BB110008BB1100080000000064
:10002000000000000000000000000000BB110008FC
:10003000BB11000800000000BB110008BB11000844
:10004000F0B5ADF5006D00210125B1F5807F12DA24
:100050000DF5806040F82150684640F825102806CC
:1000600001D51B2000E0002095EA4505454005F03C
:10007000FF05491CE9E7002401200A2C0EDADFF80D
:100080007C1A41F82400010601D51B2100E0002163
:1000900091EA400000F0FF00641CEEE76321DFF806
:1000A000605A29700021DFF85C5A85F86310012539
:1000B000B5F5807F31DA0DF580616C4654F8254046
:1000C000644201EB8401D1F8FC432100C91151EADB
:1000D000440101F0FF014C400E00F61156EA4106C2
:1000E00006F0FF0674403100C91151EA460101F0E3
:1000F000FF014C400E00F61156EA410606F0FF06DD
:10010000330093F063014C402000DFF8F4194855A8
:10011000DFF8F0190D546D1CCAE70024B4F5807F98
:1001200080F2C880DFF8D819095D0D0601D51B23C0
:1001300000E0002393EA410303F0FF0391EA030088
:1001400000F0FF00020093EA012090EA014090EAEB
:100150000260DFF8B45945F82400DFF8AC0950F824
:100160002400DFF8A45955F824505FEA3560DFF821
:100170009C5945F82400DFF8940950F82400DFF872
:100180008C5955F824505FEA3560DFF8845945F8FA
:100190002400DFF87C0950F82400DFF8745955F882
:1001A00024505FEA3560DFF86C5945F82400DFF829
:1001B0005409005D00280ED00E9D694651F82010AC
:1001C0004D19FF2195FBF1F601FB16550DF58061E8
:1001D00051F8255000E0002500280ED0099E694600
:1001E00051F820108E19FF2196FBF1F701FB1766DD
:1001F0000DF5806151F8266000E0002600280ED041
:100200000D9F694651F82010CF19FF2197FBF1FC93
:1002100001FB1C770DF5806151F8277000E0002785
:10022000002810D0DDF82CC0694651F8201011EBE1
:100230000C0CFF219CFBF1FE01FB1ECC0DF5806137
:1002400051F82C1000E0002195EA062595EA0745B3
:1002500095EA0165DFF8C01841F82450DFF8B818B6
:1002600051F82410DFF8B05855F824505FEA356192
:10027000DFF8A85845F82410DFF8A01851F824102A
:10028000DFF8985855F824505FEA3561DFF8905848
:1002900045F82410DFF8881851F82410DFF880584A
:1002A00055F824505FEA3561DFF8785845F8241096
:1002B000641C33E70DF5006DF0BD70B504004FF41C
:1002C0008C75002632002900200000F043FF70BD2D
:1002D000F8B504000D001600DFF84C08006800288F
:1002E00005D1FFF7ADFE0120DFF83C1808603000B3
:1002F000802805D0C02806D0B0F5807F06D008E061
:100300000A20206008E00C20206005E00E2020601C
:1003100002E07FF01F0003E114F108026260002197
:10032000B1EB561F14D215F8210005EB81035B7861
:1003300050EA032005EB81039B7850EA034005EB6C
:100340008103DB7850EA036042F82100491CE7E7AB
:1003500020680A2804D00C283BD00E287AD0DEE092
:10036000002001000A2933D21368DFF8900750F803
:1003700021004340DFF88807D768C7F30727C05D2F
:100380004340DFF87C07D768C7F30747C05D93EAAF
:100390000023DFF86C07D7683F0EC05D93EA004387
:1003A000DFF85C07177B07F0FF07C05D93EA006387
:1003B0001361536810694340536193685069434027
:1003C0009361D36890694340D361491C1032C9E7F7
:1003D000A5E00020010008293BD21368DFF81C07C4
:1003E00050F821004340DFF818075769C7F3072783
:1003F000C05D4340DFF808075769C7F30747C05D92
:1004000093EA0023DFF8F80657693F0EC05D93EAD0
:100410000043DFF8EC06177D07F0FF07C05D93EAA5
:1004200000639361536890694340D3619368D069D6
:1004300043401362D368106A434053621369506AA1
:10044000434093625369906A4340D362491C183217
:10045000C1E764E000200100072960D21368DFF8DB
:100460009C0650F821004340DFF89406D769C7F393
:100470000727C05D4340DFF88806D769C7F3074701
:10048000C05D93EA0023DFF87806D7693F0EC05DB0
:1004900093EA0043DFF86806177F07F0FF07C05DA7
:1004A00093EA006313625368106A4340536293688F
:1004B000506A43409362D368906A4340D3621369A1
:1004C000DFF83C0692F82C7007F0FF07C05D434050
:1004D000DFF82C06D76AC7F30727C05D93EA00232D
:1004E000DFF81C06D76AC7F30747C05D93EA0043ED
:1004F000DFF80C06D76A3F0EC05D93EA0063136312
:100500005369106B434053639369506B434093634B
:10051000D369906B4340D363491C20329CE7002091
:10052000F2BD2DE9F14F85B0059845680C78487803
:1005300054EA0024887854EA0044C87854EA0064F5
:10054000286844402E1D0D79487955EA00258879A0
:1005500055EA0045C87955EA006530684540371DC1
:100560000E7A487A56EA0026887A56EA0046C87A11
:1005700056EA00663868464017F1040C0F7B487B4A
:1005800057EA0027887B57EA0047C87B57EA00678D
:10059000DCF8000047401CF1040E0598D0F800C0BC
:1005A0005FEA6C0CBCF1010CBCF1010FC0F242819E
:1005B000DEF80080DFF8500504F0FF0950F829004C
:1005C00090EA0808DFF84405C5F3072950F8290028
:1005D00090EA0808DFF83805C6F3074950F8290003
:1005E00090EA0808DFF82C05B9465FEA196950F867
:1005F000290090EA0808CDF808801EF1040EDEF804
:100600000080DFF8040505F0FF0950F8290090EAA2
:100610000808DFF8F804C6F3072950F8290090EA23
:100620000808DFF8EC04C7F3074950F8290090EAFE
:100630000808DFF8E004A1465FEA196950F82900CC
:1006400090EA0808CDF804801EF1040EDEF8008060
:10065000DFF8B40406F0FF0950F8290090EA080812
:10066000DFF8A804C7F3072950F8290090EA080822
:10067000DFF89C04C4F3074950F8290090EA080801
:10068000DFF89004A9465FEA196950F8290090EA5A
:100690000808CDF800801EF1040EDEF80080DFF8B7
:1006A000680407F0FF0950F8290090EA0808DFF80D
:1006B0005C04C4F3072950F8290090EA0808DFF821
:1006C0005004C5F3074950F8290090EA0808DFF8FC
:1006D0004404B1465FEA196950F8290090EA080815
:1006E00043461EF1040EDEF80080DFF81C04DDF83E
:1006F000089009F0FF0950F8290090EA0808DFF88F
:100700000C04DDF80490C9F3072950F8290090EA99
:100710000808DFF8FC03DDF80090C9F3074950F83A
:10072000290090EA0808DFF8EC0399465FEA1969A6
:1007300050F8290090EA080844461EF1040EDEF83D
:100740000080DFF8C403DDF8049009F0FF0950F8D9
:10075000290090EA0808DFF8B403DDF80090C9F337
:10076000072950F8290090EA0808DFF8A403C3F32A
:10077000074950F8290090EA0808E648DDF8089093
:100780005FEA196950F8290090EA080845461EF109
:10079000040EDEF80080DC48DDF8009009F0FF0967
:1007A00050F8290090EA0808D848C3F3072950F800
:1007B000290090EA0808D648DDF80890C9F30749EF
:1007C00050F8290090EA0808D248DDF804905FEA62
:1007D000196950F8290090EA080846461EF1040EEF
:1007E000DEF80080C84803F0FF0950F8290090EABD
:1007F0000808C648DDF80890C9F3072950F8290011
:1008000090EA0808C248DDF80490C9F3074950F897
:10081000290090EA0808BF48DDF800905FEA1969EE
:1008200050F8290090EA080847461EF1040EBCF172
:10083000010CB9E6DEF80080B34804F0FF0950F877
:10084000290090EA0808B148C5F3072950F82900A3
:1008500090EA0808AE48C6F3074950F8290090EA24
:100860000808AC48B9465FEA196950F8290090EACF
:100870000808CDF808801EF1040EDEF80080A248BA
:1008800005F0FF0950F8290090EA08089F48C6F3D0
:10089000072950F8290090EA08089D48C7F307493E
:1008A00050F8290090EA08089A48A1465FEA1969B9
:1008B00050F8290090EA0808CDF804801EF10408D9
:1008C000D8F800E0904806F0FF0950F8290090EAB7
:1008D0000E0E8E48C7F3072950F8290090EA0E0E35
:1008E0008B48C4F3074950F8290090EA0E0E894856
:1008F000A9465FEA196950F8290090EA0E0E18F12E
:100900000409D9F80080804807F0FF0A50F82A004F
:1009100090EA08087D48C4F3072A50F82A0090EAB4
:1009200008087B48C5F3074A50F82A0090EA0808EF
:100930007848B2465FEA1A6A50F82A0090EA080836
:1009400019F10409D9F800A06D48DDF808B00BF0E2
:10095000FF0B10F80B0090EA0A0A6948DDF804B0B2
:10096000CBF3072B10F80B009AEA002A6448CEF369
:10097000074B10F80B009AEA004A6148C3465FEA49
:100980001B6B10F80B009AEA006ACDF810A019F161
:100990000409D9F800A05A48DDF804B00BF0FF0BA9
:1009A00010F80B0090EA0A0A5548CEF3072B10F80E
:1009B0000B009AEA002A5248C8F3074B10F80B00C4
:1009C0009AEA004A4E48DDF808B05FEA1B6B10F85F
:1009D0000B009AEA006ACDF80CA019F1040ADAF8C3
:1009E000009047480EF0FF0B10F80B0090EA090941
:1009F0004348C8F3072B10F80B0099EA0029404838
:100A0000DDF808B0CBF3074B10F80B0099EA00496A
:100A10003B48DDF804B05FEA1B6B10F80B0099EA65
:100A200000691AF10400D0F800A0CDF800A0DFF8AA
:100A3000D0B008F0FF0A1BF80AA0DDF800B09AEA6F
:100A40000B0ACDF800A0DFF8B8B0DDF808A0CAF3B3
:100A5000072A1BF80AA0DDF800B09BEA0A2BCDF8A4
:100A600000B0DFF89CB0DDF804A0CAF3074A1BF819
:100A70000AA0DDF800B09BEA0A4BCDF800B0DFF821
:100A800080B0F2465FEA1A6A1BF80AA0DDF800B0EF
:100A90009BEA0A6B10F1040A049810700498000A8B
:100AA00050700498000C90700498000ED070039859
:100AB00010710398000A50710398000C907103980C
:100AC000000ED07182F808904846000A50724846DD
:100AD000000C90724846000ED07282F80CB0584656
:100AE000000A50735846000C90735846000ED0739D
:100AF000002006B0BDE8F08F00000000E8230020D1
:100B0000302100203022002018000020180400208E
:100B100018080020180C00201810002018140020BD
:100B200018180020181C0020102400202DE9F14F77
:100B300085B0059845680C78487854EA0024887890
:100B400054EA0044C87854EA0064286844402E1DE2
:100B50000D79487955EA0025887955EA0045C87924
:100B600055EA006530684540371D0E7A487A56EAE6
:100B70000026887A56EA0046C87A56EA006638683F
:100B8000464017F1040C0F7B487B57EA0027887B0F
:100B900057EA0047C87B57EA0067DCF80000474087
:100BA0001CF1040E0598D0F800C05FEA6C0CBCF193
:100BB000010CBCF1010FC0F24181DEF80080DFF8CA
:100BC000580504F0FF0950F8290090EA0808DFF8FA
:100BD0004C05C7F3072950F8290090EA0808DFF808
:100BE0004005C6F3074950F8290090EA0808DFF8E5
:100BF0003405A9465FEA196950F8290090EA080807
:100C0000CDF808801EF1040EDEF80080DFF808053C
:100C100005F0FF0950F8290090EA0808DFF8FC0405
:100C2000C4F3072950F8290090EA0808DFF8F00417
:100C3000C7F3074950F8290090EA0808DFF8E404F0
:100C4000B1465FEA196950F8290090EA0808CDF822
:100C500004801EF1040EDEF80080DFF8BC0406F00C
:100C6000FF0950F8290090EA0808DFF8B004C5F33E
:100C7000072950F8290090EA0808DFF8A404C4F313
:100C8000074950F8290090EA0808DFF89804B946A7
:100C90005FEA196950F8290090EA0808CDF8008049
:100CA0001EF1040EDEF80080DFF86C0407F0FF0987
:100CB00050F8290090EA0808DFF86004C6F3072915
:100CC00050F8290090EA0808DFF85404C5F30749F2
:100CD00050F8290090EA0808DFF84804A1465FEAC6
:100CE000196950F8290090EA080843461EF1040EDD
:100CF000DEF80080DFF82004DDF8089009F0FF0935
:100D000050F8290090EA0808DFF81004C3F3072917
:100D100050F8290090EA0808DFF80404DDF8009094
:100D2000C9F3074950F8290090EA0808DFF8F403EE
:100D3000DDF804905FEA196950F8290090EA080884
:100D400044461EF1040EDEF80080DFF8CC03DDF827
:100D5000049009F0FF0950F8290090EA0808DFF82C
:100D6000BC03DDF80890C9F3072950F8290090EA80
:100D70000808EB48C3F3074950F8290090EA08082F
:100D8000E848DDF800905FEA196950F8290090EA18
:100D9000080845461EF1040EDEF80080DE48DDF846
:100DA000009009F0FF0950F8290090EA0808DB4894
:100DB000DDF80490C9F3072950F8290090EA0808E3
:100DC000D748DDF80890C9F3074950F8290090EAA0
:100DD0000808D44899465FEA196950F8290090EA52
:100DE000080846461EF1040EDEF80080CA4803F0EB
:100DF000FF0950F8290090EA0808C848DDF800907B
:100E0000C9F3072950F8290090EA0808C448DDF81A
:100E10000490C9F3074950F8290090EA0808C1482E
:100E2000DDF808905FEA196950F8290090EA08088F
:100E300047461EF1040EBCF1010CBAE6DEF8008054
:100E4000B54804F0FF0950F8290090EA0808B348B3
:100E5000C7F3072950F8290090EA0808B048C6F3FC
:100E6000074950F8290090EA0808AE48A9465FEA09
:100E7000196950F8290090EA0808CDF808801EF199
:100E8000040EDEF80080A44805F0FF0950F82900A0
:100E900090EA0808A148C4F3072950F8290090EA0D
:100EA00008089F48C7F3074950F8290090EA080846
:100EB0009C48B1465FEA196950F8290090EA080891
:100EC000CDF804801EF10408D8F800E0924806F03E
:100ED000FF0950F8290090EA0E0E9048C5F3072943
:100EE00050F8290090EA0E0E8D48C4F3074950F8D7
:100EF000290090EA0E0E8B48B9465FEA196950F84E
:100F0000290090EA0E0E18F10409D9F800808248F1
:100F100007F0FF0A50F82A0090EA08087F48C6F355
:100F2000072A50F82A0090EA08087D48C5F3074AC6
:100F300050F82A0090EA08087A48A2465FEA1A6A3E
:100F400050F82A0090EA080819F10409D9F800A01D
:100F5000DFF8FC01DDF808B00BF0FF0B10F80B0018
:100F600090EA0A0ADFF8E801C8F3072B10F80B0033
:100F70009AEA002ADFF8D801CEF3074B10F80B00ED
:100F80009AEA004ADFF8C801DDF804B05FEA1B6B9B
:100F900010F80B009AEA006ACDF810A019F10409C4
:100FA000D9F800A0DFF8A801DDF804B00BF0FF0BC2
:100FB00010F80B0090EA0A0ADFF89401DDF808B097
:100FC000CBF3072B10F80B009AEA002ADFF8800118
:100FD000C8F3074B10F80B009AEA004ADFF87001DB
:100FE000F3465FEA1B6B10F80B009AEA006ACDF833
:100FF0000CA019F1040ADAF80090DFF854010EF0A1
:10100000FF0B10F80B0090EA0909DFF84401DDF846
:1010100004B0CBF3072B10F80B0099EA0029DFF896
:101020003001DDF808B0CBF3074B10F80B0099EA5C
:101030000049DFF81C01C3465FEA1B6B10F80B0088
:1010400099EA00691AF10400D0F800A0CDF800A0D8
:10105000DFF8FCB008F0FF0A1BF80AA0DDF800B0CA
:101060009AEA0B0ACDF800A0DFF8E4B0CEF3072A25
:101070001BF80AA0DDF800B09BEA0A2BCDF800B0FF
:10108000DFF8CCB0DDF804A0CAF3074A1BF80AA0C9
:10109000DDF800B09BEA0A4BCDF800B0DFF8B0B045
:1010A000DDF808A05FEA1A6A1BF80AA0DDF800B0B4
:1010B0009BEA0A6B10F1040A049810700498000A65
:1010C00050700498000C90700498000ED070039833
:1010D00010710398000A50710398000C90710398E6
:1010E000000ED07182F808904846000A50724846B7
:1010F000000C90724846000ED07282F80CB0584630
:10110000000A50735846000C90735846000ED07376
:10111000002006B0BDE8F08F181000201814002041
:1011200018180020181C0020F8B504000D00160047
:101130001F00012D05D13A0031002000FFF7F1F921
:1011400004E03A0031002000FFF7F0FCF2BD00009F
:101150003022002062F30F2262F31F42401810F089
:10116000030308D0C91A1FD3DB0748BF00F8012DBD
:1011700028BF20F8022D130030B41446154610394C
:1011800028BF20E93C00FAD8490728BF20E90C0015
:1011900048BF40F8042D890028BF20F8022D48BF21
:1011A00000F8012D30BC7047C91818BF00F8012D98
:1011B000CB0728BF00F8012D7047FEE7DFF8140ABF
:1011C0000068411CDFF80C2A116070475FF4E100F1
:1011D000704770B582B0040000252078C00741D563
:1011E000DFF8F409006810F00C0004280BD0DFF8D9
:1011F000E809006810F00C0008280ED1DFF8DC09BF
:101200000068400209D5DFF8D8090068800329D5B5
:101210006068002826D1012076E16068DFF8C419F3
:101220000870606800280ED0FFF7C8FF0500DFF8DF
:10123000B0090068800315D4FFF7C0FF401B652884
:10124000F5D3032060E1FFF7B9FF0500DFF890094F
:101250000068800306D5FFF7B1FF401B6528F5D372
:10126000032051E12078800766D5DFF86C0900681B
:1012700010F00C0F0BD0DFF86009006810F00C00C4
:1012800008281FD1DFF85409006840021AD4DFF89B
:1012900050090068800704D5E068012801D00120CA
:1012A00032E1DFF83C0900685FF0F851B1FA81F1F2
:1012B00030F0F800226912FA01F10843DFF8201932
:1012C000086039E0E068002823D00120DFF8181911
:1012D0000860FFF773FF0500DFF804090068800766
:1012E00006D4FFF76BFF401B0328F5D303200BE167
:1012F000DFF8EC0800685FF0F851B1FA81F130F0E6
:10130000F800226912FA01F10843DFF8D4180860E6
:1013100012E00020DFF8D0180860FFF74FFF05004B
:10132000DFF8BC080068800706D5FFF747FF401BC1
:101330000328F5D30320E7E02078000728D560696B
:10134000002812D00120DFF8A4180860FFF736FF4C
:101350000500DFF89C080068800719D4FFF72EFF0E
:10136000401B0328F5D30320CEE00020DFF87C18D3
:101370000860FFF723FF0500DFF8740800688007A6
:1013800006D5FFF71BFF401B0328F5D30320BBE066
:101390002078400750D500200090DFF858080068FA
:1013A00050F08050DFF84C180860DFF848080068FB
:1013B00010F0805000900098DFF83C08006850F46E
:1013C0008070DFF834180860FFF7F8FE0600DFF8D9
:1013D00028080068C00506D4FFF7F0FE801B03282C
:1013E000F5D3032090E0A068DFF810180870A0681B
:1013F000002810D0FFF7E2FE0500DFF800080068C3
:10140000800719D4FFF7DAFE401B41F28931884288
:10141000F3D3032078E0FFF7D1FE0500DFF8DC0707
:101420000068800708D5FFF7C9FE401B41F28931EB
:101430008842F3D3032067E0A069002863D0DFF877
:101440009807006810F00C0008285AD0A0690228FC
:1014500044D10020DFF8A8170860FFF7AFFE0600B0
:10146000DFF87C070068800106D5FFF7A7FE801B28
:101470006528F5D3032047E0DFF88807B0FA80F14C
:101480004FF44040B0FA80F2F020B0FA80F3E56902
:10149000206A0543606A10FA01F12943A06A4008F6
:1014A000401E10FA02F21143E06A10FA03F31943E6
:1014B000DFF8280701600120DFF844170860FFF714
:1014C0007DFE0500DFF81807006880011BD4FFF7D8
:1014D00075FE401B6528F5D3032015E00020DFF8DA
:1014E00020170860FFF76AFE0500DFF8F4060068C1
:1014F000800108D5FFF762FE401B6528F5D3032065
:1015000002E0012000E0002076BD70B504000D006F
:101510000026DFF8F406006810F00F00A8420BD296
:10152000DFF8E4060570DFF8E006006810F00F0051
:10153000A84201D001209BE02078800709D5DFF880
:101540009806016831F0F001A0680143DFF88806D1
:1015500001602078C0075CD56068012806D1DFF8FB
:1015600080060068800312D4012081E060680228B0
:1015700006D1DFF86C060068800108D4012077E00E
:10158000DFF85C060068800701D4012070E0DFF816
:10159000480601688908890060680143DFF8380659
:1015A0000160FFF70BFE0600606801280FD1DFF82D
:1015B0002806006810F00C0004282AD0FFF7FEFD72
:1015C000801B41F289318842F1D3032050E06068EA
:1015D00002280FD1DFF80006006810F00C00082880
:1015E00017D0FFF7EBFD801B41F289318842F1D320
:1015F00003203DE0DFF8E005006810F00C0F08D094
:10160000FFF7DCFD801B41F289318842F2D30320D1
:101610002EE0DFF8F405006810F00F0085420BD2D1
:10162000DFF8E4050570DFF8E005006810F00F0052
:10163000A84201D001201BE02078400709D5DFF83F
:101640009805016831F4E051E0680143DFF888054E
:101650000160207800070AD5DFF87C05006830F4C7
:101660006040216950EAC100DFF86C150860002075
:1016700070BD5FF4E1007047F8B400230024002639
:101680000025102D80F01B810122AA4013000A685A
:101690001A4014009C4240F010814A68022A02D08D
:1016A0004A68122A1ED12A00D20800EB8202176A69
:1016B0005FF00F0C15F00702D2B292001CFA02FC88
:1016C00037EA0C07D1F810C015F00702D2B2920029
:1016D0001CFA02FC5CEA07073E002A00D20800EB75
:1016E0008202166207685FF0030C2A00D2B2520031
:1016F0001CFA02FC37EA0C0791F804C01CF0030C3A
:101700002A00D2B252001CFA02FC5CEA070707600A
:101710004A68012A08D04A68022A05D04A68112A74
:1017200002D04A68122A24D186685FF0030C2A008E
:10173000D2B252001CFA02FC36EA0C06D1F80CC0F8
:101740002A00D2B252001CFA02FC5CEA060686604D
:1017500042685FF0010C1CFA05FC32EA0C02D1F879
:1017600004C0CCF3001C1CFA05FC5CEA0202170062
:101770004760C2685FF0030C2E00F6B276001CFAD8
:1017800006F632EA0606D1F808C02A00D2B25200A4
:101790001CFA02FC5CEA0606C6604A68D20040F108
:1017A0008C8000220092DFF86424126852F4804298
:1017B000DFF858743A60DFF85424126812F480425B
:1017C0000092009ADFF848242F00BF0852F82770D3
:1017D0005FF00F0C15F00302D2B292001CFA02FC6B
:1017E00037EA0C07DFF82C24904201D1002630E0C4
:1017F000DFF82424904201D101262AE0DFF81C24DE
:10180000904201D1022624E0DFF81424904201D155
:1018100003261EE0DFF80C24904201D1042618E0D4
:10182000DFF80424904201D1052612E0DFF8FC2302
:10183000904201D106260CE0DFF8F423904201D15A
:10184000072606E0DFF8EC23904201D1082600E0ED
:101850000926F6B215F00302D2B292009640374341
:10186000DFF8AC232E00B60842F82670DFF8C82354
:101870001268A2434E68F60300D52243DFF8B8632E
:101880003260DFF8B8633668A6434F68BF0300D5FF
:101890002643EA4A1660EA4A1268A2434F68FF02EA
:1018A00000D52243E64E3260E64E3668A6434F68C6
:1018B000BF0200D52643E34A16606D1CE1E6F1BC89
:1018C0007047D2B2002A02D089B2816102E089B2A7
:1018D0000B04836170472DE9F84304000021206860
:1018E000026932F44052E0680243206802612068D5
:1018F000C368D5480340A56820690543606905436E
:10190000E06905432B432068C3602068456935F4CE
:101910004075A069054320684561E069B0F5004F56
:1019200040F0AC802068C949884203D02068C8498B
:10193000884251D1FFF79DFE8146FFF79AFE80460F
:10194000FFF797FE0700FFF794FE0600FFF791FEF2
:10195000192101FB09F961684900B9FBF1F1642221
:10196000B1FBF2F2192101FB08F861684900B8FBEC
:10197000F1F319214F4361684900B7FBF1F1642786
:10198000B1FBF7F7642101FB1733D900323164232F
:10199000B1FBF3F35B0013F4F87313EB021319219B
:1019A0004E4361684900B6FBF1F219214843616872
:1019B0004900B0FBF1F06421B0FBF1F1642000FBC1
:1019C0001122D00032306421B0FBF1F010F007009A
:1019D000C31820688360FAE0FFF7F8FB8146FFF741
:1019E000F5FB8046FFF7F2FB0700FFF7EFFB060071
:1019F000FFF7ECFB192101FB09F961684900B9FB0C
:101A0000F1F16422B1FBF2F2192101FB08F86168DF
:101A10004900B8FBF1F319214F4361684900B7FB56
:101A2000F1F16427B1FBF7F7642101FB1733D9000B
:101A300032316423B1FBF3F35B0013F4F87313EB5F
:101A4000021319214E4361684900B6FBF1F21921D6
:101A5000484361684900B0FBF1F06421B0FBF1F14B
:101A6000642000FB1122D00032306421B0FBF1F081
:101A700010F00700C31820688360A8E0206873494D
:101A8000884203D020687249884250D1FFF7F1FDA7
:101A90008146FFF7EEFD8046FFF7EBFD0700FFF7FD
:101AA000E8FD0600FFF7E5FD192101FB09F9616872
:101AB0008900B9FBF1F16422B1FBF2F2192101FBBB
:101AC00008F861688900B8FBF1F319214F43616898
:101AD0008900B7FBF1F16427B1FBF7F7642101FB43
:101AE0001733190132316423B1FBF3F313F0F00320
:101AF00013EB021319214E4361688900B6FBF1F222
:101B00001921484361688900B0FBF1F06421B0FB02
:101B1000F1F1642000FB1122100132306421B0FB8E
:101B2000F1F010F00F00C318206883604FE0FFF75A
:101B30004DFB8146FFF74AFB8046FFF747FB070056
:101B4000FFF744FB0600FFF741FB192101FB09F9F0
:101B500061688900B9FBF1F16422B1FBF2F219214D
:101B600001FB08F861688900B8FBF1F319214F43C4
:101B700061688900B7FBF1F16427B1FBF7F76421D5
:101B800001FB1733190132316423B1FBF3F313F076
:101B9000F00313EB021319214E4361688900B6FB71
:101BA000F1F21921484361688900B0FBF1F064212A
:101BB000B0FBF1F1642000FB1122100132306421EE
:101BC000B0FBF1F010F00F00C31820688360BDE88F
:101BD000F183000018240020083802400438024035
:101BE000003802400238024000004742800E47425F
:101BF00074380240403802400070004070380240A3
:101C0000600047420000FE03003C024044380240AE
:101C10000838014000000240000402400008024071
:101C2000000C024000100240001402400018024064
:101C3000001C024000200240003C0140043C0140E6
:101C4000083C01400C3C0140F369FFFF00100140DB
:101C50000014014010B50400002C01D1012030E037
:101C6000A0690028FFD194F83900002802D1002093
:101C700084F83800242084F839002068C06830F4E3
:101C800000502168C8602000FFF725FE2068006929
:101C900030F49040216808612068406930F02A00E3
:101CA000216848612068C06850F400502168C8600D
:101CB0000020E063202084F83900202084F83A00D6
:101CC000002010BD2DE9F04105000E0017009846D8
:101CD000069C286800683040B04201D1012000E035
:101CE0000020FFB2B84221D114F1010FF1D0002C35
:101CF00005D0FFF763FAB0EB08008442E9D2286808
:101D0000C06830F4D0702968C8602868406940080D
:101D1000400029684861202085F83900202085F896
:101D20003A00002085F83800032000E00020BDE8DC
:101D3000F0812DE9F04782B006000C0015001F006D
:101D40005FF0000A96F8390020285FD1002C02D0FD
:101D5000ADB2002D01D1012059E096F838000128DC
:101D600001D1022053E0012086F838000020F06302
:101D7000212086F83900FFF721FA8146B584F584E1
:101D8000F08C00282FD0F08C401EF084B068B0F5A5
:101D9000805F18D100974B46002280213000FFF76A
:101DA00091FF002801D0032031E0A046B8F80000E0
:101DB000C005C00D316848603069002801D1A41CFD
:101DC000DEE7641CDCE700974B46002280213000F0
:101DD000FFF778FF002801D0032018E02078316851
:101DE0004860641CCCE700974B460022402130003D
:101DF000FFF768FF002801D0032008E0202086F8C4
:101E00003900002086F83800002000E00220BDE8FC
:101E1000F6872DE9F04782B006000C0015001F0080
:101E20005FF0000A96F83A00202864D1002C02D016
:101E3000ADB2002D01D101205EE096F838000128F6
:101E400001D1022058E0012086F838000020F0631C
:101E5000222086F83A00FFF7B1F98146B585F5856D
:101E6000F08D00283FD0F08D401EF085B068B0F5B1
:101E7000805F1ED100974B46002220213000FFF7E3
:101E800021FF002801D0032036E0A0463069002859
:101E900007D130684068C005C00DA8F80000A41C38
:101EA000DEE73068406800F0FF00A8F80000641C1E
:101EB000D6E700974B46002220213000FFF702FFB3
:101EC000002801D0032017E03069002804D13068D1
:101ED00040682070641CC3E73068406810F07F00E1
:101EE0002070641CBCE7202086F83A00002086F8A9
:101EF0003800002000E00220BDE8F68770B403003F
:101F000000249C424BDA11F8146001EB4400457840
:101F1000EDB2302D06DBEDB23A2D03DAB5F130002B
:101F2000105515E0EDB2412D06DBEDB2472D03DA79
:101F3000B5F1370010550BE0EDB2612D06DBEDB2C7
:101F4000672D03DAB5F15700105501E0012027E0B5
:101F5000F6B2302E07DBF6B23A2E04DA105D50EA04
:101F60000610105519E0F6B2412E08DBF6B2472EE6
:101F700005DA105D373E50EA061010550DE0F6B256
:101F8000612E08DBF6B2672E05DA105D573E50EA87
:101F90000610105501E0012002E0641CB1E70020AA
:101FA00070BC704701000020704780B54E4A002188
:101FB000762000F001F801BD30B403004B48006802
:101FC0000B2801DB01201FE0412901D301201BE088
:101FD000474C464805680C2045436355444C4348EC
:101FE00005680C20454304EB05004160404C3F4828
:101FF00005680C20454304EB050082603B480068FF
:10200000401C3A4C2060002030BC704770B5B2B024
:1020100000F00DF9040000253448006885420ADA12
:1020200033480C2101FB05F1405C2100C9B2884214
:1020300001D06D1CF0E72D480068854234D00026A1
:102040002B480C2101FB05F108444068B6EB400F1A
:102050000DD200F0ECF80400E4B20A2C02D0E4B295
:102060000D2C00D120E011A88455761CE8E700F083
:10207000DEF80600F6B20A2E02D0F6B20D2E13D10B
:1020800001AA11A91A480C2303FB05F31844406860
:10209000FFF734FF002807D101A815490C2202FBE5
:1020A00005F211448968884732B070BDF8B5040064
:1020B0000D0016002000C0B200F0C4F80027AF42A7
:1020C0000EDA0C48F15D0911405C00F0BBF80948DC
:1020D000F15D11F00F01405C00F0B4F87F1CEEE7F9
:1020E0000A2000F0AFF8F1BDA51F0008142400205D
:1020F000302300200000002010B592B0032005908E
:10210000052006900020089000200C9005A8FFF7FD
:1021100060F80F2000900120019000200290002024
:10212000039000200490052421006846FFF7EDF994
:1021300012B010BD00B587B04FF4C060019002200E
:1021400002900120039002200490072005900020B7
:1021500000904348006850F0010041490860404841
:10216000006810F001000090009801A93D48FFF7B9
:1021700083FA3D483D4908604FF416403B494860AA
:1021800000203A49886000203849C860002037495B
:1021900008610020354988610C20344948610020DD
:1021A00000903348006850F0100031490860304812
:1021B000006810F01000009000982C48FFF74AFDCE
:1021C00007B000BD00B587B000200090244800682B
:1021D00050F00100224908602148006810F0010019
:1021E000009000984FF48050019001200290002050
:1021F00003900220049001A91A48FFF73DFA00223B
:102200004FF480511748FFF75CFB07B000BD80B565
:1022100001224FF480511348FFF753FB01BD80B5F5
:1022200000224FF480510F48FFF74BFB01BD80B5F2
:1022300041F28833012269460C48FFF7EAFD9DF818
:10224000000002BD10B582B004008DF8004041F2DC
:102250008833012269460548FFF76BFD13BD000076
:10226000303802400000024000100140A823002046
:102270004438024010B50400200000F05AF8002055
:1022800010BD10B50400FFF7C2FF200000F059F8A0
:10229000FFF7C5FF220010217220FFF707FF002083
:1022A00010BD01000020704700B585B068461A498E
:1022B000102200F051F8FFF71FFFFFF73BFFFFF779
:1022C00081FF00F031F8684600F033F86820FFF72E
:1022D000B9FF6520FFF7B6FF6C20FFF7B3FF6C2056
:1022E000FFF7B0FF6F20FFF7ADFF0A20FFF7AAFF4F
:1022F000FFF75BFE094A10216B20FFF75DFE084ADD
:1023000010217020FFF758FE064A00217820FFF7C1
:1023100053FEFFF77BFEFCE7F82400087522000857
:1023200083220008A322000880B50A48FDF7C5FFF4
:1023300001BD10B50400802221000648FDF7C8FF4A
:1023400010BD10B504002300220001210148FEF752
:10235000EBFE10BD18200020103A07D330B4B1E8CE
:102360003810103AA0E83810F9D230BC530724BF17
:10237000B1E80810A0E8081044BF51F8043B40F849
:10238000043BD20724BF31F8022B20F8022B44BFB4
:102390000B7803707047083A07D3B1E80810083A81
:1023A00040F8043B40F804CBF7D25307E4E719E0C8
:1023B00050F8042BD30744BFA9F101039A18091F51
:1023C0000023042942F8043BF9D25FEA817C1346DA
:1023D00004D54FF0000CA2F800C09B1CC90744BFF5
:1023E0000021197050F8041B0029E1D1704700004A
:1023F00010B500F013F802000023DB43002410683E
:10240000984203D011000220ABBE1460506898427D
:1024100003D0111D0220ABBE546010BD00487047B0
:102420001000002010B450F8041B79B10268436812
:1024300002440830DC0744BFA9F10104E31852F854
:10244000044B43F8044B091FF9D1ECE710BC70476B
:1024500010B5074979441831064C7C44163404E021
:102460000A68081D114488470146A142F8D110BDF1
:10247000080000002800000037FFFFFF04240000D0
:1024800018000020000000009DFFFFFF1800000062
:1024900050000000000000200000000000F00BF8D9
:1024A000002801D0FFF7D4FF0020AFF30080FFF732
:1024B000FBFE00F002F80120704700F001B80000B8
:1024C0000746384600F002F8FBE7000080B5FFF74A
:1024D0008FFF024A11001820ABBEFBE72600020066
:1024E000303132333435363738394142434445464A
:1024F000FFFFFFFFFFFFFFFF2B7E151628AED2A6C2
:10250000ABF7158809CF4F3CAFF30080AFF30080E5
:04251000FFF7C4FF0E
:0400000508002509C1
:00000001FF
