:020000040800F2
:10000000F0210020A9390008972300089723000851
:10001000972300089723000897230008000000009A
:10002000000000000000000000000000972300080E
:10003000972300080000000097230008972300087A
:100040004FF48C7102F0A4B9F0B4802A0B4605D0AD
:10005000C02A4DD0B2F5807F4CD04DE00A2101601E
:10006000520900F1080141600FD00C461D785E78FE
:100070009F7845EA0625DE7845EA07451B1D45EAD7
:100080000665521E44F8045BF0D100680A2804D0CB
:100090000C2835D00E2863D027E00FF25812DFF875
:1000A00004550C6852F8046BCB687440C3F3072600
:1000B0001F0EAE5D7440C3F30746AE5D84EA0624AE
:1000C000EE5D84EA064403F0FF06AF5D84EA076450
:1000D0000C610E694C6874404C618E6874406340DA
:1000E0008C61CB611031401EDBD1F0BC0020704729
:1000F0000C21B4E70E21B2E7F0BC6FF01F0070478F
:100100000FF2F003DFF89C5408200C6853F8046BDE
:100110004A697440C2F30726170EAE5D7440C2F3FD
:100120000746AE5D84EA0624EE5D84EA064402F0EA
:10013000FF06AF5D84EA07648C618E694C68744089
:10014000CC618E6874400C62CE6874404C620E695B
:10015000744062408C62CA621831401ED5D1C4E737
:100160000FF29002DFF83C5407200C6852F8046B41
:10017000CB697440C3F307261F0EAE5D7440C3F312
:100180000746AE5D84EA0624EE5D84EA064403F089
:10019000FF06AF5D84EA07640C620E6A4C68744027
:1001A0004C628E6874408C62CE68744004F0FF0725
:1001B000CC620E69EF5D7E40C4F30727EF5D86EAEF
:1001C0000726C4F30747240EEF5D2C5D86EA074639
:1001D00086EA04660E634C690E6B74404C638E694C
:1001E000744063408C63CB632031401EBDD17CE7FB
:1001F00000000000010000000200000004000000F8
:100200000800000010000000200000004000000076
:10021000800000001B000000360000002DE9F44FB4
:100220000D4641682A786B78AC78EE782F7B0068B1
:100230000FF278380FF2747C42EA032242EA044259
:1002400051F8043B6C7942EA06625A402B79AE7948
:1002500043EA0423EC7943EA064343EA046351F892
:10026000044B6E7A63402C7A44EA0624AE7A44EA60
:100270000644EE7A44EA066451F8046B74406E7BDF
:1002800047EA0626AF7B46EA0747EE7B51F8045B58
:10029000401047EA0666401E85EA060E00280FF663
:1002A0000C35C14E40F3C98002F0FF0951F8047BC0
:1002B0005CF829A0C3F3072958F829908AEA0707B0
:1002C00089EA0707C4F3074956F8299089EA07071E
:1002D0004FEA1E6955F829A051F8049B8AEA0707DE
:1002E00003F0FF0A5CF82AB0C4F3072A58F82AA0E2
:1002F0008BEA09098AEA0909CEF3074A56F82AA0C7
:100300008AEA09094FEA126A55F82AB051F804AB93
:100310008BEA090904F0FF0B5CF82BB08BEA0A0AA0
:10032000CEF3072B58F82BB08BEA0A0AC2F3074B1F
:1003300056F82BB08BEA0A0A4FEA136B55F82BB02C
:100340008BEA0A0A0EF0FF0E51F804BB5CF82EE0AF
:10035000C2F3072258F822208EEA0B0E82EA0E0E14
:10036000C3F3074256F8222082EA0E03240E55F802
:10037000242082EA030E07F0FF0351F8042B5CF8F7
:100380002340C9F3072358F8233062405A40CAF388
:10039000074356F823305A404FEA1E6355F823406E
:1003A00051F8043B624009F0FF045CF824406340CC
:1003B000CAF3072458F824406340CEF3074456F8A4
:1003C000244063403C0E55F8244063400AF0FF0B84
:1003D00051F8044B5CF82BB08BEA0404CEF3072BE6
:1003E00058F82BB08BEA0404C7F3074B56F82BB030
:1003F0008BEA04044FEA196B55F82BB08BEA04041E
:100400000EF0FF0E51F804BB5CF82EE0C7F307278F
:1004100058F827708EEA0B0E87EA0E0EC9F30747CD
:1004200056F8277087EA0E0E4FEA1A6A55F82A70B6
:10043000401E87EA0E0E7FF437AF02F0FF0AD1F8B4
:1004400000905CF82A00009F80EA0909C3F30720A6
:1004500058F8200080EA0909C4F3074056F8200044
:1004600080EA09094FEA1E6A55F82A0080EA09095C
:1004700003F0FF0BD1F804A05CF82B0080EA0A0A15
:10048000C4F3072058F8200080EA0A0ACEF3074098
:1004900056F8200080EA0A0A4FEA126B55F82B0042
:1004A000D1F808B080EA0A0A04F0FF005CF82000E6
:1004B00080EA0B0BCEF3072058F8200080EA0B0BE4
:1004C000C2F3074056F8200080EA0B0B180E55F8CF
:1004D000200080EA0B0B0EF0FF0EC8685CF82EC0FF
:1004E000C2F3072258F822208CEA00005040C3F3E0
:1004F000074256F822205040240E55F824200FF6CB
:10050000AC440B6909F0FF055040625D5340CAF3EB
:100510000722050EA25C665D4D6983EA0223CBF3D8
:1005200007420BF0FF08A25C83EA024383EA0663FA
:100530000AF0FF06A25D5540CBF307224FEA196689
:10054000A25C85EA0225C0F30742A25C85EA024567
:10055000A25D8E69C96985EA026514F808205640D3
:10056000C0F3072200F0FF00205CA25C4140C9F309
:10057000072086EA0226C9F30742205CA25C81EAD2
:100580000021CAF3074086EA02464FEA1A62205C5D
:10059000A25C81EA00414FEA1B6086EA026601F034
:1005A00046B80000AC110008D02C0008A5C6636353
:1005B00084F87C7C99EE77778DF67B7B0DFFF2F2E9
:1005C000BDD66B6BB1DE6F6F5491C5C550603030D6
:1005D00003020101A9CE67677D562B2B19E7FEFEAA
:1005E00062B5D7D7E64DABAB9AEC7676458FCACAE3
:1005F0009D1F82824089C9C987FA7D7D15EFFAFA6D
:10060000EBB25959C98E47470BFBF0F0EC41ADAD49
:1006100067B3D4D4FD5FA2A2EA45AFAFBF239C9CD1
:10062000F753A4A496E472725B9BC0C0C275B7B7BF
:100630001CE1FDFDAE3D93936A4C26265A6C36367E
:10064000417E3F3F02F5F7F74F83CCCC5C683434F2
:10065000F451A5A534D1E5E508F9F1F193E2717102
:1006600073ABD8D8536231313F2A15150C080404F6
:100670005295C7C7654623235E9DC3C3283018180B
:10068000A13796960F0A0505B52F9A9A090E070706
:10069000362412129B1B80803DDFE2E226CDEBEB7D
:1006A000694E2727CD7FB2B29FEA75751B120909E3
:1006B0009E1D838374582C2C2E341A1A2D361B1B26
:1006C000B2DC6E6EEEB45A5AFB5BA0A0F6A4525296
:1006D0004D763B3B61B7D6D6CE7DB3B37B5229294D
:1006E0003EDDE3E3715E2F2F97138484F5A6535309
:1006F00068B9D1D1000000002CC1EDED6040202090
:100700001FE3FCFCC879B1B1EDB65B5BBED46A6A8D
:10071000468DCBCBD967BEBE4B723939DE944A4A7F
:10072000D4984C4CE8B058584A85CFCF6BBBD0D04A
:100730002AC5EFEFE54FAAAA16EDFBFBC58643439A
:10074000D79A4D4D5566333394118585CF8A4545EB
:1007500010E9F9F90604020281FE7F7FF0A05050F3
:1007600044783C3CBA259F9FE34BA8A8F3A2515183
:10077000FE5DA3A3C08040408A058F8FAD3F92925B
:10078000BC219D9D4870383804F1F5F5DF63BCBC91
:10079000C177B6B675AFDADA634221213020101086
:1007A0001AE5FFFF0EFDF3F36DBFD2D24C81CDCD24
:1007B00014180C0C352613132FC3ECECE1BE5F5F4D
:1007C000A2359797CC884444392E17175793C4C441
:1007D000F255A7A782FC7E7E477A3D3DACC8646493
:1007E000E7BA5D5D2B32191995E67373A0C060609E
:1007F00098198181D19E4F4F7FA3DCDC6644222271
:100800007E542A2AAB3B9090830B8888CA8C46463C
:1008100029C7EEEED36BB8B83C28141479A7DEDEF6
:10082000E2BC5E5E1D160B0B76ADDBDB3BDBE0E076
:10083000566432324E743A3A1E140A0ADB9249491F
:100840000A0C06066C482424E4B85C5C5D9FC2C2B6
:100850006EBDD3D3EF43ACACA6C46262A83991910C
:10086000A431959537D3E4E48BF2797932D5E7E773
:10087000438BC8C8596E3737B7DA6D6D8C018D8DD3
:1008800064B1D5D5D29C4E4EE049A9A9B4D86C6CC0
:10089000FAAC565607F3F4F425CFEAEAAFCA656519
:1008A0008EF47A7AE947AEAE18100808D56FBABA56
:1008B00088F078786F4A2525725C2E2E24381C1C0F
:1008C000F157A6A6C773B4B45197C6C623CBE8E8C0
:1008D0007CA1DDDD9CE87474213E1F1FDD964B4B2F
:1008E000DC61BDBD860D8B8B850F8A8A90E07070B0
:1008F000427C3E3EC471B5B5AACC6666D8904848E5
:100900000506030301F7F6F6121C0E0EA3C2616181
:100910005F6A3535F9AE5757D069B9B991178686F0
:100920005899C1C1273A1D1DB9279E9E38D9E1E1CA
:1009300013EBF8F8B32B989833221111BBD26969E5
:1009400070A9D9D989078E8EA7339494B62D9B9B15
:10095000223C1E1E9215878720C9E9E94987CECE21
:10096000FFAA5555785028287AA5DFDF8F038C8C95
:10097000F859A1A180098989171A0D0DDA65BFBF41
:1009800031D7E6E6C6844242B8D06868C3824141A6
:10099000B0299999775A2D2D111E0F0FCB7BB0B02E
:1009A000FCA85454D66DBBBB3A2C1616C66363A57F
:1009B000F87C7C84EE777799F67B7B8DFFF2F20DE5
:1009C000D66B6BBDDE6F6FB191C5C55460303050D2
:1009D00002010103CE6767A9562B2B7DE7FEFE19A6
:1009E000B5D7D7624DABABE6EC76769A8FCACA45DF
:1009F0001F82829D89C9C940FA7D7D87EFFAFA1569
:100A0000B25959EB8E4747C9FBF0F00B41ADADEC45
:100A1000B3D4D4675FA2A2FD45AFAFEA239C9CBFCD
:100A200053A4A4F7E47272969BC0C05B75B7B7C2BB
:100A3000E1FDFD1C3D9393AE4C26266A6C36365A7A
:100A40007E3F3F41F5F7F70283CCCC4F6834345CEE
:100A500051A5A5F4D1E5E534F9F1F108E2717193FE
:100A6000ABD8D873623131532A15153F0804040CF2
:100A700095C7C752462323659DC3C35E3018182807
:100A8000379696A10A05050F2F9A9AB50E07070902
:100A9000241212361B80809BDFE2E23DCDEBEB2679
:100AA0004E2727697FB2B2CDEA75759F1209091BDF
:100AB0001D83839E582C2C74341A1A2E361B1B2D22
:100AC000DC6E6EB2B45A5AEE5BA0A0FBA45252F692
:100AD000763B3B4DB7D6D6617DB3B3CE5229297B49
:100AE000DDE3E33E5E2F2F7113848497A65353F505
:100AF000B9D1D16800000000C1EDED2C402020608C
:100B0000E3FCFC1F79B1B1C8B65B5BEDD46A6ABE89
:100B10008DCBCB4667BEBED97239394B944A4ADE7B
:100B2000984C4CD4B05858E885CFCF4ABBD0D06B46
:100B3000C5EFEF2A4FAAAAE5EDFBFB16864343C596
:100B40009A4D4DD766333355118585948A4545CFE7
:100B5000E9F9F91004020206FE7F7F81A05050F0EF
:100B6000783C3C44259F9FBA4BA8A8E3A25151F37F
:100B70005DA3A3FE804040C0058F8F8A3F9292AD57
:100B8000219D9DBC70383848F1F5F50463BCBCDF8D
:100B900077B6B6C1AFDADA75422121632010103082
:100BA000E5FFFF1AFDF3F30EBFD2D26D81CDCD4C20
:100BB000180C0C1426131335C3ECEC2FBE5F5FE149
:100BC000359797A2884444CC2E17173993C4C4573D
:100BD00055A7A7F2FC7E7E827A3D3D47C86464AC8F
:100BE000BA5D5DE73219192BE6737395C06060A09A
:100BF000198181989E4F4FD1A3DCDC7F442222666D
:100C0000542A2A7E3B9090AB0B8888838C4646CA38
:100C1000C7EEEE296BB8B8D32814143CA7DEDE79F2
:100C2000BC5E5EE2160B0B1DADDBDB76DBE0E03B72
:100C300064323256743A3A4E140A0A1E924949DB1B
:100C40000C06060A4824246CB85C5CE49FC2C25DB2
:100C5000BDD3D36E43ACACEFC46262A6399191A808
:100C6000319595A4D3E4E437F279798BD5E7E7326F
:100C70008BC8C8436E373759DA6D6DB7018D8D8CCF
:100C8000B1D5D5649C4E4ED249A9A9E0D86C6CB4BC
:100C9000AC5656FAF3F4F407CFEAEA25CA6565AF15
:100CA000F47A7A8E47AEAEE9100808186FBABAD552
:100CB000F07878884A25256F5C2E2E72381C1C240B
:100CC00057A6A6F173B4B4C797C6C651CBE8E823BC
:100CD000A1DDDD7CE874749C3E1F1F21964B4BDD2B
:100CE00061BDBDDC0D8B8B860F8A8A85E0707090AC
:100CF0007C3E3E4271B5B5C4CC6666AA904848D8E1
:100D000006030305F7F6F6011C0E0E12C26161A37D
:100D10006A35355FAE5757F969B9B9D017868691EC
:100D200099C1C1583A1D1D27279E9EB9D9E1E138C6
:100D3000EBF8F8132B9898B322111133D26969BBE1
:100D4000A9D9D970078E8E89339494A72D9B9BB611
:100D50003C1E1E2215878792C9E9E92087CECE491D
:100D6000AA5555FF50282878A5DFDF7A038C8C8F91
:100D700059A1A1F8098989801A0D0D1765BFBFDA3D
:100D8000D7E6E631844242C6D06868B8824141C3A2
:100D9000299999B05A2D2D771E0F0F117BB0B0CB2A
:100DA000A85454FC6DBBBBD62C16163A6363A5C67B
:100DB0007C7C84F8777799EE7B7B8DF6F2F20DFFE1
:100DC0006B6BBDD66F6FB1DEC5C5549130305060CE
:100DD000010103026767A9CE2B2B7D56FEFE19E7A2
:100DE000D7D762B5ABABE64D76769AECCACA458FDB
:100DF00082829D1FC9C940897D7D87FAFAFA15EF65
:100E00005959EBB24747C98EF0F00BFBADADEC4141
:100E1000D4D467B3A2A2FD5FAFAFEA459C9CBF23C9
:100E2000A4A4F753727296E4C0C05B9BB7B7C275B7
:100E3000FDFD1CE19393AE3D26266A4C36365A6C76
:100E40003F3F417EF7F702F5CCCC4F8334345C68EA
:100E5000A5A5F451E5E534D1F1F108F9717193E2FA
:100E6000D8D873AB3131536215153F2A04040C08EE
:100E7000C7C7529523236546C3C35E9D1818283003
:100E80009696A13705050F0A9A9AB52F0707090EFE
:100E90001212362480809B1BE2E23DDFEBEB26CD75
:100EA0002727694EB2B2CD7F75759FEA09091B12DB
:100EB00083839E1D2C2C74581A1A2E341B1B2D361E
:100EC0006E6EB2DC5A5AEEB4A0A0FB5B5252F6A48E
:100ED0003B3B4D76D6D661B7B3B3CE7D29297B5245
:100EE000E3E33EDD2F2F715E848497135353F5A601
:100EF000D1D168B900000000EDED2CC12020604088
:100F0000FCFC1FE3B1B1C8795B5BEDB66A6ABED485
:100F1000CBCB468DBEBED96739394B724A4ADE9477
:100F20004C4CD4985858E8B0CFCF4A85D0D06BBB42
:100F3000EFEF2AC5AAAAE54FFBFB16ED4343C58692
:100F40004D4DD79A33335566858594114545CF8AE3
:100F5000F9F910E9020206047F7F81FE5050F0A0EB
:100F60003C3C44789F9FBA25A8A8E34B5151F3A27B
:100F7000A3A3FE5D4040C0808F8F8A059292AD3F53
:100F80009D9DBC2138384870F5F504F1BCBCDF6389
:100F9000B6B6C177DADA75AF21216342101030207E
:100FA000FFFF1AE5F3F30EFDD2D26DBFCDCD4C811C
:100FB0000C0C141813133526ECEC2FC35F5FE1BE45
:100FC0009797A2354444CC881717392EC4C4579339
:100FD000A7A7F2557E7E82FC3D3D477A6464ACC88B
:100FE0005D5DE7BA19192B32737395E66060A0C096
:100FF000818198194F4FD19EDCDC7FA32222664469
:101000002A2A7E549090AB3B8888830B4646CA8C34
:10101000EEEE29C7B8B8D36B14143C28DEDE79A7EE
:101020005E5EE2BC0B0B1D16DBDB76ADE0E03BDB6E
:10103000323256643A3A4E740A0A1E144949DB9217
:1010400006060A0C24246C485C5CE4B8C2C25D9FAE
:10105000D3D36EBDACACEF436262A6C49191A83904
:101060009595A431E4E437D379798BF2E7E732D56B
:10107000C8C8438B3737596E6D6DB7DA8D8D8C01CB
:10108000D5D564B14E4ED29CA9A9E0496C6CB4D8B8
:101090005656FAACF4F407F3EAEA25CF6565AFCA11
:1010A0007A7A8EF4AEAEE94708081810BABAD56F4E
:1010B000787888F025256F4A2E2E725C1C1C243807
:1010C000A6A6F157B4B4C773C6C65197E8E823CBB8
:1010D000DDDD7CA174749CE81F1F213E4B4BDD9627
:1010E000BDBDDC618B8B860D8A8A850F707090E0A8
:1010F0003E3E427CB5B5C4716666AACC4848D890DD
:1011000003030506F6F601F70E0E121C6161A3C279
:1011100035355F6A5757F9AEB9B9D06986869117E8
:10112000C1C158991D1D273A9E9EB927E1E138D9C2
:10113000F8F813EB9898B32B111133226969BBD2DD
:10114000D9D970A98E8E89079494A7339B9BB62D0D
:101150001E1E223C87879215E9E920C9CECE498719
:101160005555FFAA28287850DFDF7AA58C8C8F038D
:10117000A1A1F859898980090D0D171ABFBFDA6539
:10118000E6E631D74242C6846868B8D04141C3829E
:101190009999B0292D2D775A0F0F111EB0B0CB7B26
:1011A0005454FCA8BBBBD66D16163A2C637C777BD7
:1011B000F26B6FC53001672BFED7AB76CA82C97D53
:1011C000FA5947F0ADD4A2AF9CA472C0B7FD9326E4
:1011D000363FF7CC34A5E5F171D8311504C723C3E8
:1011E0001896059A071280E2EB27B27509832C1A2C
:1011F0001B6E5AA0523BD6B329E32F8453D100ED86
:1012000020FCB15B6ACBBE394A4C58CFD0EFAAFB69
:10121000434D338545F9027F503C9FA851A3408F31
:10122000929D38F5BCB6DA2110FFF3D2CD0C13EC49
:101230005F974417C4A77E3D645D197360814FDCDE
:10124000222A908846EEB814DE5E0BDBE0323A0AC2
:101250004906245CC2D3AC629195E479E7C8376D46
:101260008DD54EA96C56F4EA657AAE08BA78252E6B
:101270001CA6B4C6E8DD741F4BBD8B8A703EB566F4
:101280004803F60E613557B986C11D9EE1F89811E5
:1012900069D98E949B1E87E9CE5528DF8CA1890DD4
:1012A000BFE6426841992D0FB054BB162DE9F44FAB
:1012B0000D4641682A786B78AC78EE782F7B006811
:1012C0000FF2B4380FF2B07C42EA032242EA044241
:1012D00051F8043B6C7942EA06625A402B79AE79A8
:1012E00043EA0423EC7943EA064343EA046351F8F2
:1012F000044B6E7A63402C7A44EA0624AE7A44EAC0
:101300000644EE7A44EA066451F8046B74406E7B3E
:1013100047EA0626AF7B46EA0747EE7B51F8045BB7
:10132000401047EA0666401E85EA060E00280FF6C2
:101330004835D04E40F3C88002F0FF0951F8047BD5
:101340005CF829A0CEF3072958F829908AEA070704
:1013500089EA0707C4F3074956F8299089EA07077D
:101360004FEA136955F829A051F8049B8AEA070748
:1013700003F0FF0A5CF82AB0C2F3072A58F82AA043
:101380008BEA09098AEA0909CEF3074A56F82AA026
:101390008AEA09094FEA146A55F82AB051F804ABF1
:1013A0008BEA090904F0FF0B5CF82BB08BEA0A0A00
:1013B000C3F3072B58F82BB08BEA0A0AC2F3074B8A
:1013C00056F82BB08BEA0A0A4FEA1E6B55F82BB081
:1013D0008BEA0A0A0EF0FF0E51F804BB5CF82EE00F
:1013E000C4F3072458F82440C3F307438EEA0B0ED6
:1013F00056F82330120E84EA0E0455F8222063407A
:1014000082EA030E07F0FF0351F8042B5CF8234037
:10141000CEF3072358F8233062405A40CAF30743FB
:1014200056F823305A404FEA196355F8234051F8D3
:10143000043B624009F0FF045CF824406340C7F3BA
:10144000072458F824406340CEF3074456F824405C
:1014500063404FEA1A6455F8244063400AF0FF0BDA
:1014600051F8044B5CF82BB08BEA0404C9F3072B4A
:1014700058F82BB08BEA0404C7F3074B56F82BB08F
:101480008BEA04044FEA1E6B55F82BB08BEA040478
:101490000EF0FF0E51F804BB5CF82EE0CAF3072AE9
:1014A00058F82AA0C9F307498EEA0B0E56F829907E
:1014B0003F0E8AEA0E0E55F8277089EA0E0E401E7E
:1014C00087EA0E0E7FF438AF02F0FF0AD1F80090E1
:1014D0005CF82A00009F80EA0909CEF3072058F83B
:1014E000200080EA0909C4F3074056F8200080EA8A
:1014F00009094FEA136A55F82A0080EA090903F03E
:10150000FF0BD1F804A05CF82B0080EA0A0AC2F3B2
:10151000072058F8200080EA0A0ACEF3074056F860
:10152000200080EA0A0A4FEA146B55F82B00D1F824
:1015300008B080EA0A0A04F0FF005CF8200080EAA4
:101540000B0BC3F3072058F8200080EA0B0BC2F303
:10155000074056F8200080EA0B0B4FEA1E6055F852
:10156000200080EA0B0B0EF0FF0EC8685CF82EC05E
:10157000C4F3072458F82440C3F307438CEA00005F
:1015800056F82330120E604055F822200FF6E8443A
:10159000584009F0FF0550400B69625D5340C0F3AD
:1015A00007224FEA1A65A25C665D4D6983EA022351
:1015B000CBF307420BF0FF08A25C83EA024383EA05
:1015C00006630AF0FF06A25D5540C9F307224FEA01
:1015D0001B66A25C85EA0225C0F30742A25C85EA8D
:1015E0000245A25D8E69C96985EA026514F8082082
:1015F0005640CAF30722A25C86EA0226C9F30742D4
:10160000A25C86EA0246020E00F0FF00205CA25CAB
:101610004140CBF3072086EA0266205C81EA002184
:10162000CAF30740205C81EA00414FEA1960225C5E
:101630003B70180A787081EA0261180CB8701B0EB2
:10164000FB703D71280A7871280CB8712D0EFD7160
:101650003E72300A7872300CB872360EFE723973F0
:10166000080A7873080CB873090EF9730020BDE8F6
:10167000F28F0000D03000085051F4A7537E41652E
:10168000C31A17A4963A275ECB3BAB6BF11F9D455F
:10169000ABACFA58934BE303552030FAF6AD766DB8
:1016A0009188CC7625F5024CFC4FE5D7D7C52ACBDF
:1016B000802635448FB562A349DEB15A6725BA1B2F
:1016C0009845EA0EE15DFEC002C32F7512814CF011
:1016D000A38D4697C66BD3F9E7038F5F9515929C50
:1016E000EBBF6D7ADA9552592DD4BE83D35874214D
:1016F0002949E069448EC9C86A75C28978F48E792F
:101700006B99583EDD27B971B6BEE14F17F088AD31
:1017100066C920ACB47DCE3A1863DF4A82E51A313F
:10172000609751334562537FE0B1647784BB6BAE01
:101730001CFE81A094F9082B58704868198F45FD4C
:101740008794DE6CB7527BF823AB73D3E2724B0203
:1017500057E31F8F2A6655AB07B2EB28032FB5C29C
:101760009A86C57BA5D33708F2302887B223BFA558
:10177000BA02036A5CED16822B8ACF1C92A779B459
:10178000F0F307F2A14E69E2CD65DAF4D50605BEA5
:101790001FD134628AC4A6FE9D342E53A0A2F355F5
:1017A00032058AE175A4F6EB390B83ECAA4060EFB1
:1017B000065E719F51BD6E10F93E218A3D96DD0691
:1017C000AEDD3E05464DE6BDB591548D0571C45D57
:1017D0006F0406D4FF605015241998FB97D6BDE915
:1017E000CC8940437767D99EBDB0E8428807898B92
:1017F00038E7195BDB79C8EE47A17C0AE97C420F28
:10180000C9F8841E000000008309808648322BED51
:10181000AC1E11704E6C5A72FBFD0EFF560F8538D0
:101820001E3DAED527362D39640A0FD921685CA636
:10183000D19B5B543A24362EB10C0A670F9357E7BD
:10184000D2B4EE969E1B9B914F80C0C5A261DC2056
:10185000695A774B161C121A0AE293BAE5C0A02AFD
:10186000433C22E01D121B170B0E090DADF28BC776
:10187000B92DB6A8C8141EA98557F1194CAF750724
:10188000BBEE99DDFDA37F609FF70126BC5C72F57E
:10189000C544663B345BFB7E768B4329DCCB23C699
:1018A00068B6EDFC63B8E4F1CAD731DC1042638559
:1018B000401397222084C6117D854A24F8D2BB3D6F
:1018C00011AEF9326DC729A14B1D9E2FF3DCB2304A
:1018D000EC0D8652D077C1E36C2BB31699A970B981
:1018E000FA1194482247E964C4A8FC8C1AA0F03F7E
:1018F000D8567D2CEF223390C787494EC1D938D1B5
:10190000FE8CCAA23698D40BCFA6F58128A57ADE24
:1019100026DAB78EA43FADBFE42C3A9D0D507892E5
:101920009B6A5FCC62547E46C2F68D13E890D8B8AD
:101930005E2E39F7F582C3AFBE9F5D807C69D09380
:10194000A96FD52DB3CF25123BC8AC99A710187D30
:101950006EE89C637BDB3BBB09CD2678F46E59189F
:1019600001EC9AB7A8834F9A65E6956E7EAAFFE6CA
:101970000821BCCFE6EF15E8D9BAE79BCE4A6F360F
:10198000D4EA9F09D629B07CAF31A4B2312A3F23D3
:1019900030C6A594C035A26637744EBCA6FC82CA78
:1019A000B0E090D01533A7D84AF10498F741ECDAAB
:1019B0000E7FCD502F1791F68D764DD64D43EFB05B
:1019C00054CCAA4DDFE49604E39ED1B51B4C6A8843
:1019D000B8C12C1F7F466551049D5EEA5D018C35C0
:1019E00073FA87742EFB0B415AB3671D5292DBD2F8
:1019F00033E91056136DD6478C9AD7617A37A10C0C
:101A00008E59F81489EB133CEECEA92735B761C97E
:101A1000EDE11CE53C7A47B1599CD2DF3F55F273AA
:101A2000791814CEBF73C737EA53F7CD5B5FFDAAB1
:101A300014DF3D6F867844DB81CAAFF33EB968C4DA
:101A40002C3824345FC2A34072161DC30CBCE2259F
:101A50008B283C4941FF0D957139A801DE080CB374
:101A60009CD8B4E4906456C1617BCB8470D532B607
:101A700074486C5C42D0B85751F4A7507E4165530E
:101A80001A17A4C33A275E963BAB6BCB1F9D45F15B
:101A9000ACFA58AB4BE303932030FA55AD766DF6B4
:101AA00088CC7691F5024C254FE5D7FCC52ACBD7DB
:101AB00026354480B562A38FDEB15A4925BA1B672B
:101AC00045EA0E985DFEC0E1C32F7502814CF0120D
:101AD0008D4697A36BD3F9C6038F5FE715929C954C
:101AE000BF6D7AEB955259DAD4BE832D587421D349
:101AF00049E069298EC9C84475C2896AF48E79782B
:101B000099583E6B27B971DDBEE14FB6F088AD172D
:101B1000C920AC667DCE3AB463DF4A18E51A31823B
:101B20009751336062537F45B16477E0BB6BAE84FD
:101B3000FE81A01CF9082B94704868588F45FD1948
:101B400094DE6C87527BF8B7AB73D323724B02E2FF
:101B5000E31F8F576655AB2AB2EB28072FB5C20398
:101B600086C57B9AD33708A5302887F223BFA5B254
:101B700002036ABAED16825C8ACF1C2BA779B49255
:101B8000F307F2F04E69E2A165DAF4CD0605BED5A1
:101B9000D134621FC4A6FE8A342E539DA2F355A0F1
:101BA000058AE132A4F6EB750B83EC394060EFAAAD
:101BB0005E719F06BD6E10513E218AF996DD063D8D
:101BC000DD3E05AE4DE6BD4691548DB571C45D0553
:101BD0000406D46F605015FF1998FB24D6BDE99711
:101BE000894043CC67D99E77B0E842BD07898B888E
:101BF000E7195B3879C8EEDBA17C0A477C420FE924
:101C0000F8841EC90000000009808683322BED484D
:101C10001E1170AC6C5A724EFD0EFFFB0F853856CC
:101C20003DAED51E362D39270A0FD964685CA62132
:101C30009B5B54D124362E3A0C0A67B19357E70FB9
:101C4000B4EE96D21B9B919E80C0C54F61DC20A252
:101C50005A774B691C121A16E293BA0AC0A02AE5F9
:101C60003C22E043121B171D0E090D0BF28BC7AD72
:101C70002DB6A8B9141EA9C857F11985AF75074C20
:101C8000EE99DDBBA37F60FDF701269F5C72F5BC7A
:101C900044663BC55BFB7E348B432976CB23C6DC95
:101CA000B6EDFC68B8E4F163D731DCCA4263851055
:101CB0001397224084C61120854A247DD2BB3DF86B
:101CC000AEF93211C729A16D1D9E2F4BDCB230F346
:101CD0000D8652EC77C1E3D02BB3166CA970B9997D
:101CE000119448FA47E96422A8FC8CC4A0F03F1A7A
:101CF000567D2CD8223390EF87494EC7D938D1C1B1
:101D00008CCAA2FE98D40B36A6F581CFA57ADE2820
:101D1000DAB78E263FADBFA42C3A9DE45078920DE1
:101D20006A5FCC9B547E4662F68D13C290D8B8E8A9
:101D30002E39F75E82C3AFF59F5D80BE69D0937C7C
:101D40006FD52DA9CF2512B3C8AC993B10187DA72C
:101D5000E89C636EDB3BBB7BCD2678096E5918F49B
:101D6000EC9AB701834F9AA8E6956E65AAFFE67EC6
:101D700021BCCF08EF15E8E6BAE79BD94A6F36CE0B
:101D8000EA9F09D429B07CD631A4B2AF2A3F2331CF
:101D9000C6A5943035A266C0744EBC37FC82CAA674
:101DA000E090D0B033A7D815F104984A41ECDAF7A7
:101DB0007FCD500E1791F62F764DD68D43EFB04D57
:101DC000CCAA4D54E49604DF9ED1B5E34C6A881B3F
:101DD000C12C1FB84665517F9D5EEA04018C355DBC
:101DE000FA877473FB0B412EB3671D5A92DBD252F4
:101DF000E91056336DD647139AD7618C37A10C7A08
:101E000059F8148EEB133C89CEA927EEB761C9357A
:101E1000E11CE5ED7A47B13C9CD2DF5955F2733FA6
:101E20001814CE7973C737BF53F7CDEA5FFDAA5BAD
:101E3000DF3D6F147844DB86CAAFF381B968C43ED6
:101E40003824342CC2A3405F161DC372BCE2250C9B
:101E5000283C498BFF0D954139A80171080CB3DE70
:101E6000D8B4E49C6456C1907BCB8461D532B67003
:101E7000486C5C74D0B85742F4A750514165537E0A
:101E800017A4C31A275E963AAB6BCB3B9D45F11F57
:101E9000FA58ABACE303934B30FA5520766DF6ADB0
:101EA000CC769188024C25F5E5D7FC4F2ACBD7C5D7
:101EB0003544802662A38FB5B15A49DEBA1B672527
:101EC000EA0E9845FEC0E15D2F7502C34CF0128109
:101ED0004697A38DD3F9C66B8F5FE703929C951548
:101EE0006D7AEBBF5259DA95BE832DD47421D35845
:101EF000E0692949C9C8448EC2896A758E7978F427
:101F0000583E6B99B971DD27E14FB6BE88AD17F029
:101F100020AC66C9CE3AB47DDF4A18631A3182E537
:101F200051336097537F45626477E0B16BAE84BBF9
:101F300081A01CFE082B94F94868587045FD198F44
:101F4000DE6C87947BF8B75273D323AB4B02E272FB
:101F50001F8F57E355AB2A66EB2807B2B5C2032F94
:101F6000C57B9A863708A5D32887F230BFA5B22350
:101F7000036ABA0216825CEDCF1C2B8A79B492A751
:101F800007F2F0F369E2A14EDAF4CD6505BED5069D
:101F900034621FD1A6FE8AC42E539D34F355A0A2ED
:101FA0008AE13205F6EB75A483EC390B60EFAA40A9
:101FB000719F065E6E1051BD218AF93EDD063D9689
:101FC0003E05AEDDE6BD464D548DB591C45D05714F
:101FD00006D46F045015FF6098FB2419BDE997D60D
:101FE0004043CC89D99E7767E842BDB0898B88078A
:101FF000195B38E7C8EEDB797C0A47A1420FE97C20
:10200000841EC9F800000000808683092BED483249
:102010001170AC1E5A724E6C0EFFFBFD8538560FC8
:10202000AED51E3D2D3927360FD9640A5CA621682E
:102030005B54D19B362E3A240A67B10C57E70F93B5
:10204000EE96D2B49B919E1BC0C54F80DC20A2614E
:10205000774B695A121A161C93BA0AE2A02AE5C0F5
:1020600022E0433C1B171D12090D0B0E8BC7ADF26E
:10207000B6A8B92D1EA9C814F119855775074CAF1C
:1020800099DDBBEE7F60FDA301269FF772F5BC5C76
:10209000663BC544FB7E345B4329768B23C6DCCB91
:1020A000EDFC68B6E4F163B831DCCAD76385104251
:1020B00097224013C61120844A247D85BB3DF8D267
:1020C000F93211AE29A16DC79E2F4B1DB230F3DC42
:1020D0008652EC0DC1E3D077B3166C2B70B999A979
:1020E0009448FA11E9642247FC8CC4A8F03F1AA076
:1020F0007D2CD8563390EF22494EC78738D1C1D9AD
:10210000CAA2FE8CD40B3698F581CFA67ADE28A51C
:10211000B78E26DAADBFA43F3A9DE42C78920D50DD
:102120005FCC9B6A7E4662548D13C2F6D8B8E890A5
:1021300039F75E2EC3AFF5825D80BE9FD0937C6978
:10214000D52DA96F2512B3CFAC993BC8187DA71028
:102150009C636EE83BBB7BDB267809CD5918F46E97
:102160009AB701EC4F9AA883956E65E6FFE67EAAC2
:10217000BCCF082115E8E6EFE79BD9BA6F36CE4A07
:102180009F09D4EAB07CD629A4B2AF313F23312ACB
:10219000A59430C6A266C0354EBC377482CAA6FC70
:1021A00090D0B0E0A7D8153304984AF1ECDAF741A3
:1021B000CD500E7F91F62F174DD68D76EFB04D4353
:1021C000AA4D54CC9604DFE4D1B5E39E6A881B4C3B
:1021D0002C1FB8C165517F465EEA049D8C355D01B8
:1021E000877473FA0B412EFB671D5AB3DBD25292F0
:1021F000105633E9D647136DD7618C9AA10C7A3704
:10220000F8148E59133C89EBA927EECE61C935B776
:102210001CE5EDE147B13C7AD2DF599CF2733F55A2
:1022200014CE7918C737BF73F7CDEA53FDAA5B5FA9
:102230003D6F14DF44DB8678AFF381CA68C43EB9D2
:1022400024342C38A3405FC21DC37216E2250CBC97
:102250003C498B280D9541FFA80171390CB3DE086C
:10226000B4E49CD856C19064CB84617B32B670D5FF
:102270006C5C7448B85742D052096AD53036A538DC
:10228000BF40A39E81F3D7FB7CE339829B2FFF875E
:10229000348E4344C4DEE9CB547B9432A6C2233D42
:1022A000EE4C950B42FAC34E082EA16628D924B2F3
:1022B000765BA2496D8BD12572F8F6648668981614
:1022C000D4A45CCC5D65B6926C704850FDEDB9DA73
:1022D0005E154657A78D9D8490D8AB008CBCD30A61
:1022E000F7E45805B8B34506D02C1E8FCA3F0F023D
:1022F000C1AFBD0301138A6B3A9111414F67DCEA0C
:1023000097F2CFCEF0B4E67396AC7422E7AD358584
:10231000E2F937E81C75DF6E47F11A711D29C5898E
:102320006FB7620EAA18BE1BFC563E4BC6D2792070
:102330009ADBC0FE78CD5AF41FDDA8338807C73179
:10234000B11210592780EC5F60517FA919B54A0D71
:102350002DE57A9F93C99CEFA0E03B4DAE2AF5B0E6
:10236000C8EBBB3C83539961172B047EBA77D62602
:10237000E169146355210C7D18B4144601291A46ED
:10238000214602D118BCFDF749BF18BCFEF78EBF2D
:10239000002200F001B8FEE700B500BF130096462A
:1023A0009446103928BFA0E80C50FAD85FEA417C67
:1023B00028BF0CC048BF40F8042BC90728BF20F82D
:1023C000022B48BF00F8012B00BD0000F8B40178D3
:1023D000DFF88C28DFF88438CC0740F1A2809168C0
:1023E00001F00C01042907D0916801F00C010829C3
:1023F0000DD151684C020AD51468A10340F19180B7
:102400004168002940F08D80F2BC0120704741688E
:1024100091701C684168651C00291D600CD0002467
:102420001568A9037DD41968641C491C652C1960C2
:10243000F6D3F2BC03207047002411688D0370D5D9
:102440001D68641C6D1C652C1D60F6D3F1E71968CE
:102450006D1C491C022D196040F29080E9E71C6850
:10246000C168DFF80068651C71B1012737601D6025
:10247000002411688D0700F1A7801D68641C6D1C85
:10248000022C1D60F5D9D4E731601D60002411686D
:102490008D0763D51D68641C6D1C022C1D60F6D968
:1024A000C7E739601E60002561688E076AD51E681F
:1024B0006D1C761C022D1E60F6D9BAE71E68641CDE
:1024C000761C8C421E60C0F09380B2E7002441F27B
:1024D00089312E68B70740F18F801F68641C7F1C0C
:1024E0008C421F60F5D3A4E7641C652C1F60C0F00C
:1024F00096809EE71868761C401C652E1860C0F018
:10250000A88096E7002028661E60002410688101DC
:1025100040F1A3801968641C491C652C1960F5D32F
:1025200087E701788C0719D5916811F00C0F07D057
:10253000916801F00C01082991D151684C028ED4A8
:102540001468A10703D5C16801297FF45DAF146841
:10255000016924F0F80444EAC104146004782107F6
:1025600010D51D684169DFF80047DFF800776E1C61
:10257000002996D0012139601E60002561688E0710
:102580007FF565AF0478610736D500210091146CA2
:1025900044F080541464116C01F080510091009952
:1025A000DFF8CC160C6844F480740C601D686C1C59
:1025B0001C6000251C680F68661CFC050CD46D1C93
:1025C000022D1E60F6D934E71168046921F0F80184
:1025D00041EAC4011160C1E7DFF88C5681682970B7
:1025E00081681E6000293FF471AF002441F28931F7
:1025F0002E68B7077FF562AF816971B3946804F004
:102600000C04082C3FF400AF1C68DFF85856661C19
:1026100002297FF477AF002129661E6000241E681E
:102620001168771C89013FF55FAFC469016A0C43EB
:10263000416A44EA8114816AC06A891EC903090C8F
:1026400044EA014444EA00645460012129661F60A1
:102650000026106881017FF54DAFF2BC0020704765
:10266000F0B4DFF810360246186800F00F00884218
:1026700005D219701C6804F00F048C426AD11078DE
:10268000DFF8DC45850705D5A568906825F0F005DD
:102690000543A5601078C50751D55068012802D1BF
:1026A0002568AE0303E0022803D12568AE0103D4F8
:1026B00050E02668B5074DD5A568AD0840EA85000D
:1026C000A060DFF8980505686E1C06605668012E4C
:1026D0000FD1A66806F00C06042E30D00668771CD1
:1026E0000760761B41F28937BE42F2D3F0BC03206B
:1026F0007047022E2FD1A66806F00C06082E1ED0B9
:102700000668771C0760761B41F28937BE42F2D318
:10271000ECE71078410705D5A168D06821F4E051B5
:102720000143A1601078010706D5A068116920F463
:10273000604040EAC100A0600020F0BC704718680B
:1027400000F00F008142E4D219701B6803F00F0300
:102750008B42DED00BE2A66816F00C0FEFD00668B5
:10276000771C0760761B41F28937BE42F3D3BDE781
:102770002DE9F84F81460D464FF0000AD346D44666
:10278000DFF8F404DFF8F414DFF8F4240F23012455
:1027900004FA0AFE2C680EEA0408F04540F0C680F0
:1027A0006C68022C18BF122C12D14FEADA0409EB24
:1027B00084040CF01C07266A03FA07F7BE43009650
:1027C0000CF01C062F6907FA06F6009F3E432662AE
:1027D0000324D9F800602F7904FA0BF4E44307F0DE
:1027E0000307264007FA0BF73E43C9F800606E68FE
:1027F000012E18BF022E03D0112E18BF122E14D195
:10280000D9F80860EF68264007FA0BF73E43C9F88D
:102810000860D9F8046026EA0E076E68C6F3001651
:1028200006FA0AF63E43C9F80460D9F80C60344051
:10283000AE6806FA0BF63443C9F80C406C68E40045
:1028400074D5002400944FEA9A06146844F4804436
:1028500014600CF00C0E146804F48044009403FA25
:102860000EF7009C51F82640BC43DFF81874B945B8
:1028700008BF00272FD0DFF81074B94508BF012723
:1028800029D0DFF80874B94508BF022723D0DFF844
:102890000074B94508BF03271DD0DFF8F873B945A8
:1028A00008BF042717D0DFF8F073B94508BF052724
:1028B00011D0DFF8E873B94508BF06270BD0DFF861
:1028C000E073B94508BF072705D0DFF8D873B945CD
:1028D0000CBF0827092707FA0EF73C4341F82640AA
:1028E0006FEA080E04686E680EEA0404F70348BF36
:1028F00048EA0404046044686E680EEA0404B703FE
:1029000048BF48EA0404446084686E680EEA040420
:10291000F70248BF48EA04048460C4686E680EEA9F
:102920000404B60248BF48EA0404C4600AF1010A7C
:10293000BAF10F0F0CF1040C0BF1020B7FF627AF6D
:10294000BDE8F18F81B002B90904816101B070471F
:1029500081B002681369C16823F440530B431361CB
:10296000DFF84413D3680B4081680B4301690B43C4
:1029700041690B43C1690B43D3605369816923F4F7
:1029800040730B435361DFF82413C369B3F5004F61
:1029900030D18A421CBFC6498A4215D14368C54915
:1029A0005B00B1FBF3F16420B1FBF0F300FB13110A
:1029B000C9003231B1FBF0F0410001F4F87101EBD4
:1029C000031100F0070029E04368BA495B00B1FB3E
:1029D000F3F16420B1FBF0F300FB1311C9003231B5
:1029E000B1FBF0F0410001F4F87101EB031100F0CC
:1029F000070013E04368AF499B00B1FBF3F164208B
:102A0000B1FBF0F300FB131109013231B1FBF0F01F
:102A100000F0F00101EB031100F00F00401890608E
:102A200001B0704738B5040001D1012032BD04F176
:102A30003805687808B90021297024216970206858
:102A4000C16821F40051C1602046FFF781FF206872
:102A5000016921F4904101612068416921F02A0156
:102A600041612068C16841F40051C1600020686084
:102A700020206870A870002032BDF0B4044604F134
:102A800038056878202848D109B1100000D16EE0DF
:102A90002878012841D001262E70212000266E6062
:102AA00068706E4E3768781C3060A284E28402E061
:102AB00011F8012B4260E08CB8B1E28C501EE0842A
:102AC000A2682068B2F5805F28D1026812063ED461
:102AD00013F1010FF9D0B3B1326802F1010CD21B2E
:102AE0009342C6F800C0F0D20DE0206801684A06A3
:102AF00037D413F1010FF8D02BB131684A1CC91B30
:102B00008B423260F1D2C16821F4D071C16020687B
:102B10004169490849004161D1E0CDE002681206EF
:102B2000C6D413F1010FF9D03BB1326802F1010CA8
:102B3000D21B9342C6F800C0F0D2C26822F4D07211
:102B4000C26020684269520852004261E4E70A8884
:102B5000C2F3080242602069002814BF491C891C86
:102B6000A9E72021697000202870F0BC7047F0BCF4
:102B700001207047F0B4044604F13805A8782028F5
:102B80003BD109B1100000D1F1E72878012834D0F9
:102B900001262E70222000266E60A8702F4E376806
:102BA000781C3060A285E285E08D38B3E28D501E3E
:102BB000E085A0682268B0F5805F22D110688006A9
:102BC00038D413F1010FF9D03BB1306800F1010C9A
:102BD000C01B8342C6F800C0F0D2D06820F4D07089
:102BE000D0602068416949084900416167E0506848
:102BF00000F07F0001F8010BD6E75DE02021A9700D
:102C0000B2E71068800622D413F1010FF9D03BB16E
:102C1000306800F1010CC01B8342C6F800C0F0D23E
:102C2000D06820F4D070D060206842695208520009
:102C30004261DBE720695268002819BF02F0FF02F9
:102C400021F8012BC2F3080221F8022BACE720691E
:102C50000028CCD1526801F8012BA5E7EC01002037
:102C6000003802400000474270380240800E474260
:102C700000700040003C0240003C01400838014028
:102C800044380240000002400004024000080240B4
:102C9000000C0240001002400014024000180240E4
:102CA000001C024000200240F369FFFF00100140B9
:102CB000001401400080FC0AF0BC02207047202074
:102CC0006870A870002028700320F0BC70470000D6
:102CD00063A5C6637C84F87C7799EE777B8DF67B61
:102CE000F20DFFF26BBDD66B6FB1DE6FC55491C5AF
:102CF000305060300103020167A9CE672B7D562B4F
:102D0000FE19E7FED762B5D7ABE64DAB769AEC7607
:102D1000CA458FCA829D1F82C94089C97D87FA7DB5
:102D2000FA15EFFA59EBB25947C98E47F00BFBF091
:102D3000ADEC41ADD467B3D4A2FD5FA2AFEA45AF1D
:102D40009CBF239CA4F753A47296E472C05B9BC003
:102D5000B7C275B7FD1CE1FD93AE3D93266A4C26C4
:102D6000365A6C363F417E3FF702F5F7CC4F83CCA5
:102D7000345C6834A5F451A5E534D1E5F108F9F1E6
:102D80007193E271D873ABD831536231153F2A1574
:102D9000040C0804C75295C723654623C35E9DC330
:102DA0001828301896A13796050F0A059AB52F9A5C
:102DB00007090E0712362412809B1B80E23DDFE2DA
:102DC000EB26CDEB27694E27B2CD7FB2759FEA7512
:102DD000091B1209839E1D832C74582C1A2E341A39
:102DE0001B2D361B6EB2DC6E5AEEB45AA0FB5BA0F4
:102DF00052F6A4523B4D763BD661B7D6B3CE7DB3E7
:102E0000297B5229E33EDDE32F715E2F84971384E3
:102E100053F5A653D168B9D100000000ED2CC1EDE7
:102E200020604020FC1FE3FCB1C879B15BEDB65BCC
:102E30006ABED46ACB468DCBBED967BE394B7239D8
:102E40004ADE944A4CD4984C58E8B058CF4A85CFC3
:102E5000D06BBBD0EF2AC5EFAAE54FAAFB16EDFB5E
:102E600043C586434DD79A4D3355663385941185B6
:102E700045CF8A45F910E9F9020604027F81FE7FF9
:102E800050F0A0503C44783C9FBA259FA8E34BA843
:102E900051F3A251A3FE5DA340C080408F8A058FED
:102EA00092AD3F929DBC219D38487038F504F1F5F4
:102EB000BCDF63BCB6C177B6DA75AFDA21634221F5
:102EC00010302010FF1AE5FFF30EFDF3D26DBFD2D4
:102ED000CD4C81CD0C14180C13352613EC2FC3ECFC
:102EE0005FE1BE5F97A2359744CC884417392E170F
:102EF000C45793C4A7F255A77E82FC7E3D477A3D16
:102F000064ACC8645DE7BA5D192B32197395E6733A
:102F100060A0C060819819814FD19E4FDC7FA3DCF7
:102F2000226644222A7E542A90AB3B9088830B88E9
:102F300046CA8C46EE29C7EEB8D36BB8143C2814A9
:102F4000DE79A7DE5EE2BC5E0B1D160BDB76ADDB29
:102F5000E03BDBE0325664323A4E743A0A1E140A01
:102F600049DB9249060A0C06246C48245CE4B85CF0
:102F7000C25D9FC2D36EBDD3ACEF43AC62A6C46248
:102F800091A8399195A43195E437D3E4798BF279FE
:102F9000E732D5E7C8438BC837596E376DB7DA6D5E
:102FA0008D8C018DD564B1D54ED29C4EA9E049A936
:102FB0006CB4D86C56FAAC56F407F3F4EA25CFEAB1
:102FC00065AFCA657A8EF47AAEE947AE0818100884
:102FD000BAD56FBA7888F078256F4A252E725C2EA4
:102FE0001C24381CA6F157A6B4C773B4C65197C6A3
:102FF000E823CBE8DD7CA1DD749CE8741F213E1F33
:103000004BDD964BBDDC61BD8B860D8B8A850F8AAF
:103010007090E0703E427C3EB5C471B566AACC6645
:1030200048D8904803050603F601F7F60E121C0E69
:1030300061A3C261355F6A3557F9AE57B9D069B936
:1030400086911786C15899C11D273A1D9EB9279EA2
:10305000E138D9E1F813EBF898B32B98113322112A
:1030600069BBD269D970A9D98E89078E94A7339488
:103070009BB62D9B1E223C1E87921587E920C9E92D
:10308000CE4987CE55FFAA5528785028DF7AA5DF8C
:103090008C8F038CA1F859A1898009890D171A0D0D
:1030A000BFDA65BFE631D7E642C6844268B8D06869
:1030B00041C3824199B029992D775A2D0F111E0FC6
:1030C000B0CB7BB054FCA854BBD66DBB163A2C16C3
:1030D000A75051F465537E41A4C31A175E963A2750
:1030E0006BCB3BAB45F11F9D58ABACFA03934BE365
:1030F000FA5520306DF6AD76769188CC4C25F502E8
:10310000D7FC4FE5CBD7C52A44802635A38FB562BF
:103110005A49DEB11B6725BA0E9845EAC0E15DFE4B
:103120007502C32FF012814C97A38D46F9C66BD35D
:103130005FE7038F9C9515927AEBBF6D59DA955234
:10314000832DD4BE21D35874692949E0C8448EC95F
:10315000896A75C27978F48E3E6B995871DD27B90A
:103160004FB6BEE1AD17F088AC66C9203AB47DCE4B
:103170004A1863DF3182E51A336097517F45625305
:1031800077E0B164AE84BB6BA01CFE812B94F90880
:1031900068587048FD198F456C8794DEF8B7527BEC
:1031A000D323AB7302E2724B8F57E31FAB2A6655F2
:1031B0002807B2EBC2032FB57B9A86C508A5D33783
:1031C00087F23028A5B223BF6ABA0203825CED16EB
:1031D0001C2B8ACFB492A779F2F0F307E2A14E69D3
:1031E000F4CD65DABED50605621FD134FE8AC4A6C9
:1031F000539D342E55A0A2F3E132058AEB75A4F657
:10320000EC390B83EFAA40609F065E711051BD6ED2
:103210008AF93E21063D96DD05AEDD3EBD464DE612
:103220008DB591545D0571C4D46F040615FF6050CF
:10323000FB241998E997D6BD43CC89409E7767D97E
:1032400042BDB0E88B8807895B38E719EEDB79C8A7
:103250000A47A17C0FE97C421EC9F88400000000E7
:1032600086830980ED48322B70AC1E11724E6C5A69
:10327000FFFBFD0E38560F85D51E3DAE3927362D86
:10328000D9640A0FA621685C54D19B5B2E3A243680
:1032900067B10C0AE70F935796D2B4EE919E1B9B31
:1032A000C54F80C020A261DC4B695A771A161C12E8
:1032B000BA0AE2932AE5C0A0E0433C22171D121B84
:1032C0000D0B0E09C7ADF28BA8B92DB6A9C8141EF7
:1032D000198557F1074CAF75DDBBEE9960FDA37FF3
:1032E000269FF701F5BC5C723BC544667E345BFBF0
:1032F00029768B43C6DCCB23FC68B6EDF163B8E4DA
:10330000DCCAD7318510426322401397112084C64E
:10331000247D854A3DF8D2BB3211AEF9A16DC72993
:103320002F4B1D9E30F3DCB252EC0D86E3D077C1FB
:10333000166C2BB3B999A97048FA1194642247E925
:103340008CC4A8FC3F1AA0F02CD8567D90EF2233F5
:103350004EC78749D1C1D938A2FE8CCA0B3698D442
:1033600081CFA6F5DE28A57A8E26DAB7BFA43FADB9
:103370009DE42C3A920D5078CC9B6A5F4662547E55
:1033800013C2F68DB8E890D8F75E2E39AFF582C338
:1033900080BE9F5D937C69D02DA96FD512B3CF25D8
:1033A000993BC8AC7DA71018636EE89CBB7BDB3BE8
:1033B0007809CD2618F46E59B701EC9A9AA8834F74
:1033C0006E65E695E67EAAFFCF0821BCE8E6EF151C
:1033D0009BD9BAE736CE4A6F09D4EA9F7CD629B08A
:1033E000B2AF31A423312A3F9430C6A566C035A2BE
:1033F000BC37744ECAA6FC82D0B0E090D81533A773
:10340000984AF104DAF741EC500E7FCDF62F179170
:10341000D68D764DB04D43EF4D54CCAA04DFE496E3
:10342000B5E39ED1881B4C6A1FB8C12C517F4665FD
:10343000EA049D5E355D018C7473FA87412EFB0BA7
:103440001D5AB367D25292DB5633E91047136DD63B
:10345000618C9AD70C7A37A1148E59F83C89EB13FA
:1034600027EECEA9C935B761E5EDE11CB13C7A473D
:10347000DF599CD2733F55F2CE79181437BF73C70A
:10348000CDEA53F7AA5B5FFD6F14DF3DDB8678441E
:10349000F381CAAFC43EB968342C3824405FC2A35C
:1034A000C372161D250CBCE2498B283C9541FF0DCB
:1034B000017139A8B3DE080CE49CD8B4C1906456FD
:1034C00084617BCBB670D5325C74486C5742D0B8FF
:1034D00070B400282DDD4C780B78A4F130050A2D4E
:1034E00038BF303C0AD3A4F14106062E38BF373C22
:1034F00004D3A4F16105062D1ED2573C1470A3F12C
:1035000030040A2C38BF15780CD3A3F14104062CE3
:1035100002D21578373B05E0A3F16104062C0BD2EB
:103520001578573B891C45EA0315401E02F8015BDC
:10353000D1D170BC0020704770BC012070470020C2
:1035400070473E48816F0B290BDA01EB410200EB1B
:10355000820276231370491C00235360384B93601A
:103560008167704730B4354B9C6F0B2C01DA4129D1
:1035700002D330BC0120704704EB440503EB850502
:10358000641C28706960AA609C67002030BC70478A
:1035900070B5B0B000F0D6F8284A946F00211346F9
:1035A00004E013F80C5B85421BD0491CA142F8DBF8
:1035B00017D130B070BD00F0C5F80A281EBF0D2825
:1035C00005F8010B641C12D130B070BD70686A46FA
:1035D00010A9FFF77DFF10B9B1686846884730B081
:1035E00070BD01EB4100002410AD02EB8006706855
:1035F000B4EB400FDFD300F0A5F80A2818BF0D2860
:10360000E4D030B070BD70B50C46154600F0A5F89A
:10361000012C0EDB0B4E28780009305C00F09DF881
:1036200015F8010B00F00F00305C00F096F8641EF6
:10363000F1D1BDE870400A2000F08FB830010020C1
:103640003F3500080000002000B591B00320059030
:103650000521002008900C90069105A8FEF7B6FE03
:103660000F2100910120002101900291039104910A
:1036700068460521FEF7F4FF11B000BD10B586B015
:103680004FF4C06001900221012003900291049147
:10369000072005900021364C0091206840F0010081
:1036A0002060216801F00101009101A900983148D2
:1036B000FFF75EF83048314901604FF41641416030
:1036C00000218160C160016181610C2141610021A3
:1036D0000091626942F010026261616901F01001BB
:1036E00000910099FFF79EF906B010BD10B586B0A5
:1036F0000020009001221E481E4C016841F001018B
:1037000001604FF48051006800F0010000900098C3
:103710000091002002210290039101926946204607
:10372000FFF726F800224FF480512046FFF70AF9F0
:1037300006B010BD012200E000224FF480510D4878
:10374000FFF700B980B541F28833012269460A4883
:10375000FFF710FA9DF8000002BD80B58DF800005B
:1037600041F28833012269460348FFF786F901BD1B
:103770003038024000000240AC010020001001403F
:1037800080B500F060F8002002BD10B50446FFF7D8
:10379000D1FF204600F05CF8FFF7CEFF2246102153
:1037A0007220FFF730FF002010BD0020704730B5B9
:1037B0000FF27C0191E83C0085B0684680E83C004F
:1037C000FFF742FFFFF75AFFFFF790FF00F038F8CE
:1037D000684600F038F86820FFF7BFFF6520FFF764
:1037E000BCFF6C20FFF7B9FF6C20FFF7B6FF6F201E
:1037F000FFF7B3FF0A20FFF7B0FFFFF7A2FE094A69
:1038000010216B20FFF7AEFE074A10217020FFF752
:10381000A9FE064A00217820FFF7A4FEFFF7B8FEB4
:10382000FCE70000813700088B370008AB37000841
:103830002B7E151628AED2A6ABF7158809CF4F3CC4
:103840000648FCF7FDBB014680220448FCF7FCBBA0
:1038500003461A4601210148FEF78EBD18000020DC
:1038600019E050F8042BD30744BFA9F101039A18BB
:10387000091F0023042942F8043BF9D25FEA817C46
:10388000134604D54FF0000CA2F800C09B1CC907DA
:1038900044BF0021197050F8041B0029E1D1704782
:1038A00010B500F013F802000023DB430024106879
:1038B000984203D011000220ABBE146050689842B9
:1038C00003D0111D0220ABBE546010BD00487047EC
:1038D0001000002010B450F8041B79B1026843684E
:1038E00002440830DC0744BFA9F10104E31852F890
:1038F000044B43F8044B091FF9D1ECE710BC7047A7
:1039000010B5074979441831064C7C44163404E05C
:103910000A68081D114488470146A142F8D110BD2C
:10392000080000002800000039FFFFFFD801000058
:1039300018000020000000009DFFFFFF180000009D
:1039400050000000000000200000000000F00BF814
:10395000002801D0FFF7D4FF0020AFF30080FFF76D
:1039600026FF00F002F80120704700F001B80000C7
:103970000746384600F002F8FBE7000080B5FFF785
:103980008FFF024A11001820ABBEFBE726000200A1
:103990003031323334353637383941424344454685
:1039A000FFFFFFFFFFFFFFFFAFF30080AFF30080DB
:0439B000FFF7CCFF52
:04000005080039A90D
:00000001FF
