:020000040800F2
:10000000280A0020013D0008D3370008D337000834
:10001000D3370008D3370008D337000800000000AA
:10002000000000000000000000000000D3370008BE
:10003000D337000800000000D3370008D33700088A
:10004000637C777BF26B6FC53001672BFED7AB7695
:10005000CA82C97DFA5947F0ADD4A2AF9CA472C040
:10006000B7FD9326363FF7CC34A5E5F171D83115AD
:1000700004C723C31896059A071280E2EB27B275CE
:1000800009832C1A1B6E5AA0523BD6B329E32F8446
:1000900053D100ED20FCB15B6ACBBE394A4C58CF3E
:1000A000D0EFAAFB434D338545F9027F503C9FA812
:1000B00051A3408F929D38F5BCB6DA2110FFF3D2E0
:1000C000CD0C13EC5F974417C4A77E3D645D197394
:1000D00060814FDC222A908846EEB814DE5E0BDB8E
:1000E000E0323A0A4906245CC2D3AC629195E479C5
:1000F000E7C8376D8DD54EA96C56F4EA657AAE081F
:10010000BA78252E1CA6B4C6E8DD741F4BBD8B8AB9
:10011000703EB5664803F60E613557B986C11D9E1F
:10012000E1F8981169D98E949B1E87E9CE5528DF96
:100130008CA1890DBFE6426841992D0FB054BB16C2
:10014000A5C6636384F87C7C99EE77778DF67B7B1C
:100150000DFFF2F2BDD66B6BB1DE6F6F5491C5C56A
:100160005060303003020101A9CE67677D562B2B0A
:1001700019E7FEFE62B5D7D7E64DABAB9AEC7676C3
:10018000458FCACA9D1F82824089C9C987FA7D7D71
:1001900015EFFAFAEBB25959C98E47470BFBF0F04D
:1001A000EC41ADAD67B3D4D4FD5FA2A2EA45AFAFD9
:1001B000BF239C9CF753A4A496E472725B9BC0C0BF
:1001C000C275B7B71CE1FDFDAE3D93936A4C262680
:1001D0005A6C3636417E3F3F02F5F7F74F83CCCC61
:1001E0005C683434F451A5A534D1E5E508F9F1F1A2
:1001F00093E2717173ABD8D8536231313F2A151530
:100200000C0804045295C7C7654623235E9DC3C3EB
:1002100028301818A13796960F0A0505B52F9A9A17
:10022000090E0707362412129B1B80803DDFE2E295
:1002300026CDEBEB694E2727CD7FB2B29FEA7575CD
:100240001B1209099E1D838374582C2C2E341A1AF4
:100250002D361B1BB2DC6E6EEEB45A5AFB5BA0A0AF
:10026000F6A452524D763B3B61B7D6D6CE7DB3B3A2
:100270007B5229293EDDE3E3715E2F2F971384849F
:10028000F5A6535368B9D1D1000000002CC1EDEDA3
:10029000604020201FE3FCFCC879B1B1EDB65B5B88
:1002A000BED46A6A468DCBCBD967BEBE4B72393994
:1002B000DE944A4AD4984C4CE8B058584A85CFCF7F
:1002C0006BBBD0D02AC5EFEFE54FAAAA16EDFBFB1A
:1002D000C5864343D79A4D4D556633339411858572
:1002E000CF8A454510E9F9F90604020281FE7F7FB5
:1002F000F0A0505044783C3CBA259F9FE34BA8A8FF
:10030000F3A25151FE5DA3A3C08040408A058F8FA8
:10031000AD3F9292BC219D9D4870383804F1F5F5AF
:10032000DF63BCBCC177B6B675AFDADA63422121B0
:10033000302010101AE5FFFF0EFDF3F36DBFD2D28F
:100340004C81CDCD14180C0C352613132FC3ECECB7
:10035000E1BE5F5FA2359797CC884444392E1717CA
:100360005793C4C4F255A7A782FC7E7E477A3D3DD1
:10037000ACC86464E7BA5D5D2B32191995E67373F6
:10038000A0C0606098198181D19E4F4F7FA3DCDCB3
:10039000664422227E542A2AAB3B9090830B8888A5
:1003A000CA8C464629C7EEEED36BB8B83C28141465
:1003B00079A7DEDEE2BC5E5E1D160B0B76ADDBDBE5
:1003C0003BDBE0E0566432324E743A3A1E140A0ABD
:1003D000DB9249490A0C06066C482424E4B85C5CAC
:1003E0005D9FC2C26EBDD3D3EF43ACACA6C4626204
:1003F000A8399191A431959537D3E4E48BF27979BA
:1004000032D5E7E7438BC8C8596E3737B7DA6D6D19
:100410008C018D8D64B1D5D5D29C4E4EE049A9A9F1
:10042000B4D86C6CFAAC565607F3F4F425CFEAEA6C
:10043000AFCA65658EF47A7AE947AEAE181008083F
:10044000D56FBABA88F078786F4A2525725C2E2E5F
:1004500024381C1CF157A6A6C773B4B45197C6C65E
:1004600023CBE8E87CA1DDDD9CE87474213E1F1FEE
:10047000DD964B4BDC61BDBD860D8B8B850F8A8A6B
:1004800090E07070427C3E3EC471B5B5AACC666601
:10049000D89048480506030301F7F6F6121C0E0E25
:1004A000A3C261615F6A3535F9AE5757D069B9B9F2
:1004B000911786865899C1C1273A1D1DB9279E9E5E
:1004C00038D9E1E113EBF8F8B32B989833221111E6
:1004D000BBD2696970A9D9D989078E8EA733949444
:1004E000B62D9B9B223C1E1E9215878720C9E9E9E9
:1004F0004987CECEFFAA5555785028287AA5DFDF48
:100500008F038C8CF859A1A180098989171A0D0DC8
:10051000DA65BFBF31D7E6E6C6844242B8D0686824
:10052000C3824141B0299999775A2D2D111E0F0F81
:10053000CB7BB0B0FCA85454D66DBBBB3A2C16167E
:1005400063A5C6637C84F87C7799EE777B8DF67B18
:10055000F20DFFF26BBDD66B6FB1DE6FC55491C566
:10056000305060300103020167A9CE672B7D562B06
:10057000FE19E7FED762B5D7ABE64DAB769AEC76BF
:10058000CA458FCA829D1F82C94089C97D87FA7D6D
:10059000FA15EFFA59EBB25947C98E47F00BFBF049
:1005A000ADEC41ADD467B3D4A2FD5FA2AFEA45AFD5
:1005B0009CBF239CA4F753A47296E472C05B9BC0BB
:1005C000B7C275B7FD1CE1FD93AE3D93266A4C267C
:1005D000365A6C363F417E3FF702F5F7CC4F83CC5D
:1005E000345C6834A5F451A5E534D1E5F108F9F19E
:1005F0007193E271D873ABD831536231153F2A152C
:10060000040C0804C75295C723654623C35E9DC3E7
:100610001828301896A13796050F0A059AB52F9A13
:1006200007090E0712362412809B1B80E23DDFE291
:10063000EB26CDEB27694E27B2CD7FB2759FEA75C9
:10064000091B1209839E1D832C74582C1A2E341AF0
:100650001B2D361B6EB2DC6E5AEEB45AA0FB5BA0AB
:1006600052F6A4523B4D763BD661B7D6B3CE7DB39E
:10067000297B5229E33EDDE32F715E2F849713849B
:1006800053F5A653D168B9D100000000ED2CC1ED9F
:1006900020604020FC1FE3FCB1C879B15BEDB65B84
:1006A0006ABED46ACB468DCBBED967BE394B723990
:1006B0004ADE944A4CD4984C58E8B058CF4A85CF7B
:1006C000D06BBBD0EF2AC5EFAAE54FAAFB16EDFB16
:1006D00043C586434DD79A4D33556633859411856E
:1006E00045CF8A45F910E9F9020604027F81FE7FB1
:1006F00050F0A0503C44783C9FBA259FA8E34BA8FB
:1007000051F3A251A3FE5DA340C080408F8A058FA4
:1007100092AD3F929DBC219D38487038F504F1F5AB
:10072000BCDF63BCB6C177B6DA75AFDA21634221AC
:1007300010302010FF1AE5FFF30EFDF3D26DBFD28B
:10074000CD4C81CD0C14180C13352613EC2FC3ECB3
:100750005FE1BE5F97A2359744CC884417392E17C6
:10076000C45793C4A7F255A77E82FC7E3D477A3DCD
:1007700064ACC8645DE7BA5D192B32197395E673F2
:1007800060A0C060819819814FD19E4FDC7FA3DCAF
:10079000226644222A7E542A90AB3B9088830B88A1
:1007A00046CA8C46EE29C7EEB8D36BB8143C281461
:1007B000DE79A7DE5EE2BC5E0B1D160BDB76ADDBE1
:1007C000E03BDBE0325664323A4E743A0A1E140AB9
:1007D00049DB9249060A0C06246C48245CE4B85CA8
:1007E000C25D9FC2D36EBDD3ACEF43AC62A6C46200
:1007F00091A8399195A43195E437D3E4798BF279B6
:10080000E732D5E7C8438BC837596E376DB7DA6D15
:100810008D8C018DD564B1D54ED29C4EA9E049A9ED
:100820006CB4D86C56FAAC56F407F3F4EA25CFEA68
:1008300065AFCA657A8EF47AAEE947AE081810083B
:10084000BAD56FBA7888F078256F4A252E725C2E5B
:100850001C24381CA6F157A6B4C773B4C65197C65A
:10086000E823CBE8DD7CA1DD749CE8741F213E1FEA
:100870004BDD964BBDDC61BD8B860D8B8A850F8A67
:100880007090E0703E427C3EB5C471B566AACC66FD
:1008900048D8904803050603F601F7F60E121C0E21
:1008A00061A3C261355F6A3557F9AE57B9D069B9EE
:1008B00086911786C15899C11D273A1D9EB9279E5A
:1008C000E138D9E1F813EBF898B32B9811332211E2
:1008D00069BBD269D970A9D98E89078E94A7339440
:1008E0009BB62D9B1E223C1E87921587E920C9E9E5
:1008F000CE4987CE55FFAA5528785028DF7AA5DF44
:100900008C8F038CA1F859A1898009890D171A0DC4
:10091000BFDA65BFE631D7E642C6844268B8D06820
:1009200041C3824199B029992D775A2D0F111E0F7D
:10093000B0CB7BB054FCA854BBD66DBB163A2C167A
:100940006363A5C67C7C84F8777799EE7B7B8DF614
:10095000F2F20DFF6B6BBDD66F6FB1DEC5C5549162
:1009600030305060010103026767A9CE2B2B7D5602
:10097000FEFE19E7D7D762B5ABABE64D76769AECBB
:10098000CACA458F82829D1FC9C940897D7D87FA69
:10099000FAFA15EF5959EBB24747C98EF0F00BFB45
:1009A000ADADEC41D4D467B3A2A2FD5FAFAFEA45D1
:1009B0009C9CBF23A4A4F753727296E4C0C05B9BB7
:1009C000B7B7C275FDFD1CE19393AE3D26266A4C78
:1009D00036365A6C3F3F417EF7F702F5CCCC4F8359
:1009E00034345C68A5A5F451E5E534D1F1F108F99A
:1009F000717193E2D8D873AB3131536215153F2A28
:100A000004040C08C7C7529523236546C3C35E9DE3
:100A1000181828309696A13705050F0A9A9AB52F0F
:100A20000707090E1212362480809B1BE2E23DDF8D
:100A3000EBEB26CD2727694EB2B2CD7F75759FEAC5
:100A400009091B1283839E1D2C2C74581A1A2E34EC
:100A50001B1B2D366E6EB2DC5A5AEEB4A0A0FB5BA7
:100A60005252F6A43B3B4D76D6D661B7B3B3CE7D9A
:100A700029297B52E3E33EDD2F2F715E8484971397
:100A80005353F5A6D1D168B900000000EDED2CC19B
:100A900020206040FCFC1FE3B1B1C8795B5BEDB680
:100AA0006A6ABED4CBCB468DBEBED96739394B728C
:100AB0004A4ADE944C4CD4985858E8B0CFCF4A8577
:100AC000D0D06BBBEFEF2AC5AAAAE54FFBFB16ED12
:100AD0004343C5864D4DD79A33335566858594116A
:100AE0004545CF8AF9F910E9020206047F7F81FEAD
:100AF0005050F0A03C3C44789F9FBA25A8A8E34BF7
:100B00005151F3A2A3A3FE5D4040C0808F8F8A05A0
:100B10009292AD3F9D9DBC2138384870F5F504F1A7
:100B2000BCBCDF63B6B6C177DADA75AF21216342A8
:100B300010103020FFFF1AE5F3F30EFDD2D26DBF87
:100B4000CDCD4C810C0C141813133526ECEC2FC3AF
:100B50005F5FE1BE9797A2354444CC881717392EC2
:100B6000C4C45793A7A7F2557E7E82FC3D3D477AC9
:100B70006464ACC85D5DE7BA19192B32737395E6EE
:100B80006060A0C0818198194F4FD19EDCDC7FA3AB
:100B9000222266442A2A7E549090AB3B8888830B9D
:100BA0004646CA8CEEEE29C7B8B8D36B14143C285D
:100BB000DEDE79A75E5EE2BC0B0B1D16DBDB76ADDD
:100BC000E0E03BDB323256643A3A4E740A0A1E14B5
:100BD0004949DB9206060A0C24246C485C5CE4B8A4
:100BE000C2C25D9FD3D36EBDACACEF436262A6C4FC
:100BF0009191A8399595A431E4E437D379798BF2B2
:100C0000E7E732D5C8C8438B3737596E6D6DB7DA11
:100C10008D8D8C01D5D564B14E4ED29CA9A9E049E9
:100C20006C6CB4D85656FAACF4F407F3EAEA25CF64
:100C30006565AFCA7A7A8EF4AEAEE9470808181037
:100C4000BABAD56F787888F025256F4A2E2E725C57
:100C50001C1C2438A6A6F157B4B4C773C6C6519756
:100C6000E8E823CBDDDD7CA174749CE81F1F213EE6
:100C70004B4BDD96BDBDDC618B8B860D8A8A850F63
:100C8000707090E03E3E427CB5B5C4716666AACCF9
:100C90004848D89003030506F6F601F70E0E121C1D
:100CA0006161A3C235355F6A5757F9AEB9B9D069EA
:100CB00086869117C1C158991D1D273A9E9EB92756
:100CC000E1E138D9F8F813EB9898B32B11113322DE
:100CD0006969BBD2D9D970A98E8E89079494A7333C
:100CE0009B9BB62D1E1E223C87879215E9E920C9E1
:100CF000CECE49875555FFAA28287850DFDF7AA540
:100D00008C8C8F03A1A1F859898980090D0D171AC0
:100D1000BFBFDA65E6E631D74242C6846868B8D01C
:100D20004141C3829999B0292D2D775A0F0F111E79
:100D3000B0B0CB7B5454FCA8BBBBD66D16163A2C76
:100D400052096AD53036A538BF40A39E81F3D7FB40
:100D50007CE339829B2FFF87348E4344C4DEE9CB8A
:100D6000547B9432A6C2233DEE4C950B42FAC34EFF
:100D7000082EA16628D924B2765BA2496D8BD125B5
:100D800072F8F66486689816D4A45CCC5D65B69259
:100D90006C704850FDEDB9DA5E154657A78D9D84FD
:100DA00090D8AB008CBCD30AF7E45805B8B345061D
:100DB000D02C1E8FCA3F0F02C1AFBD0301138A6B37
:100DC0003A9111414F67DCEA97F2CFCEF0B4E67367
:100DD00096AC7422E7AD3585E2F937E81C75DF6E15
:100DE00047F11A711D29C5896FB7620EAA18BE1B7B
:100DF000FC563E4BC6D279209ADBC0FE78CD5AF421
:100E00001FDDA8338807C731B11210592780EC5F66
:100E100060517FA919B54A0D2DE57A9F93C99CEFC2
:100E2000A0E03B4DAE2AF5B0C8EBBB3C83539961C3
:100E3000172B047EBA77D626E169146355210C7D01
:100E40005051F4A7537E4165C31A17A4963A275E02
:100E5000CB3BAB6BF11F9D45ABACFA58934BE30317
:100E6000552030FAF6AD766D9188CC7625F5024C9A
:100E7000FC4FE5D7D7C52ACB802635448FB562A372
:100E800049DEB15A6725BA1B9845EA0EE15DFEC0FE
:100E900002C32F7512814CF0A38D4697C66BD3F910
:100EA000E7038F5F9515929CEBBF6D7ADA955259E7
:100EB0002DD4BE83D35874212949E069448EC9C812
:100EC0006A75C28978F48E796B99583EDD27B971BD
:100ED000B6BEE14F17F088AD66C920ACB47DCE3AFE
:100EE0001863DF4A82E51A31609751334562537FB8
:100EF000E0B1647784BB6BAE1CFE81A094F9082B33
:100F000058704868198F45FD8794DE6CB7527BF89E
:100F100023AB73D3E2724B0257E31F8F2A6655ABA4
:100F200007B2EB28032FB5C29A86C57BA5D3370835
:100F3000F2302887B223BFA5BA02036A5CED16829D
:100F40002B8ACF1C92A779B4F0F307F2A14E69E285
:100F5000CD65DAF4D50605BE1FD134628AC4A6FE7B
:100F60009D342E53A0A2F35532058AE175A4F6EB09
:100F7000390B83ECAA4060EF065E719F51BD6E1085
:100F8000F93E218A3D96DD06AEDD3E05464DE6BDC5
:100F9000B591548D0571C45D6F0406D4FF60501582
:100FA000241998FB97D6BDE9CC8940437767D99E31
:100FB000BDB0E8428807898B38E7195BDB79C8EE5A
:100FC00047A17C0AE97C420FC9F8841E000000009A
:100FD0008309808648322BEDAC1E11704E6C5A721C
:100FE000FBFD0EFF560F85381E3DAED527362D3939
:100FF000640A0FD921685CA6D19B5B543A24362E33
:10100000B10C0A670F9357E7D2B4EE969E1B9B91E3
:101010004F80C0C5A261DC20695A774B161C121A9A
:101020000AE293BAE5C0A02A433C22E01D121B1736
:101030000B0E090DADF28BC7B92DB6A8C8141EA9A9
:101040008557F1194CAF7507BBEE99DDFDA37F60A5
:101050009FF70126BC5C72F5C544663B345BFB7EA2
:10106000768B4329DCCB23C668B6EDFC63B8E4F18C
:10107000CAD731DC10426385401397222084C61101
:101080007D854A24F8D2BB3D11AEF9326DC729A146
:101090004B1D9E2FF3DCB230EC0D8652D077C1E3AE
:1010A0006C2BB31699A970B9FA1194482247E964D8
:1010B000C4A8FC8C1AA0F03FD8567D2CEF223390A8
:1010C000C787494EC1D938D1FE8CCAA23698D40BF5
:1010D000CFA6F58128A57ADE26DAB78EA43FADBF6C
:1010E000E42C3A9D0D5078929B6A5FCC62547E4608
:1010F000C2F68D13E890D8B85E2E39F7F582C3AFEB
:10110000BE9F5D807C69D093A96FD52DB3CF25128A
:101110003BC8AC99A710187D6EE89C637BDB3BBB9A
:1011200009CD2678F46E591801EC9AB7A8834F9A26
:1011300065E6956E7EAAFFE60821BCCFE6EF15E8CE
:10114000D9BAE79BCE4A6F36D4EA9F09D629B07C3C
:10115000AF31A4B2312A3F2330C6A594C035A26670
:1011600037744EBCA6FC82CAB0E090D01533A7D825
:101170004AF10498F741ECDA0E7FCD502F1791F623
:101180008D764DD64D43EFB054CCAA4DDFE4960496
:10119000E39ED1B51B4C6A88B8C12C1F7F466551B0
:1011A000049D5EEA5D018C3573FA87742EFB0B415A
:1011B0005AB3671D5292DBD233E91056136DD647EE
:1011C0008C9AD7617A37A10C8E59F81489EB133CAD
:1011D000EECEA92735B761C9EDE11CE53C7A47B1F0
:1011E000599CD2DF3F55F273791814CEBF73C737BD
:1011F000EA53F7CD5B5FFDAA14DF3D6F867844DBD1
:1012000081CAAFF33EB968C42C3824345FC2A3400E
:1012100072161DC30CBCE2258B283C4941FF0D957D
:101220007139A801DE080CB39CD8B4E4906456C1AF
:10123000617BCB8470D532B674486C5C42D0B857B1
:10124000A75051F465537E41A4C31A175E963A27FE
:101250006BCB3BAB45F11F9D58ABACFA03934BE313
:10126000FA5520306DF6AD76769188CC4C25F50296
:10127000D7FC4FE5CBD7C52A44802635A38FB5626E
:101280005A49DEB11B6725BA0E9845EAC0E15DFEFA
:101290007502C32FF012814C97A38D46F9C66BD30C
:1012A0005FE7038F9C9515927AEBBF6D59DA9552E3
:1012B000832DD4BE21D35874692949E0C8448EC90E
:1012C000896A75C27978F48E3E6B995871DD27B9B9
:1012D0004FB6BEE1AD17F088AC66C9203AB47DCEFA
:1012E0004A1863DF3182E51A336097517F456253B4
:1012F00077E0B164AE84BB6BA01CFE812B94F9082F
:1013000068587048FD198F456C8794DEF8B7527B9A
:10131000D323AB7302E2724B8F57E31FAB2A6655A0
:101320002807B2EBC2032FB57B9A86C508A5D33731
:1013300087F23028A5B223BF6ABA0203825CED1699
:101340001C2B8ACFB492A779F2F0F307E2A14E6981
:10135000F4CD65DABED50605621FD134FE8AC4A677
:10136000539D342E55A0A2F3E132058AEB75A4F605
:10137000EC390B83EFAA40609F065E711051BD6E81
:101380008AF93E21063D96DD05AEDD3EBD464DE6C1
:101390008DB591545D0571C4D46F040615FF60507E
:1013A000FB241998E997D6BD43CC89409E7767D92D
:1013B00042BDB0E88B8807895B38E719EEDB79C856
:1013C0000A47A17C0FE97C421EC9F8840000000096
:1013D00086830980ED48322B70AC1E11724E6C5A18
:1013E000FFFBFD0E38560F85D51E3DAE3927362D35
:1013F000D9640A0FA621685C54D19B5B2E3A24362F
:1014000067B10C0AE70F935796D2B4EE919E1B9BDF
:10141000C54F80C020A261DC4B695A771A161C1296
:10142000BA0AE2932AE5C0A0E0433C22171D121B32
:101430000D0B0E09C7ADF28BA8B92DB6A9C8141EA5
:10144000198557F1074CAF75DDBBEE9960FDA37FA1
:10145000269FF701F5BC5C723BC544667E345BFB9E
:1014600029768B43C6DCCB23FC68B6EDF163B8E488
:10147000DCCAD7318510426322401397112084C6FD
:10148000247D854A3DF8D2BB3211AEF9A16DC72942
:101490002F4B1D9E30F3DCB252EC0D86E3D077C1AA
:1014A000166C2BB3B999A97048FA1194642247E9D4
:1014B0008CC4A8FC3F1AA0F02CD8567D90EF2233A4
:1014C0004EC78749D1C1D938A2FE8CCA0B3698D4F1
:1014D00081CFA6F5DE28A57A8E26DAB7BFA43FAD68
:1014E0009DE42C3A920D5078CC9B6A5F4662547E04
:1014F00013C2F68DB8E890D8F75E2E39AFF582C3E7
:1015000080BE9F5D937C69D02DA96FD512B3CF2586
:10151000993BC8AC7DA71018636EE89CBB7BDB3B96
:101520007809CD2618F46E59B701EC9A9AA8834F22
:101530006E65E695E67EAAFFCF0821BCE8E6EF15CA
:101540009BD9BAE736CE4A6F09D4EA9F7CD629B038
:10155000B2AF31A423312A3F9430C6A566C035A26C
:10156000BC37744ECAA6FC82D0B0E090D81533A721
:10157000984AF104DAF741EC500E7FCDF62F17911F
:10158000D68D764DB04D43EF4D54CCAA04DFE49692
:10159000B5E39ED1881B4C6A1FB8C12C517F4665AC
:1015A000EA049D5E355D018C7473FA87412EFB0B56
:1015B0001D5AB367D25292DB5633E91047136DD6EA
:1015C000618C9AD70C7A37A1148E59F83C89EB13A9
:1015D00027EECEA9C935B761E5EDE11CB13C7A47EC
:1015E000DF599CD2733F55F2CE79181437BF73C7B9
:1015F000CDEA53F7AA5B5FFD6F14DF3DDB867844CD
:10160000F381CAAFC43EB968342C3824405FC2A30A
:10161000C372161D250CBCE2498B283C9541FF0D79
:10162000017139A8B3DE080CE49CD8B4C1906456AB
:1016300084617BCBB670D5325C74486C5742D0B8AD
:10164000F4A750514165537E17A4C31A275E963AFA
:10165000AB6BCB3B9D45F11FFA58ABACE303934B0F
:1016600030FA5520766DF6ADCC769188024C25F592
:10167000E5D7FC4F2ACBD7C53544802662A38FB56A
:10168000B15A49DEBA1B6725EA0E9845FEC0E15DF6
:101690002F7502C34CF012814697A38DD3F9C66B08
:1016A0008F5FE703929C95156D7AEBBF5259DA95DF
:1016B000BE832DD47421D358E0692949C9C8448E0A
:1016C000C2896A758E7978F4583E6B99B971DD27B5
:1016D000E14FB6BE88AD17F020AC66C9CE3AB47DF6
:1016E000DF4A18631A3182E551336097537F4562B0
:1016F0006477E0B16BAE84BB81A01CFE082B94F92B
:101700004868587045FD198FDE6C87947BF8B75296
:1017100073D323AB4B02E2721F8F57E355AB2A669C
:10172000EB2807B2B5C2032FC57B9A863708A5D32D
:101730002887F230BFA5B223036ABA0216825CED95
:10174000CF1C2B8A79B492A707F2F0F369E2A14E7D
:10175000DAF4CD6505BED50634621FD1A6FE8AC473
:101760002E539D34F355A0A28AE13205F6EB75A401
:1017700083EC390B60EFAA40719F065E6E1051BD7D
:10178000218AF93EDD063D963E05AEDDE6BD464DBD
:10179000548DB591C45D057106D46F045015FF607A
:1017A00098FB2419BDE997D64043CC89D99E776729
:1017B000E842BDB0898B8807195B38E7C8EEDB7952
:1017C0007C0A47A1420FE97C841EC9F80000000092
:1017D000808683092BED48321170AC1E5A724E6C14
:1017E0000EFFFBFD8538560FAED51E3D2D39273631
:1017F0000FD9640A5CA621685B54D19B362E3A242B
:101800000A67B10C57E70F93EE96D2B49B919E1BDB
:10181000C0C54F80DC20A261774B695A121A161C92
:1018200093BA0AE2A02AE5C022E0433C1B171D122E
:10183000090D0B0E8BC7ADF2B6A8B92D1EA9C814A1
:10184000F119855775074CAF99DDBBEE7F60FDA39D
:1018500001269FF772F5BC5C663BC544FB7E345B9A
:101860004329768B23C6DCCBEDFC68B6E4F163B884
:1018700031DCCAD76385104297224013C6112084F9
:101880004A247D85BB3DF8D2F93211AE29A16DC73E
:101890009E2F4B1DB230F3DC8652EC0DC1E3D077A6
:1018A000B3166C2B70B999A99448FA11E9642247D0
:1018B000FC8CC4A8F03F1AA07D2CD8563390EF22A0
:1018C000494EC78738D1C1D9CAA2FE8CD40B3698ED
:1018D000F581CFA67ADE28A5B78E26DAADBFA43F64
:1018E0003A9DE42C78920D505FCC9B6A7E46625400
:1018F0008D13C2F6D8B8E89039F75E2EC3AFF582E3
:101900005D80BE9FD0937C69D52DA96F2512B3CF82
:10191000AC993BC8187DA7109C636EE83BBB7BDB92
:10192000267809CD5918F46E9AB701EC4F9AA8831E
:10193000956E65E6FFE67EAABCCF082115E8E6EFC6
:10194000E79BD9BA6F36CE4A9F09D4EAB07CD62934
:10195000A4B2AF313F23312AA59430C6A266C03568
:101960004EBC377482CAA6FC90D0B0E0A7D815331D
:1019700004984AF1ECDAF741CD500E7F91F62F171B
:101980004DD68D76EFB04D43AA4D54CC9604DFE48E
:10199000D1B5E39E6A881B4C2C1FB8C165517F46A8
:1019A0005EEA049D8C355D01877473FA0B412EFB52
:1019B000671D5AB3DBD25292105633E9D647136DE6
:1019C000D7618C9AA10C7A37F8148E59133C89EBA5
:1019D000A927EECE61C935B71CE5EDE147B13C7AE8
:1019E000D2DF599CF2733F5514CE7918C737BF73B5
:1019F000F7CDEA53FDAA5B5F3D6F14DF44DB8678C9
:101A0000AFF381CA68C43EB924342C38A3405FC206
:101A10001DC37216E2250CBC3C498B280D9541FF75
:101A2000A80171390CB3DE08B4E49CD856C19064A7
:101A3000CB84617B32B670D56C5C7448B85742D0A9
:101A400080B58C21490001F0D5F801BDF8B4130030
:101A5000803A04D0403A49D0403A49D04AE00A227C
:101A600002600200083242605C090FD013000E7859
:101A70004D782D0235438E7836042E43CD782D06D1
:101A800035431D60091D1B1D641EF0D100680A2826
:101A900004D00C2831D00E285CD024E04EA00A21BE
:101AA000574BD4681668056875402604360E9E5D4F
:101AB0006E4025022D0E5D5D2D027540260E9E5D49
:101AC00036046E40E5B25D5D2D06754015615668C1
:101AD000754055619668754095616540D5611032D5
:101AE000001D491EDDD10020F2BC70470C22B7E773
:101AF0000E22B5E71F20C043F6E700BF36A008213D
:101B00003F4B54691668056875402604360E9E5D85
:101B10006E4025022D0E5D5D2D027540260E9E5DE8
:101B200036046E40E5B25D5D2D06754095615668E0
:101B30007540D561966875401562D66875405562E6
:101B40001669754095626540D5621832001D491EC0
:101B5000C9D0D6E720A307242949D5691668186893
:101B600070402E04360E8E5D46402802000E085C42
:101B7000000270402E0E8E5D37044740E8B2085CCC
:101B800006067E401662506846405662906846409F
:101B90009662D0684640D6621769F0B2085C784019
:101BA00037043F0ECF5D3F0247403002000E085C15
:101BB00000047840360E8E5D360646401663506946
:101BC000464056639069464096636E40D663203225
:101BD0001B1D641EC1D186E7010000000200000049
:101BE00004000000080000001000000020000000B9
:101BF00040000000800000001B00000036000000D4
:101C000040000008F4B583B003000C005D68207844
:101C1000617809020143A07800040843E1780906CD
:101C20000143286848402179627912020A43A17968
:101C300009041143E27912060A4369685140267A81
:101C4000627A12023243A67A36041643E27A170603
:101C50003743AA687A40277B667B36023E43A77BE0
:101C60003F043743E47B26063E43EC68744010355E
:101C700000951B685D106D1E002D00DCDBE0009BF5
:101C800000951E68C74D0706BF0DED597540C64E3D
:101C90000F043F0EBF00F6596E40C44D17023F0EB1
:101CA000BF00ED597540C24E270EBF00F6596E4079
:101CB00001965E68BB4D0F06BF0DED597540BA4EDB
:101CC00017043F0EBF00F6596E40B84D27023F0E75
:101CD000BF00EF597740B64D060EB600AD597D40B6
:101CE0009F68BC46AF4F1606B60DBE5967467E408C
:101CF000B446AD4F2604360EB600BE5967467E4048
:101D0000B446AA4F0602360EB600BE5967467E405C
:101D1000B446A74F0E0EB600BE5967467E40DF6838
:101D2000BC46A04F2406A40D3C5967467C409E4FFC
:101D30000004000E8000385860409C4C0902090ED7
:101D40008900615841409A48120E920084584C40D4
:101D500018699449019A1206920D895841402A0443
:101D6000120E9200B858484090493202120E92006A
:101D7000895841408E48220E9200805848405A6946
:101D800088492F06BF0DC9595140874A37043F0E75
:101D9000BF00D2594A40854927023F0EBF00CF59A4
:101DA00057408349019A120E9200895879409F69E1
:101DB000BC467C4F3206920DBA5867467A4094462C
:101DC000794F2204120E9200BA5867467A40944620
:101DD000764F019A1202120E9200BA5867467A4064
:101DE0009446734F2A0E9200BA5867467A40DF69CC
:101DF000BC4600BF70A72406A40D3C5967467C4032
:101E0000A446694F019C2404240EA4003C59674653
:101E10007C40664F2D022D0EAD007D596540644C0F
:101E2000360EB600A4596C402033009D6D1E0095FF
:101E300000D026E70093039B009D2D685EA6070651
:101E4000BF0DF6596E40584D0F043F0EBF00ED59BF
:101E50007540564E17023F0EBF00F6596E40544D66
:101E6000270EBF00ED5975400195009D6D6800BFBC
:101E700051A60F06BF0DF6596E404B4D17043F0E8D
:101E8000BF00ED597540494E27023F0EBF00F6597D
:101E90006E40474D070EBF00ED5975400295009DFD
:101EA000AD6800BF44A61706BF0DF6596E403E4D03
:101EB00027043F0EBF00ED5975403C4E07023F0E10
:101EC000BF00F6596E403A4D0F0EBF00ED597540F8
:101ED000009EF66838A72406A40D3C597440324E83
:101EE0000004000E800030586040304C0902090E9A
:101EF0008900615841402E48120E920086584E408B
:101F00002C4800990A690199C9B2415C5140029A72
:101F10001204120E825C12024A402902090E415C30
:101F20000C045440310E415C09066140009A52692C
:101F3000029CE4B2045D54402A04120E825C120238
:101F400062403402240E045D24045440019A120EAF
:101F5000825C12066240009CA469EFB2C75D6740D4
:101F60003404240E045D24027C40019F3F023F0E96
:101F7000C75D3F046740029C240E045D24067C403C
:101F8000009FFF69F6B2865D7E40019F3F043F0ED1
:101F9000C75D3F027740029E3602360E865D3604EC
:101FA0007E40D6E3B81F0008400100084005000845
:101FB0004009000840000008C66363A5F87C7C84E3
:101FC000EE777799F67B7B8DFFF2F20DD66B6BBDCA
:101FD000DE6F6FB191C5C55460303050020101030E
:101FE000CE6767A9562B2B7DE7FEFE19B5D7D762C2
:101FF0004DABABE6EC76769A8FCACA451F82829DBE
:1020000089C9C940FA7D7D87EFFAFA15B25959EBB3
:102010008E4747C9FBF0F00B41ADADECB3D4D467AC
:102020005FA2A2FD45AFAFEA239C9CBF53A4A4F7D7
:10203000E47272969BC0C05B75B7B7C2E1FDFD1C30
:102040003D9393AE4C26266A6C36365A7E3F3F410E
:10205000F5F7F70283CCCC4F6834345C51A5A5F476
:10206000D1E5E534F9F1F108E2717193ABD8D87399
:10207000623131532A15153F0804040C95C7C75225
:10208000462323659DC3C35E30181828379696A152
:102090000A05050F2F9A9AB50E0707092412123662
:1020A0001B80809BDFE2E23DCDEBEB264E272769CC
:1020B0007FB2B2CDEA75759F1209091B1D83839EFD
:1020C000582C2C74341A1A2E361B1B2DDC6E6EB253
:1020D000B45A5AEE5BA0A0FBA45252F6763B3B4D9D
:1020E000B7D6D6617DB3B3CE5229297BDDE3E33E7B
:1020F0005E2F2F7113848497A65353F5B9D1D168FD
:1021000000000000C1EDED2C40202060E3FCFC1F2E
:1021100079B1B1C8B65B5BEDD46A6ABE8DCBCB46F4
:1021200067BEBED97239394B944A4ADE984C4CD4BA
:10213000B05858E885CFCF4ABBD0D06BC5EFEF2A57
:102140004FAAAAE5EDFBFB16864343C59A4D4DD732
:1021500066333355118585948A4545CFE9F9F910E1
:1021600004020206FE7F7F81A05050F0783C3C4480
:10217000259F9FBA4BA8A8E3A25151F35DA3A3FEEC
:10218000804040C0058F8F8A3F9292AD219D9DBCBB
:1021900070383848F1F5F50463BCBCDF77B6B6C1DA
:1021A000AFDADA754221216320101030E5FFFF1A03
:1021B000FDF3F30EBFD2D26D81CDCD4C180C0C14B3
:1021C00026131335C3ECEC2FBE5F5FE1359797A262
:1021D000884444CC2E17173993C4C45755A7A7F287
:1021E000FC7E7E827A3D3D47C86464ACBA5D5DE7A3
:1021F0003219192BE6737395C06060A0198181981C
:102200009E4F4FD1A3DCDC7F44222266542A2A7ED3
:102210003B9090AB0B8888838C4646CAC7EEEE296C
:102220006BB8B8D32814143CA7DEDE79BC5E5EE23E
:10223000160B0B1DADDBDB76DBE0E03B6432325688
:10224000743A3A4E140A0A1E924949DB0C06060AF1
:102250004824246CB85C5CE49FC2C25DBDD3D36EDD
:1022600043ACACEFC46262A6399191A8319595A4B4
:10227000D3E4E437F279798BD5E7E7328BC8C843EA
:102280006E373759DA6D6DB7018D8D8CB1D5D56448
:102290009C4E4ED249A9A9E0D86C6CB4AC5656FA03
:1022A000F3F4F407CFEAEA25CA6565AFF47A7A8ECB
:1022B00047AEAEE9100808186FBABAD5F07878883A
:1022C0004A25256F5C2E2E72381C1C2457A6A6F1B9
:1022D00073B4B4C797C6C651CBE8E823A1DDDD7C53
:1022E000E874749C3E1F1F21964B4BDD61BDBDDC25
:1022F0000D8B8B860F8A8A85E07070907C3E3E4203
:1023000071B5B5C4CC6666AA904848D806030305E3
:10231000F7F6F6011C0E0E12C26161A36A35355F35
:10232000AE5757F969B9B9D01786869199C1C15886
:102330003A1D1D27279E9EB9D9E1E138EBF8F81325
:102340002B9898B322111133D26969BBA9D9D970DE
:10235000078E8E89339494A72D9B9BB63C1E1E221C
:1023600015878792C9E9E92087CECE49AA5555FF3E
:1023700050282878A5DFDF7A038C8C8F59A1A1F82B
:10238000098989801A0D0D1765BFBFDAD7E6E631D6
:10239000844242C6D06868B8824141C3299999B045
:1023A0005A2D2D771E0F0F117BB0B0CBA85454FCC3
:1023B0006DBBBBD62C16163AF4B583B003000C00E7
:1023C0005D682078617809020143A0780004084321
:1023D000E1780906014328684840217962791202B0
:1023E0000A43A17909041143E27912060A43696894
:1023F0005140267A627A12023243A67A3604164394
:10240000E27A17063743AA687A40277B667B360252
:102410003E43A77B3F043743E47B26063E43EC68FC
:102420007440103500951B685D106D1E002D00DC9A
:10243000D8E0009B00951E68D74D0706BF0DED59EB
:102440007540D64E27043F0EBF00F6596E40D44D5E
:1024500017023F0EBF00ED597540D24E0F0EBF0060
:10246000F6596E4001965E68CB4D0F06BF0DED59D3
:102470007540CA4E07043F0EBF00F6596E40C84D66
:1024800027023F0EBF00EF597740C64D160EB6002B
:10249000AD597D409F68BC46BF4F1606B60DBE596C
:1024A00067467E40B446BD4F0E04360EB600BE5998
:1024B00067467E40B446BA4F0602360EB600BE5995
:1024C00067467E40B446B74F260EB600BE596746F3
:1024D0007E40DF68BC46B04F2406A40D3C596746D9
:1024E0007C40AE4F1204120E9200BA586240AC4CBF
:1024F0000902090E890061585140AA4A000E800065
:1025000014584C401869A449019A1206920D895832
:1025100041402204120E9200B8584840A0493202AD
:10252000120E9200895841409E482A0E920080580F
:1025300048405A6998492F06BF0DC9595140974ADA
:10254000019F3F043F0EBF00D2594A4094492702E1
:102550003F0EBF00CF5957409249320E9200895822
:1025600079409F69BC468C4F3206920DBA58674637
:102570007A409446894F2A04120E9200BA58674650
:102580007A409446864F019A1202120E9200BA586F
:1025900067467A409446834F220E9200BA586746A7
:1025A0007A40DF69BC467C4F2406A40D3C5967463F
:1025B0007C407A4F3604360EB600BE596640784CE1
:1025C0002D022D0EAD0065597540764C019E360EDC
:1025D000B600A4596C402033009D6D1E009500D0BC
:1025E00029E70093039B009D2D6800BF6FA6070697
:1025F000BF0DF6596E40694D27043F0EBF00ED59DF
:102600007540674E17023F0EBF00F6596E40654D8C
:102610000F0EBF00ED5975400195009D6D6800BF1C
:1026200062A60F06BF0DF6596E405C4D07043F0EC3
:10263000BF00ED5975405A4E27023F0EBF00F659B4
:102640006E40584D170EBF00ED5975400295009D24
:10265000AD6800BF55A61706BF0DF6596E404F4D29
:102660000F043F0EBF00ED5975404D4E07023F0E5F
:10267000BF00F6596E404B4D270EBF00ED59754017
:10268000009EF66849A72406A40D3C597440434EA9
:102690001204120E9200B2586240414C0902090E17
:1026A0008900615851403F4A000E800016584E4044
:1026B0003D4800990A690199C9B2415C5140320410
:1026C000120E825C12024A402902090E415C0C047F
:1026D00054400299090E415C09066140009A526912
:1026E000029CE4B2045D5440019A1204120E825C12
:1026F000120262403402240E045D240454402A0E67
:10270000825C12066240009CA469EFB2C75D67401C
:10271000029C2404240E045D24027C40019F3F029D
:102720003F0EC75D3F046740340E045D24067C40C5
:10273000009FFF69F6B2865D7E402D042D0E455D3B
:102740002D027540029E3602360E865D36046E40BE
:10275000019D2D0E405D0006704019700D0A5D70E0
:102760000D0C9D70090ED9701A71110A5971110C56
:102770009971110ED9711C72210A5972210C99722A
:10278000210ED9721873010A5973010C9973000E46
:10279000D873002004B0F0BDAC270008400E00083C
:1027A0004012000840160008400D000851F4A750E0
:1027B0007E4165531A17A4C33A275E963BAB6BCB99
:1027C0001F9D45F1ACFA58AB4BE303932030FA550B
:1027D000AD766DF688CC7691F5024C254FE5D7FCA9
:1027E000C52ACBD726354480B562A38FDEB15A49BE
:1027F00025BA1B6745EA0E985DFEC0E1C32F75023E
:10280000814CF0128D4697A36BD3F9C6038F5FE717
:1028100015929C95BF6D7AEB955259DAD4BE832DF3
:10282000587421D349E069298EC9C84475C2896AA0
:10283000F48E797899583E6B27B971DDBEE14FB6B9
:10284000F088AD17C920AC667DCE3AB463DF4A1874
:10285000E51A31829751336062537F45B16477E066
:10286000BB6BAE84FE81A01CF9082B94704868589D
:102870008F45FD1994DE6C87527BF8B7AB73D32379
:10288000724B02E2E31F8F576655AB2AB2EB280763
:102890002FB5C20386C57B9AD33708A5302887F2A7
:1028A00023BFA5B202036ABAED16825C8ACF1C2B45
:1028B000A779B492F307F2F04E69E2A165DAF4CD9C
:1028C0000605BED5D134621FC4A6FE8A342E539DA0
:1028D000A2F355A0058AE132A4F6EB750B83EC391F
:1028E0004060EFAA5E719F06BD6E10513E218AF9CD
:1028F00096DD063DDD3E05AE4DE6BD4691548DB5F7
:1029000071C45D050406D46F605015FF1998FB244F
:10291000D6BDE997894043CC67D99E77B0E842BDE0
:1029200007898B88E7195B3879C8EEDBA17C0A47F9
:102930007C420FE9F8841EC90000000009808683EC
:10294000322BED481E1170AC6C5A724EFD0EFFFB1F
:102950000F8538563DAED51E362D39270A0FD9645E
:10296000685CA6219B5B54D124362E3A0C0A67B1D1
:102970009357E70FB4EE96D21B9B919E80C0C54F34
:1029800061DC20A25A774B691C121A16E293BA0A2C
:10299000C0A02AE53C22E043121B171D0E090D0BB7
:1029A000F28BC7AD2DB6A8B9141EA9C857F1198569
:1029B000AF75074CEE99DDBBA37F60FDF701269F45
:1029C0005C72F5BC44663BC55BFB7E348B43297669
:1029D000CB23C6DCB6EDFC68B8E4F163D731DCCAC2
:1029E000426385101397224084C61120854A247DB6
:1029F000D2BB3DF8AEF93211C729A16D1D9E2F4BF8
:102A0000DCB230F30D8652EC77C1E3D02BB3166CF9
:102A1000A970B999119448FA47E96422A8FC8CC4BA
:102A2000A0F03F1A567D2CD8223390EF87494EC72D
:102A3000D938D1C18CCAA2FE98D40B36A6F581CF65
:102A4000A57ADE28DAB78E263FADBFA42C3A9DE4E6
:102A50005078920D6A5FCC9B547E4662F68D13C20D
:102A600090D8B8E82E39F75E82C3AFF59F5D80BE7F
:102A700069D0937C6FD52DA9CF2512B3C8AC993BF3
:102A800010187DA7E89C636EDB3BBB7BCD267809E5
:102A90006E5918F4EC9AB701834F9AA8E6956E65C3
:102AA000AAFFE67E21BCCF08EF15E8E6BAE79BD97E
:102AB0004A6F36CEEA9F09D429B07CD631A4B2AF92
:102AC0002A3F2331C6A5943035A266C0744EBC3768
:102AD000FC82CAA6E090D0B033A7D815F104984A7A
:102AE00041ECDAF77FCD500E1791F62F764DD68D4B
:102AF00043EFB04DCCAA4D54E49604DF9ED1B5E32C
:102B00004C6A881BC12C1FB84665517F9D5EEA0444
:102B1000018C355DFA877473FB0B412EB3671D5A28
:102B200092DBD252E91056336DD647139AD7618C97
:102B300037A10C7A59F8148EEB133C89CEA927EEF5
:102B4000B761C935E11CE5ED7A47B13C9CD2DF594C
:102B500055F2733F1814CE7973C737BF53F7CDEAD8
:102B60005FFDAA5BDF3D6F147844DB86CAAFF3815B
:102B7000B968C43E3824342CC2A3405F161DC3720A
:102B8000BCE2250C283C498BFF0D954139A8017109
:102B9000080CB3DED8B4E49C6456C1907BCB84614E
:102BA000D532B670486C5C74D0B8574210B50C0082
:102BB00011001A00012C02D1FFF724F810BDFFF715
:102BC000FBFB10BD130030B414001500103902D304
:102BD00010393CC0FCD2490700D30CC000D504C05A
:102BE000890002D30280801C002900D5027030BC0D
:102BF000704700000022E5E7F8B40100BA4ABB4B79
:102C00000878C00700D40DE10C205C680440042C57
:102C100006D05C68204008280CD15868C00309D54C
:102C20001868800300D4FDE04868002800D0F9E06F
:102C30000120C9E14868012804D118688024640291
:102C4000044315E0002801D118680BE00528186836
:102C500008D18024E40204431C60186880246402C4
:102C6000044305E0A24C04401C601868A14C0440D9
:102C70001C601468651C802080024E68002E156060
:102C80000DD06D1E2C1B1D68054000D0CAE01568D4
:102C90006D1C1560641C652CF5D3032094E16D1E3A
:102CA0002C1B1D68054000D1BCE015686D1C15602B
:102CB000641C652CF1D2F4E715686D1C1560401C8E
:102CC0000228EAD8DDE01068451CCE68002E1E6898
:102CD00010D0012737431F6015606D1E281A1D682C
:102CE000254000D0B6E015686D1C1560401C022818
:102CF000D3D8F4E70127BE431E6015606D1E281A65
:102D00001D68254000D1ACE015686D1C1560401CA5
:102D10000228C2D8F4E70127BE435E6215606D1E2B
:102D2000281A5D6A254000D1AFE015686D1C15605A
:102D3000401C0228B1D8F4E7002801D1186A09E044
:102D40000528186A06D128431862186A0126064326
:102D50001E6205E00126B0431862186AA843186293
:102D60001068461C8F68002F16600DD0761E301A32
:102D7000964E1F6A274000D0C3E017687F1C17607B
:102D8000401CB04289D2F4E7761E301A8F4E1F6A7B
:102D9000274000D1B5E017687F1C1760401CB04287
:102DA00000D37AE7F3E715686D1C1560401C022814
:102DB00000D972E7BFE01560761C022E00D96CE7DF
:102DC000DBE00420C043864203D15C6B20405863A3
:102DD000B5E0586B05435D63586B0125A843586304
:102DE0001068451C15606D1E281A5D6B254000D1CA
:102DF000ACE015686D1C1560401C022800D94CE73A
:102E0000F3E719680D401D601060401E801B1968B3
:102E1000214000D1D7E01168491C1160401C0228F4
:102E2000F5D93AE70224086820401AD00C205D68E2
:102E3000054008D05D682840082800D043E758685E
:102E4000C00300D53FE71868204003D0C8680128B8
:102E500000D0EDE61868F825A8430D69ED0005439C
:102E60001D600878000710D51068451CCE69002E3B
:102E70005E6A00D14FE7012737435F6215606D1E20
:102E8000281A5D6A254000D116E704250868284005
:102E90003ED000200090E006DE69064008D1DE69E1
:102EA0000643DE61DE69304000900098012000900A
:102EB0008A480068C0051FD4884800689E0D0643F4
:102EC000864806601068461C1660761E301A834ECF
:102ED0003668F60510D41668761C1660401C652806
:102EE00000D3DAE6F3E700BF100000200010024034
:102EF000FFFFFEFFFFFFFBFF8868012800D01BE7F4
:102F000023E70098002803D0D869754E0640DE619B
:102F10000878C0061AD54E69012E00D051E7586BCB
:102F200005435D63586B012505435D631068451CCF
:102F300015606D1E281A5D6B254000D133E7586B74
:102F4000F824A0438C69E40004435C630F6A002FFB
:102F500039D058680C240440082C00D168E6166863
:102F6000701C8024A4045F4D022F00D049E71F6825
:102F70003D401D601060401E861B1068451C1F6888
:102F8000274000D017E7DE6A0F27BE43CF6A3743DA
:102F9000DF625F68544E3E408F6A3743496A394367
:102FA0005960196866080E431E6015606D1E281A68
:102FB0001968214007D11168491C1160401C022882
:102FC00000D96AE6F4E70020F2BC704789130000DC
:102FD000F3B40122454B19681140019CA14209D26A
:102FE00019689143019C0C431C6019681140019CB5
:102FF000A14265D101003E4802240D68254005D05C
:103000004568F026B5438E682E4346600D6815402E
:1030100047D04D68012D02D10468A40303E0022DBE
:1030200003D10468A40103D44AE00668344047D0C1
:1030300044680326B443254345602E4C25686E1C26
:1030400026604E68012E0DD146680C273740042FAC
:1030500027D02668771C2760761B274FBE42F3D304
:1030600003201CE0022E2DD146680C273740082F84
:1030700017D02668771C2760761B1F4FBE42EFD201
:10308000F2E70A78520705D542681C4B1340C9681D
:1030900019434160E120C003164948600020F6BC96
:1030A0007047019C1D681540AC42EAD21C689443ED
:1030B000019D25431D601B681A40019B9A42E0D088
:1030C0000120ECE746680C273740EAD02668771CD9
:1030D0002760761B084FBE42F4D3C1E70070004062
:1030E000FFFFFFEFFFFFFFFEFFFFC2FF00200240D8
:1030F000001002401000002089130000FFF8FFFFBD
:10310000F0B483B000232FE0052503E08C4DA842E6
:10311000FAD103256F463F78BD403543019E3560A7
:10312000884D2E68E5432E404F68FF0300D52643A7
:10313000844F3E607E682E404F68BF0300D5264313
:10314000804F7E60BE682E404F68FF0200D5264348
:103150007C4FBE60FE6835404E68B60202D52E0038
:1031600025003543FD605B1C0D682C00DC4000D160
:1031700090E001249C4001942C40F4D04D68022D35
:1031800001D0122D19D1DD08AD0045192E6A029625
:103190009F001C263E406F463E70029EB4466E461F
:1031A00036780F27B7406646BE43B4460F696E4671
:1031B0003678B740664637432F6206686D465F0033
:1031C0002F7003272D78AF40FD432E40B4460E7973
:1031D000B707BF0F6E463678B7406646374307607D
:1031E0004E68012E05D0022E03D0112E01D0122ED2
:1031F00014D186682E40B446CF686E463678B74004
:103200006646374387604768019EB743BC464F68B0
:10321000FE06F60F9E4067463E434660C668354050
:103220008E686F463F78BE402E43C6604D68ED0005
:1032300099D5884D2D6801262E43864D2E602D6828
:10324000EE07F60F0096009D834D9E08B600AD195F
:1032500001952E686D469F002F700C256F46BC4669
:103260003F783D4067463D706D462D780F27AF4053
:10327000BE439025ED05A84201D100254AE78C4DBB
:10328000A84201D1012545E78A4DA84200D03DE77B
:1032900002253FE703B0F0BC7047000081B0002A70
:1032A00001D0816100E0816201B07047F1B481B06A
:1032B000683000214160804A14680094641C1460E6
:1032C0007F4B019D2D689D4232D11D682D0722D56F
:1032D000651E009EAE1B8025AD04DF69BF0219D4B8
:1032E000641C761CAE42F8D31D68744E2E401E60DE
:1032F000019B1B689D680126B5439D602023437098
:10330000837001701460032017E0641C761CAE42C9
:103310000AD3E9E714601C68640709D51468651EC0
:10332000009EAE1B8025AD04DF697F02EDD51460E1
:1033300020224270827001700020F6BC70470000AD
:10334000000C004800040140F8B5010010230020E3
:1033500000240D682A68A44F17408A683A430F6911
:1033600017434A693A43CF6917432F606F689F4AF2
:103370003A40CF6817436F60AF689D4A3A408F6903
:1033800017430A6A3A43AA604D4A95420FD1994AB7
:1033900012689207920F0DD0022A06D003D3032A97
:1033A00009D1022307E0042305E0082303E0924A41
:1033B000954200D1002380221202CE69964226D186
:1033C000002B06D0022B09D0042B0BD0082B0ED0DB
:1033D00014E049684808E12212040BE049684808F3
:1033E000864A07E049684808E122120402E0496879
:1033F00048085200801800F095F900E00124804947
:1034000001400004400C4007400F08431CE0002B23
:1034100006D0022B09D0042B0BD0082B0ED015E0C0
:1034200049684808E122D2030AE049684808B84AD6
:1034300006E049684808E122D20301E049684808EB
:10344000801800F06FF980B2E86000E001242000ED
:10345000F2BD0000181002400800014010B5040041
:1034600001D1012010BD68304178002900D10170E0
:1034700024214170206801680122914301602000ED
:10348000FFF762FF012811D020684168A14A0A4075
:103490004260206881682A22914381602068016827
:1034A00001220A4302602000FFF700FF10BD000068
:1034B0000004004800080048100000205FFEFFFFE5
:1034C00000380140F8B483B0040025005835A87CCA
:1034D00020286DD1009100290CD010000AD0A168DD
:1034E00080204001814207D12069002804D1009842
:1034F000C00701D501205CE0287C012858D00120BC
:10350000287400266E612220A8748348036818007E
:103510005B1C814F3B602A806A808022520191426D
:1035200006D12169002901D17C4909E0FF2107E08A
:10353000002906D12169002901D1FF2100E07F2166
:10354000A9800399AB880194009A6C46238005E01A
:103550009B8C6C4624881C401480921C6B88002B2A
:103560002AD06B885B1E6B80019B1B6802906A4FA0
:10357000D869800625D40020C0438142F8D00029B4
:1035800006D03868441C3C60029C001B8142EFD28C
:103590001868634901401960019800688168012238
:1035A0009143816020206874A8742E74032000E089
:1035B000022004B0F0BC70472020A8742E740020B4
:1035C000F7E70298019CA46880277F01BC4203D1E1
:1035D000019C2469002CBBD09B8C6C4624881C4029
:1035E0001470521CBAE70000F369FFFFFFCFFFFF22
:1035F000FFF4FFFF30100240004400400048E801A3
:10360000F0FF0000F8B40400150018002300503348
:103610005A7E202A66D10A000BD0290009D0A16861
:1036200080267601B14206D12169002903D1D10754
:1036300001D5012057E0197E012953D001211976C7
:103640000021D9612121597633490E683100761C59
:10365000314F3E601D805D80009404E01588ED05CB
:10366000ED0D2585921C5C88002C19D05C88641EA9
:103670005C80009C2468E5692D0636D40025ED4366
:10368000A842F8D0002805D03D686E1C3E606D1A37
:10369000A842F0D22068224901402160009815E03C
:1036A000009A1268D46964062DD40024E443A04231
:1036B000F6D0002805D03C68651C3D60641AA04225
:1036C000EED200981168164C0C40146000688168B6
:1036D0000122914381602020587698760020187648
:1036E000032000E00220F2BC7047009DAD688026F8
:1036F0007601B54203D1009D2D69002DAED015781D
:103700002585521CAFE72020587600201876EAE77E
:103710000024F400FFB7FFFF10000020FF010000AD
:103720005FFEFFFF0022030A8B420BD203098B428C
:1037300019D243088B422ED2411A00D2014652417F
:1037400010467047FF2209023FD012068B4205D374
:10375000121209028B4201D31212090203098B4291
:1037600019D300E0090AC3098B4201D3CB01C01A67
:10377000524183098B4201D38B01C01A5241430944
:103780008B4201D34B01C01A524103098B4201D332
:103790000B01C01A5241C3088B4201D3CB00C01A9F
:1037A000524183088B4201D38B00C01A5241430817
:1037B0008B4201D34B00C01A5241884200D3401AB9
:1037C0005241CFD201461046704708B500F002F8CA
:1037D00008BDFEE77047000030B400282DDD0B78EF
:1037E0004C782500303D0A2D01D2303C0AE02500FE
:1037F000413D062D01D2373C04E02500613D062DF8
:103800001ED2573C14701C00303C0A2C01D2147894
:103810000CE01C00413C062C02D21478373B05E03A
:103820001C00613C062C0BD21478573B1B01234330
:103830001370891C521C401ED1D1002030BC70472F
:103840000120FBE7002070473C48816F0B290BDA11
:103850004A00521892008218762313700023536096
:10386000374B9360491C8167704730B4334B9C6F72
:103870000B2C01DA412901D3012009E065002D1943
:10388000AD005D1928706960AA60641C9C67002007
:1038900030BC704770B5B0B000F0D6F800250021FC
:1038A000264A1300946F04E01E7886421BD0491C00
:1038B0000C33A142F8DB16D113E000F0C5F80A285A
:1038C0000FD00D280DD030706D1C761C10E06A46AC
:1038D00010A96068FFF780FF002802D16846A16840
:1038E000884730B070BD10AE4800401880001418F2
:1038F000606840008542E0D300F0A6F80A28E6D0D0
:103900000D28E4D0EDE7F8B50E00150000F0AAF898
:10391000012E0EDB0F270B4C28780009205C00F0ED
:10392000A1F828783840205C00F09CF86D1C761EC9
:10393000F2D10A2000F096F8F1BD00003801002015
:10394000453800080000002010B590B00320049016
:1039500005200590002407940D9404A8FFF74CF966
:1039600007200090012001900294039400216846F2
:10397000FFF72EFB10B010BD30B587B0802080025D
:103980003D4C216801432160216808400090009867
:10399000C020C00001900220029001250395032061
:1039A0000490059501A99020C005FFF7A9FBA80385
:1039B0006168014361606168084000900098E069B7
:1039C000032188430543E5612C482D490160962178
:1039D0000902416000218160C160016181610C21A7
:1039E0004161FFF73BFD07B030BD30B585B08020A9
:1039F000800221490A6802430A6009680840009071
:103A0000009880256D010095012001900020029012
:103A1000032003909024E40569462000FFF770FB23
:103A2000002229002000FFF739FC05B030BD80B529
:103A30000122110303E080B500228021490190207A
:103A4000C005FFF72BFC01BD38B50C4D0D4C230014
:103A5000012269462800FFF735FD0028F7D16846A6
:103A6000007832BD80B569460870064B01220348D4
:103A7000FFF7C8FD01BD000014100240B401002092
:103A8000003801408813000080B500F062F8002083
:103A900002BD10B50400FFF7CAFF200000F060F877
:103AA000FFF7C9FF220010217220FFF72CFF002032
:103AB00010BD00207047000000B585B0684600BF0B
:103AC0001DA1102200F056F8FFF73EFFFFF754FF4C
:103AD000FFF78BFF00F038F8684600F03AF86820EE
:103AE000FFF7C0FF6520FFF7BDFF6C20FFF7BAFFAF
:103AF0006C20FFF7B7FF6F20FFF7B4FF0A20FFF736
:103B0000B1FFFFF7A1FE094A10216B20FFF7ADFEC0
:103B1000074A10217020FFF7A8FE064A00217820EE
:103B2000FFF7A3FEFFF7B6FEFCE70000893A0008A6
:103B3000933A0008B33A00082B7E151628AED2A699
:103B4000ABF7158809CF4F3C80B50948FDF778FFE2
:103B500001BD80B5010080220548FDF777FF01BD5A
:103B600080B503001A0001210148FFF71FF801BDCD
:103B70002000002070B4103A03D378C9103A78C0FE
:103B8000FBD2530701D318C918C001D508C908C012
:103B9000D20704D30B880380891C801C002A01D51E
:103BA0000B78037070BC704770B4010001230024CF
:103BB00013E00A68091D1A4202D04D466D1E5219C3
:103BC0001460121D001F0428FAD21500860701D5C3
:103BD0001480AD1C184000D02C700868091D002806
:103BE000E7D1080070BC704730B401220168001DA5
:103BF00000290FD00368C31844680830144202D06B
:103C00004D466D1E64191D6825601B1D241D091F6E
:103C1000ECD0F8E730BC704710B500F013F80200A4
:103C20000023DB4300241068984203D011000220D7
:103C3000ABBE14605068984203D0111D0220ABBE89
:103C4000546010BD004870471800002010B50749A7
:103C500079441831064C7C44163404E0081D0A6887
:103C6000891888470100A142F8D110BD0800000062
:103C70002800000035FFFFFF0402000020000020A4
:103C80000000000065FFFFFF200000000C000000A6
:103C90000000002000000000303132333435363768
:103CA00038394142434445460000000000127A0082
:103CB000FFFFFFFFFFFFFFFF00F00BF8002801D020
:103CC000FFF7C4FF002000BF00BFFFF7F5FE00F0C4
:103CD00002F80120704780B500F002F801BD000035
:103CE0000746384600F002F8FBE7000080B5FFF712
:103CF00093FF024A11001820ABBEFBE7260002002A
:0C3D000000BF00BF00BF00BFFFF7D6FFF0
:0400000508003D01B1
:00000001FF
