:020000040800F2
:10000000502C0020291D0008D30C0008D30C000838
:10001000D30C0008D30C0008D30C0008000000002B
:10002000000000000000000000000000D30C0008E9
:10003000D30C000800000000D30C0008D30C00080B
:10004000F0B58AB0002001220121774B1960774C6E
:100050008D0060510C0601D51B2400E000244D00EA
:100060004D406C40E1B2401C1B1DFF28EEDD01201D
:10007000A1490A230860040601D51B2400E00024DE
:1000800040004440E0B2091D5B1EF3D16320D54916
:100090000870674C23704B1C664C634D2668774292
:1000A000BE00AD19FF26B600AE597500F7112F43FB
:1000B000FFB27E407D00FF092F43FFB27E407D00EE
:1000C000FF092F43FDB2B4466E00EF093743FEB27D
:1000D0006E4035004540664675401D70C24E7255F3
:1000E000521C241D5B1CFF2AD7DD05910496BF48D6
:1000F0000390BF48BF49C04AC04CC14D4A4E4B4F08
:1001000080235B000293099008910792059800787C
:10011000010601D51B2100E0002142005140CAB276
:1001200003025340010459405040000648400399DF
:1001300008601821C841099908601821C841089928
:1001400008601821C84107990860049800780028C1
:1001500001D1002142E0354980000818069032485C
:100160000090886B069909684018FF2100F03CFD5B
:1001700089000098405801902B4800902B48406A15
:10018000069909684018FF2100F02EFD89000098AB
:1001900040580102019841400191234800902348B2
:1001A000406B069909684018FF2100F01DFD890089
:1001B0000098405800040199484001901A48009066
:1001C0001A48C06A069909684018FF2100F00CFD22
:1001D0008900009840580106019841402160084676
:1001E0001821C8412860C8413060C84138603F1DAF
:1001F000361D2D1D241D0798001D07900898001D11
:1002000008900998001D09900398001D0390049818
:10021000401C04900598401C05900298401E0290D6
:1002200000D073E70AB0F0BD20000020201D0020A0
:1002300083040020241D002080B58C21490000F09B
:1002400045FD01BDF8B504000F0015002A4EB06A47
:10025000002803D1FFF7F4FE0120B06228008038A7
:1002600004D040384AD040384AD04BE00A202060C1
:100270002200083262606B0910D0390010000F783C
:100280004D782D023D438F783F042F43CD782D06C6
:100290003D430560091D001D5B1EF0D120680A2842
:1002A00004D00C2831D00E285AD022E04D49D36812
:1002B000156834686C401D042D0E4D5D65401C02B0
:1002C000240E0C5D24026C401D0E4D5D2D04654016
:1002D000DCB20C5D24066C40146155686C405461BE
:1002E00095686C4094615C40D4611032361D401EAC
:1002F000DDD10020F2BD00BF242400200C20B6E791
:100300000E20B4E71F20C043F2BD082035495369D1
:10031000156834686C401D042D0E4D5D65401C024F
:10032000240E0C5D24026C401D0E4D5D2D046540B5
:10033000DCB20C5D24066C40946155686C40D4615D
:1003400095686C401462D5686C40546215696C40C5
:1003500094625C40D4621832361D401EC9D0D6E784
:10036000330007241F49D5691668186870402E04A9
:10037000360E8E5D46402802000E085C000270407A
:100380002E0E8E5D37044740E8B2085C06067E40BC
:100390001662506846405662906846409662D06841
:1003A0004640D6621769F0B2085C784037043F0EC9
:1003B000CF5D3F0247403002000E085C00047840E9
:1003C000360E8E5D360646401663506946405663CB
:1003D0009069464096636E40D66320321B1D641EB2
:1003E000C1D186E73822002020040020200500200B
:1003F00020090020200D00202011002020150020C1
:1004000020190020F4B583B003000C005D6820784B
:10041000617809020143A07800040843E1780906E5
:100420000143286848402179627912020A43A17980
:1004300009041143E27912060A4369685140267A99
:10044000627A12023243A67A36041643E27A17061B
:100450003743AA687A40277B667B36023E43A77BF8
:100460003F043743E47B26063E43EC687440103576
:1004700000951B685D106D1E002D00DCDAE0009B0E
:1004800000951E68C64D0706BF0DED597540C54E57
:100490000F043F0EBF00F6596E40C34D17023F0ECA
:1004A000BF00ED597540C14E270EBF00F6596E4092
:1004B00001965E68BA4D0F06BF0DED597540B94EF5
:1004C00017043F0EBF00F6596E40B74D27023F0E8E
:1004D000BF00EF597740B54D060EB600AD597D40CF
:1004E0009F68BC46AE4F1606B60DBE5967467E40A5
:1004F000B446AC4F2604360EB600BE5967467E4061
:10050000B446A94F0602360EB600BE5967467E4075
:10051000B446A64F0E0EB600BE5967467E40DF6851
:10052000BC469F4F2406A40D3C5967467C409D4F16
:100530000004000E8000385860409B4C0902090EF0
:100540008900615841409948120E920084584C40ED
:1005500018699349019A1206920D895841402A045C
:10056000120E9200B85848408F493202120E920083
:10057000895841408D48220E9200805848405A695F
:1005800087492F06BF0DC9595140864A37043F0E8F
:10059000BF00D2594A40844927023F0EBF00CF59BD
:1005A00057408249019A120E9200895879409F69FA
:1005B000BC467B4F3206920DBA5867467A40944645
:1005C000784F2204120E9200BA5867467A40944639
:1005D000754F019A1202120E9200BA5867467A407D
:1005E0009446724F2A0E9200BA5867467A40DF69E5
:1005F000BC466B4F2406A40D3C5967467C40A4467C
:10060000684F019C2404240EA4003C5967467C409A
:10061000654F2D022D0EAD007D596540634C360EA1
:10062000B600A4596C402033009D6D1E009500D08B
:1006300027E70093039B009D2D68594E0706BF0DC9
:10064000F6596E40574D0F043F0EBF00ED597540EF
:10065000554E17023F0EBF00F6596E40534D270E00
:10066000BF00ED5975400195009D6D684C4E0F0619
:10067000BF0DF6596E404B4D17043F0EBF00ED59AC
:100680007540494E27023F0EBF00F6596E40474D58
:10069000070EBF00ED5975400295009DAD68404EB4
:1006A0001706BF0DF6596E403E4D27043F0EBF00A2
:1006B000ED5975403C4E07023F0EBF00F6596E40A3
:1006C0003A4D0F0EBF00ED597540009EF668344F4D
:1006D0002406A40D3C597440324E0004000E8000E4
:1006E00030586040304C0902090E89006158414081
:1006F0002E48120E920086584E402D4800990A69E5
:100700000199C9B2415C5140029A1204120E825CF6
:1007100012024A402902090E415C0C045440310E79
:10072000415C09066140009A5269029CE4B2045D92
:1007300054402A04120E825C120262403402240EDB
:10074000045D24045440019A120E825C1206624039
:10075000009CA469EFB2C75D67403404240E045DB9
:1007600024027C40019F3F023F0EC75D3F0467406B
:10077000029C240E045D24067C40009FFF69F6B2B3
:10078000865D7E40019F3F043F0EC75D3F0277407C
:10079000029E3602360E865D36047E40D4E10000AD
:1007A0002005002020090020200D0020201100201D
:1007B00038220020F4B583B003000C005D68207877
:1007C000617809020143A07800040843E178090632
:1007D0000143286848402179627912020A43A179CD
:1007E00009041143E27912060A4369685140267AE6
:1007F000627A12023243A67A36041643E27A170668
:100800003743AA687A40277B667B36023E43A77B44
:100810003F043743E47B26063E43EC6874401035C2
:1008200000951B685D106D1E002D00DCD8E0009B5C
:1008300000951E68D64D0706BF0DED597540D54E83
:1008400027043F0EBF00F6596E40D34D17023F0EEE
:10085000BF00ED597540D14E0F0EBF00F6596E40E6
:1008600001965E68CA4D0F06BF0DED597540C94E21
:1008700007043F0EBF00F6596E40C74D27023F0EDA
:10088000BF00EF597740C54D160EB600AD597D40FB
:100890009F68BC46BE4F1606B60DBE5967467E40E1
:1008A000B446BC4F0E04360EB600BE5967467E40B5
:1008B000B446B94F0602360EB600BE5967467E40B2
:1008C000B446B64F260EB600BE5967467E40DF6876
:1008D000BC46AF4F2406A40D3C5967467C40AD4F43
:1008E0001204120E9200BA586240AB4C0902090E73
:1008F000890061585140A94A000E800014584C40AC
:100900001869A349019A1206920D895841402204A0
:10091000120E9200B85848409F493202120E9200BF
:10092000895841409D482A0E9200805848405A6993
:1009300097492F06BF0DC9595140964A019F3F0460
:100940003F0EBF00D2594A40934927023F0EBF00D5
:10095000CF5957409149320E9200895879409F698A
:10096000BC468B4F3206920DBA5867467A40944681
:10097000884F2A04120E9200BA5867467A4094466D
:10098000854F019A1202120E9200BA5867467A40B9
:100990009446824F220E9200BA5867467A40DF6929
:1009A000BC467B4F2406A40D3C5967467C40794FDA
:1009B0003604360EB600BE596640774C2D022D0E19
:1009C000AD0065597540754C019E360EB600A459B0
:1009D0006C402033009D6D1E009500D029E70093E8
:1009E000039B009D2D686A4E0706BF0DF6596E40A9
:1009F000684D27043F0EBF00ED597540664E170243
:100A00003F0EBF00F6596E40644D0F0EBF00ED590A
:100A100075400195009D6D685D4E0F06BF0DF6593E
:100A20006E405C4D07043F0EBF00ED5975405A4EB5
:100A300027023F0EBF00F6596E40584D170EBF00FB
:100A4000ED5975400295009DAD68514E1706BF0DDA
:100A5000F6596E404F4D0F043F0EBF00ED597540E3
:100A60004D4E07023F0EBF00F6596E404B4D270E0C
:100A7000BF00ED597540009EF668454F2406A40D51
:100A80003C597440434E1204120E9200B258624018
:100A9000414C0902090E8900615851403F4A000E3D
:100AA000800016584E403E4800990A690199C9B223
:100AB000415C51403204120E825C12024A4029020B
:100AC000090E415C0C0454400299090E415C090670
:100AD0006140009A5269029CE4B2045D5440019A5C
:100AE0001204120E825C120262403402240E045D73
:100AF000240454402A0E825C12066240009CA469C1
:100B0000EFB2C75D6740029C2404240E045D2402FA
:100B10007C40019F3F023F0EC75D3F046740340E9B
:100B2000045D24067C40009FFF69F6B2865D7E402E
:100B30002D042D0E455D2D027540029E3602360EA7
:100B4000865D36046E40019D2D0E405D00067040AE
:100B500019700D0A5D700D0C9D70090ED9701A7117
:100B6000110A5971110C9971110ED9711C72210A57
:100B70005972210C9972210ED9721873010A597396
:100B8000010C9973000ED873002004B0F0BD000072
:100B9000201500202019002020000020201D00200A
:100BA0002004002010B50C0011001A00012C02D105
:100BB000FFF728FC10BDFFF7FDFD10BDF44600282F
:100BC00004D4494200F013F84042604740420029F3
:100BD00005D45FD000F00BF84042494260474942DB
:100BE00000F005F84942604703460B43E6D4002273
:100BF000030A8B420BD203098B4219D243088B4262
:100C00002ED2411A00D20146524110467047FF22AF
:100C100009023FD012068B4205D3121209028B4201
:100C200001D31212090203098B4219D300E0090A09
:100C3000C3098B4201D3CB01C01A524183098B42B5
:100C400001D38B01C01A524143098B4201D34B019E
:100C5000C01A524103098B4201D30B01C01A524101
:100C6000C3088B4201D3CB00C01A524183088B4288
:100C700001D38B00C01A524143088B4201D34B0071
:100C8000C01A5241884200D3401A5241CFD2014685
:100C90001046704708B500F01BF808BD130030B4CB
:100CA00014001500103902D310393CC0FCD249079A
:100CB00000D30CC000D504C0890002D30280801C80
:100CC000002900D5027030BC704700000022E5E723
:100CD0007047FEE7F8B40100BA4ABB4B0878C0077A
:100CE00000D40DE10C205C680440042C06D05C6844
:100CF000204008280CD15868C00309D51868800323
:100D000000D4FDE04868002800D0F9E00120C9E1E6
:100D10004868012804D1186880246402044315E05F
:100D2000002801D118680BE00528186808D1802434
:100D3000E40204431C60186880246402044305E054
:100D4000A24C04401C601868A14C04401C6014684C
:100D5000651C802080024E68002E15600DD06D1E2F
:100D60002C1B1D68054000D0CAE015686D1C15607D
:100D7000641C652CF5D3032094E16D1E2C1B1D68AB
:100D8000054000D1BCE015686D1C1560641C652C25
:100D9000F1D2F4E715686D1C1560401C0228EAD8F2
:100DA000DDE01068451CCE68002E1E6810D00127BB
:100DB00037431F6015606D1E281A1D68254000D03E
:100DC000B6E015686D1C1560401C0228D3D8F4E706
:100DD0000127BE431E6015606D1E281A1D68254040
:100DE00000D1ACE015686D1C1560401C0228C2D80B
:100DF000F4E70127BE435E6215606D1E281A5D6A26
:100E0000254000D1AFE015686D1C1560401C02281C
:100E1000B1D8F4E7002801D1186A09E00528186A5A
:100E200006D128431862186A012606431E6205E0AF
:100E30000126B0431862186AA84318621068461C5D
:100E40008F68002F16600DD0761E301A964E1F6ADE
:100E5000274000D0C3E017687F1C1760401CB042D9
:100E600089D2F4E7761E301A8F4E1F6A274000D1D0
:100E7000B5E017687F1C1760401CB04200D37AE7CA
:100E8000F3E715686D1C1560401C022800D972E755
:100E9000BFE01560761C022E00D96CE7DBE0042071
:100EA000C043864203D15C6B20405863B5E0586B69
:100EB00005435D63586B0125A84358631068451CC2
:100EC00015606D1E281A5D6B254000D1ACE01568D9
:100ED0006D1C1560401C022800D94CE7F3E7196827
:100EE0000D401D601060401E801B1968214000D11C
:100EF000D7E01168491C1160401C0228F5D93AE777
:100F00000224086820401AD00C205D68054008D0F3
:100F10005D682840082800D043E75868C00300D522
:100F20003FE71868204003D0C868012800D0EDE6EC
:100F30001868F825A8430D69ED0005431D60087881
:100F4000000710D51068451CCE69002E5E6A00D1DE
:100F50004FE7012737435F6215606D1E281A5D6AEF
:100F6000254000D116E70425086828403ED000201F
:100F70000090E006DE69064008D1DE690643DE61C6
:100F8000DE69304000900098012000908A48006897
:100F9000C0051FD4884800689E0D06438648066039
:100FA0001068461C1660761E301A834E3668F605A9
:100FB00010D41668761C1660401C652800D3DAE64B
:100FC000F3E700BF1000002000100240FFFFFEFF0B
:100FD000FFFFFBFF8868012800D01BE723E700988C
:100FE000002803D0D869754E0640DE610878C00637
:100FF0001AD54E69012E00D051E7586B05435D6349
:10100000586B012505435D631068451C15606D1E16
:10101000281A5D6B254000D133E7586BF824A043B4
:101020008C69E40004435C630F6A002F39D0586870
:101030000C240440082C00D168E61668701C80243B
:10104000A4045F4D022F00D049E71F683D401D609A
:101050001060401E861B1068451C1F68274000D08A
:1010600017E7DE6A0F27BE43CF6A3743DF625F6848
:10107000544E3E408F6A3743496A39435960196874
:1010800066080E431E6015606D1E281A19682140FF
:1010900007D11168491C1160401C022800D96AE67A
:1010A000F4E70020F2BC704789130000F3B401227A
:1010B000454B19681140019CA14209D2196891431E
:1010C000019C0C431C6019681140019CA14265D130
:1010D00001003E4802240D68254005D04568F026F1
:1010E000B5438E682E4346600D68154047D04D6865
:1010F000012D02D10468A40303E0022D03D104688A
:10110000A40103D44AE00668344047D0446803266B
:10111000B443254345602E4C25686E1C26604E68FE
:10112000012E0DD146680C273740042F27D02668A2
:10113000771C2760761B274FBE42F3D303201CE0A9
:10114000022E2DD146680C273740082F17D026686D
:10115000771C2760761B1F4FBE42EFD2F2E70A785A
:10116000520705D542681C4B1340C96819434160BA
:10117000E120C003164948600020F6BC7047019C7E
:101180001D681540AC42EAD21C689443019D25437A
:101190001D601B681A40019B9A42E0D00120ECE7D9
:1011A00046680C273740EAD02668771C2760761BF4
:1011B000084FBE42F4D3C1E700700040FFFFFFEFCD
:1011C000FFFFFFFEFFFFC2FF0020024000100240B1
:1011D0001000002089130000FFF8FFFFF0B483B077
:1011E00000232FE0052503E08C4DA842FAD103250A
:1011F0006F463F78BD403543019E3560884D2E686F
:10120000E5432E404F68FF0300D52643844F3E60E0
:101210007E682E404F68BF0300D52643804F7E6016
:10122000BE682E404F68FF0200D526437C4FBE604B
:10123000FE6835404E68B60202D52E0025003543C3
:10124000FD605B1C0D682C00DC4000D190E00124A7
:101250009C4001942C40F4D04D68022D01D0122DF9
:1012600019D1DD08AD0045192E6A02969F001C2693
:101270003E406F463E70029EB4466E4636780F275B
:10128000B7406646BE43B4460F696E463678B740EF
:10129000664637432F6206686D465F002F7003274E
:1012A0002D78AF40FD432E40B4460E79B707BF0FEF
:1012B0006E463678B7406646374307604E68012E63
:1012C00005D0022E03D0112E01D0122E14D1866823
:1012D0002E40B446CF686E463678B74066463743F0
:1012E00087604768019EB743BC464F68FE06F60F0D
:1012F0009E4067463E434660C66835408E686F46EE
:101300003F78BE402E43C6604D68ED0099D5884DAC
:101310002D6801262E43864D2E602D68EE07F60FB0
:101320000096009D834D9E08B600AD1901952E686C
:101330006D469F002F700C256F46BC463F783D40A0
:1013400067463D706D462D780F27AF40BE43902510
:10135000ED05A84201D100254AE78C4DA84201D1F4
:10136000012545E78A4DA84200D03DE702253FE729
:1013700003B0F0BC7047000081B0002A01D0816149
:1013800000E0816201B07047F1B481B068300021A3
:101390004160804A14680094641C14607F4B019D76
:1013A0002D689D4232D11D682D0722D5651E009EF5
:1013B000AE1B8025AD04DF69BF0219D4641C761C06
:1013C000AE42F8D31D68744E2E401E60019B1B6810
:1013D0009D680126B5439D60202343708370017092
:1013E0001460032017E0641C761CAE420AD3E9E7C0
:1013F00014601C68640709D51468651E009EAE1B46
:101400008025AD04DF697F02EDD514602022427093
:10141000827001700020F6BC70470000000C00488C
:1014200000040140F8B501001023002000240D68DD
:101430002A68A44F17408A683A430F6917434A69DC
:101440003A43CF6917432F606F689F4A3A40CF688D
:1014500017436F60AF689D4A3A408F6917430A6A25
:101460003A43AA604D4A95420FD1994A12689207B1
:10147000920F0DD0022A06D003D3032A09D10223EA
:1014800007E0042305E0082303E0924A954200D1D7
:10149000002380221202CE69964226D1002B06D06C
:1014A000022B09D0042B0BD0082B0ED014E0496876
:1014B0004808E12212040BE049684808864A07E020
:1014C00049684808E122120402E0496848085200CD
:1014D0008018FFF78CFB00E00124804901400004E4
:1014E000400C4007400F08431CE0002B06D0022BA5
:1014F00009D0042B0BD0082B0ED015E04968480802
:10150000E122D2030AE049684808B84A06E049687F
:101510004808E122D20301E0496848088018FFF733
:1015200066FB80B2E86000E001242000F2BD00000C
:10153000181002400800014010B5040001D101203C
:1015400010BD68304178002900D10170242141701C
:10155000206801680122914301602000FFF762FFCB
:10156000012811D020684168A14A0A4042602068E1
:1015700081682A22914381602068016801220A4320
:1015800002602000FFF700FF10BD000000040048CB
:1015900000080048100000205FFEFFFF00380140F7
:1015A000F8B483B0040025005835A87C20286DD1FC
:1015B000009100290CD010000AD0A16880204001C1
:1015C000814207D12069002804D10098C00701D5C5
:1015D00001205CE0287C012858D0012028740026D6
:1015E0006E612220A8748348036818005B1C814F39
:1015F0003B602A806A8080225201914206D1216993
:10160000002901D17C4909E0FF2107E0002906D12A
:101610002169002901D1FF2100E07F21A9800399E0
:10162000AB880194009A6C46238005E09B8C6C4645
:1016300024881C401480921C6B88002B2AD06B8855
:101640005B1E6B80019B1B6802906A4FD869800605
:1016500025D40020C0438142F8D0002906D0386844
:10166000441C3C60029C001B8142EFD21868634915
:1016700001401960019800688168012291438160EE
:1016800020206874A8742E74032000E0022004B0A7
:10169000F0BC70472020A8742E740020F7E7029851
:1016A000019CA46880277F01BC4203D1019C24696E
:1016B000002CBBD09B8C6C4624881C401470521CA0
:1016C000BAE70000F369FFFFFFCFFFFFFFF4FFFF62
:1016D00030100240004400400048E801F0FF0000E4
:1016E000F8B4040015001800230050335A7E202A55
:1016F00066D10A000BD0290009D0A16880267601A6
:10170000B14206D12169002903D1D10701D50120B9
:1017100057E0197E012953D0012119760021D961A2
:101720002121597633490E683100761C314F3E60D5
:101730001D805D80009404E01588ED05ED0D258584
:10174000921C5C88002C19D05C88641E5C80009C14
:101750002468E5692D0636D40025ED43A842F8D06B
:10176000002805D03D686E1C3E606D1AA842F0D27C
:101770002068224901402160009815E0009A126813
:10178000D46964062DD40024E443A042F6D0002896
:1017900005D03C68651C3D60641AA042EED20098FA
:1017A0001168164C0C401460006881680122914356
:1017B000816020205876987600201876032000E07B
:1017C0000220F2BC7047009DAD6880267601B542CC
:1017D00003D1009D2D69002DAED015782585521CB2
:1017E000AFE72020587600201876EAE70024F400BE
:1017F000FFB7FFFF10000020FF0100005FFEFFFFAA
:1018000030B400282DDD0B784C782500303D0A2DB2
:1018100001D2303C0AE02500413D062D01D2373C83
:1018200004E02500613D062D1ED2573C14701C00BB
:10183000303C0A2C01D214780CE01C00413C062CF0
:1018400002D21478373B05E01C00613C062C0BD219
:101850001478573B1B0123431370891C521C401EF4
:10186000D1D1002030BC70470120FBE70020704739
:101870003C48816F0B290BDA4A00521892008218FB
:101880007623137000235360374B9360491C8167A4
:10189000704730B4334B9C6F0B2C01DA412901D3D4
:1018A000012009E065002D19AD005D1928706960FF
:1018B000AA60641C9C67002030BC704770B5B0B053
:1018C00000F0D6F800250021264A1300946F04E0AA
:1018D0001E7886421BD0491C0C33A142F8DB16D17E
:1018E00013E000F0C5F80A280FD00D280DD0307095
:1018F0006D1C761C10E06A4610A96068FFF780FF37
:10190000002802D16846A168884730B070BD10AE8B
:101910004800401880001418606840008542E0D3F9
:1019200000F0A6F80A28E6D00D28E4D0EDE7F8B5D7
:101930000E00150000F0AAF8012E0EDB0F270B4C4D
:1019400028780009205C00F0A1F828783840205C55
:1019500000F09CF86D1C761EF2D10A2000F096F87B
:10196000F1BD0000382300206D18000800000020A1
:1019700010B590B003200490052005900024079432
:101980000D9404A8FFF7A6F907200090012001900C
:101990000294039400216846FFF788FB10B010BD45
:1019A00030B587B0802080023D4C21680143216022
:1019B0002168084000900098C020C00001900220DB
:1019C00002900125039503200490059501A990201C
:1019D000C005FFF703FCA80361680143616061680B
:1019E000084000900098E069032188430543E561C1
:1019F0002C482D4901609621090241600021816037
:101A0000C160016181610C214161FFF795FD07B063
:101A100030BD30B585B08020800221490A6802437C
:101A20000A60096808400090009880256D010095C3
:101A30000120019000200290032003909024E405EF
:101A400069462000FFF7CAFB002229002000FFF7AB
:101A500093FC05B030BD80B50122110303E080B5D1
:101A60000022802149019020C005FFF785FC01BDBF
:101A700038B50C4D0D4C2300012269462800FFF7B4
:101A80008FFD0028F7D16846007832BD80B56946E1
:101A90000870064B01220348FFF722FE01BD00003B
:101AA00014100240B42300200038014088130000C5
:101AB00080B500F062F8002002BD10B50400FFF709
:101AC000CAFF200000F060F8FFF7C9FF22001021D4
:101AD0007220FFF72CFF002010BD0020704700008F
:101AE00000B585B0684600BF1DA1102200F056F871
:101AF000FFF73EFFFFF754FFFFF78BFF00F038F8CA
:101B0000684600F03AF86820FFF7C0FF6520FFF74D
:101B1000BDFF6C20FFF7BAFF6C20FFF7B7FF6F2007
:101B2000FFF7B4FF0A20FFF7B1FFFFF7A1FE094A54
:101B300010216B20FFF7ADFE074A10217020FFF740
:101B4000A8FE064A00217820FFF7A3FEFFF7B6FEA5
:101B5000FCE70000B11A0008BB1A0008DB1A0008F5
:101B60002B7E151628AED2A6ABF7158809CF4F3CB1
:101B700080B50948FEF760FB01BD80B501008022F9
:101B80000548FEF75FFB01BD80B503001A00012187
:101B90000148FFF707F801BD2021002070B4103A7A
:101BA00003D378C9103A78C0FBD2530701D318C9C0
:101BB00018C001D508C908C0D20704D30B88038018
:101BC000891C801C002A01D50B78037070BC7047FB
:101BD00070B401000123002413E00A68091D1A42B1
:101BE00002D04D466D1E52191460121D001F0428AC
:101BF000FAD21500860701D51480AD1C184000D01C
:101C00002C700868091D0028E7D1080070BC7047D7
:101C100030B401220168001D00290FD00368C318E9
:101C200044680830144202D04D466D1E64191D6888
:101C300025601B1D241D091FECD0F8E730BC704740
:101C400010B500F013F802000023DB4300241068F5
:101C5000984203D011000220ABBE14605068984235
:101C600003D0111D0220ABBE546010BD0048704768
:101C70001800002010B5074979441831064C7C44FF
:101C8000163404E0081D0A68891888470100A1423B
:101C9000F8D110BD080000002800000035FFFFFF4C
:101CA00030240000200000200000000065FFFFFF3E
:101CB000200000000C0000000000002000000000D8
:101CC0003031323334353637383941424344454672
:101CD0000000000000127A00FFFFFFFFFFFFFFFF80
:101CE00000F00BF8002801D0FFF7C4FF002000BF70
:101CF00000BFFFF7F5FE00F002F80120704780B545
:101D000000F002F801BD00000746384600F002F876
:101D1000FBE7000080B5FFF793FF024A110018208F
:101D2000ABBEFBE72600020000BF00BF00BF00BF44
:041D3000FFF7D6FFE4
:0400000508001D29A9
:00000001FF
