:020000040800F2
:10000000F0210020D14400085B0F00085B0F0008BE
:100010005B0F00085B0F00085B0F0008000000008A
:100020000000000000000000000000005B0F00085E
:100030005B0F0008000000005B0F00085B0F00086A
:1000400070B504004FF48C750026320029002000A2
:1000500000F050FF70BDF0B403001000802805D000
:10006000C02806D0B0F5807F06D008E00A201860CE
:1000700008E00C20186005E00E20186002E07FF018
:100080001F0003E113F108055D600024B4EB521F6B
:1000900014D211F8240001EB8406767850EA062089
:1000A00001EB8406B67850EA064001EB8406F67848
:1000B00050EA066045F82400641CE7E718680A283F
:1000C00004D00C283BD00E287AD0DEE000200400BB
:1000D0000A2C33D22E68DFF8DC0750F824004640A3
:1000E000DFF8C00DEF68C7F30727C05D4640DFF8B3
:1000F000B40DEF68C7F30747C05D96EA0026DFF846
:10010000A40DEF683F0EC05D96EA0046DFF8940D3F
:100110002F7B07F0FF07C05D96EA00662E616E68D0
:10012000286946406E61AE6868694640AE61EE6817
:10013000A8694640EE61641C1035C9E7A5E00020BF
:100140000400082C3BD22E68DFF8680750F8240022
:100150004640DFF8500D6F69C7F30727C05D464082
:10016000DFF8400D6F69C7F30747C05D96EA0026C8
:10017000DFF8300D6F693F0EC05D96EA0046DFF88C
:10018000240D2F7D07F0FF07C05D96EA0066AE6183
:100190006E68A8694640EE61AE68E86946402E6226
:1001A000EE68286A46406E622E69686A4640AE6212
:1001B0006E69A86A4640EE62641C1835C1E764E0C7
:1001C00000200400072C60D22E68DFF8E80650F803
:1001D00024004640DFF8CC0CEF69C7F30727C05D69
:1001E0004640DFF8C00CEF69C7F30747C05D96EAE9
:1001F0000026DFF8B00CEF693F0EC05D96EA0046BE
:10020000DFF8A00C2F7F07F0FF07C05D96EA0066BD
:100210002E626E68286A46406E62AE68686A464022
:10022000AE62EE68A86A4640EE622E69DFF8740C92
:1002300095F82C7007F0FF07C05D4640DFF8640CAE
:10024000EF6AC7F30727C05D96EA0026DFF8540C73
:10025000EF6AC7F30747C05D96EA0046DFF8440C33
:10026000EF6A3F0EC05D96EA00662E636E69286BEA
:1002700046406E63AE69686B4640AE63EE69A86B3C
:100280004640EE63641C20359CE70020F0BC7047BC
:100290002DE9F14F85B0059845680C78487854EA07
:1002A0000024887854EA0044C87854EA0064286836
:1002B00044402E1D0D79487955EA0025887955EA84
:1002C0000045C87955EA006530684540371D0E7A0B
:1002D000487A56EA0026887A56EA0046C87A56EAEC
:1002E00000663868464017F1040C0F7B487B57EADC
:1002F0000027887B57EA0047C87B57EA0067DCF88D
:10030000000047401CF1040E0598D0F800C05FEAD9
:100310006C0CBCF1010CBCF1010FC0F24B81DEF89A
:100320000080DFF8940B04F0FF0950F8290090EAF0
:100330000808DFF8880BC5F3072950F8290090EA70
:100340000808DFF87C0BC6F3074950F8290090EA4B
:100350000808DFF8700BB9465FEA196950F8290000
:1003600090EA0808CDF808801EF1040EDEF800803F
:10037000DFF8440B05F0FF0950F8290090EA08085F
:10038000DFF8380BC6F3072950F8290090EA08086F
:10039000DFF82C0BC7F3074950F8290090EA08084A
:1003A000DFF8200BA1465FEA196950F8290090EAAE
:1003B0000808CDF804801EF1040EDEF80080DFF896
:1003C000F80A06F0FF0950F8290090EA0808DFF85B
:1003D000EC0AC7F3072950F8290090EA0808DFF86B
:1003E000E00AC4F3074950F8290090EA0808DFF84A
:1003F000D40AA9465FEA196950F8290090EA08086A
:10040000CDF800801EF1040EDEF80080DFF8A80AA7
:1004100007F0FF0950F8290090EA0808DFF89C0A65
:10042000C4F3072950F8290090EA0808DFF8900A79
:10043000C5F3074950F8290090EA0808DFF8840A54
:10044000B1465FEA196950F8290090EA0808434666
:100450001EF1040EDEF80080DFF85C0ADDF808907B
:1004600009F0FF0950F8290090EA0808DFF84C0A63
:10047000DDF80490C9F3072950F8290090EA08082C
:10048000DFF83C0ADDF80090C9F3074950F829006D
:1004900090EA0808DFF82C0A99465FEA196950F8D3
:1004A000290090EA080844461EF1040EDEF8008098
:1004B000DFF8040ADDF8049009F0FF0950F829007C
:1004C00090EA0808DFF8F409DDF80090C9F307297D
:1004D00050F8290090EA0808DFF8E409C3F3074957
:1004E00050F8290090EA0808DFF8D809DDF80890EC
:1004F0005FEA196950F8290090EA080845461EF19C
:10050000040EDEF80080DFF8B009DDF8009009F095
:10051000FF0950F8290090EA0808DFF8A009C3F3A2
:10052000072950F8290090EA0808DFF89409DDF857
:100530000890C9F3074950F8290090EA0808DFF845
:100540008409DDF804905FEA196950F8290090EAFF
:10055000080846461EF1040EDEF80080DFF8580950
:1005600003F0FF0950F8290090EA0808DFF84C0969
:10057000DDF80890C9F3072950F8290090EA080827
:10058000DFF83C09DDF80490C9F3074950F8290069
:1005900090EA0808DFF82C09DDF800905FEA196995
:1005A00050F8290090EA080847461EF1040EBCF1F5
:1005B000010CB0E6DEF80080DFF8FC0804F0FF096B
:1005C00050F8290090EA0808DFF8F008C5F3072979
:1005D00050F8290090EA0808DFF8E408C6F3074954
:1005E00050F8290090EA0808DFF8D808B9465FEA11
:1005F000196950F8290090EA0808CDF808801EF122
:10060000040EDEF80080DFF8B00805F0FF0950F8AE
:10061000290090EA0808DFF8A408C6F3072950F873
:10062000290090EA0808DFF89808C7F3074950F84E
:10063000290090EA0808DFF88C08A1465FEA1969EA
:1006400050F8290090EA0808CDF804801EF104084B
:10065000D8F800E0DFF8600806F0FF0950F829003C
:1006600090EA0E0EDFF85408C7F3072950F8290066
:1006700090EA0E0EDFF84808C4F3074950F8290045
:1006800090EA0E0EDFF83C08A9465FEA196950F8B7
:10069000290090EA0E0E18F10409D9F80080DFF85D
:1006A000180807F0FF0A50F82A0090EA0808DFF857
:1006B0000C08C4F3072A50F82A0090EA0808DFF86B
:1006C0000008C5F3074A50F82A0090EA0808DFF846
:1006D000F407B2465FEA1A6A50F82A0090EA08085E
:1006E00019F10409D9F800A0DFF8B807DDF808B05F
:1006F0000BF0FF0B10F80B0090EA0A0ADFF8A407D2
:10070000DDF804B0CBF3072B10F80B009AEA002AAF
:10071000DFF89007CEF3074B10F80B009AEA004A77
:10072000DFF88007C3465FEA1B6B10F80B009AEAFC
:10073000006ACDF810A019F10409D9F800A0DFF87B
:100740006407DDF804B00BF0FF0B10F80B0090EA23
:100750000A0ADFF85007CEF3072B10F80B009AEACD
:10076000002ADFF84007C8F3074B10F80B009AEA9D
:10077000004ADFF83007DDF808B05FEA1B6B10F8BD
:100780000B009AEA006ACDF80CA019F1040ADAF815
:100790000090DFF810070EF0FF0B10F80B0090EA46
:1007A0000909DFF80007C8F3072B10F80B0099EAD6
:1007B0000029DFF8F006DDF808B0CBF3074B10F89E
:1007C0000B0099EA0049DFF8DC06DDF804B05FEAC7
:1007D0001B6B10F80B0099EA00691AF10400D0F8BD
:1007E00000A0CDF800A0DFF8BCB608F0FF0A1BF8A7
:1007F0000AA0DDF800B09AEA0B0ACDF800A0DFF8F5
:10080000A4B6DDF808A0CAF3072A1BF80AA0DDF891
:1008100000B09BEA0A2BCDF800B0DFF888B6DDF80F
:1008200004A0CAF3074A1BF80AA0DDF800B09BEA4F
:100830000A4BCDF800B0DFF86CB6F2465FEA1A6AF0
:100840001BF80AA0DDF800B09BEA0A6B10F1040A5D
:10085000049810700498000A50700498000C90706E
:100860000498000ED070039810710398000A50711C
:100870000398000C90710398000ED07182F80890D4
:100880004846000A50724846000C90724846000ED6
:10089000D07282F80CB05846000A50735846000CCB
:1008A00090735846000ED073002006B0BDE8F08F5C
:1008B00000000000F04300082DE9F14F85B00598D5
:1008C00045680C78487854EA0024887854EA004453
:1008D000C87854EA0064286844402E1D0D79487990
:1008E00055EA0025887955EA0045C87955EA00653A
:1008F00030684540371D0E7A487A56EA0026887AD5
:1009000056EA0046C87A56EA00663868464017F14B
:10091000040C0F7B487B57EA0027887B57EA004787
:10092000C87B57EA0067DCF8000047401CF1040E62
:100930000598D0F800C05FEA6C0CBCF1010CBCF16A
:10094000010FC0F24181DEF80080DFF85C0504F0A1
:10095000FF0950F8290090EA0808DFF85005C7F3AE
:10096000072950F8290090EA0808DFF84405C6F383
:10097000074950F8290090EA0808DFF83805A94629
:100980005FEA196950F8290090EA0808CDF8088054
:100990001EF1040EDEF80080DFF80C0505F0FF09FB
:1009A00050F8290090EA0808DFF80005C4F3072989
:1009B00050F8290090EA0808DFF8F404C7F3074963
:1009C00050F8290090EA0808DFF8E804B1465FEA29
:1009D000196950F8290090EA0808CDF804801EF142
:1009E000040EDEF80080DFF8C00406F0FF0950F8BE
:1009F000290090EA0808DFF8B404C5F3072950F885
:100A0000290090EA0808DFF8A804C4F3074950F861
:100A1000290090EA0808DFF89C04B9465FEA1969E2
:100A200050F8290090EA0808CDF800801EF1040E65
:100A3000DEF80080DFF8700407F0FF0950F82900A5
:100A400090EA0808DFF86404C6F3072950F8290083
:100A500090EA0808DFF85804C5F3074950F8290060
:100A600090EA0808DFF84C04A1465FEA196950F8DB
:100A7000290090EA080843461EF1040EDEF80080C3
:100A8000DFF82404DDF8089009F0FF0950F8290088
:100A900090EA0808DFF81404C3F3072950F8290086
:100AA00090EA0808DFF80804DDF80090C9F3074968
:100AB00050F8290090EA0808DFF8F803DDF8049000
:100AC0005FEA196950F8290090EA080844461EF1C7
:100AD000040EDEF80080DFF8D003DDF8049009F0A2
:100AE000FF0950F8290090EA0808DFF8C003DDF894
:100AF0000890C9F3072950F8290090EA0808EC4843
:100B0000C3F3074950F8290090EA0808E948DDF8DE
:100B100000905FEA196950F8290090EA08084546F4
:100B20001EF1040EDEF80080DF48DDF8009009F0C9
:100B3000FF0950F8290090EA0808DC48DDF8049025
:100B4000C9F3072950F8290090EA0808D848DDF8C9
:100B50000890C9F3074950F8290090EA0808D548D9
:100B600099465FEA196950F8290090EA0808464654
:100B70001EF1040EDEF80080CB4803F0FF0950F8A8
:100B8000290090EA0808C948DDF80090C9F3072950
:100B900050F8290090EA0808C548DDF80490C9F328
:100BA000074950F8290090EA0808C248DDF8089083
:100BB0005FEA196950F8290090EA080847461EF1D3
:100BC000040EBCF1010CBAE6DEF80080B64804F071
:100BD000FF0950F8290090EA0808B448C7F307292C
:100BE00050F8290090EA0808B148C6F3074950F8C0
:100BF000290090EA0808AF48A9465FEA196950F849
:100C0000290090EA0808CDF808801EF1040EDEF8ED
:100C10000080A54805F0FF0950F8290090EA08086F
:100C2000A248C4F3072950F8290090EA0808A04810
:100C3000C7F3074950F8290090EA08089D48B146D3
:100C40005FEA196950F8290090EA0808CDF8048095
:100C50001EF10408D8F800E0934806F0FF0950F8A8
:100C6000290090EA0E0E9148C5F3072950F8290093
:100C700090EA0E0E8E48C4F3074950F8290090EA16
:100C80000E0E8C48B9465FEA196950F8290090EABF
:100C90000E0E18F10409D9F80080834807F0FF0A06
:100CA00050F82A0090EA08088048C6F3072A50F84E
:100CB0002A0090EA08087E48C5F3074A50F82A003F
:100CC00090EA08087B48A2465FEA1A6A50F82A00B0
:100CD00090EA080819F10409D9F800A0DFF8100219
:100CE000DDF808B00BF0FF0B10F80B0090EA0A0AD1
:100CF000DFF8FC01C8F3072B10F80B009AEA002A72
:100D0000DFF8EC01CEF3074B10F80B009AEA004A2B
:100D1000DFF8DC01DDF804B05FEA1B6B10F80B00B4
:100D20009AEA006ACDF810A019F10409D9F800A0D8
:100D3000DFF8BC01DDF804B00BF0FF0B10F80B007E
:100D400090EA0A0ADFF8A801DDF808B0CBF3072B18
:100D500010F80B009AEA002ADFF89401C8F3074B59
:100D600010F80B009AEA004ADFF88401F3465FEAC4
:100D70001B6B10F80B009AEA006ACDF80CA019F171
:100D8000040ADAF80090DFF868010EF0FF0B10F8A3
:100D90000B0090EA0909DFF85801DDF804B0CBF345
:100DA000072B10F80B0099EA0029DFF84401DDF861
:100DB00008B0CBF3074B10F80B0099EA0049DFF8B5
:100DC0003001C3465FEA1B6B10F80B0099EA00691B
:100DD0001AF10400D0F800A0CDF800A0DFF810B19F
:100DE00008F0FF0A1BF80AA0DDF800B09AEA0B0A27
:100DF000CDF800A0DFF8F8B0CEF3072A1BF80AA060
:100E0000DDF800B09BEA0A2BCDF800B0DFF8E0B0C7
:100E1000DDF804A0CAF3074A1BF80AA0DDF800B009
:100E20009BEA0A4BCDF800B0DFF8C4B0DDF808A0AB
:100E30005FEA1A6A1BF80AA0DDF800B09BEA0A6BA9
:100E400010F1040A049810700498000A5070049875
:100E5000000C90700498000ED070039810710398E5
:100E6000000A50710398000C90710398000ED07125
:100E700082F808904846000A50724846000C90726A
:100E80004846000ED07282F80CB05846000A5073E3
:100E90005846000C90735846000ED073002006B0E0
:100EA000BDE8F08F144000089C2C00089C3000081E
:100EB0009C3400089C3800089C1C00089C200008FA
:100EC0009C2400089C280008F8B504000D001600BA
:100ED0001F00012D05D13A0031002000FFF7D8F99D
:100EE00004E03A0031002000FFF7E6FCF2BD00000C
:100EF0001441000862F30F2262F31F42401810F001
:100F0000030308D0C91A1FD3DB0748BF00F8012D1F
:100F100028BF20F8022D130030B4144615461039AE
:100F200028BF20E93C00FAD8490728BF20E90C0077
:100F300048BF40F8042D890028BF20F8022D48BF83
:100F400000F8012D30BC7047C91818BF00F8012DFA
:100F5000CB0728BF00F8012D7047FEE7DFF8140A21
:100F60000068411CDFF80C2A116070475FF4E10053
:100F7000704770B582B0040000252078C00741D5C5
:100F8000DFF8F409006810F00C0004280BD0DFF83B
:100F9000E809006810F00C0008280ED1DFF8DC0921
:100FA0000068400209D5DFF8D8090068800329D518
:100FB0006068002826D1012076E16068DFF8C41956
:100FC0000870606800280ED0FFF7C8FF0500DFF842
:100FD000B0090068800315D4FFF7C0FF401B6528E7
:100FE000F5D3032060E1FFF7B9FF0500DFF89009B2
:100FF0000068800306D5FFF7B1FF401B6528F5D3D5
:10100000032051E12078800766D5DFF86C0900687D
:1010100010F00C0F0BD0DFF86009006810F00C0026
:1010200008281FD1DFF85409006840021AD4DFF8FD
:1010300050090068800704D5E068012801D001202C
:1010400032E1DFF83C0900685FF0F851B1FA81F154
:1010500030F0F800226912FA01F10843DFF8201994
:10106000086039E0E068002823D00120DFF8181973
:101070000860FFF773FF0500DFF8040900688007C8
:1010800006D4FFF76BFF401B0328F5D303200BE1C9
:10109000DFF8EC0800685FF0F851B1FA81F130F048
:1010A000F800226912FA01F10843DFF8D418086049
:1010B00012E00020DFF8D0180860FFF74FFF0500AE
:1010C000DFF8BC080068800706D5FFF747FF401B24
:1010D0000328F5D30320E7E02078000728D56069CE
:1010E000002812D00120DFF8A4180860FFF736FFAF
:1010F0000500DFF89C080068800719D4FFF72EFF71
:10110000401B0328F5D30320CEE00020DFF87C1835
:101110000860FFF723FF0500DFF874080068800708
:1011200006D5FFF71BFF401B0328F5D30320BBE0C8
:101130002078400750D500200090DFF8580800685C
:1011400050F08050DFF84C180860DFF8480800685D
:1011500010F0805000900098DFF83C08006850F4D0
:101160008070DFF834180860FFF7F8FE0600DFF83B
:1011700028080068C00506D4FFF7F0FE801B03288E
:10118000F5D3032090E0A068DFF810180870A0687D
:10119000002810D0FFF7E2FE0500DFF80008006825
:1011A000800719D4FFF7DAFE401B41F289318842EB
:1011B000F3D3032078E0FFF7D1FE0500DFF8DC076A
:1011C0000068800708D5FFF7C9FE401B41F289314E
:1011D0008842F3D3032067E0A069002863D0DFF8DA
:1011E0009807006810F00C0008285AD0A06902285F
:1011F00044D10020DFF8A8170860FFF7AFFE060013
:10120000DFF87C070068800106D5FFF7A7FE801B8A
:101210006528F5D3032047E0DFF88807B0FA80F1AE
:101220004FF44040B0FA80F2F020B0FA80F3E56964
:10123000206A0543606A10FA01F12943A06A400858
:10124000401E10FA02F21143E06A10FA03F3194348
:10125000DFF8280701600120DFF844170860FFF776
:101260007DFE0500DFF81807006880011BD4FFF73A
:1012700075FE401B6528F5D3032015E00020DFF83C
:1012800020170860FFF76AFE0500DFF8F406006823
:10129000800108D5FFF762FE401B6528F5D30320C7
:1012A00002E0012000E0002076BD70B504000D00D2
:1012B0000026DFF8F406006810F00F00A8420BD2F9
:1012C000DFF8E4060570DFF8E006006810F00F00B4
:1012D000A84201D001209BE02078800709D5DFF8E3
:1012E0009806016831F0F001A0680143DFF8880634
:1012F00001602078C0075CD56068012806D1DFF85E
:1013000080060068800312D4012081E06068022812
:1013100006D1DFF86C060068800108D4012077E070
:10132000DFF85C060068800701D4012070E0DFF878
:10133000480601688908890060680143DFF83806BB
:101340000160FFF70BFE0600606801280FD1DFF88F
:101350002806006810F00C0004282AD0FFF7FEFDD4
:10136000801B41F289318842F1D3032050E060684C
:1013700002280FD1DFF80006006810F00C000828E2
:1013800017D0FFF7EBFD801B41F289318842F1D382
:1013900003203DE0DFF8E005006810F00C0F08D0F6
:1013A000FFF7DCFD801B41F289318842F2D3032034
:1013B0002EE0DFF8F405006810F00F0085420BD234
:1013C000DFF8E4050570DFF8E005006810F00F00B5
:1013D000A84201D001201BE02078400709D5DFF8A2
:1013E0009805016831F4E051E0680143DFF88805B1
:1013F0000160207800070AD5DFF87C05006830F42A
:101400006040216950EAC100DFF86C1508600020D7
:1014100070BD5FF4E1007047F8B40023002400269B
:101420000025102D80F01B810122AA4013000A68BC
:101430001A4014009C4240F010814A68022A02D0EF
:101440004A68122A1ED12A00D20800EB8202176ACB
:101450005FF00F0C15F00702D2B292001CFA02FCEA
:1014600037EA0C07D1F810C015F00702D2B292008B
:101470001CFA02FC5CEA07073E002A00D20800EBD7
:101480008202166207685FF0030C2A00D2B2520093
:101490001CFA02FC37EA0C0791F804C01CF0030C9C
:1014A0002A00D2B252001CFA02FC5CEA070707606D
:1014B0004A68012A08D04A68022A05D04A68112AD7
:1014C00002D04A68122A24D186685FF0030C2A00F1
:1014D000D2B252001CFA02FC36EA0C06D1F80CC05B
:1014E0002A00D2B252001CFA02FC5CEA06068660B0
:1014F00042685FF0010C1CFA05FC32EA0C02D1F8DC
:1015000004C0CCF3001C1CFA05FC5CEA02021700C4
:101510004760C2685FF0030C2E00F6B276001CFA3A
:1015200006F632EA0606D1F808C02A00D2B2520006
:101530001CFA02FC5CEA0606C6604A68D20040F16A
:101540008C8000220092DFF86424126852F48042FA
:10155000DFF858743A60DFF85424126812F48042BD
:101560000092009ADFF848242F00BF0852F8277035
:101570005FF00F0C15F00302D2B292001CFA02FCCD
:1015800037EA0C07DFF82C24904201D1002630E026
:10159000DFF82424904201D101262AE0DFF81C2440
:1015A000904201D1022624E0DFF81424904201D1B8
:1015B00003261EE0DFF80C24904201D1042618E037
:1015C000DFF80424904201D1052612E0DFF8FC2365
:1015D000904201D106260CE0DFF8F423904201D1BD
:1015E000072606E0DFF8EC23904201D1082600E050
:1015F0000926F6B215F00302D2B2920096403743A4
:10160000DFF8AC232E00B60842F82670DFF8C823B6
:101610001268A2434E68F60300D52243DFF8B86390
:101620003260DFF8B8633668A6434F68BF0300D561
:101630002643EA4A1660EA4A1268A2434F68FF024C
:1016400000D52243E64E3260E64E3668A6434F6828
:10165000BF0200D52643E34A16606D1CE1E6F1BCEB
:101660007047D2B2002A02D089B2816102E089B209
:101670000B04836170472DE9F843040000212068C2
:10168000026932F44052E068024320680261206837
:10169000C368D5480340A5682069054360690543D0
:1016A000E06905432B432068C3602068456935F431
:1016B0004075A069054320684561E069B0F5004FB9
:1016C00040F0AC802068C949884203D02068C849EE
:1016D000884251D1FFF79DFE8146FFF79AFE804672
:1016E000FFF797FE0700FFF794FE0600FFF791FE55
:1016F000192101FB09F961684900B9FBF1F1642284
:10170000B1FBF2F2192101FB08F861684900B8FB4E
:10171000F1F319214F4361684900B7FBF1F16427E8
:10172000B1FBF7F7642101FB1733D9003231642391
:10173000B1FBF3F35B0013F4F87313EB02131921FD
:101740004E4361684900B6FBF1F2192148436168D4
:101750004900B0FBF1F06421B0FBF1F1642000FB23
:101760001122D00032306421B0FBF1F010F00700FC
:10177000C31820688360FAE0FFF7F8FB8146FFF7A3
:10178000F5FB8046FFF7F2FB0700FFF7EFFB0600D3
:10179000FFF7ECFB192101FB09F961684900B9FB6E
:1017A000F1F16422B1FBF2F2192101FB08F8616842
:1017B0004900B8FBF1F319214F4361684900B7FBB9
:1017C000F1F16427B1FBF7F7642101FB1733D9006E
:1017D00032316423B1FBF3F35B0013F4F87313EBC2
:1017E000021319214E4361684900B6FBF1F2192139
:1017F000484361684900B0FBF1F06421B0FBF1F1AE
:10180000642000FB1122D00032306421B0FBF1F0E3
:1018100010F00700C31820688360A8E020687349AF
:10182000884203D020687249884250D1FFF7F1FD09
:101830008146FFF7EEFD8046FFF7EBFD0700FFF75F
:10184000E8FD0600FFF7E5FD192101FB09F96168D4
:101850008900B9FBF1F16422B1FBF2F2192101FB1D
:1018600008F861688900B8FBF1F319214F436168FA
:101870008900B7FBF1F16427B1FBF7F7642101FBA5
:101880001733190132316423B1FBF3F313F0F00382
:1018900013EB021319214E4361688900B6FBF1F284
:1018A0001921484361688900B0FBF1F06421B0FB65
:1018B000F1F1642000FB1122100132306421B0FBF1
:1018C000F1F010F00F00C318206883604FE0FFF7BD
:1018D0004DFB8146FFF74AFB8046FFF747FB0700B9
:1018E000FFF744FB0600FFF741FB192101FB09F953
:1018F00061688900B9FBF1F16422B1FBF2F21921B0
:1019000001FB08F861688900B8FBF1F319214F4326
:1019100061688900B7FBF1F16427B1FBF7F7642137
:1019200001FB1733190132316423B1FBF3F313F0D8
:10193000F00313EB021319214E4361688900B6FBD3
:10194000F1F21921484361688900B0FBF1F064218C
:10195000B0FBF1F1642000FB112210013230642150
:10196000B0FBF1F010F00F00C31820688360BDE8F1
:10197000F1830000EC0100200838024004380240E6
:10198000003802400238024000004742800E4742C1
:101990007438024040380240007000407038024005
:1019A000600047420000FE03003C02404438024011
:1019B00008380140000002400004024000080240D4
:1019C000000C0240001002400014024000180240C7
:1019D000001C024000200240003C0140043C014049
:1019E000083C01400C3C0140F369FFFF001001403E
:1019F0000014014010B50400002C01D1012030E09A
:101A0000A0690028FFD194F83900002802D10020F5
:101A100084F83800242084F839002068C06830F445
:101A200000502168C8602000FFF725FE206800698B
:101A300030F49040216808612068406930F02A0045
:101A4000216848612068C06850F400502168C8606F
:101A50000020E063202084F83900202084F83A0038
:101A6000002010BD2DE9F04105000E00170098463A
:101A7000069C286800683040B04201D1012000E097
:101A80000020FFB2B84221D114F1010FF1D0002C97
:101A900005D0FFF763FAB0EB08008442E9D228686A
:101AA000C06830F4D0702968C86028684069400870
:101AB000400029684861202085F83900202085F8F9
:101AC0003A00002085F83800032000E00020BDE83F
:101AD000F0812DE9F04782B006000C0015001F00D0
:101AE0005FF0000A96F8390020285FD1002C02D060
:101AF000ADB2002D01D1012059E096F8380001283F
:101B000001D1022053E0012086F838000020F06364
:101B1000212086F83900FFF721FA8146B584F58443
:101B2000F08C00282FD0F08C401EF084B068B0F507
:101B3000805F18D100974B46002280213000FFF7CC
:101B400091FF002801D0032031E0A046B8F8000042
:101B5000C005C00D316848603069002801D1A41C5F
:101B6000DEE7641CDCE700974B4600228021300052
:101B7000FFF778FF002801D0032018E020783168B3
:101B80004860641CCCE700974B460022402130009F
:101B9000FFF768FF002801D0032008E0202086F826
:101BA0003900002086F83800002000E00220BDE85F
:101BB000F6872DE9F04782B006000C0015001F00E3
:101BC0005FF0000A96F83A00202864D1002C02D079
:101BD000ADB2002D01D101205EE096F83800012859
:101BE00001D1022058E0012086F838000020F0637F
:101BF000222086F83A00FFF7B1F98146B585F585D0
:101C0000F08D00283FD0F08D401EF085B068B0F513
:101C1000805F1ED100974B46002220213000FFF745
:101C200021FF002801D0032036E0A04630690028BB
:101C300007D130684068C005C00DA8F80000A41C9A
:101C4000DEE73068406800F0FF00A8F80000641C80
:101C5000D6E700974B46002220213000FFF702FF15
:101C6000002801D0032017E03069002804D1306833
:101C700040682070641CC3E73068406810F07F0043
:101C80002070641CBCE7202086F83A00002086F80B
:101C90003800002000E00220BDE8F687C66363A597
:101CA000F87C7C84EE777799F67B7B8DFFF2F20DE2
:101CB000D66B6BBDDE6F6FB191C5C55460303050CF
:101CC00002010103CE6767A9562B2B7DE7FEFE19A3
:101CD000B5D7D7624DABABE6EC76769A8FCACA45DC
:101CE0001F82829D89C9C940FA7D7D87EFFAFA1566
:101CF000B25959EB8E4747C9FBF0F00B41ADADEC43
:101D0000B3D4D4675FA2A2FD45AFAFEA239C9CBFCA
:101D100053A4A4F7E47272969BC0C05B75B7B7C2B8
:101D2000E1FDFD1C3D9393AE4C26266A6C36365A77
:101D30007E3F3F41F5F7F70283CCCC4F6834345CEB
:101D400051A5A5F4D1E5E534F9F1F108E2717193FB
:101D5000ABD8D873623131532A15153F0804040CEF
:101D600095C7C752462323659DC3C35E3018182804
:101D7000379696A10A05050F2F9A9AB50E070709FF
:101D8000241212361B80809BDFE2E23DCDEBEB2676
:101D90004E2727697FB2B2CDEA75759F1209091BDC
:101DA0001D83839E582C2C74341A1A2E361B1B2D1F
:101DB000DC6E6EB2B45A5AEE5BA0A0FBA45252F68F
:101DC000763B3B4DB7D6D6617DB3B3CE5229297B46
:101DD000DDE3E33E5E2F2F7113848497A65353F502
:101DE000B9D1D16800000000C1EDED2C4020206089
:101DF000E3FCFC1F79B1B1C8B65B5BEDD46A6ABE87
:101E00008DCBCB4667BEBED97239394B944A4ADE78
:101E1000984C4CD4B05858E885CFCF4ABBD0D06B43
:101E2000C5EFEF2A4FAAAAE5EDFBFB16864343C593
:101E30009A4D4DD766333355118585948A4545CFE4
:101E4000E9F9F91004020206FE7F7F81A05050F0EC
:101E5000783C3C44259F9FBA4BA8A8E3A25151F37C
:101E60005DA3A3FE804040C0058F8F8A3F9292AD54
:101E7000219D9DBC70383848F1F5F50463BCBCDF8A
:101E800077B6B6C1AFDADA7542212163201010307F
:101E9000E5FFFF1AFDF3F30EBFD2D26D81CDCD4C1D
:101EA000180C0C1426131335C3ECEC2FBE5F5FE146
:101EB000359797A2884444CC2E17173993C4C4573A
:101EC00055A7A7F2FC7E7E827A3D3D47C86464AC8C
:101ED000BA5D5DE73219192BE6737395C06060A097
:101EE000198181989E4F4FD1A3DCDC7F442222666A
:101EF000542A2A7E3B9090AB0B8888838C4646CA36
:101F0000C7EEEE296BB8B8D32814143CA7DEDE79EF
:101F1000BC5E5EE2160B0B1DADDBDB76DBE0E03B6F
:101F200064323256743A3A4E140A0A1E924949DB18
:101F30000C06060A4824246CB85C5CE49FC2C25DAF
:101F4000BDD3D36E43ACACEFC46262A6399191A805
:101F5000319595A4D3E4E437F279798BD5E7E7326C
:101F60008BC8C8436E373759DA6D6DB7018D8D8CCC
:101F7000B1D5D5649C4E4ED249A9A9E0D86C6CB4B9
:101F8000AC5656FAF3F4F407CFEAEA25CA6565AF12
:101F9000F47A7A8E47AEAEE9100808186FBABAD54F
:101FA000F07878884A25256F5C2E2E72381C1C2408
:101FB00057A6A6F173B4B4C797C6C651CBE8E823B9
:101FC000A1DDDD7CE874749C3E1F1F21964B4BDD28
:101FD00061BDBDDC0D8B8B860F8A8A85E0707090A9
:101FE0007C3E3E4271B5B5C4CC6666AA904848D8DE
:101FF00006030305F7F6F6011C0E0E12C26161A37B
:102000006A35355FAE5757F969B9B9D017868691E9
:1020100099C1C1583A1D1D27279E9EB9D9E1E138C3
:10202000EBF8F8132B9898B322111133D26969BBDE
:10203000A9D9D970078E8E89339494A72D9B9BB60E
:102040003C1E1E2215878792C9E9E92087CECE491A
:10205000AA5555FF50282878A5DFDF7A038C8C8F8E
:1020600059A1A1F8098989801A0D0D1765BFBFDA3A
:10207000D7E6E631844242C6D06868B8824141C39F
:10208000299999B05A2D2D771E0F0F117BB0B0CB27
:10209000A85454FC6DBBBBD62C16163AA5C6636378
:1020A00084F87C7C99EE77778DF67B7B0DFFF2F2DE
:1020B000BDD66B6BB1DE6F6F5491C5C550603030CB
:1020C00003020101A9CE67677D562B2B19E7FEFE9F
:1020D00062B5D7D7E64DABAB9AEC7676458FCACAD8
:1020E0009D1F82824089C9C987FA7D7D15EFFAFA62
:1020F000EBB25959C98E47470BFBF0F0EC41ADAD3F
:1021000067B3D4D4FD5FA2A2EA45AFAFBF239C9CC6
:10211000F753A4A496E472725B9BC0C0C275B7B7B4
:102120001CE1FDFDAE3D93936A4C26265A6C363673
:10213000417E3F3F02F5F7F74F83CCCC5C683434E7
:10214000F451A5A534D1E5E508F9F1F193E27171F7
:1021500073ABD8D8536231313F2A15150C080404EB
:102160005295C7C7654623235E9DC3C32830181800
:10217000A13796960F0A0505B52F9A9A090E0707FB
:10218000362412129B1B80803DDFE2E226CDEBEB72
:10219000694E2727CD7FB2B29FEA75751B120909D8
:1021A0009E1D838374582C2C2E341A1A2D361B1B1B
:1021B000B2DC6E6EEEB45A5AFB5BA0A0F6A452528B
:1021C0004D763B3B61B7D6D6CE7DB3B37B52292942
:1021D0003EDDE3E3715E2F2F97138484F5A65353FE
:1021E00068B9D1D1000000002CC1EDED6040202085
:1021F0001FE3FCFCC879B1B1EDB65B5BBED46A6A83
:10220000468DCBCBD967BEBE4B723939DE944A4A74
:10221000D4984C4CE8B058584A85CFCF6BBBD0D03F
:102220002AC5EFEFE54FAAAA16EDFBFBC58643438F
:10223000D79A4D4D5566333394118585CF8A4545E0
:1022400010E9F9F90604020281FE7F7FF0A05050E8
:1022500044783C3CBA259F9FE34BA8A8F3A2515178
:10226000FE5DA3A3C08040408A058F8FAD3F929250
:10227000BC219D9D4870383804F1F5F5DF63BCBC86
:10228000C177B6B675AFDADA63422121302010107B
:102290001AE5FFFF0EFDF3F36DBFD2D24C81CDCD19
:1022A00014180C0C352613132FC3ECECE1BE5F5F42
:1022B000A2359797CC884444392E17175793C4C436
:1022C000F255A7A782FC7E7E477A3D3DACC8646488
:1022D000E7BA5D5D2B32191995E67373A0C0606093
:1022E00098198181D19E4F4F7FA3DCDC6644222266
:1022F0007E542A2AAB3B9090830B8888CA8C464632
:1023000029C7EEEED36BB8B83C28141479A7DEDEEB
:10231000E2BC5E5E1D160B0B76ADDBDB3BDBE0E06B
:10232000566432324E743A3A1E140A0ADB92494914
:102330000A0C06066C482424E4B85C5C5D9FC2C2AB
:102340006EBDD3D3EF43ACACA6C46262A839919101
:10235000A431959537D3E4E48BF2797932D5E7E768
:10236000438BC8C8596E3737B7DA6D6D8C018D8DC8
:1023700064B1D5D5D29C4E4EE049A9A9B4D86C6CB5
:10238000FAAC565607F3F4F425CFEAEAAFCA65650E
:102390008EF47A7AE947AEAE18100808D56FBABA4B
:1023A00088F078786F4A2525725C2E2E24381C1C04
:1023B000F157A6A6C773B4B45197C6C623CBE8E8B5
:1023C0007CA1DDDD9CE87474213E1F1FDD964B4B24
:1023D000DC61BDBD860D8B8B850F8A8A90E07070A5
:1023E000427C3E3EC471B5B5AACC6666D8904848DA
:1023F0000506030301F7F6F6121C0E0EA3C2616177
:102400005F6A3535F9AE5757D069B9B991178686E5
:102410005899C1C1273A1D1DB9279E9E38D9E1E1BF
:1024200013EBF8F8B32B989833221111BBD26969DA
:1024300070A9D9D989078E8EA7339494B62D9B9B0A
:10244000223C1E1E9215878720C9E9E94987CECE16
:10245000FFAA5555785028287AA5DFDF8F038C8C8A
:10246000F859A1A180098989171A0D0DDA65BFBF36
:1024700031D7E6E6C6844242B8D06868C38241419B
:10248000B0299999775A2D2D111E0F0FCB7BB0B023
:10249000FCA85454D66DBBBB3A2C161663A5C66374
:1024A0007C84F87C7799EE777B8DF67BF20DFFF2DA
:1024B0006BBDD66B6FB1DE6FC55491C530506030C7
:1024C0000103020167A9CE672B7D562BFE19E7FE9B
:1024D000D762B5D7ABE64DAB769AEC76CA458FCAD4
:1024E000829D1F82C94089C97D87FA7DFA15EFFA5E
:1024F00059EBB25947C98E47F00BFBF0ADEC41AD3B
:10250000D467B3D4A2FD5FA2AFEA45AF9CBF239CC2
:10251000A4F753A47296E472C05B9BC0B7C275B7B0
:10252000FD1CE1FD93AE3D93266A4C26365A6C366F
:102530003F417E3FF702F5F7CC4F83CC345C6834E3
:10254000A5F451A5E534D1E5F108F9F17193E271F3
:10255000D873ABD831536231153F2A15040C0804E7
:10256000C75295C723654623C35E9DC318283018FC
:1025700096A13796050F0A059AB52F9A07090E07F7
:1025800012362412809B1B80E23DDFE2EB26CDEB6E
:1025900027694E27B2CD7FB2759FEA75091B1209D4
:1025A000839E1D832C74582C1A2E341A1B2D361B17
:1025B0006EB2DC6E5AEEB45AA0FB5BA052F6A45287
:1025C0003B4D763BD661B7D6B3CE7DB3297B52293E
:1025D000E33EDDE32F715E2F8497138453F5A653FA
:1025E000D168B9D100000000ED2CC1ED2060402081
:1025F000FC1FE3FCB1C879B15BEDB65B6ABED46A7F
:10260000CB468DCBBED967BE394B72394ADE944A70
:102610004CD4984C58E8B058CF4A85CFD06BBBD03B
:10262000EF2AC5EFAAE54FAAFB16EDFB43C586438B
:102630004DD79A4D335566338594118545CF8A45DC
:10264000F910E9F9020604027F81FE7F50F0A050E4
:102650003C44783C9FBA259FA8E34BA851F3A25174
:10266000A3FE5DA340C080408F8A058F92AD3F924C
:102670009DBC219D38487038F504F1F5BCDF63BC82
:10268000B6C177B6DA75AFDA216342211030201077
:10269000FF1AE5FFF30EFDF3D26DBFD2CD4C81CD15
:1026A0000C14180C13352613EC2FC3EC5FE1BE5F3E
:1026B00097A2359744CC884417392E17C45793C432
:1026C000A7F255A77E82FC7E3D477A3D64ACC86484
:1026D0005DE7BA5D192B32197395E67360A0C0608F
:1026E000819819814FD19E4FDC7FA3DC2266442262
:1026F0002A7E542A90AB3B9088830B8846CA8C462E
:10270000EE29C7EEB8D36BB8143C2814DE79A7DEE7
:102710005EE2BC5E0B1D160BDB76ADDBE03BDBE067
:10272000325664323A4E743A0A1E140A49DB924910
:10273000060A0C06246C48245CE4B85CC25D9FC2A7
:10274000D36EBDD3ACEF43AC62A6C46291A83991FD
:1027500095A43195E437D3E4798BF279E732D5E764
:10276000C8438BC837596E376DB7DA6D8D8C018DC4
:10277000D564B1D54ED29C4EA9E049A96CB4D86CB1
:1027800056FAAC56F407F3F4EA25CFEA65AFCA650A
:102790007A8EF47AAEE947AE08181008BAD56FBA47
:1027A0007888F078256F4A252E725C2E1C24381C00
:1027B000A6F157A6B4C773B4C65197C6E823CBE8B1
:1027C000DD7CA1DD749CE8741F213E1F4BDD964B20
:1027D000BDDC61BD8B860D8B8A850F8A7090E070A1
:1027E0003E427C3EB5C471B566AACC6648D89048D6
:1027F00003050603F601F7F60E121C0E61A3C26173
:10280000355F6A3557F9AE57B9D069B986911786E1
:10281000C15899C11D273A1D9EB9279EE138D9E1BB
:10282000F813EBF898B32B981133221169BBD269D6
:10283000D970A9D98E89078E94A733949BB62D9B06
:102840001E223C1E87921587E920C9E9CE4987CE12
:1028500055FFAA5528785028DF7AA5DF8C8F038C86
:10286000A1F859A1898009890D171A0DBFDA65BF32
:10287000E631D7E642C6844268B8D06841C3824197
:1028800099B029992D775A2D0F111E0FB0CB7BB01F
:1028900054FCA854BBD66DBB163A2C166363A5C670
:1028A0007C7C84F8777799EE7B7B8DF6F2F20DFFD6
:1028B0006B6BBDD66F6FB1DEC5C5549130305060C3
:1028C000010103026767A9CE2B2B7D56FEFE19E797
:1028D000D7D762B5ABABE64D76769AECCACA458FD0
:1028E00082829D1FC9C940897D7D87FAFAFA15EF5A
:1028F0005959EBB24747C98EF0F00BFBADADEC4137
:10290000D4D467B3A2A2FD5FAFAFEA459C9CBF23BE
:10291000A4A4F753727296E4C0C05B9BB7B7C275AC
:10292000FDFD1CE19393AE3D26266A4C36365A6C6B
:102930003F3F417EF7F702F5CCCC4F8334345C68DF
:10294000A5A5F451E5E534D1F1F108F9717193E2EF
:10295000D8D873AB3131536215153F2A04040C08E3
:10296000C7C7529523236546C3C35E9D18182830F8
:102970009696A13705050F0A9A9AB52F0707090EF3
:102980001212362480809B1BE2E23DDFEBEB26CD6A
:102990002727694EB2B2CD7F75759FEA09091B12D0
:1029A00083839E1D2C2C74581A1A2E341B1B2D3613
:1029B0006E6EB2DC5A5AEEB4A0A0FB5B5252F6A483
:1029C0003B3B4D76D6D661B7B3B3CE7D29297B523A
:1029D000E3E33EDD2F2F715E848497135353F5A6F6
:1029E000D1D168B900000000EDED2CC1202060407D
:1029F000FCFC1FE3B1B1C8795B5BEDB66A6ABED47B
:102A0000CBCB468DBEBED96739394B724A4ADE946C
:102A10004C4CD4985858E8B0CFCF4A85D0D06BBB37
:102A2000EFEF2AC5AAAAE54FFBFB16ED4343C58687
:102A30004D4DD79A33335566858594114545CF8AD8
:102A4000F9F910E9020206047F7F81FE5050F0A0E0
:102A50003C3C44789F9FBA25A8A8E34B5151F3A270
:102A6000A3A3FE5D4040C0808F8F8A059292AD3F48
:102A70009D9DBC2138384870F5F504F1BCBCDF637E
:102A8000B6B6C177DADA75AF212163421010302073
:102A9000FFFF1AE5F3F30EFDD2D26DBFCDCD4C8111
:102AA0000C0C141813133526ECEC2FC35F5FE1BE3A
:102AB0009797A2354444CC881717392EC4C457932E
:102AC000A7A7F2557E7E82FC3D3D477A6464ACC880
:102AD0005D5DE7BA19192B32737395E66060A0C08B
:102AE000818198194F4FD19EDCDC7FA3222266445E
:102AF0002A2A7E549090AB3B8888830B4646CA8C2A
:102B0000EEEE29C7B8B8D36B14143C28DEDE79A7E3
:102B10005E5EE2BC0B0B1D16DBDB76ADE0E03BDB63
:102B2000323256643A3A4E740A0A1E144949DB920C
:102B300006060A0C24246C485C5CE4B8C2C25D9FA3
:102B4000D3D36EBDACACEF436262A6C49191A839F9
:102B50009595A431E4E437D379798BF2E7E732D560
:102B6000C8C8438B3737596E6D6DB7DA8D8D8C01C0
:102B7000D5D564B14E4ED29CA9A9E0496C6CB4D8AD
:102B80005656FAACF4F407F3EAEA25CF6565AFCA06
:102B90007A7A8EF4AEAEE94708081810BABAD56F43
:102BA000787888F025256F4A2E2E725C1C1C2438FC
:102BB000A6A6F157B4B4C773C6C65197E8E823CBAD
:102BC000DDDD7CA174749CE81F1F213E4B4BDD961C
:102BD000BDBDDC618B8B860D8A8A850F707090E09D
:102BE0003E3E427CB5B5C4716666AACC4848D890D2
:102BF00003030506F6F601F70E0E121C6161A3C26F
:102C000035355F6A5757F9AEB9B9D06986869117DD
:102C1000C1C158991D1D273A9E9EB927E1E138D9B7
:102C2000F8F813EB9898B32B111133226969BBD2D2
:102C3000D9D970A98E8E89079494A7339B9BB62D02
:102C40001E1E223C87879215E9E920C9CECE49870E
:102C50005555FFAA28287850DFDF7AA58C8C8F0382
:102C6000A1A1F859898980090D0D171ABFBFDA652E
:102C7000E6E631D74242C6846868B8D04141C38293
:102C80009999B0292D2D775A0F0F111EB0B0CB7B1B
:102C90005454FCA8BBBBD66D16163A2C51F4A75061
:102CA0007E4165531A17A4C33A275E963BAB6BCBA4
:102CB0001F9D45F1ACFA58AB4BE303932030FA5516
:102CC000AD766DF688CC7691F5024C254FE5D7FCB4
:102CD000C52ACBD726354480B562A38FDEB15A49C9
:102CE00025BA1B6745EA0E985DFEC0E1C32F750249
:102CF000814CF0128D4697A36BD3F9C6038F5FE723
:102D000015929C95BF6D7AEB955259DAD4BE832DFE
:102D1000587421D349E069298EC9C84475C2896AAB
:102D2000F48E797899583E6B27B971DDBEE14FB6C4
:102D3000F088AD17C920AC667DCE3AB463DF4A187F
:102D4000E51A31829751336062537F45B16477E071
:102D5000BB6BAE84FE81A01CF9082B9470486858A8
:102D60008F45FD1994DE6C87527BF8B7AB73D32384
:102D7000724B02E2E31F8F576655AB2AB2EB28076E
:102D80002FB5C20386C57B9AD33708A5302887F2B2
:102D900023BFA5B202036ABAED16825C8ACF1C2B50
:102DA000A779B492F307F2F04E69E2A165DAF4CDA7
:102DB0000605BED5D134621FC4A6FE8A342E539DAB
:102DC000A2F355A0058AE132A4F6EB750B83EC392A
:102DD0004060EFAA5E719F06BD6E10513E218AF9D8
:102DE00096DD063DDD3E05AE4DE6BD4691548DB502
:102DF00071C45D050406D46F605015FF1998FB245B
:102E0000D6BDE997894043CC67D99E77B0E842BDEB
:102E100007898B88E7195B3879C8EEDBA17C0A4704
:102E20007C420FE9F8841EC90000000009808683F7
:102E3000322BED481E1170AC6C5A724EFD0EFFFB2A
:102E40000F8538563DAED51E362D39270A0FD96469
:102E5000685CA6219B5B54D124362E3A0C0A67B1DC
:102E60009357E70FB4EE96D21B9B919E80C0C54F3F
:102E700061DC20A25A774B691C121A16E293BA0A37
:102E8000C0A02AE53C22E043121B171D0E090D0BC2
:102E9000F28BC7AD2DB6A8B9141EA9C857F1198574
:102EA000AF75074CEE99DDBBA37F60FDF701269F50
:102EB0005C72F5BC44663BC55BFB7E348B43297674
:102EC000CB23C6DCB6EDFC68B8E4F163D731DCCACD
:102ED000426385101397224084C61120854A247DC1
:102EE000D2BB3DF8AEF93211C729A16D1D9E2F4B03
:102EF000DCB230F30D8652EC77C1E3D02BB3166C05
:102F0000A970B999119448FA47E96422A8FC8CC4C5
:102F1000A0F03F1A567D2CD8223390EF87494EC738
:102F2000D938D1C18CCAA2FE98D40B36A6F581CF70
:102F3000A57ADE28DAB78E263FADBFA42C3A9DE4F1
:102F40005078920D6A5FCC9B547E4662F68D13C218
:102F500090D8B8E82E39F75E82C3AFF59F5D80BE8A
:102F600069D0937C6FD52DA9CF2512B3C8AC993BFE
:102F700010187DA7E89C636EDB3BBB7BCD267809F0
:102F80006E5918F4EC9AB701834F9AA8E6956E65CE
:102F9000AAFFE67E21BCCF08EF15E8E6BAE79BD989
:102FA0004A6F36CEEA9F09D429B07CD631A4B2AF9D
:102FB0002A3F2331C6A5943035A266C0744EBC3773
:102FC000FC82CAA6E090D0B033A7D815F104984A85
:102FD00041ECDAF77FCD500E1791F62F764DD68D56
:102FE00043EFB04DCCAA4D54E49604DF9ED1B5E337
:102FF0004C6A881BC12C1FB84665517F9D5EEA0450
:10300000018C355DFA877473FB0B412EB3671D5A33
:1030100092DBD252E91056336DD647139AD7618CA2
:1030200037A10C7A59F8148EEB133C89CEA927EE00
:10303000B761C935E11CE5ED7A47B13C9CD2DF5957
:1030400055F2733F1814CE7973C737BF53F7CDEAE3
:103050005FFDAA5BDF3D6F147844DB86CAAFF38166
:10306000B968C43E3824342CC2A3405F161DC37215
:10307000BCE2250C283C498BFF0D954139A8017114
:10308000080CB3DED8B4E49C6456C1907BCB846159
:10309000D532B670486C5C74D0B857425051F4A722
:1030A000537E4165C31A17A4963A275ECB3BAB6BA0
:1030B000F11F9D45ABACFA58934BE303552030FA12
:1030C000F6AD766D9188CC7625F5024CFC4FE5D7B0
:1030D000D7C52ACB802635448FB562A349DEB15AC5
:1030E0006725BA1B9845EA0EE15DFEC002C32F7545
:1030F00012814CF0A38D4697C66BD3F9E7038F5F1F
:103100009515929CEBBF6D7ADA9552592DD4BE83FA
:10311000D35874212949E069448EC9C86A75C289A7
:1031200078F48E796B99583EDD27B971B6BEE14FC0
:1031300017F088AD66C920ACB47DCE3A1863DF4A7B
:1031400082E51A31609751334562537FE0B164776D
:1031500084BB6BAE1CFE81A094F9082B58704868A4
:10316000198F45FD8794DE6CB7527BF823AB73D380
:10317000E2724B0257E31F8F2A6655AB07B2EB286A
:10318000032FB5C29A86C57BA5D33708F2302887AE
:10319000B223BFA5BA02036A5CED16822B8ACF1C4C
:1031A00092A779B4F0F307F2A14E69E2CD65DAF4A3
:1031B000D50605BE1FD134628AC4A6FE9D342E53A7
:1031C000A0A2F35532058AE175A4F6EB390B83EC26
:1031D000AA4060EF065E719F51BD6E10F93E218AD4
:1031E0003D96DD06AEDD3E05464DE6BDB591548DFE
:1031F0000571C45D6F0406D4FF605015241998FB57
:1032000097D6BDE9CC8940437767D99EBDB0E842E7
:103210008807898B38E7195BDB79C8EE47A17C0A00
:10322000E97C420FC9F8841E0000000083098086F3
:1032300048322BEDAC1E11704E6C5A72FBFD0EFF26
:10324000560F85381E3DAED527362D39640A0FD965
:1032500021685CA6D19B5B543A24362EB10C0A67D8
:103260000F9357E7D2B4EE969E1B9B914F80C0C53B
:10327000A261DC20695A774B161C121A0AE293BA33
:10328000E5C0A02A433C22E01D121B170B0E090DBE
:10329000ADF28BC7B92DB6A8C8141EA98557F11970
:1032A0004CAF7507BBEE99DDFDA37F609FF701264C
:1032B000BC5C72F5C544663B345BFB7E768B432970
:1032C000DCCB23C668B6EDFC63B8E4F1CAD731DCC9
:1032D00010426385401397222084C6117D854A24BD
:1032E000F8D2BB3D11AEF9326DC729A14B1D9E2FFF
:1032F000F3DCB230EC0D8652D077C1E36C2BB31601
:1033000099A970B9FA1194482247E964C4A8FC8CC1
:103310001AA0F03FD8567D2CEF223390C787494E34
:10332000C1D938D1FE8CCAA23698D40BCFA6F5816C
:1033300028A57ADE26DAB78EA43FADBFE42C3A9DED
:103340000D5078929B6A5FCC62547E46C2F68D1314
:10335000E890D8B85E2E39F7F582C3AFBE9F5D8086
:103360007C69D093A96FD52DB3CF25123BC8AC99FA
:10337000A710187D6EE89C637BDB3BBB09CD2678EC
:10338000F46E591801EC9AB7A8834F9A65E6956ECA
:103390007EAAFFE60821BCCFE6EF15E8D9BAE79B85
:1033A000CE4A6F36D4EA9F09D629B07CAF31A4B299
:1033B000312A3F2330C6A594C035A26637744EBC6F
:1033C000A6FC82CAB0E090D01533A7D84AF1049881
:1033D000F741ECDA0E7FCD502F1791F68D764DD652
:1033E0004D43EFB054CCAA4DDFE49604E39ED1B533
:1033F0001B4C6A88B8C12C1F7F466551049D5EEA4C
:103400005D018C3573FA87742EFB0B415AB3671D2F
:103410005292DBD233E91056136DD6478C9AD7619E
:103420007A37A10C8E59F81489EB133CEECEA927FC
:1034300035B761C9EDE11CE53C7A47B1599CD2DF53
:103440003F55F273791814CEBF73C737EA53F7CDDF
:103450005B5FFDAA14DF3D6F867844DB81CAAFF362
:103460003EB968C42C3824345FC2A34072161DC311
:103470000CBCE2258B283C4941FF0D957139A80110
:10348000DE080CB39CD8B4E4906456C1617BCB8455
:1034900070D532B674486C5C42D0B857A75051F41E
:1034A00065537E41A4C31A175E963A276BCB3BAB9C
:1034B00045F11F9D58ABACFA03934BE3FA5520300E
:1034C0006DF6AD76769188CC4C25F502D7FC4FE5AC
:1034D000CBD7C52A44802635A38FB5625A49DEB1C1
:1034E0001B6725BA0E9845EAC0E15DFE7502C32F41
:1034F000F012814C97A38D46F9C66BD35FE7038F1B
:103500009C9515927AEBBF6D59DA9552832DD4BEF6
:1035100021D35874692949E0C8448EC9896A75C2A3
:103520007978F48E3E6B995871DD27B94FB6BEE1BC
:10353000AD17F088AC66C9203AB47DCE4A1863DF77
:103540003182E51A336097517F45625377E0B16469
:10355000AE84BB6BA01CFE812B94F90868587048A0
:10356000FD198F456C8794DEF8B7527BD323AB737C
:1035700002E2724B8F57E31FAB2A66552807B2EB66
:10358000C2032FB57B9A86C508A5D33787F23028AA
:10359000A5B223BF6ABA0203825CED161C2B8ACF48
:1035A000B492A779F2F0F307E2A14E69F4CD65DA9F
:1035B000BED50605621FD134FE8AC4A6539D342EA3
:1035C00055A0A2F3E132058AEB75A4F6EC390B8322
:1035D000EFAA40609F065E711051BD6E8AF93E21D0
:1035E000063D96DD05AEDD3EBD464DE68DB59154FA
:1035F0005D0571C4D46F040615FF6050FB24199853
:10360000E997D6BD43CC89409E7767D942BDB0E8E3
:103610008B8807895B38E719EEDB79C80A47A17CFC
:103620000FE97C421EC9F8840000000086830980EF
:10363000ED48322B70AC1E11724E6C5AFFFBFD0E22
:1036400038560F85D51E3DAE3927362DD9640A0F61
:10365000A621685C54D19B5B2E3A243667B10C0AD4
:10366000E70F935796D2B4EE919E1B9BC54F80C037
:1036700020A261DC4B695A771A161C12BA0AE2932F
:103680002AE5C0A0E0433C22171D121B0D0B0E09BA
:10369000C7ADF28BA8B92DB6A9C8141E198557F16C
:1036A000074CAF75DDBBEE9960FDA37F269FF70148
:1036B000F5BC5C723BC544667E345BFB29768B436C
:1036C000C6DCCB23FC68B6EDF163B8E4DCCAD731C5
:1036D0008510426322401397112084C6247D854AB9
:1036E0003DF8D2BB3211AEF9A16DC7292F4B1D9EFB
:1036F00030F3DCB252EC0D86E3D077C1166C2BB3FD
:10370000B999A97048FA1194642247E98CC4A8FCBD
:103710003F1AA0F02CD8567D90EF22334EC7874930
:10372000D1C1D938A2FE8CCA0B3698D481CFA6F568
:10373000DE28A57A8E26DAB7BFA43FAD9DE42C3AE9
:10374000920D5078CC9B6A5F4662547E13C2F68D10
:10375000B8E890D8F75E2E39AFF582C380BE9F5D82
:10376000937C69D02DA96FD512B3CF25993BC8ACF6
:103770007DA71018636EE89CBB7BDB3B7809CD26E8
:1037800018F46E59B701EC9A9AA8834F6E65E695C6
:10379000E67EAAFFCF0821BCE8E6EF159BD9BAE781
:1037A00036CE4A6F09D4EA9F7CD629B0B2AF31A495
:1037B00023312A3F9430C6A566C035A2BC37744E6B
:1037C000CAA6FC82D0B0E090D81533A7984AF1047D
:1037D000DAF741EC500E7FCDF62F1791D68D764D4E
:1037E000B04D43EF4D54CCAA04DFE496B5E39ED12F
:1037F000881B4C6A1FB8C12C517F4665EA049D5E48
:10380000355D018C7473FA87412EFB0B1D5AB3672B
:10381000D25292DB5633E91047136DD6618C9AD79A
:103820000C7A37A1148E59F83C89EB1327EECEA9F8
:10383000C935B761E5EDE11CB13C7A47DF599CD24F
:10384000733F55F2CE79181437BF73C7CDEA53F7DB
:10385000AA5B5FFD6F14DF3DDB867844F381CAAF5E
:10386000C43EB968342C3824405FC2A3C372161D0D
:10387000250CBCE2498B283C9541FF0D017139A80C
:10388000B3DE080CE49CD8B4C190645684617BCB51
:10389000B670D5325C74486C5742D0B8F4A750511A
:1038A0004165537E17A4C31A275E963AAB6BCB3B98
:1038B0009D45F11FFA58ABACE303934B30FA55200A
:1038C000766DF6ADCC769188024C25F5E5D7FC4FA8
:1038D0002ACBD7C53544802662A38FB5B15A49DEBD
:1038E000BA1B6725EA0E9845FEC0E15D2F7502C33D
:1038F0004CF012814697A38DD3F9C66B8F5FE70317
:10390000929C95156D7AEBBF5259DA95BE832DD4F2
:103910007421D358E0692949C9C8448EC2896A759F
:103920008E7978F4583E6B99B971DD27E14FB6BEB8
:1039300088AD17F020AC66C9CE3AB47DDF4A186373
:103940001A3182E551336097537F45626477E0B165
:103950006BAE84BB81A01CFE082B94F9486858709C
:1039600045FD198FDE6C87947BF8B75273D323AB78
:103970004B02E2721F8F57E355AB2A66EB2807B262
:10398000B5C2032FC57B9A863708A5D32887F230A6
:10399000BFA5B223036ABA0216825CEDCF1C2B8A44
:1039A00079B492A707F2F0F369E2A14EDAF4CD659B
:1039B00005BED50634621FD1A6FE8AC42E539D349F
:1039C000F355A0A28AE13205F6EB75A483EC390B1E
:1039D00060EFAA40719F065E6E1051BD218AF93ECC
:1039E000DD063D963E05AEDDE6BD464D548DB591F6
:1039F000C45D057106D46F045015FF6098FB24194F
:103A0000BDE997D64043CC89D99E7767E842BDB0DF
:103A1000898B8807195B38E7C8EEDB797C0A47A1F8
:103A2000420FE97C841EC9F80000000080868309EB
:103A30002BED48321170AC1E5A724E6C0EFFFBFD1E
:103A40008538560FAED51E3D2D3927360FD9640A5D
:103A50005CA621685B54D19B362E3A240A67B10CD0
:103A600057E70F93EE96D2B49B919E1BC0C54F8033
:103A7000DC20A261774B695A121A161C93BA0AE22B
:103A8000A02AE5C022E0433C1B171D12090D0B0EB6
:103A90008BC7ADF2B6A8B92D1EA9C814F119855768
:103AA00075074CAF99DDBBEE7F60FDA301269FF744
:103AB00072F5BC5C663BC544FB7E345B4329768B68
:103AC00023C6DCCBEDFC68B6E4F163B831DCCAD7C1
:103AD0006385104297224013C61120844A247D85B5
:103AE000BB3DF8D2F93211AE29A16DC79E2F4B1DF7
:103AF000B230F3DC8652EC0DC1E3D077B3166C2BF9
:103B000070B999A99448FA11E9642247FC8CC4A8B9
:103B1000F03F1AA07D2CD8563390EF22494EC7872C
:103B200038D1C1D9CAA2FE8CD40B3698F581CFA664
:103B30007ADE28A5B78E26DAADBFA43F3A9DE42CE5
:103B400078920D505FCC9B6A7E4662548D13C2F60C
:103B5000D8B8E89039F75E2EC3AFF5825D80BE9F7E
:103B6000D0937C69D52DA96F2512B3CFAC993BC8F2
:103B7000187DA7109C636EE83BBB7BDB267809CDE4
:103B80005918F46E9AB701EC4F9AA883956E65E6C2
:103B9000FFE67EAABCCF082115E8E6EFE79BD9BA7D
:103BA0006F36CE4A9F09D4EAB07CD629A4B2AF3191
:103BB0003F23312AA59430C6A266C0354EBC377467
:103BC00082CAA6FC90D0B0E0A7D8153304984AF179
:103BD000ECDAF741CD500E7F91F62F174DD68D764A
:103BE000EFB04D43AA4D54CC9604DFE4D1B5E39E2B
:103BF0006A881B4C2C1FB8C165517F465EEA049D44
:103C00008C355D01877473FA0B412EFB671D5AB327
:103C1000DBD25292105633E9D647136DD7618C9A96
:103C2000A10C7A37F8148E59133C89EBA927EECEF4
:103C300061C935B71CE5EDE147B13C7AD2DF599C4B
:103C4000F2733F5514CE7918C737BF73F7CDEA53D7
:103C5000FDAA5B5F3D6F14DF44DB8678AFF381CA5A
:103C600068C43EB924342C38A3405FC21DC3721609
:103C7000E2250CBC3C498B280D9541FFA801713908
:103C80000CB3DE08B4E49CD856C19064CB84617B4D
:103C900032B670D56C5C7448B85742D070B403002B
:103CA00000249C424BDA11F8146001EB4400457883
:103CB000EDB2302D06DBEDB23A2D03DAB5F130006E
:103CC000105515E0EDB2412D06DBEDB2472D03DABC
:103CD000B5F1370010550BE0EDB2612D06DBEDB20A
:103CE000672D03DAB5F15700105501E0012027E0F8
:103CF000F6B2302E07DBF6B23A2E04DA105D50EA47
:103D00000610105519E0F6B2412E08DBF6B2472E28
:103D100005DA105D373E50EA061010550DE0F6B298
:103D2000612E08DBF6B2672E05DA105D573E50EAC9
:103D30000610105501E0012002E0641CB1E70020EC
:103D400070BC704701000020704780B54E4A0021CA
:103D5000762000F001F801BD30B403004B48006844
:103D60000B2801DB01201FE0412901D301201BE0CA
:103D7000474C464805680C2045436355444C43482E
:103D800005680C20454304EB05004160404C3F486A
:103D900005680C20454304EB050082603B48006841
:103DA000401C3A4C2060002030BC704770B5B2B067
:103DB00000F00DF9040000253448006885420ADA55
:103DC00033480C2101FB05F1405C2100C9B2884257
:103DD00001D06D1CF0E72D480068854234D00026E4
:103DE0002B480C2101FB05F108444068B6EB400F5D
:103DF0000DD200F0ECF80400E4B20A2C02D0E4B2D8
:103E00000D2C00D120E011A88455761CE8E700F0C5
:103E1000DEF80600F6B20A2E02D0F6B20D2E13D14D
:103E200001AA11A91A480C2303FB05F318444068A2
:103E3000FFF734FF002807D101A815490C2202FB27
:103E400005F211448968884732B070BDF8B50400A6
:103E50000D0016002000C0B200F0C4F80027AF42E9
:103E60000EDA0C48F15D0911405C00F0BBF809481E
:103E7000F15D11F00F01405C00F0B4F87F1CEEE73B
:103E80000A2000F0AFF8F1BD453D0008E801002030
:103E9000300100200000002010B592B003200590F2
:103EA000052006900020089000200C9005A8FDF742
:103EB00060F80F2000900120019000200290002067
:103EC000039000200490052421006846FDF7EDF9D9
:103ED00012B010BD00B587B04FF4C0600190022051
:103EE00002900120039002200490072005900020FA
:103EF00000904348006850F0010041490860404884
:103F0000006810F001000090009801A93D48FDF7FD
:103F100083FA3D483D4908604FF416403B494860EC
:103F200000203A49886000203849C860002037499D
:103F300008610020354988610C203449486100201F
:103F400000903348006850F0100031490860304854
:103F5000006810F01000009000982C48FDF74AFD12
:103F600007B000BD00B587B000200090244800686D
:103F700050F00100224908602148006810F001005B
:103F8000009000984FF48050019001200290002092
:103F900003900220049001A91A48FDF73DFA00227F
:103FA0004FF480511748FDF75CFB07B000BD80B5AA
:103FB00001224FF480511348FDF753FB01BD80B53A
:103FC00000224FF480510F48FDF74BFB01BD80B537
:103FD00041F28833012269460C48FDF7EAFD9DF85D
:103FE000000002BD10B582B004008DF8004041F21F
:103FF0008833012269460548FDF76BFD13BD0000BB
:10400000303802400000024000100140A8010020AA
:1040100044380240637C777BF26B6FC53001672BBD
:10402000FED7AB76CA82C97DFA5947F0ADD4A2AFAC
:104030009CA472C0B7FD9326363FF7CC34A5E5F1BA
:1040400071D8311504C723C31896059A071280E268
:10405000EB27B27509832C1A1B6E5AA0523BD6B3BC
:1040600029E32F8453D100ED20FCB15B6ACBBE392C
:104070004A4C58CFD0EFAAFB434D338545F9027F18
:10408000503C9FA851A3408F929D38F5BCB6DA21D1
:1040900010FFF3D2CD0C13EC5F974417C4A77E3DFD
:1040A000645D197360814FDC222A908846EEB81453
:1040B000DE5E0BDBE0323A0A4906245CC2D3AC6216
:1040C0009195E479E7C8376D8DD54EA96C56F4EA21
:1040D000657AAE08BA78252E1CA6B4C6E8DD741F32
:1040E0004BBD8B8A703EB5664803F60E613557B9F5
:1040F00086C11D9EE1F8981169D98E949B1E87E9AF
:10410000CE5528DF8CA1890DBFE6426841992D0F5D
:10411000B054BB1652096AD53036A538BF40A39EAD
:1041200081F3D7FB7CE339829B2FFF87348E434496
:10413000C4DEE9CB547B9432A6C2233DEE4C950BF2
:1041400042FAC34E082EA16628D924B2765BA24952
:104150006D8BD12572F8F66486689816D4A45CCC71
:104160005D65B6926C704850FDEDB9DA5E15465744
:10417000A78D9D8490D8AB008CBCD30AF7E458057A
:10418000B8B34506D02C1E8FCA3F0F02C1AFBD0386
:1041900001138A6B3A9111414F67DCEA97F2CFCE57
:1041A000F0B4E67396AC7422E7AD3585E2F937E8F2
:1041B0001C75DF6E47F11A711D29C5896FB7620E34
:1041C000AA18BE1BFC563E4BC6D279209ADBC0FE15
:1041D00078CD5AF41FDDA8338807C731B1121059C2
:1041E0002780EC5F60517FA919B54A0D2DE57A9FB4
:1041F00093C99CEFA0E03B4DAE2AF5B0C8EBBB3CA9
:1042000083539961172B047EBA77D626E16914632C
:1042100055210C7D10B50400200000F05AF8002054
:1042200010BD10B50400FFF7C2FE200000F059F8E1
:10423000FFF7C5FE220010217220FFF707FE0020C5
:1042400010BD01000020704700B585B068461A49CE
:10425000102200F051F8FFF71FFEFFF73BFEFFF7BB
:1042600081FE00F031F8684600F033F86820FFF76F
:10427000B9FE6520FFF7B6FE6C20FFF7B3FE6C2099
:10428000FFF7B0FE6F20FFF7ADFE0A20FFF7AAFE92
:10429000FFF75BFD094A10216B20FFF75DFD084A1F
:1042A00010217020FFF758FD064A00217820FFF703
:1042B00053FDFFF77BFDFCE7C044000815420008F2
:1042C000234200084342000880B50A48FBF7B8FEC5
:1042D00001BD10B50400802221000648FBF7BBFE9B
:1042E00010BD10B504002300220001210148FCF795
:1042F000EBFD10BD18000020103A07D330B4B1E830
:104300003810103AA0E83810F9D230BC530724BF57
:10431000B1E80810A0E8081044BF51F8043B40F889
:10432000043BD20724BF31F8022B20F8022B44BFF4
:104330000B7803707047083A07D3B1E80810083AC1
:1043400040F8043B40F804CBF7D25307E4E719E008
:1043500050F8042BD30744BFA9F101039A18091F91
:104360000023042942F8043BF9D25FEA817C13461A
:1043700004D54FF0000CA2F800C09B1CC90744BF35
:104380000021197050F8041B0029E1D1704700008A
:1043900010B500F013F802000023DB43002410687E
:1043A000984203D011000220ABBE146050689842BE
:1043B00003D0111D0220ABBE546010BD00487047F1
:1043C0001000002010B450F8041B79B10268436853
:1043D00002440830DC0744BFA9F10104E31852F895
:1043E000044B43F8044B091FF9D1ECE710BC7047AC
:1043F00001000000020000000400000008000000AE
:1044000010000000200000004000000080000000BC
:104410001B0000003600000010B507497944183130
:10442000064C7C44163404E00A68081D1144884791
:104430000146A142F8D110BD08000000280000008C
:104440000FFFFFFFD801000018000020000000004F
:1044500075FFFFFF18000000500000000000002062
:104460000000000000F00BF8002801D0FFF7D4FF97
:104470000020AFF30080FFF7E7FE00F002F8012014
:10448000704700F001B800000746384600F002F817
:10449000FBE7000080B5FFF77BFF024A1100182000
:1044A000ABBEFBE7260002003031323334353637FD
:1044B0003839414243444546FFFFFFFFFFFFFFFFFE
:1044C0002B7E151628AED2A6ABF7158809CF4F3C28
:0C44D000AFF30080AFF30080FFF7C4FFE3
:04000005080044D1DA
:00000001FF
