:020000040800F2
:10000000280A0020314500085F0E00085F0E000836
:100010005F0E00085F0E00085F0E00080000000081
:100020000000000000000000000000005F0E00085B
:100030005F0E0008000000005F0E00085F0E000861
:1000400070B504008C256D000026320029002000C8
:1000500000F006FF70BDF0B503001000803804D03A
:10006000403805D0403806D008E00A20186008E083
:100070000C20186005E00E20186002E01F20C0432D
:10008000F0E01C0008345C6000255009854215D260
:10009000A800085CAE008E19767836020643A800E8
:1000A0000818807800043043AE008E19F6783606C2
:1000B00006430420684326506D1CE6E718680A28AA
:1000C00004D00C2836D00E2870D0CAE000200500DD
:1000D0000A2D2ED22668644804276F43C059704009
:1000E000624EE7683F0AFFB2F65D46405F48E76848
:1000F0003F0CFFB2C05D000270405C4EE7683F0EEF
:10010000F65D360446405948277BFFB2C05D0006C5
:10011000704020616068266946406661A068666933
:100120004640A661E068A6694640E6616D1C103451
:10013000CEE796E000200500082D36D226684A4812
:1001400004276F43C0597040484E67693F0AFFB2A9
:10015000F65D4640454867693F0CFFB2C05D00024E
:100160007040424E67693F0EF65D360446403F4898
:10017000277DFFB2C05D00067040A0616068A6697F
:100180004640E661A068E66946402662E068266A65
:10019000464066622069666A4640A6626069A66A51
:1001A0004640E6626D1C1834C6E75AE000200500A0
:1001B000072D56D226682C4804276F43C05970403B
:1001C0002A4EE7693F0AFFB2F65D46402748E769D5
:1001D0003F0CFFB2C05D00027040244EE7693F0E45
:1001E000F65D360446402148277FFFB2C05D000619
:1001F000704020626068266A46406662A068666A4F
:100200004640A662E068A66A4640E6622069174E4C
:100210002C27E75DFFB2F65D46401448E76A3F0AC7
:10022000FFB2C05D00027040104EE76A3F0CFFB2A3
:10023000F65D360446400D48E76A3F0EC05D000695
:10024000704020636069266B46406663A069666BF8
:100250004640A663E069A66B4640E6636D1C203409
:10026000A6E70020F0BD0000484400088C400008CC
:10027000F1B587B0079840680B784C7824021C438E
:100280008B781D042543CB781B062B4304685C4008
:100290000194001D0B794C7924021C438B791D04B9
:1002A0002543CB791B062B4304685C400094001D5A
:1002B0000B7A4C7A24021C438B7A1D042543CB7A9B
:1002C0001B062B4304685C400694001D0B7B4C7B93
:1002D00024021C438B7B1B042343CC7B24061C433E
:1002E00003686340001D079C24686410641E012C91
:1002F00000DA57E10668F04DAC46019DEFB20425E7
:100300006F436546ED597540F24EB446009E360A7D
:10031000F7B2042677436646F7596F40EE4DAC4678
:10032000069D2D0CEEB204256E436546AD597D4009
:100330002F009B4DAC461E0E04256E436546AE59FC
:100340003D006E400596001D0668DB4DAC46009DE5
:10035000EFB204256F436546ED597540DD4EB44656
:10036000069E360AF7B2042677436646F7596F4071
:10037000D94DAC461D0CEEB204256E436546AD5911
:100380007D402F00864DAC46019D2E0E04256E4308
:100390006546AE593D006E400496001D0668C64D88
:1003A000AC46069DEFB204256F436546ED59754096
:1003B000C84EB4461E0AF7B2042677436646F7597C
:1003C0006F40C54DAC46019D2D0CEEB204256E4329
:1003D0006546AD597D402F00714DAC46009D2E0EF7
:1003E00004256E436546AE593D006E400396001DE0
:1003F0000668B14DAC46DFB204256F436546ED5942
:100400007540B44EB446019E360AF7B204267743CF
:100410006646F7596F40B04DAC46009D2D0CEEB2CC
:1004200004256E436546AD597D402F005C4DAC46BA
:10043000069D2E0E04256E436546AE593D006E4066
:100440000296001D06689C4DAC46059DEFB2042542
:100450006F436546ED5975409E4EB446049E360A7C
:10046000F7B2042677436646F7596F409A4DAC467B
:10047000039D2D0CEEB204256E436546AD597D40BB
:100480002F00474DAC46029D2E0E04256E43654657
:10049000AE593D006E400196001D0668864DAC4683
:1004A000049DEFB204256F436546ED597540894EB2
:1004B000B446039E360AF7B2042677436646F759D8
:1004C0006F40854DAC46029D2D0CEEB204256E4367
:1004D0006546AD597D402F00314DAC46059D2E0E31
:1004E00004256E436546AE593D006E400096001DE2
:1004F0000668714DAC46039DEFB204256F43654617
:10050000ED597540734EB446029E360AF7B2042682
:1005100077436646F7596F406F4DAC46059D2D0CED
:10052000EEB204256E436546AD597D402F001C4D4B
:10053000AC46049D2E0E04256E436546AE593D0023
:100540006E400696001D06685B4DAC46029DEFB2FC
:1005500004256F436546ED5975405E4EB446059ED1
:10056000360AF7B2042677436646F7596F405A4D6C
:10057000AC46049D2D0CEEB204256E436546AD5984
:100580007D402F00064DAC46039D2E0E04256E4384
:100590006546AE593D006E403300001D641EA6E660
:1005A000042900080668444DAC46019DEFB20425BD
:1005B0006F436546ED597540464EB446009E360A77
:1005C000F7B2042677436646F7596F40424DAC4672
:1005D000069D2D0CEEB204256E436546AD597D4057
:1005E0002F009A4DAC461E0E04256E436546AE594B
:1005F0003D006E400596001D06682F4DAC46009DDF
:10060000EFB204256F436546ED597540314EB4464F
:10061000069E360AF7B2042677436646F7596F40BE
:100620002D4DAC461D0CEEB204256E436546AD590A
:100630007D402F00854DAC46019D2E0E04256E4356
:100640006546AE593D006E400496001D06681A4D81
:10065000AC46069DEFB204256F436546ED597540E3
:100660001C4EB4461E0AF7B2042677436646F75975
:100670006F40194DAC46019D2D0CEEB204256E4322
:100680006546AD597D402F00704DAC46009D2E0E45
:1006900004256E436546AE593D006E400396001D2D
:1006A0000668054DAC46DFB204256F436546ED593B
:1006B0007540084E02E000BF041D0008B446019ECC
:1006C000360AF7B2042677436646F7596F40024D63
:1006D00004E000BF0421000804250008AC46009D8A
:1006E0002D0CEEB204256E436546AD597D402F00BA
:1006F000564DAC46069D2E0E04256E436546AE59FA
:100700003D006E400296051D2868514E059FFFB2C0
:10071000F65D46404E48049F3F0AFFB2C05D0002AE
:1007200070404B4E039F3F0CFFB2F65D36044640CF
:100730004748029F3F0EC05D0006704001902D1D8E
:100740002868434E049FFFB2F65D46404048039F31
:100750003F0AFFB2C05D000270403D4E029F3F0C59
:10076000FFB2F65D360446403948059F3F0EC05D36
:10077000000670400090281D0568354E039FFFB2AB
:10078000F65D6E40324D029F3F0AFFB2ED5D2D02D5
:1007900075402F4E059F3F0CFFB2F65D36046E404C
:1007A0002B4D049F3F0EED5D2D067540001D076823
:1007B000BC46274F029EF6B2BE5D67467E40B446F9
:1007C000234F059E360AF6B2BE5D360267467E406E
:1007D000B4461F4F049E360CF6B2BE5D3604674623
:1007E0007E40B4461A4F039E360EBE5D36066746FF
:1007F0007E40071D019810700198000A5070019802
:10080000000C90700198000ED07000981071009844
:10081000000A50710098000C90710098000ED07181
:1008200028001072280A50722800000C9072280EBE
:10083000D07230001073300A50733000000C907387
:10084000300ED073002008B0F0BD0000042900086D
:100850008C400008F1B587B0079840680B784C7859
:1008600024021C438B781D042543CB781B062B43A5
:1008700004685C400194001D0B794C7924021C43F0
:100880008B791D042543CB791B062B4304685C4000
:100890000094001D0B7A4C7A24021C438B7A1D04B1
:1008A0002543CB7A1B062B4304685C400694001D4D
:1008B0000B7B4C7B24021C438B7B1B042343CC7B94
:1008C00024061C4303686340001D079C24686410D1
:1008D000641E012C00DA57E10668F04DAC46019D1C
:1008E000EFB204256F436546ED597540F24EB446AC
:1008F0001E0AF7B2042677436646F7596F40EF4D5C
:10090000AC46069D2D0CEEB204256E436546AD59EE
:100910007D402F009B4DAC46009D2E0E04256E435E
:100920006546AE593D006E400596001D0668DB4DDC
:10093000AC46009DEFB204256F436546ED59754006
:10094000DD4EB446019E360AF7B20426774366466A
:10095000F7596F40D94DAC461D0CEEB204256E43DD
:100960006546AD597D402F00864DAC46069D2E0E46
:1009700004256E436546AE593D006E400496001D49
:100980000668C64DAC46069DEFB204256F4365462A
:10099000ED597540C84EB446009E360AF7B204269B
:1009A00077436646F7596F40C44DAC46019D2D0C08
:1009B000EEB204256E436546AD597D402F00714D62
:1009C000AC461E0E04256E436546AE593D006E4092
:1009D0000396001D0668B14DAC46DFB204256F4397
:1009E0006546ED597540B44EB446069E360AF7B2D8
:1009F000042677436646F7596F40B04DAC46009DDC
:100A00002D0CEEB204256E436546AD597D402F0096
:100A10005C4DAC46019D2E0E04256E436546AE59D5
:100A20003D006E400296001D06689C4DAC46059D3B
:100A3000EFB204256F436546ED5975409E4EB446AE
:100A4000029E360AF7B2042677436646F7596F408E
:100A50009A4DAC46039D2D0CEEB204256E436546BF
:100A6000AD597D402F00474DAC46049D2E0E042508
:100A70006E436546AE593D006E400196001D066806
:100A8000864DAC46049DEFB204256F436546ED5993
:100A90007540894EB446059E360AF7B20426774360
:100AA0006646F7596F40854DAC46029D2D0CEEB25F
:100AB00004256E436546AD597D402F00314DAC464F
:100AC000039D2E0E04256E436546AE593D006E40D3
:100AD0000096001D0668714DAC46039DEFB20425DB
:100AE0006F436546ED597540734EB446049E360A11
:100AF000F7B2042677436646F7596F406F4DAC4610
:100B0000059D2D0CEEB204256E436546AD597D4022
:100B10002F001C4DAC46029D2E0E04256E436546EB
:100B2000AE593D006E400696001D06685B4DAC4612
:100B3000029DEFB204256F436546ED5975405E4E48
:100B4000B446039E360AF7B2042677436646F75941
:100B50006F405A4DAC46049D2D0CEEB204256E43F9
:100B60006546AD597D402F00064DAC46059D2E0EC5
:100B700004256E436546AE593D006E403300001DAE
:100B8000641EA6E6043900080668444DAC46019D83
:100B9000EFB204256F436546ED597540464EB446A5
:100BA0001E0AF7B2042677436646F7596F40434D55
:100BB000AC46069D2D0CEEB204256E436546AD593C
:100BC0007D402F009A4DAC46009D2E0E04256E43AD
:100BD0006546AE593D006E400596001D06682F4DD6
:100BE000AC46009DEFB204256F436546ED59754054
:100BF000314EB446019E360AF7B204267743664664
:100C0000F7596F402D4DAC461D0CEEB204256E43D6
:100C10006546AD597D402F00854DAC46069D2E0E94
:100C200004256E436546AE593D006E400496001D96
:100C300006681A4DAC46069DEFB204256F43654623
:100C4000ED5975401C4EB446009E360AF7B2042694
:100C500077436646F7596F40184DAC46019D2D0C01
:100C6000EEB204256E436546AD597D402F00704DB0
:100C7000AC461E0E04256E436546AE593D006E40DF
:100C80000396001D0668054DAC46DFB204256F4390
:100C90006546ED597540084E02E000BF042D00087E
:100CA000B446069E360AF7B2042677436646F759DD
:100CB0006F40024D04E000BF043100080435000815
:100CC000AC46009D2D0CEEB204256E436546AD5931
:100CD0007D402F00564DAC46019D2E0E04256E43DF
:100CE0006546AE593D006E400296051D2868514E7E
:100CF000059FFFB2F65D46404E48029F3F0AFFB295
:100D0000C05D000270404B4E039F3F0CFFB2F65D8A
:100D1000360446404748049F3F0EC05D00067040C1
:100D200001902D1D2868434E049FFFB2F65D46409A
:100D30004048059F3F0AFFB2C05D000270403D4E33
:100D4000029F3F0CFFB2F65D360446403948039FD0
:100D50003F0EC05D000670400090281D0568354EAE
:100D6000039FFFB2F65D6E40324D049F3F0AFFB213
:100D7000ED5D2D0275402F4E059F3F0CFFB2F65DD5
:100D800036046E402B4D029F3F0EED5D2D067540E3
:100D9000001D0768BC46274F029EF6B2BE5D67463F
:100DA0007E40B446234F039E360AF6B2BE5D36023D
:100DB00067467E40B4461F4F049E360CF6B2BE5DB9
:100DC000360467467E40B4461A4F059E360EBE5D19
:100DD000360667467E40071D019810700198000A8C
:100DE00050700198000C90700198000ED07000981F
:100DF00010710098000A50710098000C90710098D2
:100E0000000ED07128001072280A50722800000CC1
:100E10009072280ED07230001073300A5073300078
:100E2000000C9073300ED073002008B0F0BD0000AD
:100E3000043900088C410008F8B505000E001400C4
:100E40001F00012E05D13A0021002800FFF710FAFB
:100E500004E03A0021002800FFF7FCFCF2BDFEE7A9
:100E60001206130A1A43130C1A4300BF094205D095
:100E7000830705D00270401C491EF9D1704700005D
:100E8000130030B414001500103902D310393CC0DF
:100E9000FCD2490700D30CC000D504C0890002D39E
:100EA0000280801C002900D5027030BC7047000011
:100EB000034800680100491C014A116070470000A6
:100EC00020020020E120C0037047E120C0037047EA
:100ED00070B582B0040000252078C00770D5AB48FB
:100EE00000680C210140042909D0A84800680C21A1
:100EF000014008290CD1A5480068C00308D5BB48AB
:100F0000006880035CD56068002859D1012033E275
:100F10006068012807D1B548006880214902014373
:100F2000B24801602DE0606800280CD1AF4800682D
:100F3000AF490140AD480160AC480068AD4901408F
:100F4000AA4801601DE0606805280ED1A748006826
:100F50008021C9020143A5480160A448006880219E
:100F600049020143A14801600BE0A0480068A04984
:100F700001409E4801609D4800689E4901409B4891
:100F80000160606800280DD0FFF792FF05009748C8
:100F90000068800314D4FFF78BFF401B6528F6D34D
:100FA0000320E9E1FFF784FF050090480068800313
:100FB00006D5FFF77DFF401B6528F6D30320DBE154
:100FC0002078800757D5714800680C21014000291E
:100FD00009D06E4800680C210140082916D16B48E1
:100FE0000068C00312D481480068800704D5E06817
:100FF000012801D00120BFE17C480068F821884326
:101000002169C90001437948016034E0E0680028A3
:101010001DD0764800680121014374480160FFF744
:1010200047FF050071480068800706D4FFF740FFBE
:10103000401B0328F6D303209EE16C480068F8218A
:1010400088432169C90001436848016013E067488B
:1010500000680121884365490860FFF729FF050002
:1010600062480068800706D5FFF722FF401B03286F
:10107000F6D3032080E1207800072AD5E069002814
:1010800013D0BE48006801210143BC480160FFF74E
:101090000FFF0500B948006880071AD4FFF708FF62
:1010A000401B0328F6D3032066E1B4480068012101
:1010B0008843B2490860FFF7FBFE0500AF480068AF
:1010C000800706D5FFF7F4FE401B0328F6D3032064
:1010D00052E12078400700D497E00026A848006835
:1010E000C0000FD4A6480068802149050143A448E8
:1010F0000160A348006880214905084000900098DD
:10110000012006009F480068C00514D49D4800686F
:101110008021490001439B480160FFF7C9FE05009B
:1011200098480068C00506D4FFF7C2FE401B65283A
:10113000F6D3032020E1A068012806D19248006878
:1011400001210143904801602EE0A06800280CD1E5
:101150008D480068012188438B4908608A480068EF
:1011600004218843884908601EE0A06805280FD143
:101170008548006804210143834801608248006873
:1011800001210143804801600EE000BF04100240CD
:101190007D480068012188437B4908607A480068DF
:1011A0000421884378490860A06800280ED0FFF722
:1011B0007FFE05007448006880071DD4FFF778FEA5
:1011C000401B72498842F5D30320D5E0FFF770FE3B
:1011D00005006D48006880070ED5FFF769FE401BCB
:1011E0006A498842F5D30320C6E000BF00100240E0
:1011F000FFFFFEFFFFFFFBFFF6B2012E05D16048A7
:101200000068634901405E4801602078C00655D5FA
:101210006069012823D1B148006804210143AF4827
:101220000160AE48006801210143AC480160FFF74E
:101230003FFE0500A9480068800706D4FFF738FE86
:10124000401B0328F6D3032096E0A4480068F82149
:101250008843A169C9000143A04801602EE060698C
:101260000421C94388420FD19C4800680421884367
:101270009A49086099480068F8218843A169C90023
:1012800001439648016019E0944800680421014335
:101290009248016091480068012188438F490860A5
:1012A000FFF706FE05008D480068800706D5FFF7AA
:1012B000FFFD401B0328F6D303205DE0206A0028D1
:1012C00059D0874800680C210140082951D0206A74
:1012D00002283AD18348006883490140814801606F
:1012E000FFF7E6FD06007F480068800106D5FFF79E
:1012F000DFFD801B0328F6D303203DE07B48006818
:101300000F218843E16A014378480160744800680E
:1013100077490140A06A0843616A0143704801604F
:10132000704800688021490401436E480160FFF75E
:10133000BFFD05006B48006880011CD4FFF7B8FDB5
:10134000401B0328F6D3032016E066480068664970
:10135000014064480160FFF7ABFD0500614800688B
:10136000800108D5FFF7A4FD401B0328F6D3032016
:1013700002E0012000E0002076BD000024100240C1
:101380001C10024000700040201002408913000031
:10139000FFFFFFEF70B505000C0000265548006800
:1013A0000100C907C90FA1420FD2524800680121AC
:1013B000884320434F4908604E4800680100C90730
:1013C000C90FA14201D0012087E02878800707D506
:1013D00043480068F0218843A96801434048016000
:1013E0002878C00752D56868012805D13D480068B3
:1013F000800310D4012070E06868022805D13948C4
:101400000068800107D4012067E036480068800743
:1014100001D4012061E032480068032188436968F3
:1014200001432F480160FFF743FD0600686801286B
:101430000DD12B4800680C210140042926D0FFF76C
:1014400037FD801B2C498842F3D3032045E06868B0
:1014500002280DD1224800680C210140082915D02E
:10146000FFF726FD801B24498842F3D3032034E094
:101470001B4800680C210140002907D0FFF718FD28
:10148000801B1D498842F3D3032026E019480068D9
:101490000100C907C90F8C420FD21648006801210C
:1014A0008843204313490860124800680100C907B7
:1014B000C90FA14201D001200FE02878400707D5CD
:1014C000074800680D490140E8680843044908607E
:1014D000E120C0030A490860002070BD34100240BA
:1014E0000410024000100240FFFFFFFE2C100240DB
:1014F000FFFFC2FF0020024089130000FFF8FFFF3A
:1015000010000020F8B50022002300240D68D5400B
:10151000002D00D1E5E00D68012696402E403300F5
:10152000002B00D1DBE04D68022D02D04D68122D5A
:101530001ED1D5080426754345192E6A0F27BC46CF
:1015400015006D076D0F04277D436746AF40BE430E
:101550000D69AC4615006F077F0F04256F43654684
:10156000BD4035432C00D5080426754345192C622F
:1015700007680325AC46160002256E436546B54054
:10158000AF430D79AD07AD0FAC46160002256E4393
:101590006546B5403D4305604E68012E08D04C6855
:1015A000022C05D04C68112C02D04C68122C1FD193
:1015B00087680324A4461600022466436446B440A8
:1015C000A743CC68A4461600022466436446B44090
:1015D0003C438460476801269640B743BC464F6849
:1015E0003E00F606F60F964067463E4335004560DE
:1015F000C7680324A4461600022466436446B44028
:10160000A7438C68A4461600022466436446B4408F
:101610003C43C4604E68F60061D56F4D2D680126CD
:101620002E436D4D2E606C4D2D682E00F607F60F83
:101630000096009D694D960804277E43AE590F27FA
:10164000BC461500AD07AD0F04277D436746AF408C
:10165000BE439025ED05A84201D100240FE0604C67
:10166000A04201D101240AE05E4CA04201D1022433
:1016700005E05D4CA04201D1032400E005241500E3
:10168000AD07AD0F04277D43AC403443534D96085E
:1016900004277E43AC51554D2D689D434E68F6039B
:1016A00000D51D43514C2560514C24689C434E6825
:1016B000B60300D51C434E4D2C604E4D2D689D4306
:1016C0004E68F60200D51D434A4C2560B64C24688E
:1016D0009C434E68B60200D51C43B34D2C60521C8F
:1016E00014E7F1BD00B5D2B2002A02D089B28161FF
:1016F00001E089B2816200BDF4B504000D001F0055
:10170000069E2068C0692840A84201D1012000E05F
:10171000002069460978884221D10020C0438642D2
:10172000EFD0002E04D0FFF7C3FBC01B8642E8D2E7
:1017300020680068B849014020680160206880681E
:10174000012188432168886020206921605420207D
:101750006A216054002068216054032000E00020CA
:10176000F2BD000070B582B0040000260020E066E3
:10177000FFF79EFB05002068A849884221D1206818
:10178000006800070CD5A64800902B00002280219D
:1017900089032000FFF7B0FF002801D003201AE0E2
:1017A0002068006840070CD59D4800902B0000225F
:1017B0008021C9032000FFF79FFF002801D00320EC
:1017C00009E020206921605420206A216054002013
:1017D00068216054002076BD1810024008000140C6
:1017E0000004004800080048000C004800040140C4
:1017F0000404014008040140F0B583B00500002155
:10180000102000226B461A8000260027AA682B6948
:1018100013436C691C43EA6922432B681C68814BA3
:10182000234013432C6823602B685C687E4B234065
:10183000EC681C432B685C60AC692B6A2343019302
:101840002B689C68794B2340019C1C432B689C604F
:101850002B68724CA34215D1BA4909688907890FD0
:10186000002905D0022909D006D3032902D007E0B8
:1018700000240EE002240CE004240AE0082408E01E
:10188000102406E02968B04A914201D1002400E00A
:101890001024E86980210902884246D1E4B2200080
:1018A000002806D0022810D0042817D0082821D0FC
:1018B0002AE0FFF70AFB02214843696849084018FB
:1018C000696800F0C6F9060020E0686840089F4992
:1018D0004018696800F0BDF9060017E0FFF7F2FA5A
:1018E00002214843696849084018696800F0B1F965
:1018F00006000BE0686840088021490240186968CA
:1019000000F0A7F9060001E00120070090483040F0
:101910006946320092B252085207520F02430A80BF
:10192000684600882968C8603BE0E4B220000028CF
:1019300006D0022810D0042819D0082823D02EE081
:10194000FFF7C3FA696849084018696800F081F92F
:1019500080B22968C86024E0686840087D49401862
:10196000696800F076F980B22968C86019E0FFF76D
:10197000A9FA696849084018696800F06AF980B2F4
:101980002968C8600DE06868400880210902401895
:10199000696800F05EF980B22968C86001E0012042
:1019A00007003800C0B2FEBD0C04014010B50400B1
:1019B000002C01D101202EE0A0690028FFD1692070
:1019C000205C002802D10020682160542420692175
:1019D0006054206800680121884321680860200065
:1019E000FFF70AFF012801D1012014E020684068B8
:1019F0005949014020684160206880682A21884355
:101A00002168886020680068012101432068016026
:101A10002000FFF7A7FE10BD5FFEFFFF003801406A
:101A2000FFFFFF01F369FFFFFFCFFFFFFFF4FFFFA1
:101A3000F8B584B005000C00170000266A20285C69
:101A400020287BD1002C02D0BFB2002F01D1012071
:101A500075E0A86880214901884207D128690028DB
:101A600004D12000C00701D5012068E06820285C6F
:101A7000012801D1022062E0012068216854002081
:101A8000E86622206A216854FFF712FA0190582074
:101A90002F525A202F52A8688021490188420AD12A
:101AA0002869002803D12D485C21685210E0FF20EE
:101AB0005C2168520CE0A868002809D12869002838
:101AC00003D1FF205C21685202E07F205C21685234
:101AD0005C202E5A5A20285A002827D05A20285AEB
:101AE000401E5A21685204980090019B0022202138
:101AF0002800FFF701FE002801D003201FE0A8689E
:101B00008021490188420AD12869002807D102941E
:101B10002868808C304002990880A41CDAE7286885
:101B2000808C310001402170641CD3E720206A21A1
:101B30006854002068216854002000E0022005B0AD
:101B4000F0BD000030100240004400400048E801B1
:101B5000F0FF00000024F400FFB7FFFFFF010000CA
:101B6000FCB583B005000C0000266920285C202805
:101B70006CD1002C03D068468089002801D1012057
:101B800065E0A86880214901884207D128690028BA
:101B900004D12000C00701D5012058E06820285C4E
:101BA000012801D1022052E0012068216854002060
:101BB000E866212069216854FFF77AF90700684632
:101BC000808950216852684680895221685252208B
:101BD000285A002826D05220285A401E52216852E6
:101BE000049800903B00002280212800FFF784FD2C
:101BF000002801D003202AE0A868802149018842FA
:101C00000BD12869002808D1019401980088C005EB
:101C1000C00D29680885A41CD9E7207829680885A3
:101C2000641CD4E7049800903B0000224021280067
:101C3000FFF762FD002801D0032008E02020692181
:101C40006854002068216854002000E0022005B09C
:101C5000F0BD0022030A8B420BD203098B4219D23A
:101C600043088B422ED2411A00D2014652411046FF
:101C70007047FF2209023FD012068B4205D3121291
:101C800009028B4201D31212090203098B4219D3B4
:101C900000E0090AC3098B4201D3CB01C01A5241AB
:101CA00083098B4201D38B01C01A524143098B42F5
:101CB00001D34B01C01A524103098B4201D30B01DE
:101CC000C01A5241C3088B4201D3CB00C01A524103
:101CD00083088B4201D38B00C01A524143088B42C8
:101CE00001D34B00C01A5241884200D3401A5241DE
:101CF000CFD201461046704708B500F001F808BD84
:101D000070470000C66363A5F87C7C84EE77779902
:101D1000F67B7B8DFFF2F20DD66B6BBDDE6F6FB184
:101D200091C5C5546030305002010103CE6767A9E8
:101D3000562B2B7DE7FEFE19B5D7D7624DABABE630
:101D4000EC76769A8FCACA451F82829D89C9C9409E
:101D5000FA7D7D87EFFAFA15B25959EB8E4747C9DC
:101D6000FBF0F00B41ADADECB3D4D4675FA2A2FDA4
:101D700045AFAFEA239C9CBF53A4A4F7E4727296CC
:101D80009BC0C05B75B7B7C2E1FDFD1C3D9393AE30
:101D90004C26266A6C36365A7E3F3F41F5F7F702ED
:101DA00083CCCC4F6834345C51A5A5F4D1E5E5343F
:101DB000F9F1F108E2717193ABD8D8736231315304
:101DC0002A15153F0804040C95C7C75246232365FE
:101DD0009DC3C35E30181828379696A10A05050FD3
:101DE0002F9A9AB50E070709241212361B80809B82
:101DF000DFE2E23DCDEBEB264E2727697FB2B2CD85
:101E0000EA75759F1209091B1D83839E582C2C743B
:101E1000341A1A2E361B1B2DDC6E6EB2B45A5AEED3
:101E20005BA0A0FBA45252F6763B3B4DB7D6D661E1
:101E30007DB3B3CE5229297BDDE3E33E5E2F2F71C4
:101E400013848497A65353F5B9D1D16800000000DC
:101E5000C1EDED2C40202060E3FCFC1F79B1B1C83E
:101E6000B65B5BEDD46A6ABE8DCBCB4667BEBED98E
:101E70007239394B944A4ADE984C4CD4B05858E8E1
:101E800085CFCF4ABBD0D06BC5EFEF2A4FAAAAE5CA
:101E9000EDFBFB16864343C59A4D4DD7663333554C
:101EA000118585948A4545CFE9F9F91004020206A7
:101EB000FE7F7F81A05050F0783C3C44259F9FBA24
:101EC0004BA8A8E3A25151F35DA3A3FE804040C0FC
:101ED000058F8F8A3F9292AD219D9DBC7038384806
:101EE000F1F5F50463BCBCDF77B6B6C1AFDADA75DD
:101EF0004221216320101030E5FFFF1AFDF3F30E9D
:101F0000BFD2D26D81CDCD4C180C0C1426131335D5
:101F1000C3ECEC2FBE5F5FE1359797A2884444CCB9
:101F20002E17173993C4C45755A7A7F2FC7E7E829B
:101F30007A3D3D47C86464ACBA5D5DE73219192B40
:101F4000E6737395C06060A0198181989E4F4FD150
:101F5000A3DCDC7F44222266542A2A7E3B9090AB8D
:101F60000B8888838C4646CAC7EEEE296BB8B8D377
:101F70002814143CA7DEDE79BC5E5EE2160B0B1D56
:101F8000ADDBDB76DBE0E03B64323256743A3A4E4E
:101F9000140A0A1E924949DB0C06060A4824246CDE
:101FA000B85C5CE49FC2C25DBDD3D36E43ACACEF02
:101FB000C46262A6399191A8319595A4D3E4E4371F
:101FC000F279798BD5E7E7328BC8C8436E3737593A
:101FD000DA6D6DB7018D8D8CB1D5D5649C4E4ED226
:101FE00049A9A9E0D86C6CB4AC5656FAF3F4F407DE
:101FF000CFEAEA25CA6565AFF47A7A8E47AEAEE9D4
:10200000100808186FBABAD5F07878884A25256F75
:102010005C2E2E72381C1C2457A6A6F173B4B4C7CC
:1020200097C6C651CBE8E823A1DDDD7CE874749C3B
:102030003E1F1F21964B4BDD61BDBDDC0D8B8B869A
:102040000F8A8A85E07070907C3E3E4271B5B5C4BF
:10205000CC6666AA904848D806030305F7F6F60151
:102060001C0E0E12C26161A36A35355FAE5757F977
:1020700069B9B9D01786869199C1C1583A1D1D27F3
:10208000279E9EB9D9E1E138EBF8F8132B9898B365
:1020900022111133D26969BBA9D9D970078E8E89F3
:1020A000339494A72D9B9BB63C1E1E2215878792C6
:1020B000C9E9E92087CECE49AA5555FF502828788E
:1020C000A5DFDF7A038C8C8F59A1A1F8098989805B
:1020D0001A0D0D1765BFBFDAD7E6E631844242C656
:1020E000D06868B8824141C3299999B05A2D2D779B
:1020F0001E0F0F117BB0B0CBA85454FC6DBBBBD6E8
:102100002C16163AA5C6636384F87C7C99EE777723
:102110008DF67B7B0DFFF2F2BDD66B6BB1DE6F6F80
:102120005491C5C55060303003020101A9CE6767E4
:102130007D562B2B19E7FEFE62B5D7D7E64DABAB2C
:102140009AEC7676458FCACA9D1F82824089C9C99A
:1021500087FA7D7D15EFFAFAEBB25959C98E4747D8
:102160000BFBF0F0EC41ADAD67B3D4D4FD5FA2A2A0
:10217000EA45AFAFBF239C9CF753A4A496E47272C8
:102180005B9BC0C0C275B7B71CE1FDFDAE3D93932C
:102190006A4C26265A6C3636417E3F3F02F5F7F7E9
:1021A0004F83CCCC5C683434F451A5A534D1E5E53B
:1021B00008F9F1F193E2717173ABD8D85362313100
:1021C0003F2A15150C0804045295C7C765462323FA
:1021D0005E9DC3C328301818A13796960F0A0505CF
:1021E000B52F9A9A090E0707362412129B1B80807E
:1021F0003DDFE2E226CDEBEB694E2727CD7FB2B281
:102200009FEA75751B1209099E1D838374582C2C37
:102210002E341A1A2D361B1BB2DC6E6EEEB45A5ACF
:10222000FB5BA0A0F6A452524D763B3B61B7D6D6DD
:10223000CE7DB3B37B5229293EDDE3E3715E2F2FC0
:1022400097138484F5A6535368B9D1D100000000D8
:102250002CC1EDED604020201FE3FCFCC879B1B13A
:10226000EDB65B5BBED46A6A468DCBCBD967BEBE8A
:102270004B723939DE944A4AD4984C4CE8B05858DD
:102280004A85CFCF6BBBD0D02AC5EFEFE54FAAAAC6
:1022900016EDFBFBC5864343D79A4D4D5566333348
:1022A00094118585CF8A454510E9F9F906040202A3
:1022B00081FE7F7FF0A0505044783C3CBA259F9F20
:1022C000E34BA8A8F3A25151FE5DA3A3C0804040F8
:1022D0008A058F8FAD3F9292BC219D9D4870383802
:1022E00004F1F5F5DF63BCBCC177B6B675AFDADAD9
:1022F00063422121302010101AE5FFFF0EFDF3F399
:102300006DBFD2D24C81CDCD14180C0C35261313D1
:102310002FC3ECECE1BE5F5FA2359797CC884444B5
:10232000392E17175793C4C4F255A7A782FC7E7E97
:10233000477A3D3DACC86464E7BA5D5D2B3219193C
:1023400095E67373A0C0606098198181D19E4F4F4C
:102350007FA3DCDC664422227E542A2AAB3B909089
:10236000830B8888CA8C464629C7EEEED36BB8B873
:102370003C28141479A7DEDEE2BC5E5E1D160B0B52
:1023800076ADDBDB3BDBE0E0566432324E743A3A4A
:102390001E140A0ADB9249490A0C06066C482424DA
:1023A000E4B85C5C5D9FC2C26EBDD3D3EF43ACACFE
:1023B000A6C46262A8399191A431959537D3E4E41B
:1023C0008BF2797932D5E7E7438BC8C8596E373736
:1023D000B7DA6D6D8C018D8D64B1D5D5D29C4E4E22
:1023E000E049A9A9B4D86C6CFAAC565607F3F4F4DA
:1023F00025CFEAEAAFCA65658EF47A7AE947AEAED0
:1024000018100808D56FBABA88F078786F4A252571
:10241000725C2E2E24381C1CF157A6A6C773B4B4C8
:102420005197C6C623CBE8E87CA1DDDD9CE8747437
:10243000213E1F1FDD964B4BDC61BDBD860D8B8B96
:10244000850F8A8A90E07070427C3E3EC471B5B5BB
:10245000AACC6666D89048480506030301F7F6F64D
:10246000121C0E0EA3C261615F6A3535F9AE575773
:10247000D069B9B9911786865899C1C1273A1D1DEF
:10248000B9279E9E38D9E1E113EBF8F8B32B989861
:1024900033221111BBD2696970A9D9D989078E8EEF
:1024A000A7339494B62D9B9B223C1E1E92158787C2
:1024B00020C9E9E94987CECEFFAA5555785028288A
:1024C0007AA5DFDF8F038C8CF859A1A18009898957
:1024D000171A0D0DDA65BFBF31D7E6E6C684424252
:1024E000B8D06868C3824141B0299999775A2D2D97
:1024F000111E0F0FCB7BB0B0FCA85454D66DBBBBE4
:102500003A2C161663A5C6637C84F87C7799EE771F
:102510007B8DF67BF20DFFF26BBDD66B6FB1DE6F7C
:10252000C55491C5305060300103020167A9CE67E0
:102530002B7D562BFE19E7FED762B5D7ABE64DAB28
:10254000769AEC76CA458FCA829D1F82C94089C996
:102550007D87FA7DFA15EFFA59EBB25947C98E47D4
:10256000F00BFBF0ADEC41ADD467B3D4A2FD5FA29C
:10257000AFEA45AF9CBF239CA4F753A47296E472C4
:10258000C05B9BC0B7C275B7FD1CE1FD93AE3D9328
:10259000266A4C26365A6C363F417E3FF702F5F7E5
:1025A000CC4F83CC345C6834A5F451A5E534D1E537
:1025B000F108F9F17193E271D873ABD831536231FC
:1025C000153F2A15040C0804C75295C723654623F6
:1025D000C35E9DC31828301896A13796050F0A05CB
:1025E0009AB52F9A07090E0712362412809B1B807A
:1025F000E23DDFE2EB26CDEB27694E27B2CD7FB27D
:10260000759FEA75091B1209839E1D832C74582C33
:102610001A2E341A1B2D361B6EB2DC6E5AEEB45ACB
:10262000A0FB5BA052F6A4523B4D763BD661B7D6D9
:10263000B3CE7DB3297B5229E33EDDE32F715E2FBC
:102640008497138453F5A653D168B9D100000000D4
:10265000ED2CC1ED20604020FC1FE3FCB1C879B136
:102660005BEDB65B6ABED46ACB468DCBBED967BE86
:10267000394B72394ADE944A4CD4984C58E8B058D9
:10268000CF4A85CFD06BBBD0EF2AC5EFAAE54FAAC2
:10269000FB16EDFB43C586434DD79A4D3355663344
:1026A0008594118545CF8A45F910E9F9020604029F
:1026B0007F81FE7F50F0A0503C44783C9FBA259F1C
:1026C000A8E34BA851F3A251A3FE5DA340C08040F4
:1026D0008F8A058F92AD3F929DBC219D38487038FE
:1026E000F504F1F5BCDF63BCB6C177B6DA75AFDAD5
:1026F0002163422110302010FF1AE5FFF30EFDF395
:10270000D26DBFD2CD4C81CD0C14180C13352613CD
:10271000EC2FC3EC5FE1BE5F97A2359744CC8844B1
:1027200017392E17C45793C4A7F255A77E82FC7E93
:102730003D477A3D64ACC8645DE7BA5D192B321938
:102740007395E67360A0C060819819814FD19E4F48
:10275000DC7FA3DC226644222A7E542A90AB3B9085
:1027600088830B8846CA8C46EE29C7EEB8D36BB86F
:10277000143C2814DE79A7DE5EE2BC5E0B1D160B4E
:10278000DB76ADDBE03BDBE0325664323A4E743A46
:102790000A1E140A49DB9249060A0C06246C4824D6
:1027A0005CE4B85CC25D9FC2D36EBDD3ACEF43ACFA
:1027B00062A6C46291A8399195A43195E437D3E417
:1027C000798BF279E732D5E7C8438BC837596E3732
:1027D0006DB7DA6D8D8C018DD564B1D54ED29C4E1E
:1027E000A9E049A96CB4D86C56FAAC56F407F3F4D6
:1027F000EA25CFEA65AFCA657A8EF47AAEE947AECC
:1028000008181008BAD56FBA7888F078256F4A256D
:102810002E725C2E1C24381CA6F157A6B4C773B4C4
:10282000C65197C6E823CBE8DD7CA1DD749CE87433
:102830001F213E1F4BDD964BBDDC61BD8B860D8B92
:102840008A850F8A7090E0703E427C3EB5C471B5B7
:1028500066AACC6648D8904803050603F601F7F649
:102860000E121C0E61A3C261355F6A3557F9AE576F
:10287000B9D069B986911786C15899C11D273A1DEB
:102880009EB9279EE138D9E1F813EBF898B32B985D
:102890001133221169BBD269D970A9D98E89078EEB
:1028A00094A733949BB62D9B1E223C1E87921587BE
:1028B000E920C9E9CE4987CE55FFAA552878502886
:1028C000DF7AA5DF8C8F038CA1F859A18980098953
:1028D0000D171A0DBFDA65BFE631D7E642C684424E
:1028E00068B8D06841C3824199B029992D775A2D93
:1028F0000F111E0FB0CB7BB054FCA854BBD66DBBE0
:10290000163A2C166363A5C67C7C84F8777799EE1B
:102910007B7B8DF6F2F20DFF6B6BBDD66F6FB1DE78
:10292000C5C5549130305060010103026767A9CEDC
:102930002B2B7D56FEFE19E7D7D762B5ABABE64D24
:1029400076769AECCACA458F82829D1FC9C9408992
:102950007D7D87FAFAFA15EF5959EBB24747C98ED0
:10296000F0F00BFBADADEC41D4D467B3A2A2FD5F98
:10297000AFAFEA459C9CBF23A4A4F753727296E4C0
:10298000C0C05B9BB7B7C275FDFD1CE19393AE3D24
:1029900026266A4C36365A6C3F3F417EF7F702F5E1
:1029A000CCCC4F8334345C68A5A5F451E5E534D133
:1029B000F1F108F9717193E2D8D873AB31315362F8
:1029C00015153F2A04040C08C7C7529523236546F2
:1029D000C3C35E9D181828309696A13705050F0AC7
:1029E0009A9AB52F0707090E1212362480809B1B76
:1029F000E2E23DDFEBEB26CD2727694EB2B2CD7F79
:102A000075759FEA09091B1283839E1D2C2C74582F
:102A10001A1A2E341B1B2D366E6EB2DC5A5AEEB4C7
:102A2000A0A0FB5B5252F6A43B3B4D76D6D661B7D5
:102A3000B3B3CE7D29297B52E3E33EDD2F2F715EB8
:102A4000848497135353F5A6D1D168B900000000D0
:102A5000EDED2CC120206040FCFC1FE3B1B1C87932
:102A60005B5BEDB66A6ABED4CBCB468DBEBED96782
:102A700039394B724A4ADE944C4CD4985858E8B0D5
:102A8000CFCF4A85D0D06BBBEFEF2AC5AAAAE54FBE
:102A9000FBFB16ED4343C5864D4DD79A3333556640
:102AA000858594114545CF8AF9F910E9020206049B
:102AB0007F7F81FE5050F0A03C3C44789F9FBA2518
:102AC000A8A8E34B5151F3A2A3A3FE5D4040C080F0
:102AD0008F8F8A059292AD3F9D9DBC2138384870FA
:102AE000F5F504F1BCBCDF63B6B6C177DADA75AFD1
:102AF0002121634210103020FFFF1AE5F3F30EFD91
:102B0000D2D26DBFCDCD4C810C0C141813133526C9
:102B1000ECEC2FC35F5FE1BE9797A2354444CC88AD
:102B20001717392EC4C45793A7A7F2557E7E82FC8F
:102B30003D3D477A6464ACC85D5DE7BA19192B3234
:102B4000737395E66060A0C0818198194F4FD19E44
:102B5000DCDC7FA3222266442A2A7E549090AB3B81
:102B60008888830B4646CA8CEEEE29C7B8B8D36B6B
:102B700014143C28DEDE79A75E5EE2BC0B0B1D164A
:102B8000DBDB76ADE0E03BDB323256643A3A4E7442
:102B90000A0A1E144949DB9206060A0C24246C48D2
:102BA0005C5CE4B8C2C25D9FD3D36EBDACACEF43F6
:102BB0006262A6C49191A8399595A431E4E437D313
:102BC00079798BF2E7E732D5C8C8438B3737596E2E
:102BD0006D6DB7DA8D8D8C01D5D564B14E4ED29C1A
:102BE000A9A9E0496C6CB4D85656FAACF4F407F3D2
:102BF000EAEA25CF6565AFCA7A7A8EF4AEAEE947C8
:102C000008081810BABAD56F787888F025256F4A69
:102C10002E2E725C1C1C2438A6A6F157B4B4C773C0
:102C2000C6C65197E8E823CBDDDD7CA174749CE82F
:102C30001F1F213E4B4BDD96BDBDDC618B8B860D8E
:102C40008A8A850F707090E03E3E427CB5B5C471B3
:102C50006666AACC4848D89003030506F6F601F745
:102C60000E0E121C6161A3C235355F6A5757F9AE6B
:102C7000B9B9D06986869117C1C158991D1D273AE7
:102C80009E9EB927E1E138D9F8F813EB9898B32B59
:102C9000111133226969BBD2D9D970A98E8E8907E7
:102CA0009494A7339B9BB62D1E1E223C87879215BA
:102CB000E9E920C9CECE49875555FFAA2828785082
:102CC000DFDF7AA58C8C8F03A1A1F859898980094F
:102CD0000D0D171ABFBFDA65E6E631D74242C6844A
:102CE0006868B8D04141C3829999B0292D2D775A8F
:102CF0000F0F111EB0B0CB7B5454FCA8BBBBD66DDC
:102D000016163A2C51F4A7507E4165531A17A4C3E6
:102D10003A275E963BAB6BCB1F9D45F1ACFA58ABA7
:102D20004BE303932030FA55AD766DF688CC76915F
:102D3000F5024C254FE5D7FCC52ACBD72635448074
:102D4000B562A38FDEB15A4925BA1B6745EA0E98D2
:102D50005DFEC0E1C32F7502814CF0128D4697A332
:102D60006BD3F9C6038F5FE715929C95BF6D7AEB25
:102D7000955259DAD4BE832D587421D349E069297C
:102D80008EC9C84475C2896AF48E797899583E6BA9
:102D900027B971DDBEE14FB6F088AD17C920AC662A
:102DA0007DCE3AB463DF4A18E51A31829751336019
:102DB00062537F45B16477E0BB6BAE84FE81A01C9B
:102DC000F9082B94704868588F45FD1994DE6C877C
:102DD000527BF8B7AB73D323724B02E2E31F8F57DA
:102DE0006655AB2AB2EB28072FB5C20386C57B9A7E
:102DF000D33708A5302887F223BFA5B202036ABAE9
:102E0000ED16825C8ACF1C2BA779B492F307F2F0FF
:102E10004E69E2A165DAF4CD0605BED5D134621F54
:102E2000C4A6FE8A342E539DA2F355A0058AE13232
:102E3000A4F6EB750B83EC394060EFAA5E719F0638
:102E4000BD6E10513E218AF996DD063DDD3E05AE90
:102E50004DE6BD4691548DB571C45D050406D46F31
:102E6000605015FF1998FB24D6BDE997894043CCE3
:102E700067D99E77B0E842BD07898B88E7195B3830
:102E800079C8EEDBA17C0A477C420FE9F8841EC9B1
:102E90000000000009808683322BED481E1170ACC3
:102EA0006C5A724EFD0EFFFB0F8538563DAED51E97
:102EB000362D39270A0FD964685CA6219B5B54D153
:102EC00024362E3A0C0A67B19357E70FB4EE96D228
:102ED0001B9B919E80C0C54F61DC20A25A774B6935
:102EE0001C121A16E293BA0AC0A02AE53C22E0435B
:102EF000121B171D0E090D0BF28BC7AD2DB6A8B90D
:102F0000141EA9C857F11985AF75074CEE99DDBBA2
:102F1000A37F60FDF701269F5C72F5BC44663BC54C
:102F20005BFB7E348B432976CB23C6DCB6EDFC6895
:102F3000B8E4F163D731DCCA4263851013972240AD
:102F400084C61120854A247DD2BB3DF8AEF93211EA
:102F5000C729A16D1D9E2F4BDCB230F30D8652ECBC
:102F600077C1E3D02BB3166CA970B999119448FAC4
:102F700047E96422A8FC8CC4A0F03F1A567D2CD8E7
:102F8000223390EF87494EC7D938D1C18CCAA2FEEF
:102F900098D40B36A6F581CFA57ADE28DAB78E262F
:102FA0003FADBFA42C3A9DE45078920D6A5FCC9B54
:102FB000547E4662F68D13C290D8B8E82E39F75E7B
:102FC00082C3AFF59F5D80BE69D0937C6FD52DA97C
:102FD000CF2512B3C8AC993B10187DA7E89C636E4F
:102FE000DB3BBB7BCD2678096E5918F4EC9AB70110
:102FF000834F9AA8E6956E65AAFFE67E21BCCF08AE
:10300000EF15E8E6BAE79BD94A6F36CEEA9F09D4B6
:1030100029B07CD631A4B2AF2A3F2331C6A5943063
:1030200035A266C0744EBC37FC82CAA6E090D0B010
:1030300033A7D815F104984A41ECDAF77FCD500E4A
:103040001791F62F764DD68D43EFB04DCCAA4D5447
:10305000E49604DF9ED1B5E34C6A881BC12C1FB8EF
:103060004665517F9D5EEA04018C355DFA87747375
:10307000FB0B412EB3671D5A92DBD252E910563337
:103080006DD647139AD7618C37A10C7A59F8148EF4
:10309000EB133C89CEA927EEB761C935E11CE5EDFC
:1030A0007A47B13C9CD2DF5955F2733F1814CE7960
:1030B00073C737BF53F7CDEA5FFDAA5BDF3D6F14DF
:1030C0007844DB86CAAFF381B968C43E3824342C17
:1030D000C2A3405F161DC372BCE2250C283C498B7D
:1030E000FF0D954139A80171080CB3DED8B4E49CFA
:1030F0006456C1907BCB8461D532B670486C5C74E9
:10310000D0B857425051F4A7537E4165C31A17A453
:10311000963A275ECB3BAB6BF11F9D45ABACFA58A3
:10312000934BE303552030FAF6AD766D9188CC765B
:1031300025F5024CFC4FE5D7D7C52ACB8026354470
:103140008FB562A349DEB15A6725BA1B9845EA0ECE
:10315000E15DFEC002C32F7512814CF0A38D46972E
:10316000C66BD3F9E7038F5F9515929CEBBF6D7A21
:10317000DA9552592DD4BE83D35874212949E06978
:10318000448EC9C86A75C28978F48E796B99583EA5
:10319000DD27B971B6BEE14F17F088AD66C920AC26
:1031A000B47DCE3A1863DF4A82E51A316097513315
:1031B0004562537FE0B1647784BB6BAE1CFE81A097
:1031C00094F9082B58704868198F45FD8794DE6C78
:1031D000B7527BF823AB73D3E2724B0257E31F8FD6
:1031E0002A6655AB07B2EB28032FB5C29A86C57B7A
:1031F000A5D33708F2302887B223BFA5BA02036AE5
:103200005CED16822B8ACF1C92A779B4F0F307F2FB
:10321000A14E69E2CD65DAF4D50605BE1FD1346250
:103220008AC4A6FE9D342E53A0A2F35532058AE12E
:1032300075A4F6EB390B83ECAA4060EF065E719F34
:1032400051BD6E10F93E218A3D96DD06AEDD3E058C
:10325000464DE6BDB591548D0571C45D6F0406D42D
:10326000FF605015241998FB97D6BDE9CC894043DF
:103270007767D99EBDB0E8428807898B38E7195B2C
:10328000DB79C8EE47A17C0AE97C420FC9F8841EAD
:10329000000000008309808648322BEDAC1E1170BF
:1032A0004E6C5A72FBFD0EFF560F85381E3DAED593
:1032B00027362D39640A0FD921685CA6D19B5B544F
:1032C0003A24362EB10C0A670F9357E7D2B4EE9624
:1032D0009E1B9B914F80C0C5A261DC20695A774B31
:1032E000161C121A0AE293BAE5C0A02A433C22E057
:1032F0001D121B170B0E090DADF28BC7B92DB6A809
:10330000C8141EA98557F1194CAF7507BBEE99DD9E
:10331000FDA37F609FF70126BC5C72F5C544663B48
:10332000345BFB7E768B4329DCCB23C668B6EDFC91
:1033300063B8E4F1CAD731DC1042638540139722A9
:103340002084C6117D854A24F8D2BB3D11AEF932E6
:103350006DC729A14B1D9E2FF3DCB230EC0D8652B8
:10336000D077C1E36C2BB31699A970B9FA119448C0
:103370002247E964C4A8FC8C1AA0F03FD8567D2CE3
:10338000EF223390C787494EC1D938D1FE8CCAA2EB
:103390003698D40BCFA6F58128A57ADE26DAB78E2B
:1033A000A43FADBFE42C3A9D0D5078929B6A5FCC50
:1033B00062547E46C2F68D13E890D8B85E2E39F777
:1033C000F582C3AFBE9F5D807C69D093A96FD52D78
:1033D000B3CF25123BC8AC99A710187D6EE89C634B
:1033E0007BDB3BBB09CD2678F46E591801EC9AB70C
:1033F000A8834F9A65E6956E7EAAFFE60821BCCFAA
:10340000E6EF15E8D9BAE79BCE4A6F36D4EA9F09B2
:10341000D629B07CAF31A4B2312A3F2330C6A5945F
:10342000C035A26637744EBCA6FC82CAB0E090D00C
:103430001533A7D84AF10498F741ECDA0E7FCD5046
:103440002F1791F68D764DD64D43EFB054CCAA4D43
:10345000DFE49604E39ED1B51B4C6A88B8C12C1FEB
:103460007F466551049D5EEA5D018C3573FA877471
:103470002EFB0B415AB3671D5292DBD233E9105633
:10348000136DD6478C9AD7617A37A10C8E59F814F0
:1034900089EB133CEECEA92735B761C9EDE11CE5F8
:1034A0003C7A47B1599CD2DF3F55F273791814CE5C
:1034B000BF73C737EA53F7CD5B5FFDAA14DF3D6FDB
:1034C000867844DB81CAAFF33EB968C42C38243413
:1034D0005FC2A34072161DC30CBCE2258B283C4979
:1034E00041FF0D957139A801DE080CB39CD8B4E4F6
:1034F000906456C1617BCB8470D532B674486C5CE5
:1035000042D0B857A75051F465537E41A4C31A174F
:103510005E963A276BCB3BAB45F11F9D58ABACFA9F
:1035200003934BE3FA5520306DF6AD76769188CC57
:103530004C25F502D7FC4FE5CBD7C52A448026356C
:10354000A38FB5625A49DEB11B6725BA0E9845EACA
:10355000C0E15DFE7502C32FF012814C97A38D462A
:10356000F9C66BD35FE7038F9C9515927AEBBF6D1D
:1035700059DA9552832DD4BE21D35874692949E074
:10358000C8448EC9896A75C27978F48E3E6B9958A1
:1035900071DD27B94FB6BEE1AD17F088AC66C92022
:1035A0003AB47DCE4A1863DF3182E51A3360975111
:1035B0007F45625377E0B164AE84BB6BA01CFE8193
:1035C0002B94F90868587048FD198F456C8794DE74
:1035D000F8B7527BD323AB7302E2724B8F57E31FD2
:1035E000AB2A66552807B2EBC2032FB57B9A86C576
:1035F00008A5D33787F23028A5B223BF6ABA0203E1
:10360000825CED161C2B8ACFB492A779F2F0F307F7
:10361000E2A14E69F4CD65DABED50605621FD1344C
:10362000FE8AC4A6539D342E55A0A2F3E132058A2A
:10363000EB75A4F6EC390B83EFAA40609F065E7130
:103640001051BD6E8AF93E21063D96DD05AEDD3E88
:10365000BD464DE68DB591545D0571C4D46F040629
:1036600015FF6050FB241998E997D6BD43CC8940DB
:103670009E7767D942BDB0E88B8807895B38E71928
:10368000EEDB79C80A47A17C0FE97C421EC9F884A9
:103690000000000086830980ED48322B70AC1E11BB
:1036A000724E6C5AFFFBFD0E38560F85D51E3DAE8F
:1036B0003927362DD9640A0FA621685C54D19B5B4B
:1036C0002E3A243667B10C0AE70F935796D2B4EE20
:1036D000919E1B9BC54F80C020A261DC4B695A772D
:1036E0001A161C12BA0AE2932AE5C0A0E0433C2253
:1036F000171D121B0D0B0E09C7ADF28BA8B92DB605
:10370000A9C8141E198557F1074CAF75DDBBEE999A
:1037100060FDA37F269FF701F5BC5C723BC5446644
:103720007E345BFB29768B43C6DCCB23FC68B6ED8D
:10373000F163B8E4DCCAD7318510426322401397A5
:10374000112084C6247D854A3DF8D2BB3211AEF9E2
:10375000A16DC7292F4B1D9E30F3DCB252EC0D86B4
:10376000E3D077C1166C2BB3B999A97048FA1194BC
:10377000642247E98CC4A8FC3F1AA0F02CD8567DDF
:1037800090EF22334EC78749D1C1D938A2FE8CCAE7
:103790000B3698D481CFA6F5DE28A57A8E26DAB727
:1037A000BFA43FAD9DE42C3A920D5078CC9B6A5F4C
:1037B0004662547E13C2F68DB8E890D8F75E2E3973
:1037C000AFF582C380BE9F5D937C69D02DA96FD574
:1037D00012B3CF25993BC8AC7DA71018636EE89C47
:1037E000BB7BDB3B7809CD2618F46E59B701EC9A08
:1037F0009AA8834F6E65E695E67EAAFFCF0821BCA6
:10380000E8E6EF159BD9BAE736CE4A6F09D4EA9FAE
:103810007CD629B0B2AF31A423312A3F9430C6A55B
:1038200066C035A2BC37744ECAA6FC82D0B0E09008
:10383000D81533A7984AF104DAF741EC500E7FCD42
:10384000F62F1791D68D764DB04D43EF4D54CCAA3F
:1038500004DFE496B5E39ED1881B4C6A1FB8C12CE7
:10386000517F4665EA049D5E355D018C7473FA876D
:10387000412EFB0B1D5AB367D25292DB5633E9102F
:1038800047136DD6618C9AD70C7A37A1148E59F8EC
:103890003C89EB1327EECEA9C935B761E5EDE11CF4
:1038A000B13C7A47DF599CD2733F55F2CE79181458
:1038B00037BF73C7CDEA53F7AA5B5FFD6F14DF3DD7
:1038C000DB867844F381CAAFC43EB968342C38240F
:1038D000405FC2A3C372161D250CBCE2498B283C75
:1038E0009541FF0D017139A8B3DE080CE49CD8B4F2
:1038F000C190645684617BCBB670D5325C74486CE1
:103900005742D0B8F4A750514165537E17A4C31A4B
:10391000275E963AAB6BCB3B9D45F11FFA58ABAC9B
:10392000E303934B30FA5520766DF6ADCC76918853
:10393000024C25F5E5D7FC4F2ACBD7C53544802668
:1039400062A38FB5B15A49DEBA1B6725EA0E9845C6
:10395000FEC0E15D2F7502C34CF012814697A38D26
:10396000D3F9C66B8F5FE703929C95156D7AEBBF19
:103970005259DA95BE832DD47421D358E069294970
:10398000C9C8448EC2896A758E7978F4583E6B999D
:10399000B971DD27E14FB6BE88AD17F020AC66C91E
:1039A000CE3AB47DDF4A18631A3182E5513360970D
:1039B000537F45626477E0B16BAE84BB81A01CFE8F
:1039C000082B94F94868587045FD198FDE6C879470
:1039D0007BF8B75273D323AB4B02E2721F8F57E3CE
:1039E00055AB2A66EB2807B2B5C2032FC57B9A8672
:1039F0003708A5D32887F230BFA5B223036ABA02DD
:103A000016825CEDCF1C2B8A79B492A707F2F0F3F3
:103A100069E2A14EDAF4CD6505BED50634621FD148
:103A2000A6FE8AC42E539D34F355A0A28AE1320526
:103A3000F6EB75A483EC390B60EFAA40719F065E2C
:103A40006E1051BD218AF93EDD063D963E05AEDD84
:103A5000E6BD464D548DB591C45D057106D46F0425
:103A60005015FF6098FB2419BDE997D64043CC89D7
:103A7000D99E7767E842BDB0898B8807195B38E724
:103A8000C8EEDB797C0A47A1420FE97C841EC9F8A5
:103A900000000000808683092BED48321170AC1EB7
:103AA0005A724E6C0EFFFBFD8538560FAED51E3D8B
:103AB0002D3927360FD9640A5CA621685B54D19B47
:103AC000362E3A240A67B10C57E70F93EE96D2B41C
:103AD0009B919E1BC0C54F80DC20A261774B695A29
:103AE000121A161C93BA0AE2A02AE5C022E0433C4F
:103AF0001B171D12090D0B0E8BC7ADF2B6A8B92D01
:103B00001EA9C814F119855775074CAF99DDBBEE96
:103B10007F60FDA301269FF772F5BC5C663BC54440
:103B2000FB7E345B4329768B23C6DCCBEDFC68B689
:103B3000E4F163B831DCCAD76385104297224013A1
:103B4000C61120844A247D85BB3DF8D2F93211AEDE
:103B500029A16DC79E2F4B1DB230F3DC8652EC0DB0
:103B6000C1E3D077B3166C2B70B999A99448FA11B8
:103B7000E9642247FC8CC4A8F03F1AA07D2CD856DB
:103B80003390EF22494EC78738D1C1D9CAA2FE8CE3
:103B9000D40B3698F581CFA67ADE28A5B78E26DA23
:103BA000ADBFA43F3A9DE42C78920D505FCC9B6A48
:103BB0007E4662548D13C2F6D8B8E89039F75E2E6F
:103BC000C3AFF5825D80BE9FD0937C69D52DA96F70
:103BD0002512B3CFAC993BC8187DA7109C636EE843
:103BE0003BBB7BDB267809CD5918F46E9AB701EC04
:103BF0004F9AA883956E65E6FFE67EAABCCF0821A2
:103C000015E8E6EFE79BD9BA6F36CE4A9F09D4EAAA
:103C1000B07CD629A4B2AF313F23312AA59430C657
:103C2000A266C0354EBC377482CAA6FC90D0B0E004
:103C3000A7D8153304984AF1ECDAF741CD500E7F3E
:103C400091F62F174DD68D76EFB04D43AA4D54CC3B
:103C50009604DFE4D1B5E39E6A881B4C2C1FB8C1E3
:103C600065517F465EEA049D8C355D01877473FA69
:103C70000B412EFB671D5AB3DBD25292105633E92B
:103C8000D647136DD7618C9AA10C7A37F8148E59E8
:103C9000133C89EBA927EECE61C935B71CE5EDE1F0
:103CA00047B13C7AD2DF599CF2733F5514CE791854
:103CB000C737BF73F7CDEA53FDAA5B5F3D6F14DFD3
:103CC00044DB8678AFF381CA68C43EB924342C380B
:103CD000A3405FC21DC37216E2250CBC3C498B2871
:103CE0000D9541FFA80171390CB3DE08B4E49CD8EE
:103CF00056C19064CB84617B32B670D56C5C7448DD
:103D0000B85742D070B5030000249C424DDA02201F
:103D100060430D5C0220604308184678F6B2302EEE
:103D200006DBF6B23A2E03DA30003038105515E0D3
:103D3000F6B2412E06DBF6B2472E03DA30003738F2
:103D400010550BE0F6B2612E06DBF6B2672E03DAF1
:103D500030005738105501E0012027E0EDB2302D3A
:103D600007DBEDB23A2D04DA105D2D010543155540
:103D700019E0EDB2412D08DBEDB2472D05DA105DFB
:103D8000373D2D01054315550DE0EDB2612D08DBE2
:103D9000EDB2672D05DA105D573D2D010543155530
:103DA00001E0012002E0641CAFE7002070BD0100CB
:103DB0000020704780B54C4A0021762000F001F8C1
:103DC00001BD30B50300494800680B2801DB012024
:103DD0001DE0412901D3012019E04548434C2468E6
:103DE0000C256C4303554248404C24680C256C4319
:103DF000001941603E483D4C24680C256C43001975
:103E000082603A480068401C384C2060002030BD79
:103E100070B5B2B000F015F9060000243348006810
:103E2000844209DA32480C216143405C3100C9B256
:103E3000884201D0641CF1E72C480068844232D0EB
:103E400000252B480C21614340184068022148435B
:103E500085420DD200F0F5F80600F6B20A2E02D027
:103E6000F6B20D2E00D11EE011A846556D1CE8E7F4
:103E700000F0E7F80500EDB20A2D02D0EDB20D2DED
:103E800011D101AA11A91A480C236343C018406834
:103E9000FFF738FF002806D101A815490C2262431C
:103EA00089188968884732B070BDF8B504000F00E2
:103EB00015002000C0B200F0D0F80026BE420EDA95
:103EC0000C48A95D0911405C00F0C7F80948A95DDC
:103ED0000907090F405C00F0C0F8761CEEE70A20E5
:103EE00000F0BBF8F1BD0000AF3D00081C0200204F
:103EF000340100200000002000B591B003200490A0
:103F0000052005900020079000200D9004A8FCF7E4
:103F1000DFFF072000900120019000200290002088
:103F2000039000216846FDF735FA11B000BD00B5D9
:103F300087B0504800688021890201434D480160E4
:103F40004C48006880218902084000900098C020F9
:103F5000C0000190022002900120039003200490F1
:103F60000120059001A99020C005FDF7CBFA424839
:103F700000688021C90101433F4801603E48006854
:103F80008021C9010840009000983C480068032146
:103F900088430121014339480160394839490860A3
:103FA000962000023749486000203649886000208A
:103FB0003449C860002033490861002031498861D4
:103FC0000C20304948612F48FDF7F0FC07B000BDD8
:103FD00000B587B027480068802189020143254841
:103FE0000160244800688021890208400090009800
:103FF00080204001019001200290002003900320C6
:10400000049001A99020C005FDF77CFA00228021D0
:1040100049019020C005FDF765FB07B000BD80B5E4
:104020000122802149019020C005FDF75BFB01BD05
:1040300080B50022802149019020C005FDF752FB88
:1040400001BD80B5104B012269460E48FDF7F0FC1A
:104050000028F7D16846007802BD10B582B0040090
:1040600068460470084B012269460648FDF778FD52
:1040700013BD00001410024018100240301002401E
:1040800000380140AC01002088130000637C777B7E
:10409000F26B6FC53001672BFED7AB76CA82C97D44
:1040A000FA5947F0ADD4A2AF9CA472C0B7FD9326D5
:1040B000363FF7CC34A5E5F171D8311504C723C3D9
:1040C0001896059A071280E2EB27B27509832C1A1D
:1040D0001B6E5AA0523BD6B329E32F8453D100ED77
:1040E00020FCB15B6ACBBE394A4C58CFD0EFAAFB5B
:1040F000434D338545F9027F503C9FA851A3408F23
:10410000929D38F5BCB6DA2110FFF3D2CD0C13EC3A
:104110005F974417C4A77E3D645D197360814FDCCF
:10412000222A908846EEB814DE5E0BDBE0323A0AB3
:104130004906245CC2D3AC629195E479E7C8376D37
:104140008DD54EA96C56F4EA657AAE08BA78252E5C
:104150001CA6B4C6E8DD741F4BBD8B8A703EB566E5
:104160004803F60E613557B986C11D9EE1F89811D6
:1041700069D98E949B1E87E9CE5528DF8CA1890DC5
:10418000BFE6426841992D0FB054BB1652096AD55B
:104190003036A538BF40A39E81F3D7FB7CE339823C
:1041A0009B2FFF87348E4344C4DEE9CB547B94328B
:1041B000A6C2233DEE4C950B42FAC34E082EA166D3
:1041C00028D924B2765BA2496D8BD12572F8F664AA
:1041D00086689816D4A45CCC5D65B6926C70485025
:1041E000FDEDB9DA5E154657A78D9D8490D8AB00DA
:1041F0008CBCD30AF7E45805B8B34506D02C1E8F03
:10420000CA3F0F02C1AFBD0301138A6B3A9111413E
:104210004F67DCEA97F2CFCEF0B4E67396AC742227
:10422000E7AD3585E2F937E81C75DF6E47F11A71A5
:104230001D29C5896FB7620EAA18BE1BFC563E4BDE
:10424000C6D279209ADBC0FE78CD5AF41FDDA833A0
:104250008807C731B11210592780EC5F60517FA9E0
:1042600019B54A0D2DE57A9F93C99CEFA0E03B4D0F
:10427000AE2AF5B0C8EBBB3C83539961172B047E83
:10428000BA77D626E169146355210C7D10B5040078
:10429000200000F05AF8002010BD10B50400FFF710
:1042A000BEFE200000F059F8FFF7C2FE22001021E8
:1042B0007220FFF7FAFD002010BD010000207047BA
:1042C00000B585B068461A49102200F051F8FFF792
:1042D00013FEFFF72CFEFFF77BFE00F031F8684677
:1042E00000F033F86820FFF7B8FE6520FFF7B5FE51
:1042F0006C20FFF7B2FE6C20FFF7AFFE6F20FFF7D8
:10430000ACFE0A20FFF7A9FEFFF754FD094A102171
:104310006B20FFF756FD084A10217020FFF751FD72
:10432000064A00217820FFF74CFDFFF771FDFCE7FE
:10433000204500088D4200089B420008BB4200084F
:1043400080B50A48FBF77CFE01BD10B50400802251
:1043500021000648FBF77FFE10BD10B504002300C6
:10436000220001210148FCF767FD10BD1C00002060
:1043700070B4103A03D378C9103A78C0FBD253070F
:1043800001D318C918C001D508C908C0D20704D381
:104390000B880380891C801C002A01D50B780370D0
:1043A00070BC704770B401000123002413E00A6858
:1043B000091D1A4202D04D466D1E52191460121D7D
:1043C000001F0428FAD21500860701D51480AD1C01
:1043D000184000D02C700868091D0028E7D108009B
:1043E00070BC704730B401220168001D00290FD055
:1043F0000368C31844680830144202D04D466D1E4D
:1044000064191D6825601B1D241D091FECD0F8E7E9
:1044100030BC704710B500F013F802000023DB43F6
:1044200000241068984203D011000220ABBE146033
:104430005068984203D0111D0220ABBE546010BDDD
:104440000048704714000020010000000200000036
:104450000400000008000000100000002000000020
:1044600040000000800000001B000000360000003B
:1044700010B5074979441831064C7C44163404E0E1
:10448000081D0A68891888470100A142F8D110BDAB
:1044900008000000280000000DFFFFFF08020000D8
:1044A0001C000020000000003DFFFFFF1C0000007A
:1044B0000C0000000000002000000000303132330A
:1044C00034353637383941424344454600127A0084
:1044D000FFFFFFFFFFFFFFFF00F00BF8002801D0F8
:1044E000FFF7C6FF002000BF00BFFFF7E9FE00F0A6
:1044F00002F80120704780B500F002F801BD00000D
:104500000746384600F002F8FBE7000080B5FFF7E9
:1045100081FF024A11001820ABBEFBE72600020013
:104520002B7E151628AED2A6ABF7158809CF4F3CC7
:0C45300000BF00BF00BF00BFFFF7CEFFC0
:040000050800453179
:00000001FF
