:020000040800F2
:10000000502C0020F1250008F3110008F31100081E
:10001000F3110008F3110008F311000800000000BC
:10002000000000000000000000000000F3110008C4
:10003000F311000800000000F3110008F31100089C
:10004000F0B586B0994802909948019000200121AE
:10005000FF2812DC029A04234343D150019A04235F
:100060004B43D0500A0601D51B2200E000224B0072
:100070004B405A40D1B2401CEAE7002201250A2A2F
:100080000DDA8C48042151434550280601D51B2028
:1000900000E0002069004840C5B2521CEFE7632031
:1000A000854908700020854908700120FF282CDC54
:1000B0000299019A04234343D258534204225343E2
:1000C000C918FF22920089584A00CB111343DAB2B3
:1000D00051405300D2111A43D2B251405300D211B1
:1000E0001A43D2B251405300D2111A43D2B20392F2
:1000F000039A632353404B401D0029006E4A11545C
:1001000001006F4A5155401CD0E70024FF2C00DD50
:10011000C9E06948005D010601D51B2100E000210E
:1001200042005140C9B2039103994140C9B20591BF
:10013000039902024A4001045140059A12064A40BE
:10014000604904236343CA505E49042262438958CC
:100150005C4A04236343D2581823DA415A490423E2
:100160006343CA505849042262438958564A0423BB
:100170006343D2581823DA41544904236343CA50D5
:100180005249042262438958504A04236343D25897
:100190001823DA414E4904236343CA5048490D5D90
:1001A000002D0FD0029E0198806B019904226A43B2
:1001B00089584018FF2100F0C2FF042041437058C5
:1001C000049001E000200490002D0ED0029E0198C2
:1001D000406A019904226A4389584018FF2100F0BF
:1001E000AEFF04204143765800E00026002D0ED0DB
:1001F000029F0198406B019904226A438958401874
:10020000FF2100F09CFF042041437F5800E00027BD
:10021000002D10D0029800900198C06A0199042224
:100220006A4389584018FF2100F089FF04204143A8
:100230000098405800E00020049932024A403904F6
:10024000514000064840B249042262438850B048F9
:10025000042161434058AE49042262438958182260
:10026000D141AC48042262438150AA480421614331
:100270004058A8490422624389581822D1410B48AA
:1002800004226243815009480421614340580749D0
:100290000422624389581822D1410548042262434E
:1002A0008150641C32E706B0F0BD00001C1800202D
:1002B0001C1C00201C240020342100209722002038
:1002C000342200201C0000201C0400201C080020F8
:1002D0001C0C002070B504008C256D000026320037
:1002E0002900200000F086FF70BDF8B504000D0065
:1002F000160089480068002804D1FFF7A1FE0120FC
:10030000854908603000803804D0403805D0403836
:1003100006D008E00A20206008E00C20206005E0FC
:100320000E20206002E01F20C043F0E021000831D1
:10033000616000227009824215D29000285C93000F
:10034000EB185B781B0203439000281880780004A8
:1003500018439300EB18DB781B060343042050433B
:100360000B50521CE6E720680A2804D00C2836D02F
:100370000E2870D0CAE0002002000A2A2ED20B6894
:10038000664804275743C0595840654BCF683F0A19
:10039000FFB2DB5D43406248CF683F0CFFB2C05DF7
:1003A000000258405E4BCF683F0EDB5D1B044340AC
:1003B0005B480F7BFFB2C05D00065840086148688B
:1003C0000B6943404B6188684B6943408B61C86847
:1003D0008B694340CB61521C1031CEE796E0002080
:1003E0000200082A36D20B684C4804275743C059EC
:1003F00058404B4B4F693F0AFFB2DB5D43404848D2
:100400004F693F0CFFB2C05D00025840444B4F693A
:100410003F0EDB5D1B04434041480F7DFFB2C05DD2
:1004200000065840886148688B694340CB61886802
:10043000CB6943400B62C8680B6A43404B62086952
:100440004B6A43408B6248698B6A4340CB62521CC3
:100450001831C6E75AE000200200072A56D20B687E
:100460002E4804275743C05958402D4BCF693F0AA7
:10047000FFB2DB5D43402A48CF693F0CFFB2C05D4D
:1004800000025840264BCF693F0EDB5D1B04434002
:1004900023480F7FFFB2C05D0006584008624868DD
:1004A0000B6A43404B6288684B6A43408B62C86862
:1004B0008B6A4340CB620869194B2C27CF5DFFB292
:1004C000DB5D43401648CF6A3F0AFFB2C05D0002C1
:1004D0005840134BCF6A3F0CFFB2DB5D1B04434017
:1004E0000F48CF6A3F0EC05D000658400863486958
:1004F0000B6B43404B6388694B6B43408B63C8690C
:100500008B6B4340CB63521C2031A6E70020F2BD29
:100510001C1000201C140020442400201C24002057
:1005200034210020F1B587B0079840680B784C78EB
:1005300024021C438B781D042543CB781B062B43D8
:1005400004685C400194001D0B794C7924021C4323
:100550008B791D042543CB791B062B4304685C4033
:100560000094001D0B7A4C7A24021C438B7A1D04E4
:100570002543CB7A1B062B4304685C400694001D80
:100580000B7B4C7B24021C438B7B1B042343CC7BC7
:1005900024061C4303686340001D079C2468641004
:1005A000641E012C00DA57E10668F04DAC46019D4F
:1005B000EFB204256F436546ED597540F24EB446DF
:1005C000009E360AF7B2042677436646F7596F4015
:1005D000EE4DAC46069D2D0CEEB204256E436546ED
:1005E000AD597D402F009B4DAC461E0E04256E4339
:1005F0006546AE593D006E400596001D0668DB4D10
:10060000AC46009DEFB204256F436546ED59754039
:10061000DD4EB446069E360AF7B204267743664698
:10062000F7596F40D94DAC461D0CEEB204256E4310
:100630006546AD597D402F00864DAC46019D2E0E7E
:1006400004256E436546AE593D006E400496001D7C
:100650000668C64DAC46069DEFB204256F4365465D
:10066000ED597540C84EB4461E0AF7B204267743CA
:100670006646F7596F40C54DAC46019D2D0CEEB254
:1006800004256E436546AD597D402F00714DAC4643
:10069000009D2E0E04256E436546AE593D006E400A
:1006A0000396001D0668B14DAC46DFB204256F43CA
:1006B0006546ED597540B44EB446019E360AF7B210
:1006C000042677436646F7596F40B04DAC46009D0F
:1006D0002D0CEEB204256E436546AD597D402F00CA
:1006E0005C4DAC46069D2E0E04256E436546AE5904
:1006F0003D006E400296001D06689C4DAC46059D6F
:10070000EFB204256F436546ED5975409E4EB446E1
:10071000049E360AF7B2042677436646F7596F40BF
:100720009A4DAC46039D2D0CEEB204256E436546F2
:10073000AD597D402F00474DAC46029D2E0E04253D
:100740006E436546AE593D006E400196001D066839
:10075000864DAC46049DEFB204256F436546ED59C6
:100760007540894EB446039E360AF7B20426774395
:100770006646F7596F40854DAC46029D2D0CEEB292
:1007800004256E436546AD597D402F00314DAC4682
:10079000059D2E0E04256E436546AE593D006E4004
:1007A0000096001D0668714DAC46039DEFB204250E
:1007B0006F436546ED597540734EB446029E360A46
:1007C000F7B2042677436646F7596F406F4DAC4643
:1007D000059D2D0CEEB204256E436546AD597D4056
:1007E0002F001C4DAC46049D2E0E04256E4365461D
:1007F000AE593D006E400696001D06685B4DAC4646
:10080000029DEFB204256F436546ED5975405E4E7B
:10081000B446059E360AF7B2042677436646F75972
:100820006F405A4DAC46049D2D0CEEB204256E432C
:100830006546AD597D402F00064DAC46039D2E0EFA
:1008400004256E436546AE593D006E403300001DE1
:10085000641EA6E61C0C00200668444DAC46019DB3
:10086000EFB204256F436546ED597540464EB446D8
:10087000009E360AF7B2042677436646F7596F4062
:10088000424DAC46069D2D0CEEB204256E436546E6
:10089000AD597D402F009A4DAC461E0E04256E4387
:1008A0006546AE593D006E400596001D06682F4D09
:1008B000AC46009DEFB204256F436546ED59754087
:1008C000314EB446069E360AF7B204267743664692
:1008D000F7596F402D4DAC461D0CEEB204256E430A
:1008E0006546AD597D402F00854DAC46019D2E0ECD
:1008F00004256E436546AE593D006E400496001DCA
:1009000006681A4DAC46069DEFB204256F43654656
:10091000ED5975401C4EB4461E0AF7B204267743C3
:100920006646F7596F40194DAC46019D2D0CEEB24D
:1009300004256E436546AD597D402F00704DAC4691
:10094000009D2E0E04256E436546AE593D006E4057
:100950000396001D0668054DAC46DFB204256F43C3
:100960006546ED597540084E02E000BF1C000020AE
:10097000B446019E360AF7B2042677436646F75915
:100980006F40024D04E000BF1C0400201C08002042
:10099000AC46009D2D0CEEB204256E436546AD5964
:1009A0007D402F00564DAC46069D2E0E04256E430D
:1009B0006546AE593D006E400296051D2868514EB1
:1009C000059FFFB2F65D46404E48049F3F0AFFB2C6
:1009D000C05D000270404B4E039F3F0CFFB2F65DBE
:1009E000360446404748029F3F0EC05D00067040F7
:1009F00001902D1D2868434E049FFFB2F65D4640CE
:100A00004048039F3F0AFFB2C05D000270403D4E68
:100A1000029F3F0CFFB2F65D360446403948059F01
:100A20003F0EC05D000670400090281D0568354EE1
:100A3000039FFFB2F65D6E40324D029F3F0AFFB248
:100A4000ED5D2D0275402F4E059F3F0CFFB2F65D08
:100A500036046E402B4D049F3F0EED5D2D06754014
:100A6000001D0768BC46274F029EF6B2BE5D674672
:100A70007E40B446234F059E360AF6B2BE5D36026E
:100A800067467E40B4461F4F049E360CF6B2BE5DEC
:100A9000360467467E40B4461A4F039E360EBE5D4E
:100AA000360667467E40071D019810700198000ABF
:100AB00050700198000C90700198000ED070009852
:100AC00010710098000A50710098000C9071009805
:100AD000000ED07128001072280A50722800000CF5
:100AE0009072280ED07230001073300A50733000AC
:100AF000000C9073300ED073002008B0F0BD0000E1
:100B00001C0C002034210020F1B587B00798406804
:100B10000B784C7824021C438B781D042543CB783A
:100B20001B062B4304685C400194001D0B794C7933
:100B300024021C438B791D042543CB791B062B43D0
:100B400004685C400094001D0B7A4C7A24021C431C
:100B50008B7A1D042543CB7A1B062B4304685C402B
:100B60000694001D0B7B4C7B24021C438B7B1B04D7
:100B70002343CC7B24061C4303686340001D079C71
:100B800024686410641E012C00DA57E10668F04DF9
:100B9000AC46019DEFB204256F436546ED597540A3
:100BA000F24EB4461E0AF7B2042677436646F7595A
:100BB0006F40EF4DAC46069D2D0CEEB204256E4302
:100BC0006546AD597D402F009B4DAC46009D2E0ED5
:100BD00004256E436546AE593D006E400596001DE6
:100BE0000668DB4DAC46009DEFB204256F436546B9
:100BF000ED597540DD4EB446019E360AF7B2042623
:100C000077436646F7596F40D94DAC461D0CEEB29E
:100C100004256E436546AD597D402F00864DAC4698
:100C2000069D2E0E04256E436546AE593D006E406E
:100C30000496001D0668C64DAC46069DEFB204251D
:100C40006F436546ED597540C84EB446009E360A5E
:100C5000F7B2042677436646F7596F40C44DAC4659
:100C6000019D2D0CEEB204256E436546AD597D40C5
:100C70002F00714DAC461E0E04256E436546AE59DD
:100C80003D006E400396001D0668B14DAC46DFB2D4
:100C900004256F436546ED597540B44EB446069E33
:100CA000360AF7B2042677436646F7596F40B04DCF
:100CB000AC46009D2D0CEEB204256E436546AD5941
:100CC0007D402F005C4DAC46019D2E0E04256E43E9
:100CD0006546AE593D006E400296001D06689C4D6B
:100CE000AC46059DEFB204256F436546ED5975404E
:100CF0009E4EB446029E360AF7B2042677436646F5
:100D0000F7596F409A4DAC46039D2D0CEEB2042569
:100D10006E436546AD597D402F00474DAC46049D5E
:100D20002E0E04256E436546AE593D006E40019679
:100D3000001D0668864DAC46049DEFB204256F4346
:100D40006546ED597540894EB446059E360AF7B2A0
:100D5000042677436646F7596F40854DAC46029DA1
:100D60002D0CEEB204256E436546AD597D402F0033
:100D7000314DAC46039D2E0E04256E436546AE599B
:100D80003D006E400096001D0668714DAC46039D07
:100D9000EFB204256F436546ED597540734EB44676
:100DA000049E360AF7B2042677436646F7596F4029
:100DB0006F4DAC46059D2D0CEEB204256E43654685
:100DC000AD597D402F001C4DAC46029D2E0E0425D2
:100DD0006E436546AE593D006E400696001D06689E
:100DE0005B4DAC46029DEFB204256F436546ED595D
:100DF00075405E4EB446039E360AF7B2042677432A
:100E00006646F7596F405A4DAC46049D2D0CEEB224
:100E100004256E436546AD597D402F00064DAC4616
:100E2000059D2E0E04256E436546AE593D006E406D
:100E30003300001D641EA6E61C1C00200668444DFD
:100E4000AC46019DEFB204256F436546ED597540F0
:100E5000464EB4461E0AF7B2042677436646F75953
:100E60006F40434DAC46069D2D0CEEB204256E43FB
:100E70006546AD597D402F009A4DAC46009D2E0E23
:100E800004256E436546AE593D006E400596001D33
:100E900006682F4DAC46009DEFB204256F436546B2
:100EA000ED597540314EB446019E360AF7B204261C
:100EB00077436646F7596F402D4DAC461D0CEEB298
:100EC00004256E436546AD597D402F00854DAC46E7
:100ED000069D2E0E04256E436546AE593D006E40BC
:100EE0000496001D06681A4DAC46069DEFB2042517
:100EF0006F436546ED5975401C4EB446009E360A58
:100F0000F7B2042677436646F7596F40184DAC4652
:100F1000019D2D0CEEB204256E436546AD597D4012
:100F20002F00704DAC461E0E04256E436546AE592B
:100F30003D006E400396001D0668054DAC46DFB2CD
:100F400004256F436546ED597540084E02E000BF29
:100F50001C100020B446069E360AF7B204267743DA
:100F60006646F7596F40024D04E000BF1C14002094
:100F70001C180020AC46009D2D0CEEB204256E43DB
:100F80006546AD597D402F00564DAC46019D2E0E55
:100F900004256E436546AE593D006E400296051D20
:100FA0002868514E059FFFB2F65D46404E48029FAD
:100FB0003F0AFFB2C05D000270404B4E039F3F0CE2
:100FC000FFB2F65D360446404748049F3F0EC05DC1
:100FD0000006704001902D1D2868434E049FFFB20B
:100FE000F65D46404048059F3F0AFFB2C05D0002E3
:100FF00070403D4E029F3F0CFFB2F65D3604464006
:101000003948039F3F0EC05D000670400090281DC8
:101010000568354E039FFFB2F65D6E40324D049F6A
:101020003F0AFFB2ED5D2D0275402F4E059F3F0C2C
:10103000FFB2F65D36046E402B4D029F3F0EED5D14
:101040002D067540001D0768BC46274F029EF6B26C
:10105000BE5D67467E40B446234F039E360AF6B215
:10106000BE5D360267467E40B4461F4F049E360C76
:10107000F6B2BE5D360467467E40B4461A4F059E02
:10108000360EBE5D360667467E40071D019810701D
:101090000198000A50700198000C90700198000EA1
:1010A000D070009810710098000A50710098000CE0
:1010B00090710098000ED07128001072280A5072AA
:1010C0002800000C9072280ED07230001073300A85
:1010D00050733000000C9073300ED073002008B0B5
:1010E000F0BD00001C1C002034220020F8B50500D3
:1010F0000E0014001F00012E05D13A002100280027
:10110000FFF710FA04E03A0021002800FFF7FCFC8A
:10111000F2BDF446002804D4494200F013F84042DE
:1011200060474042002905D45FD000F00BF84042F0
:1011300049426047494200F005F84942604703468A
:101140000B43E6D40022030A8B420BD203098B42E5
:1011500019D243088B422ED2411A00D20146524185
:1011600010467047FF2209023FD012068B4205D37A
:10117000121209028B4201D31212090203098B4297
:1011800019D300E0090AC3098B4201D3CB01C01A6D
:10119000524183098B4201D38B01C01A524143094A
:1011A0008B4201D34B01C01A524103098B4201D338
:1011B0000B01C01A5241C3088B4201D3CB00C01AA5
:1011C000524183088B4201D38B00C01A524143081D
:1011D0008B4201D34B00C01A5241884200D3401ABF
:1011E0005241CFD201461046704708B500F02AF8A8
:1011F00008BDFEE71206130A1A43130C1A4300BF78
:10120000094205D0830705D00270401C491EF9D160
:1012100070470000130030B414001500103902D3D9
:1012200010393CC0FCD2490700D30CC000D504C023
:10123000890002D30280801C002900D5027030BCD6
:101240007047000070470000034800680100491C17
:10125000014A1160704700004C240020E120C003C7
:101260007047E120C003704770B582B004000025CC
:101270002078C00770D5AB4800680C2101400429D4
:1012800009D0A84800680C21014008290CD1A548C4
:101290000068C00308D5BB48006880035CD560685F
:1012A000002859D1012033E26068012807D1B548F0
:1012B0000068802149020143B24801602DE0606866
:1012C00000280CD1AF480068AF490140AD4801602B
:1012D000AC480068AD490140AA4801601DE0606863
:1012E00005280ED1A74800688021C9020143A548FE
:1012F0000160A4480068802149020143A1480160BF
:101300000BE0A0480068A04901409E4801609D484C
:1013100000689E4901409B480160606800280DD02C
:10132000FFF792FF050097480068800314D4FFF789
:101330008BFF401B6528F6D30320E9E1FFF784FF0C
:10134000050090480068800306D5FFF77DFF401B2D
:101350006528F6D30320DBE12078800757D5714854
:1013600000680C210140002909D06E4800680C215A
:101370000140082916D16B480068C00312D4814887
:101380000068800704D5E068012801D00120BFE192
:101390007C480068F82188432169C90001437948E5
:1013A000016034E0E06800281DD076480068012123
:1013B000014374480160FFF747FF0500714800686A
:1013C000800706D4FFF740FF401B0328F6D3032015
:1013D0009EE16C480068F82188432169C9000143F7
:1013E0006848016013E06748006801218843654947
:1013F0000860FFF729FF050062480068800706D5EE
:10140000FFF722FF401B0328F6D3032080E120785A
:1014100000072AD5E069002813D0BE4800680121E2
:101420000143BC480160FFF70FFF0500B9480068A1
:1014300080071AD4FFF708FF401B0328F6D30320C8
:1014400066E1B448006801218843B2490860FFF7AB
:10145000FBFE0500AF480068800706D5FFF7F4FEE5
:10146000401B0328F6D3032052E12078400700D424
:1014700097E00026A8480068C0000FD4A64800687E
:10148000802149050143A4480160A34800688021E8
:101490004905084000900098012006009F48006818
:1014A000C00514D49D4800688021490001439B4831
:1014B0000160FFF7C9FE050098480068C00506D422
:1014C000FFF7C2FE401B6528F6D3032020E1A06889
:1014D000012806D19248006801210143904801602B
:1014E0002EE0A06800280CD18D48006801218843B7
:1014F0008B4908608A48006804218843884908604D
:101500001EE0A06805280FD185480068042101432A
:1015100083480160824800680121014380480160DE
:101520000EE000BF041002407D480068012188439E
:101530007B4908607A48006804218843784908603C
:10154000A06800280ED0FFF77FFE050074480068F1
:1015500080071DD4FFF778FE401B72498842F5D3FF
:101560000320D5E0FFF770FE05006D480068800796
:101570000ED5FFF769FE401B6A498842F5D3032068
:10158000C6E000BF00100240FFFFFEFFFFFFFBFFB1
:10159000F6B2012E05D160480068634901405E48FB
:1015A00001602078C00655D56069012823D1B14873
:1015B000006804210143AF480160AE480068012182
:1015C0000143AC480160FFF73FFE0500A9480068F1
:1015D000800706D4FFF738FE401B0328F6D303200C
:1015E00096E0A4480068F8218843A169C900014336
:1015F000A04801602EE060690421C94388420FD1F0
:101600009C480068042188439A490860994800680A
:10161000F8218843A169C90001439648016019E097
:101620009448006804210143924801609148006891
:10163000012188438F490860FFF706FE05008D48A9
:101640000068800706D5FFF7FFFD401B0328F6D38F
:1016500003205DE0206A002859D0874800680C21EB
:101660000140082951D0206A02283AD183480068F5
:101670008349014081480160FFF7E6FD06007F488D
:101680000068800106D5FFF7DFFD801B0328F6D335
:1016900003203DE07B4800680F218843E16A014355
:1016A000784801607448006877490140A06A08439F
:1016B000616A0143704801607048006880214904F4
:1016C00001436E480160FFF7BFFD05006B480068ED
:1016D00080011CD4FFF7B8FD401B0328F6D303207C
:1016E00016E0664800686649014064480160FFF7FB
:1016F000ABFD050061480068800108D5FFF7A4FD37
:10170000401B0328F6D3032002E0012000E0002064
:1017100076BD0000241002401C1002400070004002
:101720002010024089130000FFFFFFEF70B5050095
:101730000C000026554800680100C907C90FA142E6
:101740000FD2524800680121884320434F49086066
:101750004E4800680100C907C90FA14201D001200D
:1017600087E02878800707D543480068F021884340
:10177000A9680143404801602878C00752D56868CD
:10178000012805D13D480068800310D4012070E095
:101790006868022805D139480068800107D4012013
:1017A00067E036480068800701D4012061E03248D4
:1017B000006803218843696801432F480160FFF7EF
:1017C00043FD0600686801280DD12B4800680C21F4
:1017D0000140042926D0FFF737FD801B2C498842A1
:1017E000F3D3032045E0686802280DD12248006841
:1017F0000C210140082915D0FFF726FD801B244944
:101800008842F3D3032034E01B4800680C210140D8
:10181000002907D0FFF718FD801B1D498842F3D32C
:10182000032026E0194800680100C907C90F8C424F
:101830000FD21648006801218843204313490860ED
:10184000124800680100C907C90FA14201D0012058
:101850000FE02878400707D5074800680D49014088
:10186000E868084304490860E120C0030A490860A9
:10187000002070BD341002400410024000100240ED
:10188000FFFFFFFE2C100240FFFFC2FF00200240BE
:1018900089130000FFF8FFFF10000020F8B50022B8
:1018A000002300240D68D540002D00D1E5E00D682F
:1018B000012696402E403300002B00D1DBE04D681E
:1018C000022D02D04D68122D1ED1D5080426754375
:1018D00045192E6A0F27BC4615006D076D0F0427AA
:1018E0007D436746AF40BE430D69AC4615006F07A8
:1018F0007F0F04256F436546BD4035432C00D50856
:101900000426754345192C6207680325AC4616006A
:1019100002256E436546B540AF430D79AD07AD0F67
:10192000AC46160002256E436546B5403D43056052
:101930004E68012E08D04C68022C05D04C68112C42
:1019400002D04C68122C1FD187680324A4461600CD
:10195000022466436446B440A743CC68A4461600FC
:10196000022466436446B4403C43846047680126D1
:101970009640B743BC464F683E00F606F60F9640C9
:1019800067463E4335004560C7680324A4461600F9
:10199000022466436446B440A7438C68A4461600FC
:1019A000022466436446B4403C43C4604E68F6007B
:1019B00061D56F4D2D6801262E436D4D2E606C4D07
:1019C0002D682E00F607F60F0096009D694D9608CB
:1019D00004277E43AE590F27BC461500AD07AD0F57
:1019E00004277D436746AF40BE439025ED05A842DE
:1019F00001D100240FE0604CA04201D101240AE093
:101A00005E4CA04201D1022405E05D4CA04201D110
:101A1000032400E005241500AD07AD0F04277D4326
:101A2000AC403443534D960804277E43AC51554D8A
:101A30002D689D434E68F60300D51D43514C25602B
:101A4000514C24689C434E68B60300D51C434E4D50
:101A50002C604E4D2D689D434E68F60200D51D4307
:101A60004A4C2560B64C24689C434E68B60200D5AB
:101A70001C43B34D2C60521C14E7F1BD00B5D2B22B
:101A8000002A02D089B2816101E089B2816200BD81
:101A9000F4B504000D001F00069E2068C0692840B0
:101AA000A84201D1012000E000206946097888425F
:101AB00021D10020C0438642EFD0002E04D0FFF792
:101AC000C3FBC01B8642E8D220680068B8490140C9
:101AD000206801602068806801218843216888604F
:101AE00020206921605420206A2160540020682150
:101AF0006054032000E00020F2BD000070B582B009
:101B0000040000260020E066FFF79EFB0500206829
:101B1000A849884221D12068006800070CD5A64852
:101B200000902B000022802189032000FFF7B0FFE6
:101B3000002801D003201AE02068006840070CD577
:101B40009D4800902B0000228021C9032000FFF750
:101B50009FFF002801D0032009E020206921605464
:101B600020206A216054002068216054002076BD46
:101B70001810024008000140000400480008004816
:101B8000000C004800040140040401400804014026
:101B9000F0B583B005000021102000226B461A80AA
:101BA00000260027AA682B6913436C691C43EA6965
:101BB00022432B681C68814B234013432C6823600D
:101BC0002B685C687E4B2340EC681C432B685C6090
:101BD000AC692B6A234301932B689C68794B2340A3
:101BE000019C1C432B689C602B68724CA34215D14E
:101BF000BA4909688907890F002905D0022909D047
:101C000006D3032902D007E000240EE002240CE0F2
:101C100004240AE0082408E0102406E02968B04AF9
:101C2000914201D1002400E01024E86980210902DA
:101C3000884246D1E4B22000002806D0022810D005
:101C4000042817D0082821D02AE0FFF70AFB022138
:101C500048436968490840186968FFF773FA060045
:101C600020E0686840089F4940186968FFF76AFAF1
:101C7000060017E0FFF7F2FA0221484369684908B5
:101C800040186968FFF75EFA06000BE068684008D4
:101C90008021490240186968FFF754FA060001E004
:101CA00001200700904830406946320092B2520845
:101CB0005207520F02430A80684600882968C860AC
:101CC0003BE0E4B22000002806D0022810D004280F
:101CD00019D0082823D02EE0FFF7C3FA6968490815
:101CE00040186968FFF72EFA80B22968C86024E0BE
:101CF000686840087D4940186968FFF723FA80B298
:101D00002968C86019E0FFF7A9FA6968490840180E
:101D10006968FFF717FA80B22968C8600DE0686843
:101D200040088021090240186968FFF70BFA80B269
:101D30002968C86001E0012007003800C0B2FEBD7C
:101D40000C04014010B50400002C01D101202EE04C
:101D5000A0690028FFD16920205C002802D1002062
:101D600068216054242069216054206800680121A2
:101D70008843216808602000FFF70AFF012801D18D
:101D8000012014E020684068594901402068416002
:101D9000206880682A21884321688860206800685C
:101DA00001210143206801602000FFF7A7FE10BD5C
:101DB0005FFEFFFF00380140FFFFFF01F369FFFFF7
:101DC000FFCFFFFFFFF4FFFFF8B584B005000C0064
:101DD000170000266A20285C20287BD1002C02D026
:101DE000BFB2002F01D1012075E0A8688021490110
:101DF000884207D12869002804D12000C00701D5F6
:101E0000012068E06820285C012801D1022062E0FE
:101E10000120682168540020E86622206A21685465
:101E2000FFF712FA019058202F525A202F52A8681B
:101E30008021490188420AD12869002803D12D4810
:101E40005C21685210E0FF205C2168520CE0A86819
:101E5000002809D12869002803D1FF205C2168529D
:101E600002E07F205C2168525C202E5A5A20285ABA
:101E7000002827D05A20285A401E5A216852049818
:101E80000090019B002220212800FFF701FE00287E
:101E900001D003201FE0A8688021490188420AD1AF
:101EA0002869002807D102942868808C3040029964
:101EB0000880A41CDAE72868808C3100014021707A
:101EC000641CD3E720206A216854002068216854EC
:101ED000002000E0022005B0F0BD000030100240FC
:101EE000004400400048E801F0FF00000024F40036
:101EF000FFB7FFFFFF010000FCB583B005000C0039
:101F000000266920285C20286CD1002C03D068466C
:101F10008089002801D1012065E0A868802149015D
:101F2000884207D12869002804D12000C00701D5C4
:101F3000012058E06820285C012801D1022052E0ED
:101F40000120682168540020E86621206921685436
:101F5000FFF77AF907006846808950216852684681
:101F60008089522168525220285A002826D05220B7
:101F7000285A401E52216852049800903B000022CB
:101F800080212800FFF784FD002801D003202AE0EB
:101F9000A8688021490188420BD12869002808D10E
:101FA000019401980088C005C00D29680885A41C0B
:101FB000D9E7207829680885641CD4E70498009044
:101FC0003B00002240212800FFF762FD002801D0DD
:101FD000032008E02020692168540020682168540B
:101FE000002000E0022005B0F0BD000070B5030045
:101FF00000249C424DDA022060430D5C02206043C5
:1020000008184678F6B2302E06DBF6B23A2E03DA1E
:1020100030003038105515E0F6B2412E06DBF6B22E
:10202000472E03DA3000373810550BE0F6B2612E38
:1020300006DBF6B2672E03DA30005738105501E0A0
:10204000012027E0EDB2302D07DBEDB23A2D04DAA6
:10205000105D2D010543155519E0EDB2412D08DB4A
:10206000EDB2472D05DA105D373D2D0105431555BD
:102070000DE0EDB2612D08DBEDB2672D05DA105DE4
:10208000573D2D010543155501E0012002E0641C78
:10209000AFE7002070BD01000020704780B54C4ABA
:1020A0000021762000F001F801BD30B50300494859
:1020B00000680B2801DB01201DE0412901D301202C
:1020C00019E04548434C24680C256C4303554248AD
:1020D000404C24680C256C43001941603E483D4C3F
:1020E00024680C256C43001982603A480068401C43
:1020F000384C2060002030BD70B5B2B000F015F94A
:102100000600002433480068844209DA32480C2172
:102110006143405C3100C9B2884201D0641CF1E7E0
:102120002C480068844232D000252B480C216143A2
:10213000401840680221484385420DD200F0F5F86E
:102140000600F6B20A2E02D0F6B20D2E00D11EE025
:1021500011A846556D1CE8E700F0E7F80500EDB260
:102160000A2D02D0EDB20D2D11D101AA11A91A48E4
:102170000C236343C0184068FFF738FF002806D1DE
:1021800001A815490C22624389188968884732B032
:1021900070BDF8B504000F0015002000C0B200F0BB
:1021A000D0F80026BE420EDA0C48A95D0911405C49
:1021B00000F0C7F80948A95D0907090F405C00F065
:1021C000C0F8761CEEE70A2000F0BBF8F1BD000075
:1021D000972000084824002034230020000000201D
:1021E00000B591B0032004900520059000200790D1
:1021F00000200D9004A8FFF737F807200090012079
:102200000190002002900020039000216846FFF713
:102210008DFA11B000BD00B587B05048006880212C
:10222000890201434D4801604C48006880218902C1
:10223000084000900098C020C00001900220029049
:1022400001200390032004900120059001A9902013
:10225000C005FFF723FB424800688021C901014304
:102260003F4801603E4800688021C9010840009055
:1022700000983C4800680321884301210143394804
:1022800001603948394908609620000237494860A2
:1022900000203649886000203449C8600020334956
:1022A00008610020314988610C20304948612F487D
:1022B000FFF748FD07B000BD00B587B027480068AC
:1022C000802189020143254801602448006880215B
:1022D0008902084000900098802040010190012070
:1022E0000290002003900320049001A99020C005D3
:1022F000FFF7D4FA0022802149019020C005FFF7A2
:10230000BDFB07B000BD80B50122802149019020AE
:10231000C005FFF7B3FB01BD80B500228021490154
:102320009020C005FFF7AAFB01BD80B5104B01222C
:1023300069460E48FFF748FD0028F7D16846007847
:1023400002BD10B582B0040068460470084B01223B
:1023500069460648FFF7D0FD13BD00001410024087
:10236000181002403010024000380140AC23002019
:102370008813000010B50400200000F05AF8002077
:1023800010BD10B50400FFF7BEFF200000F059F8A3
:10239000FFF7C2FF220010217220FFF7FAFE002093
:1023A00010BD01000020704700B585B068461A498D
:1023B000102200F051F8FFF713FFFFF72CFFFFF793
:1023C0007BFF00F031F8684600F033F86820FFF733
:1023D000B8FF6520FFF7B5FF6C20FFF7B2FF6C2058
:1023E000FFF7AFFF6F20FFF7ACFF0A20FFF7A9FF51
:1023F000FFF754FE094A10216B20FFF756FE084AEA
:1024000010217020FFF751FE064A00217820FFF7C7
:102410004CFEFFF771FEFCE7E0250008752300087D
:1024200083230008A323000880B50A48FDF752FF64
:1024300001BD10B50400802221000648FDF755FFBC
:1024400010BD10B504002300220001210148FEF751
:102450004DFE10BD1C20002070B4103A03D378C983
:10246000103A78C0FBD2530701D318C918C001D560
:1024700008C908C0D20704D30B880380891C801CBC
:10248000002A01D50B78037070BC704770B401004E
:102490000123002413E00A68091D1A4202D04D46A8
:1024A0006D1E52191460121D001F0428FAD2150067
:1024B000860701D51480AD1C184000D02C70086828
:1024C000091D0028E7D1080070BC704730B4012214
:1024D0000168001D00290FD00368C3184468083044
:1024E000144202D04D466D1E64191D6825601B1DE7
:1024F000241D091FECD0F8E730BC704710B500F080
:1025000013F802000023DB4300241068984203D034
:1025100011000220ABBE14605068984203D0111D18
:102520000220ABBE546010BD00487047140000206C
:1025300010B5074979441831064C7C44163404E040
:10254000081D0A68891888470100A142F8D110BD0A
:10255000080000002800000035FFFFFF34240000C1
:102560001C0000200000000065FFFFFF1C000000B1
:102570000C00000000000020000000003031323369
:1025800034353637383941424344454600127A00E3
:10259000FFFFFFFFFFFFFFFF00F00BF8002801D057
:1025A000FFF7C6FF002000BF00BFFFF7FDFE00F0F1
:1025B00002F80120704780B500F002F801BD00006C
:1025C0000746384600F002F8FBE7000080B5FFF749
:1025D00095FF024A11001820ABBEFBE7260002005F
:1025E0002B7E151628AED2A6ABF7158809CF4F3C27
:0C25F00000BF00BF00BF00BFFFF7CEFF20
:04000005080025F1D9
:00000001FF
